{
  "_format": "hh-sol-artifact-1",
  "contractName": "CloneableNFT",
  "sourceName": "contracts/ClonableNFT.sol",
  "abi": [
    {
      "inputs": [
        {
          "internalType": "string",
          "name": "name",
          "type": "string"
        },
        {
          "internalType": "string",
          "name": "symbol",
          "type": "string"
        }
      ],
      "stateMutability": "nonpayable",
      "type": "constructor"
    },
    {
      "anonymous": false,
      "inputs": [
        {
          "indexed": true,
          "internalType": "address",
          "name": "owner",
          "type": "address"
        },
        {
          "indexed": true,
          "internalType": "address",
          "name": "approved",
          "type": "address"
        },
        {
          "indexed": true,
          "internalType": "uint256",
          "name": "tokenId",
          "type": "uint256"
        }
      ],
      "name": "Approval",
      "type": "event"
    },
    {
      "anonymous": false,
      "inputs": [
        {
          "indexed": true,
          "internalType": "address",
          "name": "owner",
          "type": "address"
        },
        {
          "indexed": true,
          "internalType": "address",
          "name": "operator",
          "type": "address"
        },
        {
          "indexed": false,
          "internalType": "bool",
          "name": "approved",
          "type": "bool"
        }
      ],
      "name": "ApprovalForAll",
      "type": "event"
    },
    {
      "anonymous": false,
      "inputs": [
        {
          "indexed": true,
          "internalType": "address",
          "name": "previousOwner",
          "type": "address"
        },
        {
          "indexed": true,
          "internalType": "address",
          "name": "newOwner",
          "type": "address"
        }
      ],
      "name": "OwnershipTransferred",
      "type": "event"
    },
    {
      "anonymous": false,
      "inputs": [
        {
          "indexed": true,
          "internalType": "address",
          "name": "from",
          "type": "address"
        },
        {
          "indexed": true,
          "internalType": "address",
          "name": "to",
          "type": "address"
        },
        {
          "indexed": true,
          "internalType": "uint256",
          "name": "tokenId",
          "type": "uint256"
        }
      ],
      "name": "Transfer",
      "type": "event"
    },
    {
      "inputs": [
        {
          "internalType": "address",
          "name": "to",
          "type": "address"
        },
        {
          "internalType": "uint256",
          "name": "tokenId",
          "type": "uint256"
        }
      ],
      "name": "approve",
      "outputs": [],
      "stateMutability": "nonpayable",
      "type": "function"
    },
    {
      "inputs": [
        {
          "internalType": "address",
          "name": "owner",
          "type": "address"
        }
      ],
      "name": "balanceOf",
      "outputs": [
        {
          "internalType": "uint256",
          "name": "",
          "type": "uint256"
        }
      ],
      "stateMutability": "view",
      "type": "function"
    },
    {
      "inputs": [
        {
          "internalType": "uint256",
          "name": "tokenId",
          "type": "uint256"
        }
      ],
      "name": "getApproved",
      "outputs": [
        {
          "internalType": "address",
          "name": "",
          "type": "address"
        }
      ],
      "stateMutability": "view",
      "type": "function"
    },
    {
      "inputs": [
        {
          "internalType": "uint256",
          "name": "tokenId",
          "type": "uint256"
        }
      ],
      "name": "getClonesOfOriginal",
      "outputs": [
        {
          "internalType": "uint256[]",
          "name": "",
          "type": "uint256[]"
        }
      ],
      "stateMutability": "view",
      "type": "function"
    },
    {
      "inputs": [],
      "name": "getContractCreator",
      "outputs": [
        {
          "internalType": "address",
          "name": "",
          "type": "address"
        }
      ],
      "stateMutability": "view",
      "type": "function"
    },
    {
      "inputs": [],
      "name": "getDefaultClonePrice",
      "outputs": [
        {
          "internalType": "uint256",
          "name": "",
          "type": "uint256"
        }
      ],
      "stateMutability": "view",
      "type": "function"
    },
    {
      "inputs": [
        {
          "internalType": "uint256",
          "name": "tokenId",
          "type": "uint256"
        }
      ],
      "name": "getOriginal",
      "outputs": [
        {
          "internalType": "uint256",
          "name": "",
          "type": "uint256"
        }
      ],
      "stateMutability": "view",
      "type": "function"
    },
    {
      "inputs": [
        {
          "internalType": "address",
          "name": "owner",
          "type": "address"
        }
      ],
      "name": "getOwnedTokens",
      "outputs": [
        {
          "internalType": "uint256[]",
          "name": "",
          "type": "uint256[]"
        }
      ],
      "stateMutability": "view",
      "type": "function"
    },
    {
      "inputs": [
        {
          "internalType": "uint256",
          "name": "tokenId",
          "type": "uint256"
        }
      ],
      "name": "getTokenCreator",
      "outputs": [
        {
          "internalType": "address",
          "name": "",
          "type": "address"
        }
      ],
      "stateMutability": "view",
      "type": "function"
    },
    {
      "inputs": [
        {
          "internalType": "string",
          "name": "_url",
          "type": "string"
        }
      ],
      "name": "getTokenIdByUrl",
      "outputs": [
        {
          "internalType": "uint256",
          "name": "",
          "type": "uint256"
        }
      ],
      "stateMutability": "view",
      "type": "function"
    },
    {
      "inputs": [],
      "name": "getTotalMintClonedTokens",
      "outputs": [
        {
          "internalType": "uint256",
          "name": "",
          "type": "uint256"
        }
      ],
      "stateMutability": "view",
      "type": "function"
    },
    {
      "inputs": [],
      "name": "getTotalMintOriginalTokens",
      "outputs": [
        {
          "internalType": "uint256",
          "name": "",
          "type": "uint256"
        }
      ],
      "stateMutability": "view",
      "type": "function"
    },
    {
      "inputs": [],
      "name": "getTotalMintedTokens",
      "outputs": [
        {
          "internalType": "uint256",
          "name": "",
          "type": "uint256"
        }
      ],
      "stateMutability": "view",
      "type": "function"
    },
    {
      "inputs": [
        {
          "internalType": "address",
          "name": "owner",
          "type": "address"
        },
        {
          "internalType": "address",
          "name": "operator",
          "type": "address"
        }
      ],
      "name": "isApprovedForAll",
      "outputs": [
        {
          "internalType": "bool",
          "name": "",
          "type": "bool"
        }
      ],
      "stateMutability": "view",
      "type": "function"
    },
    {
      "inputs": [
        {
          "internalType": "uint256",
          "name": "tokenId",
          "type": "uint256"
        }
      ],
      "name": "isClone",
      "outputs": [
        {
          "internalType": "bool",
          "name": "",
          "type": "bool"
        }
      ],
      "stateMutability": "view",
      "type": "function"
    },
    {
      "inputs": [
        {
          "internalType": "uint256",
          "name": "tokenId",
          "type": "uint256"
        },
        {
          "internalType": "string",
          "name": "_url",
          "type": "string"
        }
      ],
      "name": "mintClone",
      "outputs": [],
      "stateMutability": "payable",
      "type": "function"
    },
    {
      "inputs": [
        {
          "internalType": "string",
          "name": "_tokenURI",
          "type": "string"
        },
        {
          "internalType": "string",
          "name": "_url",
          "type": "string"
        }
      ],
      "name": "mintNFT",
      "outputs": [],
      "stateMutability": "nonpayable",
      "type": "function"
    },
    {
      "inputs": [],
      "name": "name",
      "outputs": [
        {
          "internalType": "string",
          "name": "",
          "type": "string"
        }
      ],
      "stateMutability": "view",
      "type": "function"
    },
    {
      "inputs": [],
      "name": "owner",
      "outputs": [
        {
          "internalType": "address",
          "name": "",
          "type": "address"
        }
      ],
      "stateMutability": "view",
      "type": "function"
    },
    {
      "inputs": [
        {
          "internalType": "uint256",
          "name": "tokenId",
          "type": "uint256"
        }
      ],
      "name": "ownerOf",
      "outputs": [
        {
          "internalType": "address",
          "name": "",
          "type": "address"
        }
      ],
      "stateMutability": "view",
      "type": "function"
    },
    {
      "inputs": [],
      "name": "renounceOwnership",
      "outputs": [],
      "stateMutability": "nonpayable",
      "type": "function"
    },
    {
      "inputs": [
        {
          "internalType": "address",
          "name": "from",
          "type": "address"
        },
        {
          "internalType": "address",
          "name": "to",
          "type": "address"
        },
        {
          "internalType": "uint256",
          "name": "tokenId",
          "type": "uint256"
        }
      ],
      "name": "safeTransferFrom",
      "outputs": [],
      "stateMutability": "nonpayable",
      "type": "function"
    },
    {
      "inputs": [
        {
          "internalType": "address",
          "name": "from",
          "type": "address"
        },
        {
          "internalType": "address",
          "name": "to",
          "type": "address"
        },
        {
          "internalType": "uint256",
          "name": "tokenId",
          "type": "uint256"
        },
        {
          "internalType": "bytes",
          "name": "data",
          "type": "bytes"
        }
      ],
      "name": "safeTransferFrom",
      "outputs": [],
      "stateMutability": "nonpayable",
      "type": "function"
    },
    {
      "inputs": [
        {
          "internalType": "address",
          "name": "operator",
          "type": "address"
        },
        {
          "internalType": "bool",
          "name": "approved",
          "type": "bool"
        }
      ],
      "name": "setApprovalForAll",
      "outputs": [],
      "stateMutability": "nonpayable",
      "type": "function"
    },
    {
      "inputs": [
        {
          "internalType": "uint256",
          "name": "tokenId",
          "type": "uint256"
        },
        {
          "internalType": "uint256",
          "name": "newPrice",
          "type": "uint256"
        }
      ],
      "name": "setClonePrice",
      "outputs": [],
      "stateMutability": "nonpayable",
      "type": "function"
    },
    {
      "inputs": [
        {
          "internalType": "uint256",
          "name": "newPrice",
          "type": "uint256"
        }
      ],
      "name": "setDefaultClonePrice",
      "outputs": [],
      "stateMutability": "nonpayable",
      "type": "function"
    },
    {
      "inputs": [
        {
          "internalType": "bytes4",
          "name": "interfaceId",
          "type": "bytes4"
        }
      ],
      "name": "supportsInterface",
      "outputs": [
        {
          "internalType": "bool",
          "name": "",
          "type": "bool"
        }
      ],
      "stateMutability": "view",
      "type": "function"
    },
    {
      "inputs": [],
      "name": "symbol",
      "outputs": [
        {
          "internalType": "string",
          "name": "",
          "type": "string"
        }
      ],
      "stateMutability": "view",
      "type": "function"
    },
    {
      "inputs": [
        {
          "internalType": "uint256",
          "name": "tokenId",
          "type": "uint256"
        }
      ],
      "name": "tokenURI",
      "outputs": [
        {
          "internalType": "string",
          "name": "",
          "type": "string"
        }
      ],
      "stateMutability": "view",
      "type": "function"
    },
    {
      "inputs": [
        {
          "internalType": "address",
          "name": "from",
          "type": "address"
        },
        {
          "internalType": "address",
          "name": "to",
          "type": "address"
        },
        {
          "internalType": "uint256",
          "name": "tokenId",
          "type": "uint256"
        }
      ],
      "name": "transferFrom",
      "outputs": [],
      "stateMutability": "nonpayable",
      "type": "function"
    },
    {
      "inputs": [
        {
          "internalType": "address",
          "name": "newOwner",
          "type": "address"
        }
      ],
      "name": "transferOwnership",
      "outputs": [],
      "stateMutability": "nonpayable",
      "type": "function"
    },
    {
      "inputs": [],
      "name": "withdraw",
      "outputs": [],
      "stateMutability": "nonpayable",
      "type": "function"
    }
  ],
  "bytecode": "0x6080604052662386f26fc100006009553480156200001c57600080fd5b50604051620048d0380380620048d08339818101604052810190620000429190620002d1565b818181600090805190602001906200005c929190620001af565b50806001908051906020019062000075929190620001af565b505050620000986200008c620000e160201b60201c565b620000e960201b60201c565b33600f60006101000a81548173ffffffffffffffffffffffffffffffffffffffff021916908373ffffffffffffffffffffffffffffffffffffffff1602179055505050620004b4565b600033905090565b6000600760009054906101000a900473ffffffffffffffffffffffffffffffffffffffff16905081600760006101000a81548173ffffffffffffffffffffffffffffffffffffffff021916908373ffffffffffffffffffffffffffffffffffffffff1602179055508173ffffffffffffffffffffffffffffffffffffffff168173ffffffffffffffffffffffffffffffffffffffff167f8be0079c531659141344cd1fd0a4f28419497f9722a3daafe3b4186f6b6457e060405160405180910390a35050565b828054620001bd90620003d9565b90600052602060002090601f016020900481019282620001e157600085556200022d565b82601f10620001fc57805160ff19168380011785556200022d565b828001600101855582156200022d579182015b828111156200022c5782518255916020019190600101906200020f565b5b5090506200023c919062000240565b5090565b5b808211156200025b57600081600090555060010162000241565b5090565b60006200027662000270846200036d565b62000344565b9050828152602081018484840111156200028f57600080fd5b6200029c848285620003a3565b509392505050565b600082601f830112620002b657600080fd5b8151620002c88482602086016200025f565b91505092915050565b60008060408385031215620002e557600080fd5b600083015167ffffffffffffffff8111156200030057600080fd5b6200030e85828601620002a4565b925050602083015167ffffffffffffffff8111156200032c57600080fd5b6200033a85828601620002a4565b9150509250929050565b60006200035062000363565b90506200035e82826200040f565b919050565b6000604051905090565b600067ffffffffffffffff8211156200038b576200038a62000474565b5b6200039682620004a3565b9050602081019050919050565b60005b83811015620003c3578082015181840152602081019050620003a6565b83811115620003d3576000848401525b50505050565b60006002820490506001821680620003f257607f821691505b6020821081141562000409576200040862000445565b5b50919050565b6200041a82620004a3565b810181811067ffffffffffffffff821117156200043c576200043b62000474565b5b80604052505050565b7f4e487b7100000000000000000000000000000000000000000000000000000000600052602260045260246000fd5b7f4e487b7100000000000000000000000000000000000000000000000000000000600052604160045260246000fd5b6000601f19601f8301169050919050565b61440c80620004c46000396000f3fe6080604052600436106101e35760003560e01c8063715018a611610102578063c6af112211610095578063e985e9c511610064578063e985e9c51461071d578063ef74248d1461075a578063f2fde38b14610783578063f67a769c146107ac576101e3565b8063c6af11221461064f578063c87b56dd1461067a578063d9d61655146106b7578063e9605544146106f4576101e3565b806395d89b41116100d157806395d89b4114610595578063a22cb465146105c0578063b88d4fde146105e9578063bc8c778f14610612576101e3565b8063715018a6146104eb5780637d5298b9146105025780638da5cb5b1461052d578063934689a914610558576101e3565b80632aa2e90a1161017a5780634da6de3f116101495780634da6de3f146104095780636352211e14610434578063639032cc1461047157806370a08231146104ae576101e3565b80632aa2e90a14610370578063385eda9c1461038c5780633ccfd60b146103c957806342842e0e146103e0576101e3565b80630e258726116101b65780630e258726146102b65780631741f3e2146102e15780631a2b285e1461031e57806323b872dd14610347576101e3565b806301ffc9a7146101e857806306fdde0314610225578063081812fc14610250578063095ea7b31461028d575b600080fd5b3480156101f457600080fd5b5061020f600480360381019061020a9190613100565b6107d7565b60405161021c91906137d3565b60405180910390f35b34801561023157600080fd5b5061023a6108b9565b60405161024791906137ee565b60405180910390f35b34801561025c57600080fd5b50610277600480360381019061027291906131ff565b61094b565b604051610284919061374a565b60405180910390f35b34801561029957600080fd5b506102b460048036038101906102af91906130c4565b610991565b005b3480156102c257600080fd5b506102cb610aa9565b6040516102d8919061374a565b60405180910390f35b3480156102ed57600080fd5b5061030860048036038101906103039190613152565b610ad3565b6040516103159190613ad0565b60405180910390f35b34801561032a57600080fd5b50610345600480360381019061034091906131ff565b610b5c565b005b34801561035357600080fd5b5061036e60048036038101906103699190612fbe565b610b6e565b005b61038a60048036038101906103859190613228565b610bce565b005b34801561039857600080fd5b506103b360048036038101906103ae91906131ff565b610eef565b6040516103c091906137d3565b60405180910390f35b3480156103d557600080fd5b506103de610f19565b005b3480156103ec57600080fd5b5061040760048036038101906104029190612fbe565b610f71565b005b34801561041557600080fd5b5061041e610f91565b60405161042b9190613ad0565b60405180910390f35b34801561044057600080fd5b5061045b600480360381019061045691906131ff565b610f9b565b604051610468919061374a565b60405180910390f35b34801561047d57600080fd5b50610498600480360381019061049391906131ff565b611022565b6040516104a591906137b1565b60405180910390f35b3480156104ba57600080fd5b506104d560048036038101906104d09190612f59565b6110ee565b6040516104e29190613ad0565b60405180910390f35b3480156104f757600080fd5b506105006111a6565b005b34801561050e57600080fd5b506105176111ba565b6040516105249190613ad0565b60405180910390f35b34801561053957600080fd5b506105426111c4565b60405161054f919061374a565b60405180910390f35b34801561056457600080fd5b5061057f600480360381019061057a91906131ff565b6111ee565b60405161058c919061374a565b60405180910390f35b3480156105a157600080fd5b506105aa611273565b6040516105b791906137ee565b60405180910390f35b3480156105cc57600080fd5b506105e760048036038101906105e29190613088565b611305565b005b3480156105f557600080fd5b50610610600480360381019061060b919061300d565b61131b565b005b34801561061e57600080fd5b50610639600480360381019061063491906131ff565b61137d565b6040516106469190613ad0565b60405180910390f35b34801561065b57600080fd5b506106646113fa565b6040516106719190613ad0565b60405180910390f35b34801561068657600080fd5b506106a1600480360381019061069c91906131ff565b611404565b6040516106ae91906137ee565b60405180910390f35b3480156106c357600080fd5b506106de60048036038101906106d99190612f59565b611416565b6040516106eb91906137b1565b60405180910390f35b34801561070057600080fd5b5061071b60048036038101906107169190613193565b6114ad565b005b34801561072957600080fd5b50610744600480360381019061073f9190612f82565b611673565b60405161075191906137d3565b60405180910390f35b34801561076657600080fd5b50610781600480360381019061077c919061327c565b611707565b005b34801561078f57600080fd5b506107aa60048036038101906107a59190612f59565b61172b565b005b3480156107b857600080fd5b506107c16117af565b6040516107ce9190613ad0565b60405180910390f35b60007f80ac58cd000000000000000000000000000000000000000000000000000000007bffffffffffffffffffffffffffffffffffffffffffffffffffffffff1916827bffffffffffffffffffffffffffffffffffffffffffffffffffffffff191614806108a257507f5b5e139f000000000000000000000000000000000000000000000000000000007bffffffffffffffffffffffffffffffffffffffffffffffffffffffff1916827bffffffffffffffffffffffffffffffffffffffffffffffffffffffff1916145b806108b257506108b1826117c6565b5b9050919050565b6060600080546108c890613d2e565b80601f01602080910402602001604051908101604052809291908181526020018280546108f490613d2e565b80156109415780601f1061091657610100808354040283529160200191610941565b820191906000526020600020905b81548152906001019060200180831161092457829003601f168201915b5050505050905090565b600061095682611830565b6004600083815260200190815260200160002060009054906101000a900473ffffffffffffffffffffffffffffffffffffffff169050919050565b600061099c82610f9b565b90508073ffffffffffffffffffffffffffffffffffffffff168373ffffffffffffffffffffffffffffffffffffffff161415610a0d576040517f08c379a0000000000000000000000000000000000000000000000000000000008152600401610a0490613a90565b60405180910390fd5b8073ffffffffffffffffffffffffffffffffffffffff16610a2c61187b565b73ffffffffffffffffffffffffffffffffffffffff161480610a5b5750610a5a81610a5561187b565b611673565b5b610a9a576040517f08c379a0000000000000000000000000000000000000000000000000000000008152600401610a9190613ab0565b60405180910390fd5b610aa48383611883565b505050565b6000600f60009054906101000a900473ffffffffffffffffffffffffffffffffffffffff16905090565b600080600d83604051610ae6919061370f565b9081526020016040518091039020541415610b36576040517f08c379a0000000000000000000000000000000000000000000000000000000008152600401610b2d90613a50565b60405180910390fd5b600d82604051610b46919061370f565b9081526020016040518091039020549050919050565b610b6461193c565b8060098190555050565b610b7f610b7961187b565b826119ba565b610bbe576040517f08c379a0000000000000000000000000000000000000000000000000000000008152600401610bb590613810565b60405180910390fd5b610bc9838383611a4f565b505050565b6000600d82604051610be0919061370f565b90815260200160405180910390205414610c2f576040517f08c379a0000000000000000000000000000000000000000000000000000000008152600401610c26906139d0565b60405180910390fd5b610c3882611d94565b610c77576040517f08c379a0000000000000000000000000000000000000000000000000000000008152600401610c6e90613a70565b60405180910390fd5b600a600083815260200190815260200160002060009054906101000a900460ff1615610cd8576040517f08c379a0000000000000000000000000000000000000000000000000000000008152600401610ccf90613910565b60405180910390fd5b600080600c60008581526020019081526020016000205411610cfc57600954610d11565b600c6000848152602001908152602001600020545b905080341015610d56576040517f08c379a0000000000000000000000000000000000000000000000000000000008152600401610d4d90613930565b60405180910390fd5b610d606008611dd5565b6000610d6c6008611deb565b9050610d783382611df9565b6001600a600083815260200190815260200160002060006101000a81548160ff02191690831515021790555083600b60008381526020019081526020016000208190555080600d84604051610dcd919061370f565b90815260200160405180910390208190555060116000858152602001908152602001600020819080600181540180825580915050600190039060005260206000200160009091909190915055601060003373ffffffffffffffffffffffffffffffffffffffff1673ffffffffffffffffffffffffffffffffffffffff16815260200190815260200160002081908060018154018082558091505060019003906000526020600020016000909190919091505560136000815480929190610e9290613d91565b919050555033600e600083815260200190815260200160002060006101000a81548173ffffffffffffffffffffffffffffffffffffffff021916908373ffffffffffffffffffffffffffffffffffffffff16021790555050505050565b6000600a600083815260200190815260200160002060009054906101000a900460ff169050919050565b610f2161193c565b610f296111c4565b73ffffffffffffffffffffffffffffffffffffffff166108fc479081150290604051600060405180830381858888f19350505050158015610f6e573d6000803e3d6000fd5b50565b610f8c8383836040518060200160405280600081525061131b565b505050565b6000601254905090565b600080610fa783611e17565b9050600073ffffffffffffffffffffffffffffffffffffffff168173ffffffffffffffffffffffffffffffffffffffff161415611019576040517f08c379a000000000000000000000000000000000000000000000000000000000815260040161101090613a30565b60405180910390fd5b80915050919050565b6060600a600083815260200190815260200160002060009054906101000a900460ff1615611085576040517f08c379a000000000000000000000000000000000000000000000000000000000815260040161107c90613830565b60405180910390fd5b601160008381526020019081526020016000208054806020026020016040519081016040528092919081815260200182805480156110e257602002820191906000526020600020905b8154815260200190600101908083116110ce575b50505050509050919050565b60008073ffffffffffffffffffffffffffffffffffffffff168273ffffffffffffffffffffffffffffffffffffffff16141561115f576040517f08c379a000000000000000000000000000000000000000000000000000000000815260040161115690613990565b60405180910390fd5b600360008373ffffffffffffffffffffffffffffffffffffffff1673ffffffffffffffffffffffffffffffffffffffff168152602001908152602001600020549050919050565b6111ae61193c565b6111b86000611e54565b565b6000601354905090565b6000600760009054906101000a900473ffffffffffffffffffffffffffffffffffffffff16905090565b60006111f982611d94565b611238576040517f08c379a000000000000000000000000000000000000000000000000000000000815260040161122f90613950565b60405180910390fd5b600e600083815260200190815260200160002060009054906101000a900473ffffffffffffffffffffffffffffffffffffffff169050919050565b60606001805461128290613d2e565b80601f01602080910402602001604051908101604052809291908181526020018280546112ae90613d2e565b80156112fb5780601f106112d0576101008083540402835291602001916112fb565b820191906000526020600020905b8154815290600101906020018083116112de57829003601f168201915b5050505050905090565b61131761131061187b565b8383611f1a565b5050565b61132c61132661187b565b836119ba565b61136b576040517f08c379a000000000000000000000000000000000000000000000000000000000815260040161136290613810565b60405180910390fd5b61137784848484612087565b50505050565b6000600a600083815260200190815260200160002060009054906101000a900460ff166113df576040517f08c379a00000000000000000000000000000000000000000000000000000000081526004016113d690613970565b60405180910390fd5b600b6000838152602001908152602001600020549050919050565b6000600954905090565b606061140f826120e3565b9050919050565b6060601060008373ffffffffffffffffffffffffffffffffffffffff1673ffffffffffffffffffffffffffffffffffffffff1681526020019081526020016000208054806020026020016040519081016040528092919081815260200182805480156114a157602002820191906000526020600020905b81548152602001906001019080831161148d575b50505050509050919050565b6114b561193c565b6000600d826040516114c7919061370f565b90815260200160405180910390205414611516576040517f08c379a000000000000000000000000000000000000000000000000000000000815260040161150d906139d0565b60405180910390fd5b6115206008611dd5565b600061152a6111c4565b905060006115386008611deb565b905061154482826121f6565b6000600a600083815260200190815260200160002060006101000a81548160ff02191690831515021790555061157a8185612414565b80600d8460405161158b919061370f565b908152602001604051809103902081905550601060008373ffffffffffffffffffffffffffffffffffffffff1673ffffffffffffffffffffffffffffffffffffffff1681526020019081526020016000208190806001815401808255809150506001900390600052602060002001600090919091909150556012600081548092919061161690613d91565b919050555081600e600083815260200190815260200160002060006101000a81548173ffffffffffffffffffffffffffffffffffffffff021916908373ffffffffffffffffffffffffffffffffffffffff16021790555050505050565b6000600560008473ffffffffffffffffffffffffffffffffffffffff1673ffffffffffffffffffffffffffffffffffffffff16815260200190815260200160002060008373ffffffffffffffffffffffffffffffffffffffff1673ffffffffffffffffffffffffffffffffffffffff16815260200190815260200160002060009054906101000a900460ff16905092915050565b61170f61193c565b80600c6000848152602001908152602001600020819055505050565b61173361193c565b600073ffffffffffffffffffffffffffffffffffffffff168173ffffffffffffffffffffffffffffffffffffffff1614156117a3576040517f08c379a000000000000000000000000000000000000000000000000000000000815260040161179a90613870565b60405180910390fd5b6117ac81611e54565b50565b60006013546012546117c19190613bee565b905090565b60007f01ffc9a7000000000000000000000000000000000000000000000000000000007bffffffffffffffffffffffffffffffffffffffffffffffffffffffff1916827bffffffffffffffffffffffffffffffffffffffffffffffffffffffff1916149050919050565b61183981611d94565b611878576040517f08c379a000000000000000000000000000000000000000000000000000000000815260040161186f90613a30565b60405180910390fd5b50565b600033905090565b816004600083815260200190815260200160002060006101000a81548173ffffffffffffffffffffffffffffffffffffffff021916908373ffffffffffffffffffffffffffffffffffffffff160217905550808273ffffffffffffffffffffffffffffffffffffffff166118f683610f9b565b73ffffffffffffffffffffffffffffffffffffffff167f8c5be1e5ebec7d5bd14f71427d1e84f3dd0314c0f7b2291e5b200ac8c7c3b92560405160405180910390a45050565b61194461187b565b73ffffffffffffffffffffffffffffffffffffffff166119626111c4565b73ffffffffffffffffffffffffffffffffffffffff16146119b8576040517f08c379a00000000000000000000000000000000000000000000000000000000081526004016119af90613a10565b60405180910390fd5b565b6000806119c683610f9b565b90508073ffffffffffffffffffffffffffffffffffffffff168473ffffffffffffffffffffffffffffffffffffffff161480611a085750611a078185611673565b5b80611a4657508373ffffffffffffffffffffffffffffffffffffffff16611a2e8461094b565b73ffffffffffffffffffffffffffffffffffffffff16145b91505092915050565b611a5a838383612488565b60005b601060008573ffffffffffffffffffffffffffffffffffffffff1673ffffffffffffffffffffffffffffffffffffffff16815260200190815260200160002080549050811015611d285781601060008673ffffffffffffffffffffffffffffffffffffffff1673ffffffffffffffffffffffffffffffffffffffff1681526020019081526020016000208281548110611b1f577f4e487b7100000000000000000000000000000000000000000000000000000000600052603260045260246000fd5b90600052602060002001541415611d1557601060008573ffffffffffffffffffffffffffffffffffffffff1673ffffffffffffffffffffffffffffffffffffffff1681526020019081526020016000206001601060008773ffffffffffffffffffffffffffffffffffffffff1673ffffffffffffffffffffffffffffffffffffffff16815260200190815260200160002080549050611bbe9190613c44565b81548110611bf5577f4e487b7100000000000000000000000000000000000000000000000000000000600052603260045260246000fd5b9060005260206000200154601060008673ffffffffffffffffffffffffffffffffffffffff1673ffffffffffffffffffffffffffffffffffffffff1681526020019081526020016000208281548110611c77577f4e487b7100000000000000000000000000000000000000000000000000000000600052603260045260246000fd5b9060005260206000200181905550601060008573ffffffffffffffffffffffffffffffffffffffff1673ffffffffffffffffffffffffffffffffffffffff168152602001908152602001600020805480611cfa577f4e487b7100000000000000000000000000000000000000000000000000000000600052603160045260246000fd5b60019003818190600052602060002001600090559055611d28565b8080611d2090613d91565b915050611a5d565b50601060008373ffffffffffffffffffffffffffffffffffffffff1673ffffffffffffffffffffffffffffffffffffffff168152602001908152602001600020819080600181540180825580915050600190039060005260206000200160009091909190915055505050565b60008073ffffffffffffffffffffffffffffffffffffffff16611db683611e17565b73ffffffffffffffffffffffffffffffffffffffff1614159050919050565b6001816000016000828254019250508190555050565b600081600001549050919050565b611e13828260405180602001604052806000815250612782565b5050565b60006002600083815260200190815260200160002060009054906101000a900473ffffffffffffffffffffffffffffffffffffffff169050919050565b6000600760009054906101000a900473ffffffffffffffffffffffffffffffffffffffff16905081600760006101000a81548173ffffffffffffffffffffffffffffffffffffffff021916908373ffffffffffffffffffffffffffffffffffffffff1602179055508173ffffffffffffffffffffffffffffffffffffffff168173ffffffffffffffffffffffffffffffffffffffff167f8be0079c531659141344cd1fd0a4f28419497f9722a3daafe3b4186f6b6457e060405160405180910390a35050565b8173ffffffffffffffffffffffffffffffffffffffff168373ffffffffffffffffffffffffffffffffffffffff161415611f89576040517f08c379a0000000000000000000000000000000000000000000000000000000008152600401611f80906138f0565b60405180910390fd5b80600560008573ffffffffffffffffffffffffffffffffffffffff1673ffffffffffffffffffffffffffffffffffffffff16815260200190815260200160002060008473ffffffffffffffffffffffffffffffffffffffff1673ffffffffffffffffffffffffffffffffffffffff16815260200190815260200160002060006101000a81548160ff0219169083151502179055508173ffffffffffffffffffffffffffffffffffffffff168373ffffffffffffffffffffffffffffffffffffffff167f17307eab39ab6107e8899845ad3d59bd9653f200f220920489ca2b5937696c318360405161207a91906137d3565b60405180910390a3505050565b612092848484611a4f565b61209e848484846127dd565b6120dd576040517f08c379a00000000000000000000000000000000000000000000000000000000081526004016120d490613850565b60405180910390fd5b50505050565b60606120ee82611830565b600060066000848152602001908152602001600020805461210e90613d2e565b80601f016020809104026020016040519081016040528092919081815260200182805461213a90613d2e565b80156121875780601f1061215c57610100808354040283529160200191612187565b820191906000526020600020905b81548152906001019060200180831161216a57829003601f168201915b505050505090506000612198612974565b90506000815114156121ae5781925050506121f1565b6000825111156121e35780826040516020016121cb929190613726565b604051602081830303815290604052925050506121f1565b6121ec8461298b565b925050505b919050565b600073ffffffffffffffffffffffffffffffffffffffff168273ffffffffffffffffffffffffffffffffffffffff161415612266576040517f08c379a000000000000000000000000000000000000000000000000000000000815260040161225d906139f0565b60405180910390fd5b61226f81611d94565b156122af576040517f08c379a00000000000000000000000000000000000000000000000000000000081526004016122a6906138b0565b60405180910390fd5b6122bd6000838360016129f3565b6122c681611d94565b15612306576040517f08c379a00000000000000000000000000000000000000000000000000000000081526004016122fd906138b0565b60405180910390fd5b6001600360008473ffffffffffffffffffffffffffffffffffffffff1673ffffffffffffffffffffffffffffffffffffffff16815260200190815260200160002060008282540192505081905550816002600083815260200190815260200160002060006101000a81548173ffffffffffffffffffffffffffffffffffffffff021916908373ffffffffffffffffffffffffffffffffffffffff160217905550808273ffffffffffffffffffffffffffffffffffffffff16600073ffffffffffffffffffffffffffffffffffffffff167fddf252ad1be2c89b69c2b068fc378daa952ba7f163c4a11628f55a4df523b3ef60405160405180910390a46124106000838360016129f9565b5050565b61241d82611d94565b61245c576040517f08c379a0000000000000000000000000000000000000000000000000000000008152600401612453906139b0565b60405180910390fd5b80600660008481526020019081526020016000209080519060200190612483929190612d7d565b505050565b8273ffffffffffffffffffffffffffffffffffffffff166124a882610f9b565b73ffffffffffffffffffffffffffffffffffffffff16146124fe576040517f08c379a00000000000000000000000000000000000000000000000000000000081526004016124f590613890565b60405180910390fd5b600073ffffffffffffffffffffffffffffffffffffffff168273ffffffffffffffffffffffffffffffffffffffff16141561256e576040517f08c379a0000000000000000000000000000000000000000000000000000000008152600401612565906138d0565b60405180910390fd5b61257b83838360016129f3565b8273ffffffffffffffffffffffffffffffffffffffff1661259b82610f9b565b73ffffffffffffffffffffffffffffffffffffffff16146125f1576040517f08c379a00000000000000000000000000000000000000000000000000000000081526004016125e890613890565b60405180910390fd5b6004600082815260200190815260200160002060006101000a81549073ffffffffffffffffffffffffffffffffffffffff02191690556001600360008573ffffffffffffffffffffffffffffffffffffffff1673ffffffffffffffffffffffffffffffffffffffff168152602001908152602001600020600082825403925050819055506001600360008473ffffffffffffffffffffffffffffffffffffffff1673ffffffffffffffffffffffffffffffffffffffff16815260200190815260200160002060008282540192505081905550816002600083815260200190815260200160002060006101000a81548173ffffffffffffffffffffffffffffffffffffffff021916908373ffffffffffffffffffffffffffffffffffffffff160217905550808273ffffffffffffffffffffffffffffffffffffffff168473ffffffffffffffffffffffffffffffffffffffff167fddf252ad1be2c89b69c2b068fc378daa952ba7f163c4a11628f55a4df523b3ef60405160405180910390a461277d83838360016129f9565b505050565b61278c83836121f6565b61279960008484846127dd565b6127d8576040517f08c379a00000000000000000000000000000000000000000000000000000000081526004016127cf90613850565b60405180910390fd5b505050565b60006127fe8473ffffffffffffffffffffffffffffffffffffffff166129ff565b15612967578373ffffffffffffffffffffffffffffffffffffffff1663150b7a0261282761187b565b8786866040518563ffffffff1660e01b81526004016128499493929190613765565b602060405180830381600087803b15801561286357600080fd5b505af192505050801561289457506040513d601f19601f820116820180604052508101906128919190613129565b60015b612917573d80600081146128c4576040519150601f19603f3d011682016040523d82523d6000602084013e6128c9565b606091505b5060008151141561290f576040517f08c379a000000000000000000000000000000000000000000000000000000000815260040161290690613850565b60405180910390fd5b805181602001fd5b63150b7a0260e01b7bffffffffffffffffffffffffffffffffffffffffffffffffffffffff1916817bffffffffffffffffffffffffffffffffffffffffffffffffffffffff19161491505061296c565b600190505b949350505050565b606060405180602001604052806000815250905090565b606061299682611830565b60006129a0612974565b905060008151116129c057604051806020016040528060008152506129eb565b806129ca84612a22565b6040516020016129db929190613726565b6040516020818303038152906040525b915050919050565b50505050565b50505050565b6000808273ffffffffffffffffffffffffffffffffffffffff163b119050919050565b606060006001612a3184612b46565b01905060008167ffffffffffffffff811115612a76577f4e487b7100000000000000000000000000000000000000000000000000000000600052604160045260246000fd5b6040519080825280601f01601f191660200182016040528015612aa85781602001600182028036833780820191505090505b509050600082602001820190505b600115612b3b578080600190039150507f3031323334353637383961626364656600000000000000000000000000000000600a86061a8153600a8581612b25577f4e487b7100000000000000000000000000000000000000000000000000000000600052601260045260246000fd5b0494506000851415612b3657612b3b565b612ab6565b819350505050919050565b600080600090507a184f03e93ff9f4daa797ed6e38ed64bf6a1f0100000000000000008310612bca577a184f03e93ff9f4daa797ed6e38ed64bf6a1f0100000000000000008381612bc0577f4e487b7100000000000000000000000000000000000000000000000000000000600052601260045260246000fd5b0492506040810190505b6d04ee2d6d415b85acef81000000008310612c2d576d04ee2d6d415b85acef81000000008381612c23577f4e487b7100000000000000000000000000000000000000000000000000000000600052601260045260246000fd5b0492506020810190505b662386f26fc100008310612c8257662386f26fc100008381612c78577f4e487b7100000000000000000000000000000000000000000000000000000000600052601260045260246000fd5b0492506010810190505b6305f5e1008310612cd1576305f5e1008381612cc7577f4e487b7100000000000000000000000000000000000000000000000000000000600052601260045260246000fd5b0492506008810190505b6127108310612d1c576127108381612d12577f4e487b7100000000000000000000000000000000000000000000000000000000600052601260045260246000fd5b0492506004810190505b60648310612d655760648381612d5b577f4e487b7100000000000000000000000000000000000000000000000000000000600052601260045260246000fd5b0492506002810190505b600a8310612d74576001810190505b80915050919050565b828054612d8990613d2e565b90600052602060002090601f016020900481019282612dab5760008555612df2565b82601f10612dc457805160ff1916838001178555612df2565b82800160010185558215612df2579182015b82811115612df1578251825591602001919060010190612dd6565b5b509050612dff9190612e03565b5090565b5b80821115612e1c576000816000905550600101612e04565b5090565b6000612e33612e2e84613b10565b613aeb565b905082815260208101848484011115612e4b57600080fd5b612e56848285613cec565b509392505050565b6000612e71612e6c84613b41565b613aeb565b905082815260208101848484011115612e8957600080fd5b612e94848285613cec565b509392505050565b600081359050612eab8161437a565b92915050565b600081359050612ec081614391565b92915050565b600081359050612ed5816143a8565b92915050565b600081519050612eea816143a8565b92915050565b600082601f830112612f0157600080fd5b8135612f11848260208601612e20565b91505092915050565b600082601f830112612f2b57600080fd5b8135612f3b848260208601612e5e565b91505092915050565b600081359050612f53816143bf565b92915050565b600060208284031215612f6b57600080fd5b6000612f7984828501612e9c565b91505092915050565b60008060408385031215612f9557600080fd5b6000612fa385828601612e9c565b9250506020612fb485828601612e9c565b9150509250929050565b600080600060608486031215612fd357600080fd5b6000612fe186828701612e9c565b9350506020612ff286828701612e9c565b925050604061300386828701612f44565b9150509250925092565b6000806000806080858703121561302357600080fd5b600061303187828801612e9c565b945050602061304287828801612e9c565b935050604061305387828801612f44565b925050606085013567ffffffffffffffff81111561307057600080fd5b61307c87828801612ef0565b91505092959194509250565b6000806040838503121561309b57600080fd5b60006130a985828601612e9c565b92505060206130ba85828601612eb1565b9150509250929050565b600080604083850312156130d757600080fd5b60006130e585828601612e9c565b92505060206130f685828601612f44565b9150509250929050565b60006020828403121561311257600080fd5b600061312084828501612ec6565b91505092915050565b60006020828403121561313b57600080fd5b600061314984828501612edb565b91505092915050565b60006020828403121561316457600080fd5b600082013567ffffffffffffffff81111561317e57600080fd5b61318a84828501612f1a565b91505092915050565b600080604083850312156131a657600080fd5b600083013567ffffffffffffffff8111156131c057600080fd5b6131cc85828601612f1a565b925050602083013567ffffffffffffffff8111156131e957600080fd5b6131f585828601612f1a565b9150509250929050565b60006020828403121561321157600080fd5b600061321f84828501612f44565b91505092915050565b6000806040838503121561323b57600080fd5b600061324985828601612f44565b925050602083013567ffffffffffffffff81111561326657600080fd5b61327285828601612f1a565b9150509250929050565b6000806040838503121561328f57600080fd5b600061329d85828601612f44565b92505060206132ae85828601612f44565b9150509250929050565b60006132c483836136f1565b60208301905092915050565b6132d981613c78565b82525050565b60006132ea82613b82565b6132f48185613bb0565b93506132ff83613b72565b8060005b8381101561333057815161331788826132b8565b975061332283613ba3565b925050600181019050613303565b5085935050505092915050565b61334681613c8a565b82525050565b600061335782613b8d565b6133618185613bc1565b9350613371818560208601613cfb565b61337a81613e67565b840191505092915050565b600061339082613b98565b61339a8185613bd2565b93506133aa818560208601613cfb565b6133b381613e67565b840191505092915050565b60006133c982613b98565b6133d38185613be3565b93506133e3818560208601613cfb565b80840191505092915050565b60006133fc602d83613bd2565b915061340782613e78565b604082019050919050565b600061341f602183613bd2565b915061342a82613ec7565b604082019050919050565b6000613442603283613bd2565b915061344d82613f16565b604082019050919050565b6000613465602683613bd2565b915061347082613f65565b604082019050919050565b6000613488602583613bd2565b915061349382613fb4565b604082019050919050565b60006134ab601c83613bd2565b91506134b682614003565b602082019050919050565b60006134ce602483613bd2565b91506134d98261402c565b604082019050919050565b60006134f1601983613bd2565b91506134fc8261407b565b602082019050919050565b6000613514601483613bd2565b915061351f826140a4565b602082019050919050565b6000613537602083613bd2565b9150613542826140cd565b602082019050919050565b600061355a601483613bd2565b9150613565826140f6565b602082019050919050565b600061357d601483613bd2565b91506135888261411f565b602082019050919050565b60006135a0602983613bd2565b91506135ab82614148565b604082019050919050565b60006135c3602e83613bd2565b91506135ce82614197565b604082019050919050565b60006135e6601283613bd2565b91506135f1826141e6565b602082019050919050565b6000613609602083613bd2565b91506136148261420f565b602082019050919050565b600061362c602083613bd2565b915061363782614238565b602082019050919050565b600061364f601883613bd2565b915061365a82614261565b602082019050919050565b6000613672601283613bd2565b915061367d8261428a565b602082019050919050565b6000613695601083613bd2565b91506136a0826142b3565b602082019050919050565b60006136b8602183613bd2565b91506136c3826142dc565b604082019050919050565b60006136db603d83613bd2565b91506136e68261432b565b604082019050919050565b6136fa81613ce2565b82525050565b61370981613ce2565b82525050565b600061371b82846133be565b915081905092915050565b600061373282856133be565b915061373e82846133be565b91508190509392505050565b600060208201905061375f60008301846132d0565b92915050565b600060808201905061377a60008301876132d0565b61378760208301866132d0565b6137946040830185613700565b81810360608301526137a6818461334c565b905095945050505050565b600060208201905081810360008301526137cb81846132df565b905092915050565b60006020820190506137e8600083018461333d565b92915050565b600060208201905081810360008301526138088184613385565b905092915050565b60006020820190508181036000830152613829816133ef565b9050919050565b6000602082019050818103600083015261384981613412565b9050919050565b6000602082019050818103600083015261386981613435565b9050919050565b6000602082019050818103600083015261388981613458565b9050919050565b600060208201905081810360008301526138a98161347b565b9050919050565b600060208201905081810360008301526138c98161349e565b9050919050565b600060208201905081810360008301526138e9816134c1565b9050919050565b60006020820190508181036000830152613909816134e4565b9050919050565b6000602082019050818103600083015261392981613507565b9050919050565b600060208201905081810360008301526139498161352a565b9050919050565b600060208201905081810360008301526139698161354d565b9050919050565b6000602082019050818103600083015261398981613570565b9050919050565b600060208201905081810360008301526139a981613593565b9050919050565b600060208201905081810360008301526139c9816135b6565b9050919050565b600060208201905081810360008301526139e9816135d9565b9050919050565b60006020820190508181036000830152613a09816135fc565b9050919050565b60006020820190508181036000830152613a298161361f565b9050919050565b60006020820190508181036000830152613a4981613642565b9050919050565b60006020820190508181036000830152613a6981613665565b9050919050565b60006020820190508181036000830152613a8981613688565b9050919050565b60006020820190508181036000830152613aa9816136ab565b9050919050565b60006020820190508181036000830152613ac9816136ce565b9050919050565b6000602082019050613ae56000830184613700565b92915050565b6000613af5613b06565b9050613b018282613d60565b919050565b6000604051905090565b600067ffffffffffffffff821115613b2b57613b2a613e38565b5b613b3482613e67565b9050602081019050919050565b600067ffffffffffffffff821115613b5c57613b5b613e38565b5b613b6582613e67565b9050602081019050919050565b6000819050602082019050919050565b600081519050919050565b600081519050919050565b600081519050919050565b6000602082019050919050565b600082825260208201905092915050565b600082825260208201905092915050565b600082825260208201905092915050565b600081905092915050565b6000613bf982613ce2565b9150613c0483613ce2565b9250827fffffffffffffffffffffffffffffffffffffffffffffffffffffffffffffffff03821115613c3957613c38613dda565b5b828201905092915050565b6000613c4f82613ce2565b9150613c5a83613ce2565b925082821015613c6d57613c6c613dda565b5b828203905092915050565b6000613c8382613cc2565b9050919050565b60008115159050919050565b60007fffffffff0000000000000000000000000000000000000000000000000000000082169050919050565b600073ffffffffffffffffffffffffffffffffffffffff82169050919050565b6000819050919050565b82818337600083830152505050565b60005b83811015613d19578082015181840152602081019050613cfe565b83811115613d28576000848401525b50505050565b60006002820490506001821680613d4657607f821691505b60208210811415613d5a57613d59613e09565b5b50919050565b613d6982613e67565b810181811067ffffffffffffffff82111715613d8857613d87613e38565b5b80604052505050565b6000613d9c82613ce2565b91507fffffffffffffffffffffffffffffffffffffffffffffffffffffffffffffffff821415613dcf57613dce613dda565b5b600182019050919050565b7f4e487b7100000000000000000000000000000000000000000000000000000000600052601160045260246000fd5b7f4e487b7100000000000000000000000000000000000000000000000000000000600052602260045260246000fd5b7f4e487b7100000000000000000000000000000000000000000000000000000000600052604160045260246000fd5b6000601f19601f8301169050919050565b7f4552433732313a2063616c6c6572206973206e6f7420746f6b656e206f776e6560008201527f72206f7220617070726f76656400000000000000000000000000000000000000602082015250565b7f546f6b656e206973206120636c6f6e652c206e6f7420616e206f726967696e6160008201527f6c00000000000000000000000000000000000000000000000000000000000000602082015250565b7f4552433732313a207472616e7366657220746f206e6f6e20455243373231526560008201527f63656976657220696d706c656d656e7465720000000000000000000000000000602082015250565b7f4f776e61626c653a206e6577206f776e657220697320746865207a65726f206160008201527f6464726573730000000000000000000000000000000000000000000000000000602082015250565b7f4552433732313a207472616e736665722066726f6d20696e636f72726563742060008201527f6f776e6572000000000000000000000000000000000000000000000000000000602082015250565b7f4552433732313a20746f6b656e20616c7265616479206d696e74656400000000600082015250565b7f4552433732313a207472616e7366657220746f20746865207a65726f2061646460008201527f7265737300000000000000000000000000000000000000000000000000000000602082015250565b7f4552433732313a20617070726f766520746f2063616c6c657200000000000000600082015250565b7f43616e6e6f7420636c6f6e65206120636c6f6e65000000000000000000000000600082015250565b7f496e73756666696369656e742066756e647320746f206d696e7420636c6f6e65600082015250565b7f546f6b656e20646f6573206e6f74206578697374000000000000000000000000600082015250565b7f546f6b656e206973206e6f74206120636c6f6e65000000000000000000000000600082015250565b7f4552433732313a2061646472657373207a65726f206973206e6f74206120766160008201527f6c6964206f776e65720000000000000000000000000000000000000000000000602082015250565b7f45524337323155524953746f726167653a2055524920736574206f66206e6f6e60008201527f6578697374656e7420746f6b656e000000000000000000000000000000000000602082015250565b7f55524c20616c7265616479206578697374730000000000000000000000000000600082015250565b7f4552433732313a206d696e7420746f20746865207a65726f2061646472657373600082015250565b7f4f776e61626c653a2063616c6c6572206973206e6f7420746865206f776e6572600082015250565b7f4552433732313a20696e76616c696420746f6b656e2049440000000000000000600082015250565b7f55524c20646f6573206e6f742065786973740000000000000000000000000000600082015250565b7f496e76616c696420746f6b656e20494400000000000000000000000000000000600082015250565b7f4552433732313a20617070726f76616c20746f2063757272656e74206f776e6560008201527f7200000000000000000000000000000000000000000000000000000000000000602082015250565b7f4552433732313a20617070726f76652063616c6c6572206973206e6f7420746f60008201527f6b656e206f776e6572206f7220617070726f76656420666f7220616c6c000000602082015250565b61438381613c78565b811461438e57600080fd5b50565b61439a81613c8a565b81146143a557600080fd5b50565b6143b181613c96565b81146143bc57600080fd5b50565b6143c881613ce2565b81146143d357600080fd5b5056fea26469706673582212207f5da23f1b33e5a5e2e93de836a0a283530272a3fe81142456ba03f6425b095664736f6c63430008010033",
  "linkReferences": {},
  "deployedLinkReferences": {}
}