{
  "_format": "hh-sol-artifact-1",
  "contractName": "CloneableNFT",
  "sourceName": "contracts/ClonableNFT.sol",
  "abi": [
    {
      "inputs": [
        {
          "internalType": "string",
          "name": "name",
          "type": "string"
        },
        {
          "internalType": "string",
          "name": "symbol",
          "type": "string"
        },
        {
          "internalType": "string",
          "name": "_description",
          "type": "string"
        },
        {
          "internalType": "uint256",
          "name": "defaultClonePrice",
          "type": "uint256"
        }
      ],
      "stateMutability": "nonpayable",
      "type": "constructor"
    },
    {
      "anonymous": false,
      "inputs": [
        {
          "indexed": true,
          "internalType": "address",
          "name": "owner",
          "type": "address"
        },
        {
          "indexed": true,
          "internalType": "address",
          "name": "approved",
          "type": "address"
        },
        {
          "indexed": true,
          "internalType": "uint256",
          "name": "tokenId",
          "type": "uint256"
        }
      ],
      "name": "Approval",
      "type": "event"
    },
    {
      "anonymous": false,
      "inputs": [
        {
          "indexed": true,
          "internalType": "address",
          "name": "owner",
          "type": "address"
        },
        {
          "indexed": true,
          "internalType": "address",
          "name": "operator",
          "type": "address"
        },
        {
          "indexed": false,
          "internalType": "bool",
          "name": "approved",
          "type": "bool"
        }
      ],
      "name": "ApprovalForAll",
      "type": "event"
    },
    {
      "anonymous": false,
      "inputs": [
        {
          "indexed": true,
          "internalType": "address",
          "name": "previousOwner",
          "type": "address"
        },
        {
          "indexed": true,
          "internalType": "address",
          "name": "newOwner",
          "type": "address"
        }
      ],
      "name": "OwnershipTransferred",
      "type": "event"
    },
    {
      "anonymous": false,
      "inputs": [
        {
          "indexed": true,
          "internalType": "address",
          "name": "from",
          "type": "address"
        },
        {
          "indexed": true,
          "internalType": "address",
          "name": "to",
          "type": "address"
        },
        {
          "indexed": true,
          "internalType": "uint256",
          "name": "tokenId",
          "type": "uint256"
        }
      ],
      "name": "Transfer",
      "type": "event"
    },
    {
      "inputs": [
        {
          "internalType": "address",
          "name": "to",
          "type": "address"
        },
        {
          "internalType": "uint256",
          "name": "tokenId",
          "type": "uint256"
        }
      ],
      "name": "approve",
      "outputs": [],
      "stateMutability": "nonpayable",
      "type": "function"
    },
    {
      "inputs": [
        {
          "internalType": "address",
          "name": "owner",
          "type": "address"
        }
      ],
      "name": "balanceOf",
      "outputs": [
        {
          "internalType": "uint256",
          "name": "",
          "type": "uint256"
        }
      ],
      "stateMutability": "view",
      "type": "function"
    },
    {
      "inputs": [
        {
          "internalType": "uint256",
          "name": "tokenId",
          "type": "uint256"
        },
        {
          "internalType": "string",
          "name": "_url",
          "type": "string"
        }
      ],
      "name": "burnToken",
      "outputs": [],
      "stateMutability": "nonpayable",
      "type": "function"
    },
    {
      "inputs": [],
      "name": "creationTime",
      "outputs": [
        {
          "internalType": "uint256",
          "name": "",
          "type": "uint256"
        }
      ],
      "stateMutability": "view",
      "type": "function"
    },
    {
      "inputs": [],
      "name": "description",
      "outputs": [
        {
          "internalType": "string",
          "name": "",
          "type": "string"
        }
      ],
      "stateMutability": "view",
      "type": "function"
    },
    {
      "inputs": [],
      "name": "getAllMintedTokens",
      "outputs": [
        {
          "internalType": "uint256[]",
          "name": "",
          "type": "uint256[]"
        }
      ],
      "stateMutability": "view",
      "type": "function"
    },
    {
      "inputs": [
        {
          "internalType": "enum CloneableNFT.CloneFilter",
          "name": "filter",
          "type": "uint8"
        }
      ],
      "name": "getAllMintedTokens",
      "outputs": [
        {
          "internalType": "uint256[]",
          "name": "",
          "type": "uint256[]"
        }
      ],
      "stateMutability": "view",
      "type": "function"
    },
    {
      "inputs": [
        {
          "internalType": "uint256",
          "name": "tokenId",
          "type": "uint256"
        }
      ],
      "name": "getApproved",
      "outputs": [
        {
          "internalType": "address",
          "name": "",
          "type": "address"
        }
      ],
      "stateMutability": "view",
      "type": "function"
    },
    {
      "inputs": [
        {
          "internalType": "uint256",
          "name": "tokenId",
          "type": "uint256"
        }
      ],
      "name": "getClonePrice",
      "outputs": [
        {
          "internalType": "uint256",
          "name": "",
          "type": "uint256"
        }
      ],
      "stateMutability": "view",
      "type": "function"
    },
    {
      "inputs": [
        {
          "internalType": "uint256",
          "name": "tokenId",
          "type": "uint256"
        }
      ],
      "name": "getClonesOfOriginal",
      "outputs": [
        {
          "internalType": "uint256[]",
          "name": "",
          "type": "uint256[]"
        }
      ],
      "stateMutability": "view",
      "type": "function"
    },
    {
      "inputs": [],
      "name": "getContractCreator",
      "outputs": [
        {
          "internalType": "address",
          "name": "",
          "type": "address"
        }
      ],
      "stateMutability": "view",
      "type": "function"
    },
    {
      "inputs": [],
      "name": "getDefaultClonePrice",
      "outputs": [
        {
          "internalType": "uint256",
          "name": "",
          "type": "uint256"
        }
      ],
      "stateMutability": "view",
      "type": "function"
    },
    {
      "inputs": [
        {
          "internalType": "uint256",
          "name": "tokenId",
          "type": "uint256"
        }
      ],
      "name": "getHasClonePrice",
      "outputs": [
        {
          "internalType": "bool",
          "name": "",
          "type": "bool"
        }
      ],
      "stateMutability": "view",
      "type": "function"
    },
    {
      "inputs": [
        {
          "internalType": "uint256",
          "name": "tokenId",
          "type": "uint256"
        }
      ],
      "name": "getOriginal",
      "outputs": [
        {
          "internalType": "uint256",
          "name": "",
          "type": "uint256"
        }
      ],
      "stateMutability": "view",
      "type": "function"
    },
    {
      "inputs": [
        {
          "internalType": "address",
          "name": "owner",
          "type": "address"
        },
        {
          "internalType": "enum CloneableNFT.CloneFilter",
          "name": "filter",
          "type": "uint8"
        }
      ],
      "name": "getOwnedTokens",
      "outputs": [
        {
          "internalType": "uint256[]",
          "name": "",
          "type": "uint256[]"
        }
      ],
      "stateMutability": "view",
      "type": "function"
    },
    {
      "inputs": [
        {
          "internalType": "address",
          "name": "owner",
          "type": "address"
        }
      ],
      "name": "getOwnedTokens",
      "outputs": [
        {
          "internalType": "uint256[]",
          "name": "",
          "type": "uint256[]"
        }
      ],
      "stateMutability": "view",
      "type": "function"
    },
    {
      "inputs": [
        {
          "internalType": "uint256",
          "name": "tokenId",
          "type": "uint256"
        }
      ],
      "name": "getTokenCreator",
      "outputs": [
        {
          "internalType": "address",
          "name": "",
          "type": "address"
        }
      ],
      "stateMutability": "view",
      "type": "function"
    },
    {
      "inputs": [
        {
          "internalType": "string",
          "name": "_url",
          "type": "string"
        }
      ],
      "name": "getTokenIdByUrl",
      "outputs": [
        {
          "internalType": "uint256",
          "name": "",
          "type": "uint256"
        }
      ],
      "stateMutability": "view",
      "type": "function"
    },
    {
      "inputs": [],
      "name": "getTotalMintClonedTokens",
      "outputs": [
        {
          "internalType": "uint256",
          "name": "",
          "type": "uint256"
        }
      ],
      "stateMutability": "view",
      "type": "function"
    },
    {
      "inputs": [],
      "name": "getTotalMintOriginalTokens",
      "outputs": [
        {
          "internalType": "uint256",
          "name": "",
          "type": "uint256"
        }
      ],
      "stateMutability": "view",
      "type": "function"
    },
    {
      "inputs": [],
      "name": "getTotalMintedTokens",
      "outputs": [
        {
          "internalType": "uint256",
          "name": "",
          "type": "uint256"
        }
      ],
      "stateMutability": "view",
      "type": "function"
    },
    {
      "inputs": [
        {
          "internalType": "address",
          "name": "owner",
          "type": "address"
        },
        {
          "internalType": "address",
          "name": "operator",
          "type": "address"
        }
      ],
      "name": "isApprovedForAll",
      "outputs": [
        {
          "internalType": "bool",
          "name": "",
          "type": "bool"
        }
      ],
      "stateMutability": "view",
      "type": "function"
    },
    {
      "inputs": [
        {
          "internalType": "uint256",
          "name": "tokenId",
          "type": "uint256"
        }
      ],
      "name": "isClone",
      "outputs": [
        {
          "internalType": "bool",
          "name": "",
          "type": "bool"
        }
      ],
      "stateMutability": "view",
      "type": "function"
    },
    {
      "inputs": [
        {
          "internalType": "uint256",
          "name": "tokenId",
          "type": "uint256"
        },
        {
          "internalType": "string",
          "name": "_tokenURI",
          "type": "string"
        }
      ],
      "name": "mintClone",
      "outputs": [],
      "stateMutability": "payable",
      "type": "function"
    },
    {
      "inputs": [
        {
          "internalType": "string",
          "name": "_tokenURI",
          "type": "string"
        },
        {
          "internalType": "string",
          "name": "_url",
          "type": "string"
        }
      ],
      "name": "mintNFT",
      "outputs": [],
      "stateMutability": "nonpayable",
      "type": "function"
    },
    {
      "inputs": [],
      "name": "name",
      "outputs": [
        {
          "internalType": "string",
          "name": "",
          "type": "string"
        }
      ],
      "stateMutability": "view",
      "type": "function"
    },
    {
      "inputs": [],
      "name": "owner",
      "outputs": [
        {
          "internalType": "address",
          "name": "",
          "type": "address"
        }
      ],
      "stateMutability": "view",
      "type": "function"
    },
    {
      "inputs": [
        {
          "internalType": "uint256",
          "name": "tokenId",
          "type": "uint256"
        }
      ],
      "name": "ownerOf",
      "outputs": [
        {
          "internalType": "address",
          "name": "",
          "type": "address"
        }
      ],
      "stateMutability": "view",
      "type": "function"
    },
    {
      "inputs": [],
      "name": "renounceOwnership",
      "outputs": [],
      "stateMutability": "nonpayable",
      "type": "function"
    },
    {
      "inputs": [
        {
          "internalType": "address",
          "name": "from",
          "type": "address"
        },
        {
          "internalType": "address",
          "name": "to",
          "type": "address"
        },
        {
          "internalType": "uint256",
          "name": "tokenId",
          "type": "uint256"
        }
      ],
      "name": "safeTransferFrom",
      "outputs": [],
      "stateMutability": "nonpayable",
      "type": "function"
    },
    {
      "inputs": [
        {
          "internalType": "address",
          "name": "from",
          "type": "address"
        },
        {
          "internalType": "address",
          "name": "to",
          "type": "address"
        },
        {
          "internalType": "uint256",
          "name": "tokenId",
          "type": "uint256"
        },
        {
          "internalType": "bytes",
          "name": "data",
          "type": "bytes"
        }
      ],
      "name": "safeTransferFrom",
      "outputs": [],
      "stateMutability": "nonpayable",
      "type": "function"
    },
    {
      "inputs": [
        {
          "internalType": "address",
          "name": "operator",
          "type": "address"
        },
        {
          "internalType": "bool",
          "name": "approved",
          "type": "bool"
        }
      ],
      "name": "setApprovalForAll",
      "outputs": [],
      "stateMutability": "nonpayable",
      "type": "function"
    },
    {
      "inputs": [
        {
          "internalType": "uint256",
          "name": "tokenId",
          "type": "uint256"
        },
        {
          "internalType": "uint256",
          "name": "newPrice",
          "type": "uint256"
        }
      ],
      "name": "setClonePrice",
      "outputs": [],
      "stateMutability": "nonpayable",
      "type": "function"
    },
    {
      "inputs": [
        {
          "internalType": "uint256",
          "name": "newPrice",
          "type": "uint256"
        }
      ],
      "name": "setDefaultClonePrice",
      "outputs": [],
      "stateMutability": "nonpayable",
      "type": "function"
    },
    {
      "inputs": [
        {
          "internalType": "string",
          "name": "_description",
          "type": "string"
        }
      ],
      "name": "setDescription",
      "outputs": [],
      "stateMutability": "nonpayable",
      "type": "function"
    },
    {
      "inputs": [
        {
          "internalType": "string",
          "name": "_description",
          "type": "string"
        },
        {
          "internalType": "uint256",
          "name": "_newPrice",
          "type": "uint256"
        }
      ],
      "name": "setDescriptionAndDefaultClonePrice",
      "outputs": [],
      "stateMutability": "nonpayable",
      "type": "function"
    },
    {
      "inputs": [
        {
          "internalType": "bytes4",
          "name": "interfaceId",
          "type": "bytes4"
        }
      ],
      "name": "supportsInterface",
      "outputs": [
        {
          "internalType": "bool",
          "name": "",
          "type": "bool"
        }
      ],
      "stateMutability": "view",
      "type": "function"
    },
    {
      "inputs": [],
      "name": "symbol",
      "outputs": [
        {
          "internalType": "string",
          "name": "",
          "type": "string"
        }
      ],
      "stateMutability": "view",
      "type": "function"
    },
    {
      "inputs": [
        {
          "internalType": "uint256",
          "name": "tokenId",
          "type": "uint256"
        }
      ],
      "name": "tokenURI",
      "outputs": [
        {
          "internalType": "string",
          "name": "",
          "type": "string"
        }
      ],
      "stateMutability": "view",
      "type": "function"
    },
    {
      "inputs": [
        {
          "internalType": "address",
          "name": "from",
          "type": "address"
        },
        {
          "internalType": "address",
          "name": "to",
          "type": "address"
        },
        {
          "internalType": "uint256",
          "name": "tokenId",
          "type": "uint256"
        }
      ],
      "name": "transferFrom",
      "outputs": [],
      "stateMutability": "nonpayable",
      "type": "function"
    },
    {
      "inputs": [
        {
          "internalType": "address",
          "name": "newOwner",
          "type": "address"
        }
      ],
      "name": "transferOwnership",
      "outputs": [],
      "stateMutability": "nonpayable",
      "type": "function"
    },
    {
      "inputs": [],
      "name": "withdraw",
      "outputs": [],
      "stateMutability": "nonpayable",
      "type": "function"
    }
  ],
  "bytecode": "0x60806040526000600b553480156200001657600080fd5b506040516200619f3803806200619f83398181016040528101906200003c91906200030b565b8383816000908051906020019062000056929190620001d2565b5080600190805190602001906200006f929190620001d2565b50505062000092620000866200010460201b60201c565b6200010c60201b60201c565b33601260006101000a81548173ffffffffffffffffffffffffffffffffffffffff021916908373ffffffffffffffffffffffffffffffffffffffff1602179055504260098190555081600a9080519060200190620000f2929190620001d2565b5080600b819055505050505062000556565b600033905090565b6000600760009054906101000a900473ffffffffffffffffffffffffffffffffffffffff16905081600760006101000a81548173ffffffffffffffffffffffffffffffffffffffff021916908373ffffffffffffffffffffffffffffffffffffffff1602179055508173ffffffffffffffffffffffffffffffffffffffff168173ffffffffffffffffffffffffffffffffffffffff167f8be0079c531659141344cd1fd0a4f28419497f9722a3daafe3b4186f6b6457e060405160405180910390a35050565b828054620001e09062000461565b90600052602060002090601f01602090048101928262000204576000855562000250565b82601f106200021f57805160ff191683800117855562000250565b8280016001018555821562000250579182015b828111156200024f57825182559160200191906001019062000232565b5b5090506200025f919062000263565b5090565b5b808211156200027e57600081600090555060010162000264565b5090565b6000620002996200029384620003eb565b620003c2565b905082815260208101848484011115620002b257600080fd5b620002bf8482856200042b565b509392505050565b600082601f830112620002d957600080fd5b8151620002eb84826020860162000282565b91505092915050565b60008151905062000305816200053c565b92915050565b600080600080608085870312156200032257600080fd5b600085015167ffffffffffffffff8111156200033d57600080fd5b6200034b87828801620002c7565b945050602085015167ffffffffffffffff8111156200036957600080fd5b6200037787828801620002c7565b935050604085015167ffffffffffffffff8111156200039557600080fd5b620003a387828801620002c7565b9250506060620003b687828801620002f4565b91505092959194509250565b6000620003ce620003e1565b9050620003dc828262000497565b919050565b6000604051905090565b600067ffffffffffffffff821115620004095762000408620004fc565b5b62000414826200052b565b9050602081019050919050565b6000819050919050565b60005b838110156200044b5780820151818401526020810190506200042e565b838111156200045b576000848401525b50505050565b600060028204905060018216806200047a57607f821691505b60208210811415620004915762000490620004cd565b5b50919050565b620004a2826200052b565b810181811067ffffffffffffffff82111715620004c457620004c3620004fc565b5b80604052505050565b7f4e487b7100000000000000000000000000000000000000000000000000000000600052602260045260246000fd5b7f4e487b7100000000000000000000000000000000000000000000000000000000600052604160045260246000fd5b6000601f19601f8301169050919050565b620005478162000421565b81146200055357600080fd5b50565b615c3980620005666000396000f3fe6080604052600436106102515760003560e01c80637284e41611610139578063c144dd2a116100b6578063d9d616551161007a578063d9d6165514610915578063e960554414610952578063e985e9c51461097b578063ef74248d146109b8578063f2fde38b146109e1578063f67a769c14610a0a57610251565b8063c144dd2a14610808578063c6af112214610845578063c87b56dd14610870578063d800fe45146108ad578063d8270dce146108ea57610251565b806395d89b41116100fd57806395d89b4114610711578063996393821461073c578063a22cb46514610779578063b88d4fde146107a2578063bc8c778f146107cb57610251565b80637284e4161461062a5780637d5298b9146106555780638da5cb5b1461068057806390c3f38f146106ab578063934689a9146106d457610251565b806323b872dd116101d257806342842e0e1161019657806342842e0e146105085780634da6de3f146105315780636352211e1461055c578063639032cc1461059957806370a08231146105d6578063715018a61461061357610251565b806323b872dd146104325780632aa2e90a1461045b57806330f7319d14610477578063385eda9c146104b45780633ccfd60b146104f157610251565b8063095ea7b311610219578063095ea7b31461034f5780630b01ac8e146103785780630e258726146103a15780631741f3e2146103cc5780631a2b285e1461040957610251565b8063010f77351461025657806301ffc9a71461027f57806306fdde03146102bc578063080b0179146102e7578063081812fc14610312575b600080fd5b34801561026257600080fd5b5061027d60048036038101906102789190614947565b610a35565b005b34801561028b57600080fd5b506102a660048036038101906102a191906147a2565b610b1a565b6040516102b39190614f38565b60405180910390f35b3480156102c857600080fd5b506102d1610bfc565b6040516102de9190614f53565b60405180910390f35b3480156102f357600080fd5b506102fc610c8e565b6040516103099190614f16565b60405180910390f35b34801561031e57600080fd5b506103396004803603810190610334919061491e565b610c9f565b6040516103469190614eaf565b60405180910390f35b34801561035b57600080fd5b5061037660048036038101906103719190614766565b610ce5565b005b34801561038457600080fd5b5061039f600480360381019061039a91906148ca565b610dfd565b005b3480156103ad57600080fd5b506103b6610e27565b6040516103c39190614eaf565b60405180910390f35b3480156103d857600080fd5b506103f360048036038101906103ee919061481d565b610e51565b6040516104009190615275565b60405180910390f35b34801561041557600080fd5b50610430600480360381019061042b919061491e565b610eda565b005b34801561043e57600080fd5b5061045960048036038101906104549190614624565b610eec565b005b61047560048036038101906104709190614947565b610f4c565b005b34801561048357600080fd5b5061049e6004803603810190610499919061472a565b61121c565b6040516104ab9190614f16565b60405180910390f35b3480156104c057600080fd5b506104db60048036038101906104d6919061491e565b611741565b6040516104e89190614f38565b60405180910390f35b3480156104fd57600080fd5b5061050661176b565b005b34801561051457600080fd5b5061052f600480360381019061052a9190614624565b6117c3565b005b34801561053d57600080fd5b506105466117e3565b6040516105539190615275565b60405180910390f35b34801561056857600080fd5b50610583600480360381019061057e919061491e565b6117ed565b6040516105909190614eaf565b60405180910390f35b3480156105a557600080fd5b506105c060048036038101906105bb919061491e565b611874565b6040516105cd9190614f16565b60405180910390f35b3480156105e257600080fd5b506105fd60048036038101906105f891906145bf565b611940565b60405161060a9190615275565b60405180910390f35b34801561061f57600080fd5b506106286119f8565b005b34801561063657600080fd5b5061063f611a0c565b60405161064c9190614f53565b60405180910390f35b34801561066157600080fd5b5061066a611a9a565b6040516106779190615275565b60405180910390f35b34801561068c57600080fd5b50610695611aa4565b6040516106a29190614eaf565b60405180910390f35b3480156106b757600080fd5b506106d260048036038101906106cd919061481d565b611ace565b005b3480156106e057600080fd5b506106fb60048036038101906106f6919061491e565b611af0565b6040516107089190614eaf565b60405180910390f35b34801561071d57600080fd5b50610726611b75565b6040516107339190614f53565b60405180910390f35b34801561074857600080fd5b50610763600480360381019061075e91906147f4565b611c07565b6040516107709190614f16565b60405180910390f35b34801561078557600080fd5b506107a0600480360381019061079b91906146ee565b612121565b005b3480156107ae57600080fd5b506107c960048036038101906107c49190614673565b612137565b005b3480156107d757600080fd5b506107f260048036038101906107ed919061491e565b612199565b6040516107ff9190615275565b60405180910390f35b34801561081457600080fd5b5061082f600480360381019061082a919061491e565b612216565b60405161083c9190614f38565b60405180910390f35b34801561085157600080fd5b5061085a612288565b6040516108679190615275565b60405180910390f35b34801561087c57600080fd5b506108976004803603810190610892919061491e565b612292565b6040516108a49190614f53565b60405180910390f35b3480156108b957600080fd5b506108d460048036038101906108cf919061491e565b6122a4565b6040516108e19190615275565b60405180910390f35b3480156108f657600080fd5b506108ff6122c1565b60405161090c9190615275565b60405180910390f35b34801561092157600080fd5b5061093c600480360381019061093791906145bf565b6122c7565b6040516109499190614f16565b60405180910390f35b34801561095e57600080fd5b506109796004803603810190610974919061485e565b6122db565b005b34801561098757600080fd5b506109a2600480360381019061099d91906145e8565b6124ca565b6040516109af9190614f38565b60405180910390f35b3480156109c457600080fd5b506109df60048036038101906109da919061499b565b61255e565b005b3480156109ed57600080fd5b50610a086004803603810190610a0391906145bf565b612602565b005b348015610a1657600080fd5b50610a1f612686565b604051610a2c9190615275565b60405180910390f35b610a46610a4061269d565b836126a5565b610a85576040517f08c379a0000000000000000000000000000000000000000000000000000000008152600401610a7c90615195565b60405180910390fd5b6000601082604051610a979190614e74565b9081526020016040518091039020549050828114610aea576040517f08c379a0000000000000000000000000000000000000000000000000000000008152600401610ae1906150d5565b60405180910390fd5b601082604051610afa9190614e74565b908152602001604051809103902060009055610b158361273a565b505050565b60007f80ac58cd000000000000000000000000000000000000000000000000000000007bffffffffffffffffffffffffffffffffffffffffffffffffffffffff1916827bffffffffffffffffffffffffffffffffffffffffffffffffffffffff19161480610be557507f5b5e139f000000000000000000000000000000000000000000000000000000007bffffffffffffffffffffffffffffffffffffffffffffffffffffffff1916827bffffffffffffffffffffffffffffffffffffffffffffffffffffffff1916145b80610bf55750610bf482612cb2565b5b9050919050565b606060008054610c0b906154d3565b80601f0160208091040260200160405190810160405280929190818152602001828054610c37906154d3565b8015610c845780601f10610c5957610100808354040283529160200191610c84565b820191906000526020600020905b815481529060010190602001808311610c6757829003601f168201915b5050505050905090565b6060610c9a6000611c07565b905090565b6000610caa82612d1c565b6004600083815260200190815260200160002060009054906101000a900473ffffffffffffffffffffffffffffffffffffffff169050919050565b6000610cf0826117ed565b90508073ffffffffffffffffffffffffffffffffffffffff168373ffffffffffffffffffffffffffffffffffffffff161415610d61576040517f08c379a0000000000000000000000000000000000000000000000000000000008152600401610d5890615235565b60405180910390fd5b8073ffffffffffffffffffffffffffffffffffffffff16610d8061269d565b73ffffffffffffffffffffffffffffffffffffffff161480610daf5750610dae81610da961269d565b6124ca565b5b610dee576040517f08c379a0000000000000000000000000000000000000000000000000000000008152600401610de590615255565b60405180910390fd5b610df88383612d67565b505050565b610e05612e20565b81600a9080519060200190610e1b92919061436d565b5080600b819055505050565b6000601260009054906101000a900473ffffffffffffffffffffffffffffffffffffffff16905090565b600080601083604051610e649190614e74565b9081526020016040518091039020541415610eb4576040517f08c379a0000000000000000000000000000000000000000000000000000000008152600401610eab906151f5565b60405180910390fd5b601082604051610ec49190614e74565b9081526020016040518091039020549050919050565b610ee2612e20565b80600b8190555050565b610efd610ef761269d565b826126a5565b610f3c576040517f08c379a0000000000000000000000000000000000000000000000000000000008152600401610f3390614f75565b60405180910390fd5b610f47838383612e9e565b505050565b610f55826131e3565b610f94576040517f08c379a0000000000000000000000000000000000000000000000000000000008152600401610f8b90615215565b60405180910390fd5b600c600083815260200190815260200160002060009054906101000a900460ff1615610ff5576040517f08c379a0000000000000000000000000000000000000000000000000000000008152600401610fec90615075565b60405180910390fd5b600080600e6000858152602001908152602001600020541161101957600b5461102e565b600e6000848152602001908152602001600020545b905080341015611073576040517f08c379a000000000000000000000000000000000000000000000000000000000815260040161106a90615095565b60405180910390fd5b61107d6008613224565b6000611089600861323a565b90506110953382613248565b6001600c600083815260200190815260200160002060006101000a81548160ff02191690831515021790555083600d6000838152602001908152602001600020819055506110e38184613266565b60146000858152602001908152602001600020819080600181540180825580915050600190039060005260206000200160009091909190915055601360003373ffffffffffffffffffffffffffffffffffffffff1673ffffffffffffffffffffffffffffffffffffffff1681526020019081526020016000208190806001815401808255809150506001900390600052602060002001600090919091909150556015819080600181540180825580915050600190039060005260206000200160009091909190915055601760008154809291906111bf90615536565b9190505550336011600083815260200190815260200160002060006101000a81548173ffffffffffffffffffffffffffffffffffffffff021916908373ffffffffffffffffffffffffffffffffffffffff16021790555050505050565b60606000601360008573ffffffffffffffffffffffffffffffffffffffff1673ffffffffffffffffffffffffffffffffffffffff1681526020019081526020016000208054806020026020016040519081016040528092919081815260200182805480156112a957602002820191906000526020600020905b815481526020019060010190808311611295575b50505050509050600060028111156112ea577f4e487b7100000000000000000000000000000000000000000000000000000000600052602160045260246000fd5b836002811115611323577f4e487b7100000000000000000000000000000000000000000000000000000000600052602160045260246000fd5b1415611332578091505061173b565b6000805b82518110156114b557600061138a84838151811061137d577f4e487b7100000000000000000000000000000000000000000000000000000000600052603260045260246000fd5b6020026020010151611741565b9050600160028111156113c6577f4e487b7100000000000000000000000000000000000000000000000000000000600052602160045260246000fd5b8660028111156113ff577f4e487b7100000000000000000000000000000000000000000000000000000000600052602160045260246000fd5b1480156114095750805b8061148d5750600280811115611448577f4e487b7100000000000000000000000000000000000000000000000000000000600052602160045260246000fd5b866002811115611481577f4e487b7100000000000000000000000000000000000000000000000000000000600052602160045260246000fd5b14801561148c575080155b5b156114a157828061149d90615536565b9350505b5080806114ad90615536565b915050611336565b5060008167ffffffffffffffff8111156114f8577f4e487b7100000000000000000000000000000000000000000000000000000000600052604160045260246000fd5b6040519080825280602002602001820160405280156115265781602001602082028036833780820191505090505b5090506000805b8451811015611732576000611581868381518110611574577f4e487b7100000000000000000000000000000000000000000000000000000000600052603260045260246000fd5b6020026020010151611741565b9050600160028111156115bd577f4e487b7100000000000000000000000000000000000000000000000000000000600052602160045260246000fd5b8860028111156115f6577f4e487b7100000000000000000000000000000000000000000000000000000000600052602160045260246000fd5b1480156116005750805b80611684575060028081111561163f577f4e487b7100000000000000000000000000000000000000000000000000000000600052602160045260246000fd5b886002811115611678577f4e487b7100000000000000000000000000000000000000000000000000000000600052602160045260246000fd5b148015611683575080155b5b1561171e578582815181106116c2577f4e487b7100000000000000000000000000000000000000000000000000000000600052603260045260246000fd5b6020026020010151848481518110611703577f4e487b7100000000000000000000000000000000000000000000000000000000600052603260045260246000fd5b602002602001018181525050828061171a90615536565b9350505b50808061172a90615536565b91505061152d565b50819450505050505b92915050565b6000600c600083815260200190815260200160002060009054906101000a900460ff169050919050565b611773612e20565b61177b611aa4565b73ffffffffffffffffffffffffffffffffffffffff166108fc479081150290604051600060405180830381858888f193505050501580156117c0573d6000803e3d6000fd5b50565b6117de83838360405180602001604052806000815250612137565b505050565b6000601654905090565b6000806117f9836132da565b9050600073ffffffffffffffffffffffffffffffffffffffff168173ffffffffffffffffffffffffffffffffffffffff16141561186b576040517f08c379a0000000000000000000000000000000000000000000000000000000008152600401611862906151d5565b60405180910390fd5b80915050919050565b6060600c600083815260200190815260200160002060009054906101000a900460ff16156118d7576040517f08c379a00000000000000000000000000000000000000000000000000000000081526004016118ce90614f95565b60405180910390fd5b6014600083815260200190815260200160002080548060200260200160405190810160405280929190818152602001828054801561193457602002820191906000526020600020905b815481526020019060010190808311611920575b50505050509050919050565b60008073ffffffffffffffffffffffffffffffffffffffff168273ffffffffffffffffffffffffffffffffffffffff1614156119b1576040517f08c379a00000000000000000000000000000000000000000000000000000000081526004016119a890615115565b60405180910390fd5b600360008373ffffffffffffffffffffffffffffffffffffffff1673ffffffffffffffffffffffffffffffffffffffff168152602001908152602001600020549050919050565b611a00612e20565b611a0a6000613317565b565b600a8054611a19906154d3565b80601f0160208091040260200160405190810160405280929190818152602001828054611a45906154d3565b8015611a925780601f10611a6757610100808354040283529160200191611a92565b820191906000526020600020905b815481529060010190602001808311611a7557829003601f168201915b505050505081565b6000601754905090565b6000600760009054906101000a900473ffffffffffffffffffffffffffffffffffffffff16905090565b611ad6612e20565b80600a9080519060200190611aec92919061436d565b5050565b6000611afb826131e3565b611b3a576040517f08c379a0000000000000000000000000000000000000000000000000000000008152600401611b31906150b5565b60405180910390fd5b6011600083815260200190815260200160002060009054906101000a900473ffffffffffffffffffffffffffffffffffffffff169050919050565b606060018054611b84906154d3565b80601f0160208091040260200160405190810160405280929190818152602001828054611bb0906154d3565b8015611bfd5780601f10611bd257610100808354040283529160200191611bfd565b820191906000526020600020905b815481529060010190602001808311611be057829003601f168201915b5050505050905090565b6060600080600090505b601580549050811015611e13576000611c6d60158381548110611c5d577f4e487b7100000000000000000000000000000000000000000000000000000000600052603260045260246000fd5b9060005260206000200154611741565b905060006002811115611ca9577f4e487b7100000000000000000000000000000000000000000000000000000000600052602160045260246000fd5b856002811115611ce2577f4e487b7100000000000000000000000000000000000000000000000000000000600052602160045260246000fd5b1480611d67575060016002811115611d23577f4e487b7100000000000000000000000000000000000000000000000000000000600052602160045260246000fd5b856002811115611d5c577f4e487b7100000000000000000000000000000000000000000000000000000000600052602160045260246000fd5b148015611d665750805b5b80611deb5750600280811115611da6577f4e487b7100000000000000000000000000000000000000000000000000000000600052602160045260246000fd5b856002811115611ddf577f4e487b7100000000000000000000000000000000000000000000000000000000600052602160045260246000fd5b148015611dea575080155b5b15611dff578280611dfb90615536565b9350505b508080611e0b90615536565b915050611c11565b5060008167ffffffffffffffff811115611e56577f4e487b7100000000000000000000000000000000000000000000000000000000600052604160045260246000fd5b604051908082528060200260200182016040528015611e845781602001602082028036833780820191505090505b5090506000805b601580549050811015612115576000611ee760158381548110611ed7577f4e487b7100000000000000000000000000000000000000000000000000000000600052603260045260246000fd5b9060005260206000200154611741565b905060006002811115611f23577f4e487b7100000000000000000000000000000000000000000000000000000000600052602160045260246000fd5b876002811115611f5c577f4e487b7100000000000000000000000000000000000000000000000000000000600052602160045260246000fd5b1480611fe1575060016002811115611f9d577f4e487b7100000000000000000000000000000000000000000000000000000000600052602160045260246000fd5b876002811115611fd6577f4e487b7100000000000000000000000000000000000000000000000000000000600052602160045260246000fd5b148015611fe05750805b5b806120655750600280811115612020577f4e487b7100000000000000000000000000000000000000000000000000000000600052602160045260246000fd5b876002811115612059577f4e487b7100000000000000000000000000000000000000000000000000000000600052602160045260246000fd5b148015612064575080155b5b1561210157601582815481106120a4577f4e487b7100000000000000000000000000000000000000000000000000000000600052603260045260246000fd5b90600052602060002001548484806120bb90615536565b9550815181106120f4577f4e487b7100000000000000000000000000000000000000000000000000000000600052603260045260246000fd5b6020026020010181815250505b50808061210d90615536565b915050611e8b565b50819350505050919050565b61213361212c61269d565b83836133dd565b5050565b61214861214261269d565b836126a5565b612187576040517f08c379a000000000000000000000000000000000000000000000000000000000815260040161217e90614f75565b60405180910390fd5b6121938484848461354a565b50505050565b6000600c600083815260200190815260200160002060009054906101000a900460ff166121fb576040517f08c379a00000000000000000000000000000000000000000000000000000000081526004016121f2906150f5565b60405180910390fd5b600d6000838152602001908152602001600020549050919050565b6000612221826131e3565b612260576040517f08c379a0000000000000000000000000000000000000000000000000000000008152600401612257906150b5565b60405180910390fd5b600f600083815260200190815260200160002060009054906101000a900460ff169050919050565b6000600b54905090565b606061229d826135a6565b9050919050565b6000600e6000838152602001908152602001600020549050919050565b60095481565b60606122d482600061121c565b9050919050565b6122e3612e20565b60006010826040516122f59190614e74565b90815260200160405180910390205414612344576040517f08c379a000000000000000000000000000000000000000000000000000000000815260040161233b90615155565b60405180910390fd5b61234e6008613224565b600061235861269d565b90506000612366600861323a565b905061237282826136b9565b6000600c600083815260200190815260200160002060006101000a81548160ff0219169083151502179055506123a88185613266565b806010846040516123b99190614e74565b908152602001604051809103902081905550601360008373ffffffffffffffffffffffffffffffffffffffff1673ffffffffffffffffffffffffffffffffffffffff16815260200190815260200160002081908060018154018082558091505060019003906000526020600020016000909190919091505560158190806001815401808255809150506001900390600052602060002001600090919091909150556016600081548092919061246d90615536565b9190505550816011600083815260200190815260200160002060006101000a81548173ffffffffffffffffffffffffffffffffffffffff021916908373ffffffffffffffffffffffffffffffffffffffff16021790555050505050565b6000600560008473ffffffffffffffffffffffffffffffffffffffff1673ffffffffffffffffffffffffffffffffffffffff16815260200190815260200160002060008373ffffffffffffffffffffffffffffffffffffffff1673ffffffffffffffffffffffffffffffffffffffff16815260200190815260200160002060009054906101000a900460ff16905092915050565b612566612e20565b60008111156125b8576001600f600084815260200190815260200160002060006101000a81548160ff02191690831515021790555080600e6000848152602001908152602001600020819055506125fe565b6000600f600084815260200190815260200160002060006101000a81548160ff0219169083151502179055506000600e6000848152602001908152602001600020819055505b5050565b61260a612e20565b600073ffffffffffffffffffffffffffffffffffffffff168173ffffffffffffffffffffffffffffffffffffffff16141561267a576040517f08c379a000000000000000000000000000000000000000000000000000000000815260040161267190614fd5565b60405180910390fd5b61268381613317565b50565b60006017546016546126989190615393565b905090565b600033905090565b6000806126b1836117ed565b90508073ffffffffffffffffffffffffffffffffffffffff168473ffffffffffffffffffffffffffffffffffffffff1614806126f357506126f281856124ca565b5b8061273157508373ffffffffffffffffffffffffffffffffffffffff1661271984610c9f565b73ffffffffffffffffffffffffffffffffffffffff16145b91505092915050565b6000612745826117ed565b9050612750826138d7565b600c600083815260200190815260200160002060009054906101000a900460ff161561291e576000600d6000848152602001908152602001600020549050600060146000838152602001908152602001600020905060005b81805490508110156128ff57848282815481106127ee577f4e487b7100000000000000000000000000000000000000000000000000000000600052603260045260246000fd5b906000526020600020015414156128ec57816001838054905061281191906153e9565b81548110612848577f4e487b7100000000000000000000000000000000000000000000000000000000600052603260045260246000fd5b906000526020600020015482828154811061288c577f4e487b7100000000000000000000000000000000000000000000000000000000600052603260045260246000fd5b9060005260206000200181905550818054806128d1577f4e487b7100000000000000000000000000000000000000000000000000000000600052603160045260246000fd5b600190038181906000526020600020016000905590556128ff565b80806128f790615536565b9150506127a8565b50600d600085815260200190815260200160002060009055505061293e565b60146000838152602001908152602001600020600061293d91906143f3565b5b600c600083815260200190815260200160002060006101000a81549060ff0219169055600e6000838152602001908152602001600020600090556011600083815260200190815260200160002060006101000a81549073ffffffffffffffffffffffffffffffffffffffff02191690556000601360008373ffffffffffffffffffffffffffffffffffffffff1673ffffffffffffffffffffffffffffffffffffffff168152602001908152602001600020905060005b8180549050811015612b4b5783828281548110612a3a577f4e487b7100000000000000000000000000000000000000000000000000000000600052603260045260246000fd5b90600052602060002001541415612b38578160018380549050612a5d91906153e9565b81548110612a94577f4e487b7100000000000000000000000000000000000000000000000000000000600052603260045260246000fd5b9060005260206000200154828281548110612ad8577f4e487b7100000000000000000000000000000000000000000000000000000000600052603260045260246000fd5b906000526020600020018190555081805480612b1d577f4e487b7100000000000000000000000000000000000000000000000000000000600052603160045260246000fd5b60019003818190600052602060002001600090559055612b4b565b8080612b4390615536565b9150506129f4565b5060005b601580549050811015612cac578360158281548110612b97577f4e487b7100000000000000000000000000000000000000000000000000000000600052603260045260246000fd5b90600052602060002001541415612c995760156001601580549050612bbc91906153e9565b81548110612bf3577f4e487b7100000000000000000000000000000000000000000000000000000000600052603260045260246000fd5b906000526020600020015460158281548110612c38577f4e487b7100000000000000000000000000000000000000000000000000000000600052603260045260246000fd5b90600052602060002001819055506015805480612c7e577f4e487b7100000000000000000000000000000000000000000000000000000000600052603160045260246000fd5b60019003818190600052602060002001600090559055612cac565b8080612ca490615536565b915050612b4f565b50505050565b60007f01ffc9a7000000000000000000000000000000000000000000000000000000007bffffffffffffffffffffffffffffffffffffffffffffffffffffffff1916827bffffffffffffffffffffffffffffffffffffffffffffffffffffffff1916149050919050565b612d25816131e3565b612d64576040517f08c379a0000000000000000000000000000000000000000000000000000000008152600401612d5b906151d5565b60405180910390fd5b50565b816004600083815260200190815260200160002060006101000a81548173ffffffffffffffffffffffffffffffffffffffff021916908373ffffffffffffffffffffffffffffffffffffffff160217905550808273ffffffffffffffffffffffffffffffffffffffff16612dda836117ed565b73ffffffffffffffffffffffffffffffffffffffff167f8c5be1e5ebec7d5bd14f71427d1e84f3dd0314c0f7b2291e5b200ac8c7c3b92560405160405180910390a45050565b612e2861269d565b73ffffffffffffffffffffffffffffffffffffffff16612e46611aa4565b73ffffffffffffffffffffffffffffffffffffffff1614612e9c576040517f08c379a0000000000000000000000000000000000000000000000000000000008152600401612e93906151b5565b60405180910390fd5b565b612ea983838361392a565b60005b601360008573ffffffffffffffffffffffffffffffffffffffff1673ffffffffffffffffffffffffffffffffffffffff168152602001908152602001600020805490508110156131775781601360008673ffffffffffffffffffffffffffffffffffffffff1673ffffffffffffffffffffffffffffffffffffffff1681526020019081526020016000208281548110612f6e577f4e487b7100000000000000000000000000000000000000000000000000000000600052603260045260246000fd5b9060005260206000200154141561316457601360008573ffffffffffffffffffffffffffffffffffffffff1673ffffffffffffffffffffffffffffffffffffffff1681526020019081526020016000206001601360008773ffffffffffffffffffffffffffffffffffffffff1673ffffffffffffffffffffffffffffffffffffffff1681526020019081526020016000208054905061300d91906153e9565b81548110613044577f4e487b7100000000000000000000000000000000000000000000000000000000600052603260045260246000fd5b9060005260206000200154601360008673ffffffffffffffffffffffffffffffffffffffff1673ffffffffffffffffffffffffffffffffffffffff16815260200190815260200160002082815481106130c6577f4e487b7100000000000000000000000000000000000000000000000000000000600052603260045260246000fd5b9060005260206000200181905550601360008573ffffffffffffffffffffffffffffffffffffffff1673ffffffffffffffffffffffffffffffffffffffff168152602001908152602001600020805480613149577f4e487b7100000000000000000000000000000000000000000000000000000000600052603160045260246000fd5b60019003818190600052602060002001600090559055613177565b808061316f90615536565b915050612eac565b50601360008373ffffffffffffffffffffffffffffffffffffffff1673ffffffffffffffffffffffffffffffffffffffff168152602001908152602001600020819080600181540180825580915050600190039060005260206000200160009091909190915055505050565b60008073ffffffffffffffffffffffffffffffffffffffff16613205836132da565b73ffffffffffffffffffffffffffffffffffffffff1614159050919050565b6001816000016000828254019250508190555050565b600081600001549050919050565b613262828260405180602001604052806000815250613c24565b5050565b61326f826131e3565b6132ae576040517f08c379a00000000000000000000000000000000000000000000000000000000081526004016132a590615135565b60405180910390fd5b806006600084815260200190815260200160002090805190602001906132d592919061436d565b505050565b60006002600083815260200190815260200160002060009054906101000a900473ffffffffffffffffffffffffffffffffffffffff169050919050565b6000600760009054906101000a900473ffffffffffffffffffffffffffffffffffffffff16905081600760006101000a81548173ffffffffffffffffffffffffffffffffffffffff021916908373ffffffffffffffffffffffffffffffffffffffff1602179055508173ffffffffffffffffffffffffffffffffffffffff168173ffffffffffffffffffffffffffffffffffffffff167f8be0079c531659141344cd1fd0a4f28419497f9722a3daafe3b4186f6b6457e060405160405180910390a35050565b8173ffffffffffffffffffffffffffffffffffffffff168373ffffffffffffffffffffffffffffffffffffffff16141561344c576040517f08c379a000000000000000000000000000000000000000000000000000000000815260040161344390615055565b60405180910390fd5b80600560008573ffffffffffffffffffffffffffffffffffffffff1673ffffffffffffffffffffffffffffffffffffffff16815260200190815260200160002060008473ffffffffffffffffffffffffffffffffffffffff1673ffffffffffffffffffffffffffffffffffffffff16815260200190815260200160002060006101000a81548160ff0219169083151502179055508173ffffffffffffffffffffffffffffffffffffffff168373ffffffffffffffffffffffffffffffffffffffff167f17307eab39ab6107e8899845ad3d59bd9653f200f220920489ca2b5937696c318360405161353d9190614f38565b60405180910390a3505050565b613555848484612e9e565b61356184848484613c7f565b6135a0576040517f08c379a000000000000000000000000000000000000000000000000000000000815260040161359790614fb5565b60405180910390fd5b50505050565b60606135b182612d1c565b60006006600084815260200190815260200160002080546135d1906154d3565b80601f01602080910402602001604051908101604052809291908181526020018280546135fd906154d3565b801561364a5780601f1061361f5761010080835404028352916020019161364a565b820191906000526020600020905b81548152906001019060200180831161362d57829003601f168201915b50505050509050600061365b613e16565b90506000815114156136715781925050506136b4565b6000825111156136a657808260405160200161368e929190614e8b565b604051602081830303815290604052925050506136b4565b6136af84613e2d565b925050505b919050565b600073ffffffffffffffffffffffffffffffffffffffff168273ffffffffffffffffffffffffffffffffffffffff161415613729576040517f08c379a000000000000000000000000000000000000000000000000000000000815260040161372090615175565b60405180910390fd5b613732816131e3565b15613772576040517f08c379a000000000000000000000000000000000000000000000000000000000815260040161376990615015565b60405180910390fd5b613780600083836001613e95565b613789816131e3565b156137c9576040517f08c379a00000000000000000000000000000000000000000000000000000000081526004016137c090615015565b60405180910390fd5b6001600360008473ffffffffffffffffffffffffffffffffffffffff1673ffffffffffffffffffffffffffffffffffffffff16815260200190815260200160002060008282540192505081905550816002600083815260200190815260200160002060006101000a81548173ffffffffffffffffffffffffffffffffffffffff021916908373ffffffffffffffffffffffffffffffffffffffff160217905550808273ffffffffffffffffffffffffffffffffffffffff16600073ffffffffffffffffffffffffffffffffffffffff167fddf252ad1be2c89b69c2b068fc378daa952ba7f163c4a11628f55a4df523b3ef60405160405180910390a46138d3600083836001613e9b565b5050565b6138e081613ea1565b6000600660008381526020019081526020016000208054613900906154d3565b905014613927576006600082815260200190815260200160002060006139269190614414565b5b50565b8273ffffffffffffffffffffffffffffffffffffffff1661394a826117ed565b73ffffffffffffffffffffffffffffffffffffffff16146139a0576040517f08c379a000000000000000000000000000000000000000000000000000000000815260040161399790614ff5565b60405180910390fd5b600073ffffffffffffffffffffffffffffffffffffffff168273ffffffffffffffffffffffffffffffffffffffff161415613a10576040517f08c379a0000000000000000000000000000000000000000000000000000000008152600401613a0790615035565b60405180910390fd5b613a1d8383836001613e95565b8273ffffffffffffffffffffffffffffffffffffffff16613a3d826117ed565b73ffffffffffffffffffffffffffffffffffffffff1614613a93576040517f08c379a0000000000000000000000000000000000000000000000000000000008152600401613a8a90614ff5565b60405180910390fd5b6004600082815260200190815260200160002060006101000a81549073ffffffffffffffffffffffffffffffffffffffff02191690556001600360008573ffffffffffffffffffffffffffffffffffffffff1673ffffffffffffffffffffffffffffffffffffffff168152602001908152602001600020600082825403925050819055506001600360008473ffffffffffffffffffffffffffffffffffffffff1673ffffffffffffffffffffffffffffffffffffffff16815260200190815260200160002060008282540192505081905550816002600083815260200190815260200160002060006101000a81548173ffffffffffffffffffffffffffffffffffffffff021916908373ffffffffffffffffffffffffffffffffffffffff160217905550808273ffffffffffffffffffffffffffffffffffffffff168473ffffffffffffffffffffffffffffffffffffffff167fddf252ad1be2c89b69c2b068fc378daa952ba7f163c4a11628f55a4df523b3ef60405160405180910390a4613c1f8383836001613e9b565b505050565b613c2e83836136b9565b613c3b6000848484613c7f565b613c7a576040517f08c379a0000000000000000000000000000000000000000000000000000000008152600401613c7190614fb5565b60405180910390fd5b505050565b6000613ca08473ffffffffffffffffffffffffffffffffffffffff16613fef565b15613e09578373ffffffffffffffffffffffffffffffffffffffff1663150b7a02613cc961269d565b8786866040518563ffffffff1660e01b8152600401613ceb9493929190614eca565b602060405180830381600087803b158015613d0557600080fd5b505af1925050508015613d3657506040513d601f19601f82011682018060405250810190613d3391906147cb565b60015b613db9573d8060008114613d66576040519150601f19603f3d011682016040523d82523d6000602084013e613d6b565b606091505b50600081511415613db1576040517f08c379a0000000000000000000000000000000000000000000000000000000008152600401613da890614fb5565b60405180910390fd5b805181602001fd5b63150b7a0260e01b7bffffffffffffffffffffffffffffffffffffffffffffffffffffffff1916817bffffffffffffffffffffffffffffffffffffffffffffffffffffffff191614915050613e0e565b600190505b949350505050565b606060405180602001604052806000815250905090565b6060613e3882612d1c565b6000613e42613e16565b90506000815111613e625760405180602001604052806000815250613e8d565b80613e6c84614012565b604051602001613e7d929190614e8b565b6040516020818303038152906040525b915050919050565b50505050565b50505050565b6000613eac826117ed565b9050613ebc816000846001613e95565b613ec5826117ed565b90506004600083815260200190815260200160002060006101000a81549073ffffffffffffffffffffffffffffffffffffffff02191690556001600360008373ffffffffffffffffffffffffffffffffffffffff1673ffffffffffffffffffffffffffffffffffffffff168152602001908152602001600020600082825403925050819055506002600083815260200190815260200160002060006101000a81549073ffffffffffffffffffffffffffffffffffffffff021916905581600073ffffffffffffffffffffffffffffffffffffffff168273ffffffffffffffffffffffffffffffffffffffff167fddf252ad1be2c89b69c2b068fc378daa952ba7f163c4a11628f55a4df523b3ef60405160405180910390a4613feb816000846001613e9b565b5050565b6000808273ffffffffffffffffffffffffffffffffffffffff163b119050919050565b60606000600161402184614136565b01905060008167ffffffffffffffff811115614066577f4e487b7100000000000000000000000000000000000000000000000000000000600052604160045260246000fd5b6040519080825280601f01601f1916602001820160405280156140985781602001600182028036833780820191505090505b509050600082602001820190505b60011561412b578080600190039150507f3031323334353637383961626364656600000000000000000000000000000000600a86061a8153600a8581614115577f4e487b7100000000000000000000000000000000000000000000000000000000600052601260045260246000fd5b04945060008514156141265761412b565b6140a6565b819350505050919050565b600080600090507a184f03e93ff9f4daa797ed6e38ed64bf6a1f01000000000000000083106141ba577a184f03e93ff9f4daa797ed6e38ed64bf6a1f01000000000000000083816141b0577f4e487b7100000000000000000000000000000000000000000000000000000000600052601260045260246000fd5b0492506040810190505b6d04ee2d6d415b85acef8100000000831061421d576d04ee2d6d415b85acef81000000008381614213577f4e487b7100000000000000000000000000000000000000000000000000000000600052601260045260246000fd5b0492506020810190505b662386f26fc10000831061427257662386f26fc100008381614268577f4e487b7100000000000000000000000000000000000000000000000000000000600052601260045260246000fd5b0492506010810190505b6305f5e10083106142c1576305f5e10083816142b7577f4e487b7100000000000000000000000000000000000000000000000000000000600052601260045260246000fd5b0492506008810190505b612710831061430c576127108381614302577f4e487b7100000000000000000000000000000000000000000000000000000000600052601260045260246000fd5b0492506004810190505b60648310614355576064838161434b577f4e487b7100000000000000000000000000000000000000000000000000000000600052601260045260246000fd5b0492506002810190505b600a8310614364576001810190505b80915050919050565b828054614379906154d3565b90600052602060002090601f01602090048101928261439b57600085556143e2565b82601f106143b457805160ff19168380011785556143e2565b828001600101855582156143e2579182015b828111156143e15782518255916020019190600101906143c6565b5b5090506143ef9190614454565b5090565b50805460008255906000526020600020908101906144119190614454565b50565b508054614420906154d3565b6000825580601f106144325750614451565b601f0160209004906000526020600020908101906144509190614454565b5b50565b5b8082111561446d576000816000905550600101614455565b5090565b600061448461447f846152b5565b615290565b90508281526020810184848401111561449c57600080fd5b6144a7848285615491565b509392505050565b60006144c26144bd846152e6565b615290565b9050828152602081018484840111156144da57600080fd5b6144e5848285615491565b509392505050565b6000813590506144fc81615b97565b92915050565b60008135905061451181615bae565b92915050565b60008135905061452681615bc5565b92915050565b60008151905061453b81615bc5565b92915050565b600082601f83011261455257600080fd5b8135614562848260208601614471565b91505092915050565b60008135905061457a81615bdc565b92915050565b600082601f83011261459157600080fd5b81356145a18482602086016144af565b91505092915050565b6000813590506145b981615bec565b92915050565b6000602082840312156145d157600080fd5b60006145df848285016144ed565b91505092915050565b600080604083850312156145fb57600080fd5b6000614609858286016144ed565b925050602061461a858286016144ed565b9150509250929050565b60008060006060848603121561463957600080fd5b6000614647868287016144ed565b9350506020614658868287016144ed565b9250506040614669868287016145aa565b9150509250925092565b6000806000806080858703121561468957600080fd5b6000614697878288016144ed565b94505060206146a8878288016144ed565b93505060406146b9878288016145aa565b925050606085013567ffffffffffffffff8111156146d657600080fd5b6146e287828801614541565b91505092959194509250565b6000806040838503121561470157600080fd5b600061470f858286016144ed565b925050602061472085828601614502565b9150509250929050565b6000806040838503121561473d57600080fd5b600061474b858286016144ed565b925050602061475c8582860161456b565b9150509250929050565b6000806040838503121561477957600080fd5b6000614787858286016144ed565b9250506020614798858286016145aa565b9150509250929050565b6000602082840312156147b457600080fd5b60006147c284828501614517565b91505092915050565b6000602082840312156147dd57600080fd5b60006147eb8482850161452c565b91505092915050565b60006020828403121561480657600080fd5b60006148148482850161456b565b91505092915050565b60006020828403121561482f57600080fd5b600082013567ffffffffffffffff81111561484957600080fd5b61485584828501614580565b91505092915050565b6000806040838503121561487157600080fd5b600083013567ffffffffffffffff81111561488b57600080fd5b61489785828601614580565b925050602083013567ffffffffffffffff8111156148b457600080fd5b6148c085828601614580565b9150509250929050565b600080604083850312156148dd57600080fd5b600083013567ffffffffffffffff8111156148f757600080fd5b61490385828601614580565b9250506020614914858286016145aa565b9150509250929050565b60006020828403121561493057600080fd5b600061493e848285016145aa565b91505092915050565b6000806040838503121561495a57600080fd5b6000614968858286016145aa565b925050602083013567ffffffffffffffff81111561498557600080fd5b61499185828601614580565b9150509250929050565b600080604083850312156149ae57600080fd5b60006149bc858286016145aa565b92505060206149cd858286016145aa565b9150509250929050565b60006149e38383614e56565b60208301905092915050565b6149f88161541d565b82525050565b6000614a0982615327565b614a138185615355565b9350614a1e83615317565b8060005b83811015614a4f578151614a3688826149d7565b9750614a4183615348565b925050600181019050614a22565b5085935050505092915050565b614a658161542f565b82525050565b6000614a7682615332565b614a808185615366565b9350614a908185602086016154a0565b614a998161560c565b840191505092915050565b6000614aaf8261533d565b614ab98185615377565b9350614ac98185602086016154a0565b614ad28161560c565b840191505092915050565b6000614ae88261533d565b614af28185615388565b9350614b028185602086016154a0565b80840191505092915050565b6000614b1b602d83615377565b9150614b268261561d565b604082019050919050565b6000614b3e602183615377565b9150614b498261566c565b604082019050919050565b6000614b61603283615377565b9150614b6c826156bb565b604082019050919050565b6000614b84602683615377565b9150614b8f8261570a565b604082019050919050565b6000614ba7602583615377565b9150614bb282615759565b604082019050919050565b6000614bca601c83615377565b9150614bd5826157a8565b602082019050919050565b6000614bed602483615377565b9150614bf8826157d1565b604082019050919050565b6000614c10601983615377565b9150614c1b82615820565b602082019050919050565b6000614c33601483615377565b9150614c3e82615849565b602082019050919050565b6000614c56602083615377565b9150614c6182615872565b602082019050919050565b6000614c79601483615377565b9150614c848261589b565b602082019050919050565b6000614c9c601b83615377565b9150614ca7826158c4565b602082019050919050565b6000614cbf601483615377565b9150614cca826158ed565b602082019050919050565b6000614ce2602983615377565b9150614ced82615916565b604082019050919050565b6000614d05602e83615377565b9150614d1082615965565b604082019050919050565b6000614d28601283615377565b9150614d33826159b4565b602082019050919050565b6000614d4b602083615377565b9150614d56826159dd565b602082019050919050565b6000614d6e602883615377565b9150614d7982615a06565b604082019050919050565b6000614d91602083615377565b9150614d9c82615a55565b602082019050919050565b6000614db4601883615377565b9150614dbf82615a7e565b602082019050919050565b6000614dd7601283615377565b9150614de282615aa7565b602082019050919050565b6000614dfa601083615377565b9150614e0582615ad0565b602082019050919050565b6000614e1d602183615377565b9150614e2882615af9565b604082019050919050565b6000614e40603d83615377565b9150614e4b82615b48565b604082019050919050565b614e5f81615487565b82525050565b614e6e81615487565b82525050565b6000614e808284614add565b915081905092915050565b6000614e978285614add565b9150614ea38284614add565b91508190509392505050565b6000602082019050614ec460008301846149ef565b92915050565b6000608082019050614edf60008301876149ef565b614eec60208301866149ef565b614ef96040830185614e65565b8181036060830152614f0b8184614a6b565b905095945050505050565b60006020820190508181036000830152614f3081846149fe565b905092915050565b6000602082019050614f4d6000830184614a5c565b92915050565b60006020820190508181036000830152614f6d8184614aa4565b905092915050565b60006020820190508181036000830152614f8e81614b0e565b9050919050565b60006020820190508181036000830152614fae81614b31565b9050919050565b60006020820190508181036000830152614fce81614b54565b9050919050565b60006020820190508181036000830152614fee81614b77565b9050919050565b6000602082019050818103600083015261500e81614b9a565b9050919050565b6000602082019050818103600083015261502e81614bbd565b9050919050565b6000602082019050818103600083015261504e81614be0565b9050919050565b6000602082019050818103600083015261506e81614c03565b9050919050565b6000602082019050818103600083015261508e81614c26565b9050919050565b600060208201905081810360008301526150ae81614c49565b9050919050565b600060208201905081810360008301526150ce81614c6c565b9050919050565b600060208201905081810360008301526150ee81614c8f565b9050919050565b6000602082019050818103600083015261510e81614cb2565b9050919050565b6000602082019050818103600083015261512e81614cd5565b9050919050565b6000602082019050818103600083015261514e81614cf8565b9050919050565b6000602082019050818103600083015261516e81614d1b565b9050919050565b6000602082019050818103600083015261518e81614d3e565b9050919050565b600060208201905081810360008301526151ae81614d61565b9050919050565b600060208201905081810360008301526151ce81614d84565b9050919050565b600060208201905081810360008301526151ee81614da7565b9050919050565b6000602082019050818103600083015261520e81614dca565b9050919050565b6000602082019050818103600083015261522e81614ded565b9050919050565b6000602082019050818103600083015261524e81614e10565b9050919050565b6000602082019050818103600083015261526e81614e33565b9050919050565b600060208201905061528a6000830184614e65565b92915050565b600061529a6152ab565b90506152a68282615505565b919050565b6000604051905090565b600067ffffffffffffffff8211156152d0576152cf6155dd565b5b6152d98261560c565b9050602081019050919050565b600067ffffffffffffffff821115615301576153006155dd565b5b61530a8261560c565b9050602081019050919050565b6000819050602082019050919050565b600081519050919050565b600081519050919050565b600081519050919050565b6000602082019050919050565b600082825260208201905092915050565b600082825260208201905092915050565b600082825260208201905092915050565b600081905092915050565b600061539e82615487565b91506153a983615487565b9250827fffffffffffffffffffffffffffffffffffffffffffffffffffffffffffffffff038211156153de576153dd61557f565b5b828201905092915050565b60006153f482615487565b91506153ff83615487565b9250828210156154125761541161557f565b5b828203905092915050565b600061542882615467565b9050919050565b60008115159050919050565b60007fffffffff0000000000000000000000000000000000000000000000000000000082169050919050565b600073ffffffffffffffffffffffffffffffffffffffff82169050919050565b6000819050919050565b82818337600083830152505050565b60005b838110156154be5780820151818401526020810190506154a3565b838111156154cd576000848401525b50505050565b600060028204905060018216806154eb57607f821691505b602082108114156154ff576154fe6155ae565b5b50919050565b61550e8261560c565b810181811067ffffffffffffffff8211171561552d5761552c6155dd565b5b80604052505050565b600061554182615487565b91507fffffffffffffffffffffffffffffffffffffffffffffffffffffffffffffffff8214156155745761557361557f565b5b600182019050919050565b7f4e487b7100000000000000000000000000000000000000000000000000000000600052601160045260246000fd5b7f4e487b7100000000000000000000000000000000000000000000000000000000600052602260045260246000fd5b7f4e487b7100000000000000000000000000000000000000000000000000000000600052604160045260246000fd5b6000601f19601f8301169050919050565b7f4552433732313a2063616c6c6572206973206e6f7420746f6b656e206f776e6560008201527f72206f7220617070726f76656400000000000000000000000000000000000000602082015250565b7f546f6b656e206973206120636c6f6e652c206e6f7420616e206f726967696e6160008201527f6c00000000000000000000000000000000000000000000000000000000000000602082015250565b7f4552433732313a207472616e7366657220746f206e6f6e20455243373231526560008201527f63656976657220696d706c656d656e7465720000000000000000000000000000602082015250565b7f4f776e61626c653a206e6577206f776e657220697320746865207a65726f206160008201527f6464726573730000000000000000000000000000000000000000000000000000602082015250565b7f4552433732313a207472616e736665722066726f6d20696e636f72726563742060008201527f6f776e6572000000000000000000000000000000000000000000000000000000602082015250565b7f4552433732313a20746f6b656e20616c7265616479206d696e74656400000000600082015250565b7f4552433732313a207472616e7366657220746f20746865207a65726f2061646460008201527f7265737300000000000000000000000000000000000000000000000000000000602082015250565b7f4552433732313a20617070726f766520746f2063616c6c657200000000000000600082015250565b7f43616e6e6f7420636c6f6e65206120636c6f6e65000000000000000000000000600082015250565b7f496e73756666696369656e742066756e647320746f206d696e7420636c6f6e65600082015250565b7f546f6b656e20646f6573206e6f74206578697374000000000000000000000000600082015250565b7f546f6b656e20494420646f6573206e6f74206d617463682055524c0000000000600082015250565b7f546f6b656e206973206e6f74206120636c6f6e65000000000000000000000000600082015250565b7f4552433732313a2061646472657373207a65726f206973206e6f74206120766160008201527f6c6964206f776e65720000000000000000000000000000000000000000000000602082015250565b7f45524337323155524953746f726167653a2055524920736574206f66206e6f6e60008201527f6578697374656e7420746f6b656e000000000000000000000000000000000000602082015250565b7f55524c20616c7265616479206578697374730000000000000000000000000000600082015250565b7f4552433732313a206d696e7420746f20746865207a65726f2061646472657373600082015250565b7f4552433732313a2063616c6c6572206973206e6f74206f776e6572206e6f722060008201527f617070726f766564000000000000000000000000000000000000000000000000602082015250565b7f4f776e61626c653a2063616c6c6572206973206e6f7420746865206f776e6572600082015250565b7f4552433732313a20696e76616c696420746f6b656e2049440000000000000000600082015250565b7f55524c20646f6573206e6f742065786973740000000000000000000000000000600082015250565b7f496e76616c696420746f6b656e20494400000000000000000000000000000000600082015250565b7f4552433732313a20617070726f76616c20746f2063757272656e74206f776e6560008201527f7200000000000000000000000000000000000000000000000000000000000000602082015250565b7f4552433732313a20617070726f76652063616c6c6572206973206e6f7420746f60008201527f6b656e206f776e6572206f7220617070726f76656420666f7220616c6c000000602082015250565b615ba08161541d565b8114615bab57600080fd5b50565b615bb78161542f565b8114615bc257600080fd5b50565b615bce8161543b565b8114615bd957600080fd5b50565b60038110615be957600080fd5b50565b615bf581615487565b8114615c0057600080fd5b5056fea2646970667358221220a9c9af708b7d1de37578995611c24a8b402a0b53b9e732c01efd884a6d8408b864736f6c63430008010033",
  "linkReferences": {},
  "deployedLinkReferences": {}
}