{
  "_format": "hh-sol-artifact-1",
  "contractName": "CloneableNFT",
  "sourceName": "contracts/ClonableNFT.sol",
  "abi": [
    {
      "inputs": [
        {
          "internalType": "string",
          "name": "name",
          "type": "string"
        },
        {
          "internalType": "string",
          "name": "symbol",
          "type": "string"
        },
        {
          "internalType": "string",
          "name": "_description",
          "type": "string"
        },
        {
          "internalType": "uint256",
          "name": "defaultClonePrice",
          "type": "uint256"
        }
      ],
      "stateMutability": "nonpayable",
      "type": "constructor"
    },
    {
      "anonymous": false,
      "inputs": [
        {
          "indexed": true,
          "internalType": "address",
          "name": "owner",
          "type": "address"
        },
        {
          "indexed": true,
          "internalType": "address",
          "name": "approved",
          "type": "address"
        },
        {
          "indexed": true,
          "internalType": "uint256",
          "name": "tokenId",
          "type": "uint256"
        }
      ],
      "name": "Approval",
      "type": "event"
    },
    {
      "anonymous": false,
      "inputs": [
        {
          "indexed": true,
          "internalType": "address",
          "name": "owner",
          "type": "address"
        },
        {
          "indexed": true,
          "internalType": "address",
          "name": "operator",
          "type": "address"
        },
        {
          "indexed": false,
          "internalType": "bool",
          "name": "approved",
          "type": "bool"
        }
      ],
      "name": "ApprovalForAll",
      "type": "event"
    },
    {
      "anonymous": false,
      "inputs": [
        {
          "indexed": true,
          "internalType": "address",
          "name": "previousOwner",
          "type": "address"
        },
        {
          "indexed": true,
          "internalType": "address",
          "name": "newOwner",
          "type": "address"
        }
      ],
      "name": "OwnershipTransferred",
      "type": "event"
    },
    {
      "anonymous": false,
      "inputs": [
        {
          "indexed": true,
          "internalType": "address",
          "name": "from",
          "type": "address"
        },
        {
          "indexed": true,
          "internalType": "address",
          "name": "to",
          "type": "address"
        },
        {
          "indexed": true,
          "internalType": "uint256",
          "name": "tokenId",
          "type": "uint256"
        }
      ],
      "name": "Transfer",
      "type": "event"
    },
    {
      "inputs": [
        {
          "internalType": "address",
          "name": "to",
          "type": "address"
        },
        {
          "internalType": "uint256",
          "name": "tokenId",
          "type": "uint256"
        }
      ],
      "name": "approve",
      "outputs": [],
      "stateMutability": "nonpayable",
      "type": "function"
    },
    {
      "inputs": [
        {
          "internalType": "address",
          "name": "owner",
          "type": "address"
        }
      ],
      "name": "balanceOf",
      "outputs": [
        {
          "internalType": "uint256",
          "name": "",
          "type": "uint256"
        }
      ],
      "stateMutability": "view",
      "type": "function"
    },
    {
      "inputs": [
        {
          "internalType": "uint256",
          "name": "tokenId",
          "type": "uint256"
        }
      ],
      "name": "burnToken",
      "outputs": [],
      "stateMutability": "nonpayable",
      "type": "function"
    },
    {
      "inputs": [],
      "name": "creationTime",
      "outputs": [
        {
          "internalType": "uint256",
          "name": "",
          "type": "uint256"
        }
      ],
      "stateMutability": "view",
      "type": "function"
    },
    {
      "inputs": [],
      "name": "description",
      "outputs": [
        {
          "internalType": "string",
          "name": "",
          "type": "string"
        }
      ],
      "stateMutability": "view",
      "type": "function"
    },
    {
      "inputs": [],
      "name": "getAllMintedTokens",
      "outputs": [
        {
          "internalType": "uint256[]",
          "name": "",
          "type": "uint256[]"
        }
      ],
      "stateMutability": "view",
      "type": "function"
    },
    {
      "inputs": [
        {
          "internalType": "enum CloneableNFT.CloneFilter",
          "name": "filter",
          "type": "uint8"
        }
      ],
      "name": "getAllMintedTokens",
      "outputs": [
        {
          "internalType": "uint256[]",
          "name": "",
          "type": "uint256[]"
        }
      ],
      "stateMutability": "view",
      "type": "function"
    },
    {
      "inputs": [
        {
          "internalType": "uint256",
          "name": "tokenId",
          "type": "uint256"
        }
      ],
      "name": "getApproved",
      "outputs": [
        {
          "internalType": "address",
          "name": "",
          "type": "address"
        }
      ],
      "stateMutability": "view",
      "type": "function"
    },
    {
      "inputs": [
        {
          "internalType": "uint256",
          "name": "tokenId",
          "type": "uint256"
        }
      ],
      "name": "getClonePrice",
      "outputs": [
        {
          "internalType": "uint256",
          "name": "",
          "type": "uint256"
        }
      ],
      "stateMutability": "view",
      "type": "function"
    },
    {
      "inputs": [
        {
          "internalType": "uint256",
          "name": "tokenId",
          "type": "uint256"
        }
      ],
      "name": "getClonesOfOriginal",
      "outputs": [
        {
          "internalType": "uint256[]",
          "name": "",
          "type": "uint256[]"
        }
      ],
      "stateMutability": "view",
      "type": "function"
    },
    {
      "inputs": [],
      "name": "getContractCreator",
      "outputs": [
        {
          "internalType": "address",
          "name": "",
          "type": "address"
        }
      ],
      "stateMutability": "view",
      "type": "function"
    },
    {
      "inputs": [],
      "name": "getDefaultClonePrice",
      "outputs": [
        {
          "internalType": "uint256",
          "name": "",
          "type": "uint256"
        }
      ],
      "stateMutability": "view",
      "type": "function"
    },
    {
      "inputs": [
        {
          "internalType": "uint256",
          "name": "tokenId",
          "type": "uint256"
        }
      ],
      "name": "getHasClonePrice",
      "outputs": [
        {
          "internalType": "bool",
          "name": "",
          "type": "bool"
        }
      ],
      "stateMutability": "view",
      "type": "function"
    },
    {
      "inputs": [
        {
          "internalType": "uint256",
          "name": "tokenId",
          "type": "uint256"
        }
      ],
      "name": "getOriginal",
      "outputs": [
        {
          "internalType": "uint256",
          "name": "",
          "type": "uint256"
        }
      ],
      "stateMutability": "view",
      "type": "function"
    },
    {
      "inputs": [
        {
          "internalType": "address",
          "name": "owner",
          "type": "address"
        },
        {
          "internalType": "enum CloneableNFT.CloneFilter",
          "name": "filter",
          "type": "uint8"
        }
      ],
      "name": "getOwnedTokens",
      "outputs": [
        {
          "internalType": "uint256[]",
          "name": "",
          "type": "uint256[]"
        }
      ],
      "stateMutability": "view",
      "type": "function"
    },
    {
      "inputs": [
        {
          "internalType": "address",
          "name": "owner",
          "type": "address"
        }
      ],
      "name": "getOwnedTokens",
      "outputs": [
        {
          "internalType": "uint256[]",
          "name": "",
          "type": "uint256[]"
        }
      ],
      "stateMutability": "view",
      "type": "function"
    },
    {
      "inputs": [
        {
          "internalType": "uint256",
          "name": "tokenId",
          "type": "uint256"
        }
      ],
      "name": "getTokenCreator",
      "outputs": [
        {
          "internalType": "address",
          "name": "",
          "type": "address"
        }
      ],
      "stateMutability": "view",
      "type": "function"
    },
    {
      "inputs": [
        {
          "internalType": "string",
          "name": "_url",
          "type": "string"
        }
      ],
      "name": "getTokenIdByUrl",
      "outputs": [
        {
          "internalType": "uint256",
          "name": "",
          "type": "uint256"
        }
      ],
      "stateMutability": "view",
      "type": "function"
    },
    {
      "inputs": [],
      "name": "getTotalMintClonedTokens",
      "outputs": [
        {
          "internalType": "uint256",
          "name": "",
          "type": "uint256"
        }
      ],
      "stateMutability": "view",
      "type": "function"
    },
    {
      "inputs": [],
      "name": "getTotalMintOriginalTokens",
      "outputs": [
        {
          "internalType": "uint256",
          "name": "",
          "type": "uint256"
        }
      ],
      "stateMutability": "view",
      "type": "function"
    },
    {
      "inputs": [],
      "name": "getTotalMintedTokens",
      "outputs": [
        {
          "internalType": "uint256",
          "name": "",
          "type": "uint256"
        }
      ],
      "stateMutability": "view",
      "type": "function"
    },
    {
      "inputs": [
        {
          "internalType": "address",
          "name": "owner",
          "type": "address"
        },
        {
          "internalType": "address",
          "name": "operator",
          "type": "address"
        }
      ],
      "name": "isApprovedForAll",
      "outputs": [
        {
          "internalType": "bool",
          "name": "",
          "type": "bool"
        }
      ],
      "stateMutability": "view",
      "type": "function"
    },
    {
      "inputs": [
        {
          "internalType": "uint256",
          "name": "tokenId",
          "type": "uint256"
        }
      ],
      "name": "isClone",
      "outputs": [
        {
          "internalType": "bool",
          "name": "",
          "type": "bool"
        }
      ],
      "stateMutability": "view",
      "type": "function"
    },
    {
      "inputs": [
        {
          "internalType": "uint256",
          "name": "tokenId",
          "type": "uint256"
        },
        {
          "internalType": "string",
          "name": "_tokenURI",
          "type": "string"
        }
      ],
      "name": "mintClone",
      "outputs": [],
      "stateMutability": "payable",
      "type": "function"
    },
    {
      "inputs": [
        {
          "internalType": "string",
          "name": "_tokenURI",
          "type": "string"
        },
        {
          "internalType": "string",
          "name": "_url",
          "type": "string"
        }
      ],
      "name": "mintNFT",
      "outputs": [],
      "stateMutability": "nonpayable",
      "type": "function"
    },
    {
      "inputs": [],
      "name": "name",
      "outputs": [
        {
          "internalType": "string",
          "name": "",
          "type": "string"
        }
      ],
      "stateMutability": "view",
      "type": "function"
    },
    {
      "inputs": [],
      "name": "owner",
      "outputs": [
        {
          "internalType": "address",
          "name": "",
          "type": "address"
        }
      ],
      "stateMutability": "view",
      "type": "function"
    },
    {
      "inputs": [
        {
          "internalType": "uint256",
          "name": "tokenId",
          "type": "uint256"
        }
      ],
      "name": "ownerOf",
      "outputs": [
        {
          "internalType": "address",
          "name": "",
          "type": "address"
        }
      ],
      "stateMutability": "view",
      "type": "function"
    },
    {
      "inputs": [],
      "name": "renounceOwnership",
      "outputs": [],
      "stateMutability": "nonpayable",
      "type": "function"
    },
    {
      "inputs": [
        {
          "internalType": "address",
          "name": "from",
          "type": "address"
        },
        {
          "internalType": "address",
          "name": "to",
          "type": "address"
        },
        {
          "internalType": "uint256",
          "name": "tokenId",
          "type": "uint256"
        }
      ],
      "name": "safeTransferFrom",
      "outputs": [],
      "stateMutability": "nonpayable",
      "type": "function"
    },
    {
      "inputs": [
        {
          "internalType": "address",
          "name": "from",
          "type": "address"
        },
        {
          "internalType": "address",
          "name": "to",
          "type": "address"
        },
        {
          "internalType": "uint256",
          "name": "tokenId",
          "type": "uint256"
        },
        {
          "internalType": "bytes",
          "name": "data",
          "type": "bytes"
        }
      ],
      "name": "safeTransferFrom",
      "outputs": [],
      "stateMutability": "nonpayable",
      "type": "function"
    },
    {
      "inputs": [
        {
          "internalType": "address",
          "name": "operator",
          "type": "address"
        },
        {
          "internalType": "bool",
          "name": "approved",
          "type": "bool"
        }
      ],
      "name": "setApprovalForAll",
      "outputs": [],
      "stateMutability": "nonpayable",
      "type": "function"
    },
    {
      "inputs": [
        {
          "internalType": "uint256",
          "name": "tokenId",
          "type": "uint256"
        },
        {
          "internalType": "uint256",
          "name": "newPrice",
          "type": "uint256"
        }
      ],
      "name": "setClonePrice",
      "outputs": [],
      "stateMutability": "nonpayable",
      "type": "function"
    },
    {
      "inputs": [
        {
          "internalType": "uint256",
          "name": "newPrice",
          "type": "uint256"
        }
      ],
      "name": "setDefaultClonePrice",
      "outputs": [],
      "stateMutability": "nonpayable",
      "type": "function"
    },
    {
      "inputs": [
        {
          "internalType": "string",
          "name": "_description",
          "type": "string"
        }
      ],
      "name": "setDescription",
      "outputs": [],
      "stateMutability": "nonpayable",
      "type": "function"
    },
    {
      "inputs": [
        {
          "internalType": "string",
          "name": "_description",
          "type": "string"
        },
        {
          "internalType": "uint256",
          "name": "_newPrice",
          "type": "uint256"
        }
      ],
      "name": "setDescriptionAndDefaultClonePrice",
      "outputs": [],
      "stateMutability": "nonpayable",
      "type": "function"
    },
    {
      "inputs": [
        {
          "internalType": "bytes4",
          "name": "interfaceId",
          "type": "bytes4"
        }
      ],
      "name": "supportsInterface",
      "outputs": [
        {
          "internalType": "bool",
          "name": "",
          "type": "bool"
        }
      ],
      "stateMutability": "view",
      "type": "function"
    },
    {
      "inputs": [],
      "name": "symbol",
      "outputs": [
        {
          "internalType": "string",
          "name": "",
          "type": "string"
        }
      ],
      "stateMutability": "view",
      "type": "function"
    },
    {
      "inputs": [
        {
          "internalType": "uint256",
          "name": "tokenId",
          "type": "uint256"
        }
      ],
      "name": "tokenURI",
      "outputs": [
        {
          "internalType": "string",
          "name": "",
          "type": "string"
        }
      ],
      "stateMutability": "view",
      "type": "function"
    },
    {
      "inputs": [
        {
          "internalType": "address",
          "name": "from",
          "type": "address"
        },
        {
          "internalType": "address",
          "name": "to",
          "type": "address"
        },
        {
          "internalType": "uint256",
          "name": "tokenId",
          "type": "uint256"
        }
      ],
      "name": "transferFrom",
      "outputs": [],
      "stateMutability": "nonpayable",
      "type": "function"
    },
    {
      "inputs": [
        {
          "internalType": "address",
          "name": "newOwner",
          "type": "address"
        }
      ],
      "name": "transferOwnership",
      "outputs": [],
      "stateMutability": "nonpayable",
      "type": "function"
    },
    {
      "inputs": [],
      "name": "withdraw",
      "outputs": [],
      "stateMutability": "nonpayable",
      "type": "function"
    }
  ],
  "bytecode": "0x60806040526000600b553480156200001657600080fd5b50604051620060aa380380620060aa83398181016040528101906200003c91906200030b565b8383816000908051906020019062000056929190620001d2565b5080600190805190602001906200006f929190620001d2565b50505062000092620000866200010460201b60201c565b6200010c60201b60201c565b33601260006101000a81548173ffffffffffffffffffffffffffffffffffffffff021916908373ffffffffffffffffffffffffffffffffffffffff1602179055504260098190555081600a9080519060200190620000f2929190620001d2565b5080600b819055505050505062000556565b600033905090565b6000600760009054906101000a900473ffffffffffffffffffffffffffffffffffffffff16905081600760006101000a81548173ffffffffffffffffffffffffffffffffffffffff021916908373ffffffffffffffffffffffffffffffffffffffff1602179055508173ffffffffffffffffffffffffffffffffffffffff168173ffffffffffffffffffffffffffffffffffffffff167f8be0079c531659141344cd1fd0a4f28419497f9722a3daafe3b4186f6b6457e060405160405180910390a35050565b828054620001e09062000461565b90600052602060002090601f01602090048101928262000204576000855562000250565b82601f106200021f57805160ff191683800117855562000250565b8280016001018555821562000250579182015b828111156200024f57825182559160200191906001019062000232565b5b5090506200025f919062000263565b5090565b5b808211156200027e57600081600090555060010162000264565b5090565b6000620002996200029384620003eb565b620003c2565b905082815260208101848484011115620002b257600080fd5b620002bf8482856200042b565b509392505050565b600082601f830112620002d957600080fd5b8151620002eb84826020860162000282565b91505092915050565b60008151905062000305816200053c565b92915050565b600080600080608085870312156200032257600080fd5b600085015167ffffffffffffffff8111156200033d57600080fd5b6200034b87828801620002c7565b945050602085015167ffffffffffffffff8111156200036957600080fd5b6200037787828801620002c7565b935050604085015167ffffffffffffffff8111156200039557600080fd5b620003a387828801620002c7565b9250506060620003b687828801620002f4565b91505092959194509250565b6000620003ce620003e1565b9050620003dc828262000497565b919050565b6000604051905090565b600067ffffffffffffffff821115620004095762000408620004fc565b5b62000414826200052b565b9050602081019050919050565b6000819050919050565b60005b838110156200044b5780820151818401526020810190506200042e565b838111156200045b576000848401525b50505050565b600060028204905060018216806200047a57607f821691505b60208210811415620004915762000490620004cd565b5b50919050565b620004a2826200052b565b810181811067ffffffffffffffff82111715620004c457620004c3620004fc565b5b80604052505050565b7f4e487b7100000000000000000000000000000000000000000000000000000000600052602260045260246000fd5b7f4e487b7100000000000000000000000000000000000000000000000000000000600052604160045260246000fd5b6000601f19601f8301169050919050565b620005478162000421565b81146200055357600080fd5b50565b615b4480620005666000396000f3fe6080604052600436106102515760003560e01c80637b47ec1a11610139578063c144dd2a116100b6578063d9d616551161007a578063d9d6165514610915578063e960554414610952578063e985e9c51461097b578063ef74248d146109b8578063f2fde38b146109e1578063f67a769c14610a0a57610251565b8063c144dd2a14610808578063c6af112214610845578063c87b56dd14610870578063d800fe45146108ad578063d8270dce146108ea57610251565b806395d89b41116100fd57806395d89b4114610711578063996393821461073c578063a22cb46514610779578063b88d4fde146107a2578063bc8c778f146107cb57610251565b80637b47ec1a1461062c5780637d5298b9146106555780638da5cb5b1461068057806390c3f38f146106ab578063934689a9146106d457610251565b80632aa2e90a116101d25780634da6de3f116101965780634da6de3f146105085780636352211e14610533578063639032cc1461057057806370a08231146105ad578063715018a6146105ea5780637284e4161461060157610251565b80632aa2e90a1461043257806330f7319d1461044e578063385eda9c1461048b5780633ccfd60b146104c857806342842e0e146104df57610251565b80630b01ac8e116102195780630b01ac8e1461034f5780630e258726146103785780631741f3e2146103a35780631a2b285e146103e057806323b872dd1461040957610251565b806301ffc9a71461025657806306fdde0314610293578063080b0179146102be578063081812fc146102e9578063095ea7b314610326575b600080fd5b34801561026257600080fd5b5061027d60048036038101906102789190614719565b610a35565b60405161028a9190614e8c565b60405180910390f35b34801561029f57600080fd5b506102a8610b17565b6040516102b59190614ea7565b60405180910390f35b3480156102ca57600080fd5b506102d3610ba9565b6040516102e09190614e6a565b60405180910390f35b3480156102f557600080fd5b50610310600480360381019061030b9190614895565b610bba565b60405161031d9190614e03565b60405180910390f35b34801561033257600080fd5b5061034d600480360381019061034891906146dd565b610c00565b005b34801561035b57600080fd5b5061037660048036038101906103719190614841565b610d18565b005b34801561038457600080fd5b5061038d610d42565b60405161039a9190614e03565b60405180910390f35b3480156103af57600080fd5b506103ca60048036038101906103c59190614794565b610d6c565b6040516103d791906151a9565b60405180910390f35b3480156103ec57600080fd5b5061040760048036038101906104029190614895565b610df5565b005b34801561041557600080fd5b50610430600480360381019061042b919061459b565b610e07565b005b61044c600480360381019061044791906148be565b610e67565b005b34801561045a57600080fd5b50610475600480360381019061047091906146a1565b611137565b6040516104829190614e6a565b60405180910390f35b34801561049757600080fd5b506104b260048036038101906104ad9190614895565b61165c565b6040516104bf9190614e8c565b60405180910390f35b3480156104d457600080fd5b506104dd611686565b005b3480156104eb57600080fd5b506105066004803603810190610501919061459b565b6116de565b005b34801561051457600080fd5b5061051d6116fe565b60405161052a91906151a9565b60405180910390f35b34801561053f57600080fd5b5061055a60048036038101906105559190614895565b611708565b6040516105679190614e03565b60405180910390f35b34801561057c57600080fd5b5061059760048036038101906105929190614895565b61178f565b6040516105a49190614e6a565b60405180910390f35b3480156105b957600080fd5b506105d460048036038101906105cf9190614536565b61185b565b6040516105e191906151a9565b60405180910390f35b3480156105f657600080fd5b506105ff611913565b005b34801561060d57600080fd5b50610616611927565b6040516106239190614ea7565b60405180910390f35b34801561063857600080fd5b50610653600480360381019061064e9190614895565b6119b5565b005b34801561066157600080fd5b5061066a611a11565b60405161067791906151a9565b60405180910390f35b34801561068c57600080fd5b50610695611a1b565b6040516106a29190614e03565b60405180910390f35b3480156106b757600080fd5b506106d260048036038101906106cd9190614794565b611a45565b005b3480156106e057600080fd5b506106fb60048036038101906106f69190614895565b611a67565b6040516107089190614e03565b60405180910390f35b34801561071d57600080fd5b50610726611aec565b6040516107339190614ea7565b60405180910390f35b34801561074857600080fd5b50610763600480360381019061075e919061476b565b611b7e565b6040516107709190614e6a565b60405180910390f35b34801561078557600080fd5b506107a0600480360381019061079b9190614665565b612098565b005b3480156107ae57600080fd5b506107c960048036038101906107c491906145ea565b6120ae565b005b3480156107d757600080fd5b506107f260048036038101906107ed9190614895565b612110565b6040516107ff91906151a9565b60405180910390f35b34801561081457600080fd5b5061082f600480360381019061082a9190614895565b61218d565b60405161083c9190614e8c565b60405180910390f35b34801561085157600080fd5b5061085a6121ff565b60405161086791906151a9565b60405180910390f35b34801561087c57600080fd5b5061089760048036038101906108929190614895565b612209565b6040516108a49190614ea7565b60405180910390f35b3480156108b957600080fd5b506108d460048036038101906108cf9190614895565b61221b565b6040516108e191906151a9565b60405180910390f35b3480156108f657600080fd5b506108ff612238565b60405161090c91906151a9565b60405180910390f35b34801561092157600080fd5b5061093c60048036038101906109379190614536565b61223e565b6040516109499190614e6a565b60405180910390f35b34801561095e57600080fd5b50610979600480360381019061097491906147d5565b612252565b005b34801561098757600080fd5b506109a2600480360381019061099d919061455f565b612441565b6040516109af9190614e8c565b60405180910390f35b3480156109c457600080fd5b506109df60048036038101906109da9190614912565b6124d5565b005b3480156109ed57600080fd5b50610a086004803603810190610a039190614536565b612579565b005b348015610a1657600080fd5b50610a1f6125fd565b604051610a2c91906151a9565b60405180910390f35b60007f80ac58cd000000000000000000000000000000000000000000000000000000007bffffffffffffffffffffffffffffffffffffffffffffffffffffffff1916827bffffffffffffffffffffffffffffffffffffffffffffffffffffffff19161480610b0057507f5b5e139f000000000000000000000000000000000000000000000000000000007bffffffffffffffffffffffffffffffffffffffffffffffffffffffff1916827bffffffffffffffffffffffffffffffffffffffffffffffffffffffff1916145b80610b105750610b0f82612614565b5b9050919050565b606060008054610b2690615407565b80601f0160208091040260200160405190810160405280929190818152602001828054610b5290615407565b8015610b9f5780601f10610b7457610100808354040283529160200191610b9f565b820191906000526020600020905b815481529060010190602001808311610b8257829003601f168201915b5050505050905090565b6060610bb56000611b7e565b905090565b6000610bc58261267e565b6004600083815260200190815260200160002060009054906101000a900473ffffffffffffffffffffffffffffffffffffffff169050919050565b6000610c0b82611708565b90508073ffffffffffffffffffffffffffffffffffffffff168373ffffffffffffffffffffffffffffffffffffffff161415610c7c576040517f08c379a0000000000000000000000000000000000000000000000000000000008152600401610c7390615169565b60405180910390fd5b8073ffffffffffffffffffffffffffffffffffffffff16610c9b6126c9565b73ffffffffffffffffffffffffffffffffffffffff161480610cca5750610cc981610cc46126c9565b612441565b5b610d09576040517f08c379a0000000000000000000000000000000000000000000000000000000008152600401610d0090615189565b60405180910390fd5b610d1383836126d1565b505050565b610d2061278a565b81600a9080519060200190610d369291906142e4565b5080600b819055505050565b6000601260009054906101000a900473ffffffffffffffffffffffffffffffffffffffff16905090565b600080601083604051610d7f9190614dc8565b9081526020016040518091039020541415610dcf576040517f08c379a0000000000000000000000000000000000000000000000000000000008152600401610dc690615129565b60405180910390fd5b601082604051610ddf9190614dc8565b9081526020016040518091039020549050919050565b610dfd61278a565b80600b8190555050565b610e18610e126126c9565b82612808565b610e57576040517f08c379a0000000000000000000000000000000000000000000000000000000008152600401610e4e90614ec9565b60405180910390fd5b610e6283838361289d565b505050565b610e7082612be2565b610eaf576040517f08c379a0000000000000000000000000000000000000000000000000000000008152600401610ea690615149565b60405180910390fd5b600c600083815260200190815260200160002060009054906101000a900460ff1615610f10576040517f08c379a0000000000000000000000000000000000000000000000000000000008152600401610f0790614fc9565b60405180910390fd5b600080600e60008581526020019081526020016000205411610f3457600b54610f49565b600e6000848152602001908152602001600020545b905080341015610f8e576040517f08c379a0000000000000000000000000000000000000000000000000000000008152600401610f8590614fe9565b60405180910390fd5b610f986008612c23565b6000610fa46008612c39565b9050610fb03382612c47565b6001600c600083815260200190815260200160002060006101000a81548160ff02191690831515021790555083600d600083815260200190815260200160002081905550610ffe8184612c65565b60146000858152602001908152602001600020819080600181540180825580915050600190039060005260206000200160009091909190915055601360003373ffffffffffffffffffffffffffffffffffffffff1673ffffffffffffffffffffffffffffffffffffffff1681526020019081526020016000208190806001815401808255809150506001900390600052602060002001600090919091909150556015819080600181540180825580915050600190039060005260206000200160009091909190915055601760008154809291906110da9061546a565b9190505550336011600083815260200190815260200160002060006101000a81548173ffffffffffffffffffffffffffffffffffffffff021916908373ffffffffffffffffffffffffffffffffffffffff16021790555050505050565b60606000601360008573ffffffffffffffffffffffffffffffffffffffff1673ffffffffffffffffffffffffffffffffffffffff1681526020019081526020016000208054806020026020016040519081016040528092919081815260200182805480156111c457602002820191906000526020600020905b8154815260200190600101908083116111b0575b5050505050905060006002811115611205577f4e487b7100000000000000000000000000000000000000000000000000000000600052602160045260246000fd5b83600281111561123e577f4e487b7100000000000000000000000000000000000000000000000000000000600052602160045260246000fd5b141561124d5780915050611656565b6000805b82518110156113d05760006112a5848381518110611298577f4e487b7100000000000000000000000000000000000000000000000000000000600052603260045260246000fd5b602002602001015161165c565b9050600160028111156112e1577f4e487b7100000000000000000000000000000000000000000000000000000000600052602160045260246000fd5b86600281111561131a577f4e487b7100000000000000000000000000000000000000000000000000000000600052602160045260246000fd5b1480156113245750805b806113a85750600280811115611363577f4e487b7100000000000000000000000000000000000000000000000000000000600052602160045260246000fd5b86600281111561139c577f4e487b7100000000000000000000000000000000000000000000000000000000600052602160045260246000fd5b1480156113a7575080155b5b156113bc5782806113b89061546a565b9350505b5080806113c89061546a565b915050611251565b5060008167ffffffffffffffff811115611413577f4e487b7100000000000000000000000000000000000000000000000000000000600052604160045260246000fd5b6040519080825280602002602001820160405280156114415781602001602082028036833780820191505090505b5090506000805b845181101561164d57600061149c86838151811061148f577f4e487b7100000000000000000000000000000000000000000000000000000000600052603260045260246000fd5b602002602001015161165c565b9050600160028111156114d8577f4e487b7100000000000000000000000000000000000000000000000000000000600052602160045260246000fd5b886002811115611511577f4e487b7100000000000000000000000000000000000000000000000000000000600052602160045260246000fd5b14801561151b5750805b8061159f575060028081111561155a577f4e487b7100000000000000000000000000000000000000000000000000000000600052602160045260246000fd5b886002811115611593577f4e487b7100000000000000000000000000000000000000000000000000000000600052602160045260246000fd5b14801561159e575080155b5b15611639578582815181106115dd577f4e487b7100000000000000000000000000000000000000000000000000000000600052603260045260246000fd5b602002602001015184848151811061161e577f4e487b7100000000000000000000000000000000000000000000000000000000600052603260045260246000fd5b60200260200101818152505082806116359061546a565b9350505b5080806116459061546a565b915050611448565b50819450505050505b92915050565b6000600c600083815260200190815260200160002060009054906101000a900460ff169050919050565b61168e61278a565b611696611a1b565b73ffffffffffffffffffffffffffffffffffffffff166108fc479081150290604051600060405180830381858888f193505050501580156116db573d6000803e3d6000fd5b50565b6116f9838383604051806020016040528060008152506120ae565b505050565b6000601654905090565b60008061171483612cd9565b9050600073ffffffffffffffffffffffffffffffffffffffff168173ffffffffffffffffffffffffffffffffffffffff161415611786576040517f08c379a000000000000000000000000000000000000000000000000000000000815260040161177d90615109565b60405180910390fd5b80915050919050565b6060600c600083815260200190815260200160002060009054906101000a900460ff16156117f2576040517f08c379a00000000000000000000000000000000000000000000000000000000081526004016117e990614ee9565b60405180910390fd5b6014600083815260200190815260200160002080548060200260200160405190810160405280929190818152602001828054801561184f57602002820191906000526020600020905b81548152602001906001019080831161183b575b50505050509050919050565b60008073ffffffffffffffffffffffffffffffffffffffff168273ffffffffffffffffffffffffffffffffffffffff1614156118cc576040517f08c379a00000000000000000000000000000000000000000000000000000000081526004016118c390615049565b60405180910390fd5b600360008373ffffffffffffffffffffffffffffffffffffffff1673ffffffffffffffffffffffffffffffffffffffff168152602001908152602001600020549050919050565b61191b61278a565b6119256000612d16565b565b600a805461193490615407565b80601f016020809104026020016040519081016040528092919081815260200182805461196090615407565b80156119ad5780601f10611982576101008083540402835291602001916119ad565b820191906000526020600020905b81548152906001019060200180831161199057829003601f168201915b505050505081565b6119c66119c06126c9565b82612808565b611a05576040517f08c379a00000000000000000000000000000000000000000000000000000000081526004016119fc906150c9565b60405180910390fd5b611a0e81612ddc565b50565b6000601754905090565b6000600760009054906101000a900473ffffffffffffffffffffffffffffffffffffffff16905090565b611a4d61278a565b80600a9080519060200190611a639291906142e4565b5050565b6000611a7282612be2565b611ab1576040517f08c379a0000000000000000000000000000000000000000000000000000000008152600401611aa890615009565b60405180910390fd5b6011600083815260200190815260200160002060009054906101000a900473ffffffffffffffffffffffffffffffffffffffff169050919050565b606060018054611afb90615407565b80601f0160208091040260200160405190810160405280929190818152602001828054611b2790615407565b8015611b745780601f10611b4957610100808354040283529160200191611b74565b820191906000526020600020905b815481529060010190602001808311611b5757829003601f168201915b5050505050905090565b6060600080600090505b601580549050811015611d8a576000611be460158381548110611bd4577f4e487b7100000000000000000000000000000000000000000000000000000000600052603260045260246000fd5b906000526020600020015461165c565b905060006002811115611c20577f4e487b7100000000000000000000000000000000000000000000000000000000600052602160045260246000fd5b856002811115611c59577f4e487b7100000000000000000000000000000000000000000000000000000000600052602160045260246000fd5b1480611cde575060016002811115611c9a577f4e487b7100000000000000000000000000000000000000000000000000000000600052602160045260246000fd5b856002811115611cd3577f4e487b7100000000000000000000000000000000000000000000000000000000600052602160045260246000fd5b148015611cdd5750805b5b80611d625750600280811115611d1d577f4e487b7100000000000000000000000000000000000000000000000000000000600052602160045260246000fd5b856002811115611d56577f4e487b7100000000000000000000000000000000000000000000000000000000600052602160045260246000fd5b148015611d61575080155b5b15611d76578280611d729061546a565b9350505b508080611d829061546a565b915050611b88565b5060008167ffffffffffffffff811115611dcd577f4e487b7100000000000000000000000000000000000000000000000000000000600052604160045260246000fd5b604051908082528060200260200182016040528015611dfb5781602001602082028036833780820191505090505b5090506000805b60158054905081101561208c576000611e5e60158381548110611e4e577f4e487b7100000000000000000000000000000000000000000000000000000000600052603260045260246000fd5b906000526020600020015461165c565b905060006002811115611e9a577f4e487b7100000000000000000000000000000000000000000000000000000000600052602160045260246000fd5b876002811115611ed3577f4e487b7100000000000000000000000000000000000000000000000000000000600052602160045260246000fd5b1480611f58575060016002811115611f14577f4e487b7100000000000000000000000000000000000000000000000000000000600052602160045260246000fd5b876002811115611f4d577f4e487b7100000000000000000000000000000000000000000000000000000000600052602160045260246000fd5b148015611f575750805b5b80611fdc5750600280811115611f97577f4e487b7100000000000000000000000000000000000000000000000000000000600052602160045260246000fd5b876002811115611fd0577f4e487b7100000000000000000000000000000000000000000000000000000000600052602160045260246000fd5b148015611fdb575080155b5b15612078576015828154811061201b577f4e487b7100000000000000000000000000000000000000000000000000000000600052603260045260246000fd5b90600052602060002001548484806120329061546a565b95508151811061206b577f4e487b7100000000000000000000000000000000000000000000000000000000600052603260045260246000fd5b6020026020010181815250505b5080806120849061546a565b915050611e02565b50819350505050919050565b6120aa6120a36126c9565b8383613354565b5050565b6120bf6120b96126c9565b83612808565b6120fe576040517f08c379a00000000000000000000000000000000000000000000000000000000081526004016120f590614ec9565b60405180910390fd5b61210a848484846134c1565b50505050565b6000600c600083815260200190815260200160002060009054906101000a900460ff16612172576040517f08c379a000000000000000000000000000000000000000000000000000000000815260040161216990615029565b60405180910390fd5b600d6000838152602001908152602001600020549050919050565b600061219882612be2565b6121d7576040517f08c379a00000000000000000000000000000000000000000000000000000000081526004016121ce90615009565b60405180910390fd5b600f600083815260200190815260200160002060009054906101000a900460ff169050919050565b6000600b54905090565b60606122148261351d565b9050919050565b6000600e6000838152602001908152602001600020549050919050565b60095481565b606061224b826000611137565b9050919050565b61225a61278a565b600060108260405161226c9190614dc8565b908152602001604051809103902054146122bb576040517f08c379a00000000000000000000000000000000000000000000000000000000081526004016122b290615089565b60405180910390fd5b6122c56008612c23565b60006122cf6126c9565b905060006122dd6008612c39565b90506122e98282613630565b6000600c600083815260200190815260200160002060006101000a81548160ff02191690831515021790555061231f8185612c65565b806010846040516123309190614dc8565b908152602001604051809103902081905550601360008373ffffffffffffffffffffffffffffffffffffffff1673ffffffffffffffffffffffffffffffffffffffff1681526020019081526020016000208190806001815401808255809150506001900390600052602060002001600090919091909150556015819080600181540180825580915050600190039060005260206000200160009091909190915055601660008154809291906123e49061546a565b9190505550816011600083815260200190815260200160002060006101000a81548173ffffffffffffffffffffffffffffffffffffffff021916908373ffffffffffffffffffffffffffffffffffffffff16021790555050505050565b6000600560008473ffffffffffffffffffffffffffffffffffffffff1673ffffffffffffffffffffffffffffffffffffffff16815260200190815260200160002060008373ffffffffffffffffffffffffffffffffffffffff1673ffffffffffffffffffffffffffffffffffffffff16815260200190815260200160002060009054906101000a900460ff16905092915050565b6124dd61278a565b600081111561252f576001600f600084815260200190815260200160002060006101000a81548160ff02191690831515021790555080600e600084815260200190815260200160002081905550612575565b6000600f600084815260200190815260200160002060006101000a81548160ff0219169083151502179055506000600e6000848152602001908152602001600020819055505b5050565b61258161278a565b600073ffffffffffffffffffffffffffffffffffffffff168173ffffffffffffffffffffffffffffffffffffffff1614156125f1576040517f08c379a00000000000000000000000000000000000000000000000000000000081526004016125e890614f29565b60405180910390fd5b6125fa81612d16565b50565b600060175460165461260f91906152c7565b905090565b60007f01ffc9a7000000000000000000000000000000000000000000000000000000007bffffffffffffffffffffffffffffffffffffffffffffffffffffffff1916827bffffffffffffffffffffffffffffffffffffffffffffffffffffffff1916149050919050565b61268781612be2565b6126c6576040517f08c379a00000000000000000000000000000000000000000000000000000000081526004016126bd90615109565b60405180910390fd5b50565b600033905090565b816004600083815260200190815260200160002060006101000a81548173ffffffffffffffffffffffffffffffffffffffff021916908373ffffffffffffffffffffffffffffffffffffffff160217905550808273ffffffffffffffffffffffffffffffffffffffff1661274483611708565b73ffffffffffffffffffffffffffffffffffffffff167f8c5be1e5ebec7d5bd14f71427d1e84f3dd0314c0f7b2291e5b200ac8c7c3b92560405160405180910390a45050565b6127926126c9565b73ffffffffffffffffffffffffffffffffffffffff166127b0611a1b565b73ffffffffffffffffffffffffffffffffffffffff1614612806576040517f08c379a00000000000000000000000000000000000000000000000000000000081526004016127fd906150e9565b60405180910390fd5b565b60008061281483611708565b90508073ffffffffffffffffffffffffffffffffffffffff168473ffffffffffffffffffffffffffffffffffffffff16148061285657506128558185612441565b5b8061289457508373ffffffffffffffffffffffffffffffffffffffff1661287c84610bba565b73ffffffffffffffffffffffffffffffffffffffff16145b91505092915050565b6128a883838361384e565b60005b601360008573ffffffffffffffffffffffffffffffffffffffff1673ffffffffffffffffffffffffffffffffffffffff16815260200190815260200160002080549050811015612b765781601360008673ffffffffffffffffffffffffffffffffffffffff1673ffffffffffffffffffffffffffffffffffffffff168152602001908152602001600020828154811061296d577f4e487b7100000000000000000000000000000000000000000000000000000000600052603260045260246000fd5b90600052602060002001541415612b6357601360008573ffffffffffffffffffffffffffffffffffffffff1673ffffffffffffffffffffffffffffffffffffffff1681526020019081526020016000206001601360008773ffffffffffffffffffffffffffffffffffffffff1673ffffffffffffffffffffffffffffffffffffffff16815260200190815260200160002080549050612a0c919061531d565b81548110612a43577f4e487b7100000000000000000000000000000000000000000000000000000000600052603260045260246000fd5b9060005260206000200154601360008673ffffffffffffffffffffffffffffffffffffffff1673ffffffffffffffffffffffffffffffffffffffff1681526020019081526020016000208281548110612ac5577f4e487b7100000000000000000000000000000000000000000000000000000000600052603260045260246000fd5b9060005260206000200181905550601360008573ffffffffffffffffffffffffffffffffffffffff1673ffffffffffffffffffffffffffffffffffffffff168152602001908152602001600020805480612b48577f4e487b7100000000000000000000000000000000000000000000000000000000600052603160045260246000fd5b60019003818190600052602060002001600090559055612b76565b8080612b6e9061546a565b9150506128ab565b50601360008373ffffffffffffffffffffffffffffffffffffffff1673ffffffffffffffffffffffffffffffffffffffff168152602001908152602001600020819080600181540180825580915050600190039060005260206000200160009091909190915055505050565b60008073ffffffffffffffffffffffffffffffffffffffff16612c0483612cd9565b73ffffffffffffffffffffffffffffffffffffffff1614159050919050565b6001816000016000828254019250508190555050565b600081600001549050919050565b612c61828260405180602001604052806000815250613b48565b5050565b612c6e82612be2565b612cad576040517f08c379a0000000000000000000000000000000000000000000000000000000008152600401612ca490615069565b60405180910390fd5b80600660008481526020019081526020016000209080519060200190612cd49291906142e4565b505050565b60006002600083815260200190815260200160002060009054906101000a900473ffffffffffffffffffffffffffffffffffffffff169050919050565b6000600760009054906101000a900473ffffffffffffffffffffffffffffffffffffffff16905081600760006101000a81548173ffffffffffffffffffffffffffffffffffffffff021916908373ffffffffffffffffffffffffffffffffffffffff1602179055508173ffffffffffffffffffffffffffffffffffffffff168173ffffffffffffffffffffffffffffffffffffffff167f8be0079c531659141344cd1fd0a4f28419497f9722a3daafe3b4186f6b6457e060405160405180910390a35050565b6000612de782611708565b9050612df282613ba3565b600c600083815260200190815260200160002060009054906101000a900460ff1615612fc0576000600d6000848152602001908152602001600020549050600060146000838152602001908152602001600020905060005b8180549050811015612fa15784828281548110612e90577f4e487b7100000000000000000000000000000000000000000000000000000000600052603260045260246000fd5b90600052602060002001541415612f8e578160018380549050612eb3919061531d565b81548110612eea577f4e487b7100000000000000000000000000000000000000000000000000000000600052603260045260246000fd5b9060005260206000200154828281548110612f2e577f4e487b7100000000000000000000000000000000000000000000000000000000600052603260045260246000fd5b906000526020600020018190555081805480612f73577f4e487b7100000000000000000000000000000000000000000000000000000000600052603160045260246000fd5b60019003818190600052602060002001600090559055612fa1565b8080612f999061546a565b915050612e4a565b50600d6000858152602001908152602001600020600090555050612fe0565b601460008381526020019081526020016000206000612fdf919061436a565b5b600c600083815260200190815260200160002060006101000a81549060ff0219169055600e6000838152602001908152602001600020600090556011600083815260200190815260200160002060006101000a81549073ffffffffffffffffffffffffffffffffffffffff02191690556000601360008373ffffffffffffffffffffffffffffffffffffffff1673ffffffffffffffffffffffffffffffffffffffff168152602001908152602001600020905060005b81805490508110156131ed57838282815481106130dc577f4e487b7100000000000000000000000000000000000000000000000000000000600052603260045260246000fd5b906000526020600020015414156131da5781600183805490506130ff919061531d565b81548110613136577f4e487b7100000000000000000000000000000000000000000000000000000000600052603260045260246000fd5b906000526020600020015482828154811061317a577f4e487b7100000000000000000000000000000000000000000000000000000000600052603260045260246000fd5b9060005260206000200181905550818054806131bf577f4e487b7100000000000000000000000000000000000000000000000000000000600052603160045260246000fd5b600190038181906000526020600020016000905590556131ed565b80806131e59061546a565b915050613096565b5060005b60158054905081101561334e578360158281548110613239577f4e487b7100000000000000000000000000000000000000000000000000000000600052603260045260246000fd5b9060005260206000200154141561333b576015600160158054905061325e919061531d565b81548110613295577f4e487b7100000000000000000000000000000000000000000000000000000000600052603260045260246000fd5b9060005260206000200154601582815481106132da577f4e487b7100000000000000000000000000000000000000000000000000000000600052603260045260246000fd5b90600052602060002001819055506015805480613320577f4e487b7100000000000000000000000000000000000000000000000000000000600052603160045260246000fd5b6001900381819060005260206000200160009055905561334e565b80806133469061546a565b9150506131f1565b50505050565b8173ffffffffffffffffffffffffffffffffffffffff168373ffffffffffffffffffffffffffffffffffffffff1614156133c3576040517f08c379a00000000000000000000000000000000000000000000000000000000081526004016133ba90614fa9565b60405180910390fd5b80600560008573ffffffffffffffffffffffffffffffffffffffff1673ffffffffffffffffffffffffffffffffffffffff16815260200190815260200160002060008473ffffffffffffffffffffffffffffffffffffffff1673ffffffffffffffffffffffffffffffffffffffff16815260200190815260200160002060006101000a81548160ff0219169083151502179055508173ffffffffffffffffffffffffffffffffffffffff168373ffffffffffffffffffffffffffffffffffffffff167f17307eab39ab6107e8899845ad3d59bd9653f200f220920489ca2b5937696c31836040516134b49190614e8c565b60405180910390a3505050565b6134cc84848461289d565b6134d884848484613bf6565b613517576040517f08c379a000000000000000000000000000000000000000000000000000000000815260040161350e90614f09565b60405180910390fd5b50505050565b60606135288261267e565b600060066000848152602001908152602001600020805461354890615407565b80601f016020809104026020016040519081016040528092919081815260200182805461357490615407565b80156135c15780601f10613596576101008083540402835291602001916135c1565b820191906000526020600020905b8154815290600101906020018083116135a457829003601f168201915b5050505050905060006135d2613d8d565b90506000815114156135e857819250505061362b565b60008251111561361d578082604051602001613605929190614ddf565b6040516020818303038152906040529250505061362b565b61362684613da4565b925050505b919050565b600073ffffffffffffffffffffffffffffffffffffffff168273ffffffffffffffffffffffffffffffffffffffff1614156136a0576040517f08c379a0000000000000000000000000000000000000000000000000000000008152600401613697906150a9565b60405180910390fd5b6136a981612be2565b156136e9576040517f08c379a00000000000000000000000000000000000000000000000000000000081526004016136e090614f69565b60405180910390fd5b6136f7600083836001613e0c565b61370081612be2565b15613740576040517f08c379a000000000000000000000000000000000000000000000000000000000815260040161373790614f69565b60405180910390fd5b6001600360008473ffffffffffffffffffffffffffffffffffffffff1673ffffffffffffffffffffffffffffffffffffffff16815260200190815260200160002060008282540192505081905550816002600083815260200190815260200160002060006101000a81548173ffffffffffffffffffffffffffffffffffffffff021916908373ffffffffffffffffffffffffffffffffffffffff160217905550808273ffffffffffffffffffffffffffffffffffffffff16600073ffffffffffffffffffffffffffffffffffffffff167fddf252ad1be2c89b69c2b068fc378daa952ba7f163c4a11628f55a4df523b3ef60405160405180910390a461384a600083836001613e12565b5050565b8273ffffffffffffffffffffffffffffffffffffffff1661386e82611708565b73ffffffffffffffffffffffffffffffffffffffff16146138c4576040517f08c379a00000000000000000000000000000000000000000000000000000000081526004016138bb90614f49565b60405180910390fd5b600073ffffffffffffffffffffffffffffffffffffffff168273ffffffffffffffffffffffffffffffffffffffff161415613934576040517f08c379a000000000000000000000000000000000000000000000000000000000815260040161392b90614f89565b60405180910390fd5b6139418383836001613e0c565b8273ffffffffffffffffffffffffffffffffffffffff1661396182611708565b73ffffffffffffffffffffffffffffffffffffffff16146139b7576040517f08c379a00000000000000000000000000000000000000000000000000000000081526004016139ae90614f49565b60405180910390fd5b6004600082815260200190815260200160002060006101000a81549073ffffffffffffffffffffffffffffffffffffffff02191690556001600360008573ffffffffffffffffffffffffffffffffffffffff1673ffffffffffffffffffffffffffffffffffffffff168152602001908152602001600020600082825403925050819055506001600360008473ffffffffffffffffffffffffffffffffffffffff1673ffffffffffffffffffffffffffffffffffffffff16815260200190815260200160002060008282540192505081905550816002600083815260200190815260200160002060006101000a81548173ffffffffffffffffffffffffffffffffffffffff021916908373ffffffffffffffffffffffffffffffffffffffff160217905550808273ffffffffffffffffffffffffffffffffffffffff168473ffffffffffffffffffffffffffffffffffffffff167fddf252ad1be2c89b69c2b068fc378daa952ba7f163c4a11628f55a4df523b3ef60405160405180910390a4613b438383836001613e12565b505050565b613b528383613630565b613b5f6000848484613bf6565b613b9e576040517f08c379a0000000000000000000000000000000000000000000000000000000008152600401613b9590614f09565b60405180910390fd5b505050565b613bac81613e18565b6000600660008381526020019081526020016000208054613bcc90615407565b905014613bf357600660008281526020019081526020016000206000613bf2919061438b565b5b50565b6000613c178473ffffffffffffffffffffffffffffffffffffffff16613f66565b15613d80578373ffffffffffffffffffffffffffffffffffffffff1663150b7a02613c406126c9565b8786866040518563ffffffff1660e01b8152600401613c629493929190614e1e565b602060405180830381600087803b158015613c7c57600080fd5b505af1925050508015613cad57506040513d601f19601f82011682018060405250810190613caa9190614742565b60015b613d30573d8060008114613cdd576040519150601f19603f3d011682016040523d82523d6000602084013e613ce2565b606091505b50600081511415613d28576040517f08c379a0000000000000000000000000000000000000000000000000000000008152600401613d1f90614f09565b60405180910390fd5b805181602001fd5b63150b7a0260e01b7bffffffffffffffffffffffffffffffffffffffffffffffffffffffff1916817bffffffffffffffffffffffffffffffffffffffffffffffffffffffff191614915050613d85565b600190505b949350505050565b606060405180602001604052806000815250905090565b6060613daf8261267e565b6000613db9613d8d565b90506000815111613dd95760405180602001604052806000815250613e04565b80613de384613f89565b604051602001613df4929190614ddf565b6040516020818303038152906040525b915050919050565b50505050565b50505050565b6000613e2382611708565b9050613e33816000846001613e0c565b613e3c82611708565b90506004600083815260200190815260200160002060006101000a81549073ffffffffffffffffffffffffffffffffffffffff02191690556001600360008373ffffffffffffffffffffffffffffffffffffffff1673ffffffffffffffffffffffffffffffffffffffff168152602001908152602001600020600082825403925050819055506002600083815260200190815260200160002060006101000a81549073ffffffffffffffffffffffffffffffffffffffff021916905581600073ffffffffffffffffffffffffffffffffffffffff168273ffffffffffffffffffffffffffffffffffffffff167fddf252ad1be2c89b69c2b068fc378daa952ba7f163c4a11628f55a4df523b3ef60405160405180910390a4613f62816000846001613e12565b5050565b6000808273ffffffffffffffffffffffffffffffffffffffff163b119050919050565b606060006001613f98846140ad565b01905060008167ffffffffffffffff811115613fdd577f4e487b7100000000000000000000000000000000000000000000000000000000600052604160045260246000fd5b6040519080825280601f01601f19166020018201604052801561400f5781602001600182028036833780820191505090505b509050600082602001820190505b6001156140a2578080600190039150507f3031323334353637383961626364656600000000000000000000000000000000600a86061a8153600a858161408c577f4e487b7100000000000000000000000000000000000000000000000000000000600052601260045260246000fd5b049450600085141561409d576140a2565b61401d565b819350505050919050565b600080600090507a184f03e93ff9f4daa797ed6e38ed64bf6a1f0100000000000000008310614131577a184f03e93ff9f4daa797ed6e38ed64bf6a1f0100000000000000008381614127577f4e487b7100000000000000000000000000000000000000000000000000000000600052601260045260246000fd5b0492506040810190505b6d04ee2d6d415b85acef81000000008310614194576d04ee2d6d415b85acef8100000000838161418a577f4e487b7100000000000000000000000000000000000000000000000000000000600052601260045260246000fd5b0492506020810190505b662386f26fc1000083106141e957662386f26fc1000083816141df577f4e487b7100000000000000000000000000000000000000000000000000000000600052601260045260246000fd5b0492506010810190505b6305f5e1008310614238576305f5e100838161422e577f4e487b7100000000000000000000000000000000000000000000000000000000600052601260045260246000fd5b0492506008810190505b6127108310614283576127108381614279577f4e487b7100000000000000000000000000000000000000000000000000000000600052601260045260246000fd5b0492506004810190505b606483106142cc57606483816142c2577f4e487b7100000000000000000000000000000000000000000000000000000000600052601260045260246000fd5b0492506002810190505b600a83106142db576001810190505b80915050919050565b8280546142f090615407565b90600052602060002090601f0160209004810192826143125760008555614359565b82601f1061432b57805160ff1916838001178555614359565b82800160010185558215614359579182015b8281111561435857825182559160200191906001019061433d565b5b50905061436691906143cb565b5090565b508054600082559060005260206000209081019061438891906143cb565b50565b50805461439790615407565b6000825580601f106143a957506143c8565b601f0160209004906000526020600020908101906143c791906143cb565b5b50565b5b808211156143e45760008160009055506001016143cc565b5090565b60006143fb6143f6846151e9565b6151c4565b90508281526020810184848401111561441357600080fd5b61441e8482856153c5565b509392505050565b60006144396144348461521a565b6151c4565b90508281526020810184848401111561445157600080fd5b61445c8482856153c5565b509392505050565b60008135905061447381615aa2565b92915050565b60008135905061448881615ab9565b92915050565b60008135905061449d81615ad0565b92915050565b6000815190506144b281615ad0565b92915050565b600082601f8301126144c957600080fd5b81356144d98482602086016143e8565b91505092915050565b6000813590506144f181615ae7565b92915050565b600082601f83011261450857600080fd5b8135614518848260208601614426565b91505092915050565b60008135905061453081615af7565b92915050565b60006020828403121561454857600080fd5b600061455684828501614464565b91505092915050565b6000806040838503121561457257600080fd5b600061458085828601614464565b925050602061459185828601614464565b9150509250929050565b6000806000606084860312156145b057600080fd5b60006145be86828701614464565b93505060206145cf86828701614464565b92505060406145e086828701614521565b9150509250925092565b6000806000806080858703121561460057600080fd5b600061460e87828801614464565b945050602061461f87828801614464565b935050604061463087828801614521565b925050606085013567ffffffffffffffff81111561464d57600080fd5b614659878288016144b8565b91505092959194509250565b6000806040838503121561467857600080fd5b600061468685828601614464565b925050602061469785828601614479565b9150509250929050565b600080604083850312156146b457600080fd5b60006146c285828601614464565b92505060206146d3858286016144e2565b9150509250929050565b600080604083850312156146f057600080fd5b60006146fe85828601614464565b925050602061470f85828601614521565b9150509250929050565b60006020828403121561472b57600080fd5b60006147398482850161448e565b91505092915050565b60006020828403121561475457600080fd5b6000614762848285016144a3565b91505092915050565b60006020828403121561477d57600080fd5b600061478b848285016144e2565b91505092915050565b6000602082840312156147a657600080fd5b600082013567ffffffffffffffff8111156147c057600080fd5b6147cc848285016144f7565b91505092915050565b600080604083850312156147e857600080fd5b600083013567ffffffffffffffff81111561480257600080fd5b61480e858286016144f7565b925050602083013567ffffffffffffffff81111561482b57600080fd5b614837858286016144f7565b9150509250929050565b6000806040838503121561485457600080fd5b600083013567ffffffffffffffff81111561486e57600080fd5b61487a858286016144f7565b925050602061488b85828601614521565b9150509250929050565b6000602082840312156148a757600080fd5b60006148b584828501614521565b91505092915050565b600080604083850312156148d157600080fd5b60006148df85828601614521565b925050602083013567ffffffffffffffff8111156148fc57600080fd5b614908858286016144f7565b9150509250929050565b6000806040838503121561492557600080fd5b600061493385828601614521565b925050602061494485828601614521565b9150509250929050565b600061495a8383614daa565b60208301905092915050565b61496f81615351565b82525050565b60006149808261525b565b61498a8185615289565b93506149958361524b565b8060005b838110156149c65781516149ad888261494e565b97506149b88361527c565b925050600181019050614999565b5085935050505092915050565b6149dc81615363565b82525050565b60006149ed82615266565b6149f7818561529a565b9350614a078185602086016153d4565b614a1081615540565b840191505092915050565b6000614a2682615271565b614a3081856152ab565b9350614a408185602086016153d4565b614a4981615540565b840191505092915050565b6000614a5f82615271565b614a6981856152bc565b9350614a798185602086016153d4565b80840191505092915050565b6000614a92602d836152ab565b9150614a9d82615551565b604082019050919050565b6000614ab56021836152ab565b9150614ac0826155a0565b604082019050919050565b6000614ad86032836152ab565b9150614ae3826155ef565b604082019050919050565b6000614afb6026836152ab565b9150614b068261563e565b604082019050919050565b6000614b1e6025836152ab565b9150614b298261568d565b604082019050919050565b6000614b41601c836152ab565b9150614b4c826156dc565b602082019050919050565b6000614b646024836152ab565b9150614b6f82615705565b604082019050919050565b6000614b876019836152ab565b9150614b9282615754565b602082019050919050565b6000614baa6014836152ab565b9150614bb58261577d565b602082019050919050565b6000614bcd6020836152ab565b9150614bd8826157a6565b602082019050919050565b6000614bf06014836152ab565b9150614bfb826157cf565b602082019050919050565b6000614c136014836152ab565b9150614c1e826157f8565b602082019050919050565b6000614c366029836152ab565b9150614c4182615821565b604082019050919050565b6000614c59602e836152ab565b9150614c6482615870565b604082019050919050565b6000614c7c6012836152ab565b9150614c87826158bf565b602082019050919050565b6000614c9f6020836152ab565b9150614caa826158e8565b602082019050919050565b6000614cc26028836152ab565b9150614ccd82615911565b604082019050919050565b6000614ce56020836152ab565b9150614cf082615960565b602082019050919050565b6000614d086018836152ab565b9150614d1382615989565b602082019050919050565b6000614d2b6012836152ab565b9150614d36826159b2565b602082019050919050565b6000614d4e6010836152ab565b9150614d59826159db565b602082019050919050565b6000614d716021836152ab565b9150614d7c82615a04565b604082019050919050565b6000614d94603d836152ab565b9150614d9f82615a53565b604082019050919050565b614db3816153bb565b82525050565b614dc2816153bb565b82525050565b6000614dd48284614a54565b915081905092915050565b6000614deb8285614a54565b9150614df78284614a54565b91508190509392505050565b6000602082019050614e186000830184614966565b92915050565b6000608082019050614e336000830187614966565b614e406020830186614966565b614e4d6040830185614db9565b8181036060830152614e5f81846149e2565b905095945050505050565b60006020820190508181036000830152614e848184614975565b905092915050565b6000602082019050614ea160008301846149d3565b92915050565b60006020820190508181036000830152614ec18184614a1b565b905092915050565b60006020820190508181036000830152614ee281614a85565b9050919050565b60006020820190508181036000830152614f0281614aa8565b9050919050565b60006020820190508181036000830152614f2281614acb565b9050919050565b60006020820190508181036000830152614f4281614aee565b9050919050565b60006020820190508181036000830152614f6281614b11565b9050919050565b60006020820190508181036000830152614f8281614b34565b9050919050565b60006020820190508181036000830152614fa281614b57565b9050919050565b60006020820190508181036000830152614fc281614b7a565b9050919050565b60006020820190508181036000830152614fe281614b9d565b9050919050565b6000602082019050818103600083015261500281614bc0565b9050919050565b6000602082019050818103600083015261502281614be3565b9050919050565b6000602082019050818103600083015261504281614c06565b9050919050565b6000602082019050818103600083015261506281614c29565b9050919050565b6000602082019050818103600083015261508281614c4c565b9050919050565b600060208201905081810360008301526150a281614c6f565b9050919050565b600060208201905081810360008301526150c281614c92565b9050919050565b600060208201905081810360008301526150e281614cb5565b9050919050565b6000602082019050818103600083015261510281614cd8565b9050919050565b6000602082019050818103600083015261512281614cfb565b9050919050565b6000602082019050818103600083015261514281614d1e565b9050919050565b6000602082019050818103600083015261516281614d41565b9050919050565b6000602082019050818103600083015261518281614d64565b9050919050565b600060208201905081810360008301526151a281614d87565b9050919050565b60006020820190506151be6000830184614db9565b92915050565b60006151ce6151df565b90506151da8282615439565b919050565b6000604051905090565b600067ffffffffffffffff82111561520457615203615511565b5b61520d82615540565b9050602081019050919050565b600067ffffffffffffffff82111561523557615234615511565b5b61523e82615540565b9050602081019050919050565b6000819050602082019050919050565b600081519050919050565b600081519050919050565b600081519050919050565b6000602082019050919050565b600082825260208201905092915050565b600082825260208201905092915050565b600082825260208201905092915050565b600081905092915050565b60006152d2826153bb565b91506152dd836153bb565b9250827fffffffffffffffffffffffffffffffffffffffffffffffffffffffffffffffff03821115615312576153116154b3565b5b828201905092915050565b6000615328826153bb565b9150615333836153bb565b925082821015615346576153456154b3565b5b828203905092915050565b600061535c8261539b565b9050919050565b60008115159050919050565b60007fffffffff0000000000000000000000000000000000000000000000000000000082169050919050565b600073ffffffffffffffffffffffffffffffffffffffff82169050919050565b6000819050919050565b82818337600083830152505050565b60005b838110156153f25780820151818401526020810190506153d7565b83811115615401576000848401525b50505050565b6000600282049050600182168061541f57607f821691505b60208210811415615433576154326154e2565b5b50919050565b61544282615540565b810181811067ffffffffffffffff8211171561546157615460615511565b5b80604052505050565b6000615475826153bb565b91507fffffffffffffffffffffffffffffffffffffffffffffffffffffffffffffffff8214156154a8576154a76154b3565b5b600182019050919050565b7f4e487b7100000000000000000000000000000000000000000000000000000000600052601160045260246000fd5b7f4e487b7100000000000000000000000000000000000000000000000000000000600052602260045260246000fd5b7f4e487b7100000000000000000000000000000000000000000000000000000000600052604160045260246000fd5b6000601f19601f8301169050919050565b7f4552433732313a2063616c6c6572206973206e6f7420746f6b656e206f776e6560008201527f72206f7220617070726f76656400000000000000000000000000000000000000602082015250565b7f546f6b656e206973206120636c6f6e652c206e6f7420616e206f726967696e6160008201527f6c00000000000000000000000000000000000000000000000000000000000000602082015250565b7f4552433732313a207472616e7366657220746f206e6f6e20455243373231526560008201527f63656976657220696d706c656d656e7465720000000000000000000000000000602082015250565b7f4f776e61626c653a206e6577206f776e657220697320746865207a65726f206160008201527f6464726573730000000000000000000000000000000000000000000000000000602082015250565b7f4552433732313a207472616e736665722066726f6d20696e636f72726563742060008201527f6f776e6572000000000000000000000000000000000000000000000000000000602082015250565b7f4552433732313a20746f6b656e20616c7265616479206d696e74656400000000600082015250565b7f4552433732313a207472616e7366657220746f20746865207a65726f2061646460008201527f7265737300000000000000000000000000000000000000000000000000000000602082015250565b7f4552433732313a20617070726f766520746f2063616c6c657200000000000000600082015250565b7f43616e6e6f7420636c6f6e65206120636c6f6e65000000000000000000000000600082015250565b7f496e73756666696369656e742066756e647320746f206d696e7420636c6f6e65600082015250565b7f546f6b656e20646f6573206e6f74206578697374000000000000000000000000600082015250565b7f546f6b656e206973206e6f74206120636c6f6e65000000000000000000000000600082015250565b7f4552433732313a2061646472657373207a65726f206973206e6f74206120766160008201527f6c6964206f776e65720000000000000000000000000000000000000000000000602082015250565b7f45524337323155524953746f726167653a2055524920736574206f66206e6f6e60008201527f6578697374656e7420746f6b656e000000000000000000000000000000000000602082015250565b7f55524c20616c7265616479206578697374730000000000000000000000000000600082015250565b7f4552433732313a206d696e7420746f20746865207a65726f2061646472657373600082015250565b7f4552433732313a2063616c6c6572206973206e6f74206f776e6572206e6f722060008201527f617070726f766564000000000000000000000000000000000000000000000000602082015250565b7f4f776e61626c653a2063616c6c6572206973206e6f7420746865206f776e6572600082015250565b7f4552433732313a20696e76616c696420746f6b656e2049440000000000000000600082015250565b7f55524c20646f6573206e6f742065786973740000000000000000000000000000600082015250565b7f496e76616c696420746f6b656e20494400000000000000000000000000000000600082015250565b7f4552433732313a20617070726f76616c20746f2063757272656e74206f776e6560008201527f7200000000000000000000000000000000000000000000000000000000000000602082015250565b7f4552433732313a20617070726f76652063616c6c6572206973206e6f7420746f60008201527f6b656e206f776e6572206f7220617070726f76656420666f7220616c6c000000602082015250565b615aab81615351565b8114615ab657600080fd5b50565b615ac281615363565b8114615acd57600080fd5b50565b615ad98161536f565b8114615ae457600080fd5b50565b60038110615af457600080fd5b50565b615b00816153bb565b8114615b0b57600080fd5b5056fea2646970667358221220a44de75357bdfa5bb47db3d7f854ac7ed61567ba170158f5c32e8afe1f57b1b364736f6c63430008010033",
  "linkReferences": {},
  "deployedLinkReferences": {}
}