{
  "_format": "hh-sol-artifact-1",
  "contractName": "CloneableNFT",
  "sourceName": "contracts/ClonableNFT.sol",
  "abi": [
    {
      "inputs": [
        {
          "internalType": "string",
          "name": "name",
          "type": "string"
        },
        {
          "internalType": "string",
          "name": "symbol",
          "type": "string"
        },
        {
          "internalType": "string",
          "name": "_description",
          "type": "string"
        },
        {
          "internalType": "uint256",
          "name": "defaultClonePrice",
          "type": "uint256"
        }
      ],
      "stateMutability": "nonpayable",
      "type": "constructor"
    },
    {
      "anonymous": false,
      "inputs": [
        {
          "indexed": true,
          "internalType": "address",
          "name": "owner",
          "type": "address"
        },
        {
          "indexed": true,
          "internalType": "address",
          "name": "approved",
          "type": "address"
        },
        {
          "indexed": true,
          "internalType": "uint256",
          "name": "tokenId",
          "type": "uint256"
        }
      ],
      "name": "Approval",
      "type": "event"
    },
    {
      "anonymous": false,
      "inputs": [
        {
          "indexed": true,
          "internalType": "address",
          "name": "owner",
          "type": "address"
        },
        {
          "indexed": true,
          "internalType": "address",
          "name": "operator",
          "type": "address"
        },
        {
          "indexed": false,
          "internalType": "bool",
          "name": "approved",
          "type": "bool"
        }
      ],
      "name": "ApprovalForAll",
      "type": "event"
    },
    {
      "anonymous": false,
      "inputs": [
        {
          "indexed": true,
          "internalType": "address",
          "name": "previousOwner",
          "type": "address"
        },
        {
          "indexed": true,
          "internalType": "address",
          "name": "newOwner",
          "type": "address"
        }
      ],
      "name": "OwnershipTransferred",
      "type": "event"
    },
    {
      "anonymous": false,
      "inputs": [
        {
          "indexed": true,
          "internalType": "address",
          "name": "from",
          "type": "address"
        },
        {
          "indexed": true,
          "internalType": "address",
          "name": "to",
          "type": "address"
        },
        {
          "indexed": true,
          "internalType": "uint256",
          "name": "tokenId",
          "type": "uint256"
        }
      ],
      "name": "Transfer",
      "type": "event"
    },
    {
      "inputs": [
        {
          "internalType": "address",
          "name": "to",
          "type": "address"
        },
        {
          "internalType": "uint256",
          "name": "tokenId",
          "type": "uint256"
        }
      ],
      "name": "approve",
      "outputs": [],
      "stateMutability": "nonpayable",
      "type": "function"
    },
    {
      "inputs": [
        {
          "internalType": "address",
          "name": "owner",
          "type": "address"
        }
      ],
      "name": "balanceOf",
      "outputs": [
        {
          "internalType": "uint256",
          "name": "",
          "type": "uint256"
        }
      ],
      "stateMutability": "view",
      "type": "function"
    },
    {
      "inputs": [],
      "name": "creationTime",
      "outputs": [
        {
          "internalType": "uint256",
          "name": "",
          "type": "uint256"
        }
      ],
      "stateMutability": "view",
      "type": "function"
    },
    {
      "inputs": [],
      "name": "description",
      "outputs": [
        {
          "internalType": "string",
          "name": "",
          "type": "string"
        }
      ],
      "stateMutability": "view",
      "type": "function"
    },
    {
      "inputs": [],
      "name": "getAllMintedTokens",
      "outputs": [
        {
          "internalType": "uint256[]",
          "name": "",
          "type": "uint256[]"
        }
      ],
      "stateMutability": "view",
      "type": "function"
    },
    {
      "inputs": [
        {
          "internalType": "enum CloneableNFT.CloneFilter",
          "name": "filter",
          "type": "uint8"
        }
      ],
      "name": "getAllMintedTokens",
      "outputs": [
        {
          "internalType": "uint256[]",
          "name": "",
          "type": "uint256[]"
        }
      ],
      "stateMutability": "view",
      "type": "function"
    },
    {
      "inputs": [
        {
          "internalType": "uint256",
          "name": "tokenId",
          "type": "uint256"
        }
      ],
      "name": "getApproved",
      "outputs": [
        {
          "internalType": "address",
          "name": "",
          "type": "address"
        }
      ],
      "stateMutability": "view",
      "type": "function"
    },
    {
      "inputs": [
        {
          "internalType": "uint256",
          "name": "tokenId",
          "type": "uint256"
        }
      ],
      "name": "getClonePrice",
      "outputs": [
        {
          "internalType": "uint256",
          "name": "",
          "type": "uint256"
        }
      ],
      "stateMutability": "view",
      "type": "function"
    },
    {
      "inputs": [
        {
          "internalType": "uint256",
          "name": "tokenId",
          "type": "uint256"
        }
      ],
      "name": "getClonesOfOriginal",
      "outputs": [
        {
          "internalType": "uint256[]",
          "name": "",
          "type": "uint256[]"
        }
      ],
      "stateMutability": "view",
      "type": "function"
    },
    {
      "inputs": [],
      "name": "getContractCreator",
      "outputs": [
        {
          "internalType": "address",
          "name": "",
          "type": "address"
        }
      ],
      "stateMutability": "view",
      "type": "function"
    },
    {
      "inputs": [],
      "name": "getDefaultClonePrice",
      "outputs": [
        {
          "internalType": "uint256",
          "name": "",
          "type": "uint256"
        }
      ],
      "stateMutability": "view",
      "type": "function"
    },
    {
      "inputs": [
        {
          "internalType": "uint256",
          "name": "tokenId",
          "type": "uint256"
        }
      ],
      "name": "getHasClonePrice",
      "outputs": [
        {
          "internalType": "bool",
          "name": "",
          "type": "bool"
        }
      ],
      "stateMutability": "view",
      "type": "function"
    },
    {
      "inputs": [
        {
          "internalType": "uint256",
          "name": "tokenId",
          "type": "uint256"
        }
      ],
      "name": "getOriginal",
      "outputs": [
        {
          "internalType": "uint256",
          "name": "",
          "type": "uint256"
        }
      ],
      "stateMutability": "view",
      "type": "function"
    },
    {
      "inputs": [
        {
          "internalType": "address",
          "name": "owner",
          "type": "address"
        },
        {
          "internalType": "enum CloneableNFT.CloneFilter",
          "name": "filter",
          "type": "uint8"
        }
      ],
      "name": "getOwnedTokens",
      "outputs": [
        {
          "internalType": "uint256[]",
          "name": "",
          "type": "uint256[]"
        }
      ],
      "stateMutability": "view",
      "type": "function"
    },
    {
      "inputs": [
        {
          "internalType": "address",
          "name": "owner",
          "type": "address"
        }
      ],
      "name": "getOwnedTokens",
      "outputs": [
        {
          "internalType": "uint256[]",
          "name": "",
          "type": "uint256[]"
        }
      ],
      "stateMutability": "view",
      "type": "function"
    },
    {
      "inputs": [
        {
          "internalType": "uint256",
          "name": "tokenId",
          "type": "uint256"
        }
      ],
      "name": "getTokenCreator",
      "outputs": [
        {
          "internalType": "address",
          "name": "",
          "type": "address"
        }
      ],
      "stateMutability": "view",
      "type": "function"
    },
    {
      "inputs": [
        {
          "internalType": "string",
          "name": "_url",
          "type": "string"
        }
      ],
      "name": "getTokenIdByUrl",
      "outputs": [
        {
          "internalType": "uint256",
          "name": "",
          "type": "uint256"
        }
      ],
      "stateMutability": "view",
      "type": "function"
    },
    {
      "inputs": [],
      "name": "getTotalMintClonedTokens",
      "outputs": [
        {
          "internalType": "uint256",
          "name": "",
          "type": "uint256"
        }
      ],
      "stateMutability": "view",
      "type": "function"
    },
    {
      "inputs": [],
      "name": "getTotalMintOriginalTokens",
      "outputs": [
        {
          "internalType": "uint256",
          "name": "",
          "type": "uint256"
        }
      ],
      "stateMutability": "view",
      "type": "function"
    },
    {
      "inputs": [],
      "name": "getTotalMintedTokens",
      "outputs": [
        {
          "internalType": "uint256",
          "name": "",
          "type": "uint256"
        }
      ],
      "stateMutability": "view",
      "type": "function"
    },
    {
      "inputs": [
        {
          "internalType": "address",
          "name": "owner",
          "type": "address"
        },
        {
          "internalType": "address",
          "name": "operator",
          "type": "address"
        }
      ],
      "name": "isApprovedForAll",
      "outputs": [
        {
          "internalType": "bool",
          "name": "",
          "type": "bool"
        }
      ],
      "stateMutability": "view",
      "type": "function"
    },
    {
      "inputs": [
        {
          "internalType": "uint256",
          "name": "tokenId",
          "type": "uint256"
        }
      ],
      "name": "isClone",
      "outputs": [
        {
          "internalType": "bool",
          "name": "",
          "type": "bool"
        }
      ],
      "stateMutability": "view",
      "type": "function"
    },
    {
      "inputs": [
        {
          "internalType": "uint256",
          "name": "tokenId",
          "type": "uint256"
        },
        {
          "internalType": "string",
          "name": "_tokenURI",
          "type": "string"
        }
      ],
      "name": "mintClone",
      "outputs": [],
      "stateMutability": "payable",
      "type": "function"
    },
    {
      "inputs": [
        {
          "internalType": "string",
          "name": "_tokenURI",
          "type": "string"
        },
        {
          "internalType": "string",
          "name": "_url",
          "type": "string"
        }
      ],
      "name": "mintNFT",
      "outputs": [],
      "stateMutability": "nonpayable",
      "type": "function"
    },
    {
      "inputs": [],
      "name": "name",
      "outputs": [
        {
          "internalType": "string",
          "name": "",
          "type": "string"
        }
      ],
      "stateMutability": "view",
      "type": "function"
    },
    {
      "inputs": [],
      "name": "owner",
      "outputs": [
        {
          "internalType": "address",
          "name": "",
          "type": "address"
        }
      ],
      "stateMutability": "view",
      "type": "function"
    },
    {
      "inputs": [
        {
          "internalType": "uint256",
          "name": "tokenId",
          "type": "uint256"
        }
      ],
      "name": "ownerOf",
      "outputs": [
        {
          "internalType": "address",
          "name": "",
          "type": "address"
        }
      ],
      "stateMutability": "view",
      "type": "function"
    },
    {
      "inputs": [],
      "name": "renounceOwnership",
      "outputs": [],
      "stateMutability": "nonpayable",
      "type": "function"
    },
    {
      "inputs": [
        {
          "internalType": "address",
          "name": "from",
          "type": "address"
        },
        {
          "internalType": "address",
          "name": "to",
          "type": "address"
        },
        {
          "internalType": "uint256",
          "name": "tokenId",
          "type": "uint256"
        }
      ],
      "name": "safeTransferFrom",
      "outputs": [],
      "stateMutability": "nonpayable",
      "type": "function"
    },
    {
      "inputs": [
        {
          "internalType": "address",
          "name": "from",
          "type": "address"
        },
        {
          "internalType": "address",
          "name": "to",
          "type": "address"
        },
        {
          "internalType": "uint256",
          "name": "tokenId",
          "type": "uint256"
        },
        {
          "internalType": "bytes",
          "name": "data",
          "type": "bytes"
        }
      ],
      "name": "safeTransferFrom",
      "outputs": [],
      "stateMutability": "nonpayable",
      "type": "function"
    },
    {
      "inputs": [
        {
          "internalType": "address",
          "name": "operator",
          "type": "address"
        },
        {
          "internalType": "bool",
          "name": "approved",
          "type": "bool"
        }
      ],
      "name": "setApprovalForAll",
      "outputs": [],
      "stateMutability": "nonpayable",
      "type": "function"
    },
    {
      "inputs": [
        {
          "internalType": "uint256",
          "name": "tokenId",
          "type": "uint256"
        },
        {
          "internalType": "uint256",
          "name": "newPrice",
          "type": "uint256"
        }
      ],
      "name": "setClonePrice",
      "outputs": [],
      "stateMutability": "nonpayable",
      "type": "function"
    },
    {
      "inputs": [
        {
          "internalType": "uint256",
          "name": "newPrice",
          "type": "uint256"
        }
      ],
      "name": "setDefaultClonePrice",
      "outputs": [],
      "stateMutability": "nonpayable",
      "type": "function"
    },
    {
      "inputs": [
        {
          "internalType": "string",
          "name": "_description",
          "type": "string"
        }
      ],
      "name": "setDescription",
      "outputs": [],
      "stateMutability": "nonpayable",
      "type": "function"
    },
    {
      "inputs": [
        {
          "internalType": "string",
          "name": "_description",
          "type": "string"
        },
        {
          "internalType": "uint256",
          "name": "_newPrice",
          "type": "uint256"
        }
      ],
      "name": "setDescriptionAndDefaultClonePrice",
      "outputs": [],
      "stateMutability": "nonpayable",
      "type": "function"
    },
    {
      "inputs": [
        {
          "internalType": "bytes4",
          "name": "interfaceId",
          "type": "bytes4"
        }
      ],
      "name": "supportsInterface",
      "outputs": [
        {
          "internalType": "bool",
          "name": "",
          "type": "bool"
        }
      ],
      "stateMutability": "view",
      "type": "function"
    },
    {
      "inputs": [],
      "name": "symbol",
      "outputs": [
        {
          "internalType": "string",
          "name": "",
          "type": "string"
        }
      ],
      "stateMutability": "view",
      "type": "function"
    },
    {
      "inputs": [
        {
          "internalType": "uint256",
          "name": "tokenId",
          "type": "uint256"
        }
      ],
      "name": "tokenURI",
      "outputs": [
        {
          "internalType": "string",
          "name": "",
          "type": "string"
        }
      ],
      "stateMutability": "view",
      "type": "function"
    },
    {
      "inputs": [
        {
          "internalType": "address",
          "name": "from",
          "type": "address"
        },
        {
          "internalType": "address",
          "name": "to",
          "type": "address"
        },
        {
          "internalType": "uint256",
          "name": "tokenId",
          "type": "uint256"
        }
      ],
      "name": "transferFrom",
      "outputs": [],
      "stateMutability": "nonpayable",
      "type": "function"
    },
    {
      "inputs": [
        {
          "internalType": "address",
          "name": "newOwner",
          "type": "address"
        }
      ],
      "name": "transferOwnership",
      "outputs": [],
      "stateMutability": "nonpayable",
      "type": "function"
    },
    {
      "inputs": [],
      "name": "withdraw",
      "outputs": [],
      "stateMutability": "nonpayable",
      "type": "function"
    }
  ],
  "bytecode": "0x60806040526000600b553480156200001657600080fd5b50604051620057ba380380620057ba83398181016040528101906200003c91906200030b565b8383816000908051906020019062000056929190620001d2565b5080600190805190602001906200006f929190620001d2565b50505062000092620000866200010460201b60201c565b6200010c60201b60201c565b33601260006101000a81548173ffffffffffffffffffffffffffffffffffffffff021916908373ffffffffffffffffffffffffffffffffffffffff1602179055504260098190555081600a9080519060200190620000f2929190620001d2565b5080600b819055505050505062000556565b600033905090565b6000600760009054906101000a900473ffffffffffffffffffffffffffffffffffffffff16905081600760006101000a81548173ffffffffffffffffffffffffffffffffffffffff021916908373ffffffffffffffffffffffffffffffffffffffff1602179055508173ffffffffffffffffffffffffffffffffffffffff168173ffffffffffffffffffffffffffffffffffffffff167f8be0079c531659141344cd1fd0a4f28419497f9722a3daafe3b4186f6b6457e060405160405180910390a35050565b828054620001e09062000461565b90600052602060002090601f01602090048101928262000204576000855562000250565b82601f106200021f57805160ff191683800117855562000250565b8280016001018555821562000250579182015b828111156200024f57825182559160200191906001019062000232565b5b5090506200025f919062000263565b5090565b5b808211156200027e57600081600090555060010162000264565b5090565b6000620002996200029384620003eb565b620003c2565b905082815260208101848484011115620002b257600080fd5b620002bf8482856200042b565b509392505050565b600082601f830112620002d957600080fd5b8151620002eb84826020860162000282565b91505092915050565b60008151905062000305816200053c565b92915050565b600080600080608085870312156200032257600080fd5b600085015167ffffffffffffffff8111156200033d57600080fd5b6200034b87828801620002c7565b945050602085015167ffffffffffffffff8111156200036957600080fd5b6200037787828801620002c7565b935050604085015167ffffffffffffffff8111156200039557600080fd5b620003a387828801620002c7565b9250506060620003b687828801620002f4565b91505092959194509250565b6000620003ce620003e1565b9050620003dc828262000497565b919050565b6000604051905090565b600067ffffffffffffffff821115620004095762000408620004fc565b5b62000414826200052b565b9050602081019050919050565b6000819050919050565b60005b838110156200044b5780820151818401526020810190506200042e565b838111156200045b576000848401525b50505050565b600060028204905060018216806200047a57607f821691505b60208210811415620004915762000490620004cd565b5b50919050565b620004a2826200052b565b810181811067ffffffffffffffff82111715620004c457620004c3620004fc565b5b80604052505050565b7f4e487b7100000000000000000000000000000000000000000000000000000000600052602260045260246000fd5b7f4e487b7100000000000000000000000000000000000000000000000000000000600052604160045260246000fd5b6000601f19601f8301169050919050565b620005478162000421565b81146200055357600080fd5b50565b61525480620005666000396000f3fe6080604052600436106102465760003560e01c80637284e41611610139578063c144dd2a116100b6578063d9d616551161007a578063d9d61655146108e1578063e96055441461091e578063e985e9c514610947578063ef74248d14610984578063f2fde38b146109ad578063f67a769c146109d657610246565b8063c144dd2a146107d4578063c6af112214610811578063c87b56dd1461083c578063d800fe4514610879578063d8270dce146108b657610246565b806395d89b41116100fd57806395d89b41146106dd5780639963938214610708578063a22cb46514610745578063b88d4fde1461076e578063bc8c778f1461079757610246565b80637284e416146105f65780637d5298b9146106215780638da5cb5b1461064c57806390c3f38f14610677578063934689a9146106a057610246565b80632aa2e90a116101c75780634da6de3f1161018b5780634da6de3f146104fd5780636352211e14610528578063639032cc1461056557806370a08231146105a2578063715018a6146105df57610246565b80632aa2e90a1461042757806330f7319d14610443578063385eda9c146104805780633ccfd60b146104bd57806342842e0e146104d457610246565b80630b01ac8e1161020e5780630b01ac8e146103445780630e2587261461036d5780631741f3e2146103985780631a2b285e146103d557806323b872dd146103fe57610246565b806301ffc9a71461024b57806306fdde0314610288578063080b0179146102b3578063081812fc146102de578063095ea7b31461031b575b600080fd5b34801561025757600080fd5b50610272600480360381019061026d9190613ebb565b610a01565b60405161027f919061460b565b60405180910390f35b34801561029457600080fd5b5061029d610ae3565b6040516102aa9190614626565b60405180910390f35b3480156102bf57600080fd5b506102c8610b75565b6040516102d591906145e9565b60405180910390f35b3480156102ea57600080fd5b5061030560048036038101906103009190614037565b610b86565b6040516103129190614582565b60405180910390f35b34801561032757600080fd5b50610342600480360381019061033d9190613e7f565b610bcc565b005b34801561035057600080fd5b5061036b60048036038101906103669190613fe3565b610ce4565b005b34801561037957600080fd5b50610382610d0e565b60405161038f9190614582565b60405180910390f35b3480156103a457600080fd5b506103bf60048036038101906103ba9190613f36565b610d38565b6040516103cc9190614908565b60405180910390f35b3480156103e157600080fd5b506103fc60048036038101906103f79190614037565b610dc1565b005b34801561040a57600080fd5b5061042560048036038101906104209190613d3d565b610dd3565b005b610441600480360381019061043c9190614060565b610e33565b005b34801561044f57600080fd5b5061046a60048036038101906104659190613e43565b611103565b60405161047791906145e9565b60405180910390f35b34801561048c57600080fd5b506104a760048036038101906104a29190614037565b611628565b6040516104b4919061460b565b60405180910390f35b3480156104c957600080fd5b506104d2611652565b005b3480156104e057600080fd5b506104fb60048036038101906104f69190613d3d565b6116aa565b005b34801561050957600080fd5b506105126116ca565b60405161051f9190614908565b60405180910390f35b34801561053457600080fd5b5061054f600480360381019061054a9190614037565b6116d4565b60405161055c9190614582565b60405180910390f35b34801561057157600080fd5b5061058c60048036038101906105879190614037565b61175b565b60405161059991906145e9565b60405180910390f35b3480156105ae57600080fd5b506105c960048036038101906105c49190613cd8565b611827565b6040516105d69190614908565b60405180910390f35b3480156105eb57600080fd5b506105f46118df565b005b34801561060257600080fd5b5061060b6118f3565b6040516106189190614626565b60405180910390f35b34801561062d57600080fd5b50610636611981565b6040516106439190614908565b60405180910390f35b34801561065857600080fd5b5061066161198b565b60405161066e9190614582565b60405180910390f35b34801561068357600080fd5b5061069e60048036038101906106999190613f36565b6119b5565b005b3480156106ac57600080fd5b506106c760048036038101906106c29190614037565b6119d7565b6040516106d49190614582565b60405180910390f35b3480156106e957600080fd5b506106f2611a5c565b6040516106ff9190614626565b60405180910390f35b34801561071457600080fd5b5061072f600480360381019061072a9190613f0d565b611aee565b60405161073c91906145e9565b60405180910390f35b34801561075157600080fd5b5061076c60048036038101906107679190613e07565b612008565b005b34801561077a57600080fd5b5061079560048036038101906107909190613d8c565b61201e565b005b3480156107a357600080fd5b506107be60048036038101906107b99190614037565b612080565b6040516107cb9190614908565b60405180910390f35b3480156107e057600080fd5b506107fb60048036038101906107f69190614037565b6120fd565b604051610808919061460b565b60405180910390f35b34801561081d57600080fd5b5061082661216f565b6040516108339190614908565b60405180910390f35b34801561084857600080fd5b50610863600480360381019061085e9190614037565b612179565b6040516108709190614626565b60405180910390f35b34801561088557600080fd5b506108a0600480360381019061089b9190614037565b61218b565b6040516108ad9190614908565b60405180910390f35b3480156108c257600080fd5b506108cb6121a8565b6040516108d89190614908565b60405180910390f35b3480156108ed57600080fd5b5061090860048036038101906109039190613cd8565b6121ae565b60405161091591906145e9565b60405180910390f35b34801561092a57600080fd5b5061094560048036038101906109409190613f77565b6121c2565b005b34801561095357600080fd5b5061096e60048036038101906109699190613d01565b6123b1565b60405161097b919061460b565b60405180910390f35b34801561099057600080fd5b506109ab60048036038101906109a691906140b4565b612445565b005b3480156109b957600080fd5b506109d460048036038101906109cf9190613cd8565b612495565b005b3480156109e257600080fd5b506109eb612519565b6040516109f89190614908565b60405180910390f35b60007f80ac58cd000000000000000000000000000000000000000000000000000000007bffffffffffffffffffffffffffffffffffffffffffffffffffffffff1916827bffffffffffffffffffffffffffffffffffffffffffffffffffffffff19161480610acc57507f5b5e139f000000000000000000000000000000000000000000000000000000007bffffffffffffffffffffffffffffffffffffffffffffffffffffffff1916827bffffffffffffffffffffffffffffffffffffffffffffffffffffffff1916145b80610adc5750610adb82612530565b5b9050919050565b606060008054610af290614b66565b80601f0160208091040260200160405190810160405280929190818152602001828054610b1e90614b66565b8015610b6b5780601f10610b4057610100808354040283529160200191610b6b565b820191906000526020600020905b815481529060010190602001808311610b4e57829003601f168201915b5050505050905090565b6060610b816000611aee565b905090565b6000610b918261259a565b6004600083815260200190815260200160002060009054906101000a900473ffffffffffffffffffffffffffffffffffffffff169050919050565b6000610bd7826116d4565b90508073ffffffffffffffffffffffffffffffffffffffff168373ffffffffffffffffffffffffffffffffffffffff161415610c48576040517f08c379a0000000000000000000000000000000000000000000000000000000008152600401610c3f906148c8565b60405180910390fd5b8073ffffffffffffffffffffffffffffffffffffffff16610c676125e5565b73ffffffffffffffffffffffffffffffffffffffff161480610c965750610c9581610c906125e5565b6123b1565b5b610cd5576040517f08c379a0000000000000000000000000000000000000000000000000000000008152600401610ccc906148e8565b60405180910390fd5b610cdf83836125ed565b505050565b610cec6126a6565b81600a9080519060200190610d02929190613ae7565b5080600b819055505050565b6000601260009054906101000a900473ffffffffffffffffffffffffffffffffffffffff16905090565b600080601083604051610d4b9190614547565b9081526020016040518091039020541415610d9b576040517f08c379a0000000000000000000000000000000000000000000000000000000008152600401610d9290614888565b60405180910390fd5b601082604051610dab9190614547565b9081526020016040518091039020549050919050565b610dc96126a6565b80600b8190555050565b610de4610dde6125e5565b82612724565b610e23576040517f08c379a0000000000000000000000000000000000000000000000000000000008152600401610e1a90614648565b60405180910390fd5b610e2e8383836127b9565b505050565b610e3c82612afe565b610e7b576040517f08c379a0000000000000000000000000000000000000000000000000000000008152600401610e72906148a8565b60405180910390fd5b600c600083815260200190815260200160002060009054906101000a900460ff1615610edc576040517f08c379a0000000000000000000000000000000000000000000000000000000008152600401610ed390614748565b60405180910390fd5b600080600e60008581526020019081526020016000205411610f0057600b54610f15565b600e6000848152602001908152602001600020545b905080341015610f5a576040517f08c379a0000000000000000000000000000000000000000000000000000000008152600401610f5190614768565b60405180910390fd5b610f646008612b3f565b6000610f706008612b55565b9050610f7c3382612b63565b6001600c600083815260200190815260200160002060006101000a81548160ff02191690831515021790555083600d600083815260200190815260200160002081905550610fca8184612b81565b60146000858152602001908152602001600020819080600181540180825580915050600190039060005260206000200160009091909190915055601360003373ffffffffffffffffffffffffffffffffffffffff1673ffffffffffffffffffffffffffffffffffffffff1681526020019081526020016000208190806001815401808255809150506001900390600052602060002001600090919091909150556015819080600181540180825580915050600190039060005260206000200160009091909190915055601760008154809291906110a690614bc9565b9190505550336011600083815260200190815260200160002060006101000a81548173ffffffffffffffffffffffffffffffffffffffff021916908373ffffffffffffffffffffffffffffffffffffffff16021790555050505050565b60606000601360008573ffffffffffffffffffffffffffffffffffffffff1673ffffffffffffffffffffffffffffffffffffffff16815260200190815260200160002080548060200260200160405190810160405280929190818152602001828054801561119057602002820191906000526020600020905b81548152602001906001019080831161117c575b50505050509050600060028111156111d1577f4e487b7100000000000000000000000000000000000000000000000000000000600052602160045260246000fd5b83600281111561120a577f4e487b7100000000000000000000000000000000000000000000000000000000600052602160045260246000fd5b14156112195780915050611622565b6000805b825181101561139c576000611271848381518110611264577f4e487b7100000000000000000000000000000000000000000000000000000000600052603260045260246000fd5b6020026020010151611628565b9050600160028111156112ad577f4e487b7100000000000000000000000000000000000000000000000000000000600052602160045260246000fd5b8660028111156112e6577f4e487b7100000000000000000000000000000000000000000000000000000000600052602160045260246000fd5b1480156112f05750805b80611374575060028081111561132f577f4e487b7100000000000000000000000000000000000000000000000000000000600052602160045260246000fd5b866002811115611368577f4e487b7100000000000000000000000000000000000000000000000000000000600052602160045260246000fd5b148015611373575080155b5b1561138857828061138490614bc9565b9350505b50808061139490614bc9565b91505061121d565b5060008167ffffffffffffffff8111156113df577f4e487b7100000000000000000000000000000000000000000000000000000000600052604160045260246000fd5b60405190808252806020026020018201604052801561140d5781602001602082028036833780820191505090505b5090506000805b845181101561161957600061146886838151811061145b577f4e487b7100000000000000000000000000000000000000000000000000000000600052603260045260246000fd5b6020026020010151611628565b9050600160028111156114a4577f4e487b7100000000000000000000000000000000000000000000000000000000600052602160045260246000fd5b8860028111156114dd577f4e487b7100000000000000000000000000000000000000000000000000000000600052602160045260246000fd5b1480156114e75750805b8061156b5750600280811115611526577f4e487b7100000000000000000000000000000000000000000000000000000000600052602160045260246000fd5b88600281111561155f577f4e487b7100000000000000000000000000000000000000000000000000000000600052602160045260246000fd5b14801561156a575080155b5b15611605578582815181106115a9577f4e487b7100000000000000000000000000000000000000000000000000000000600052603260045260246000fd5b60200260200101518484815181106115ea577f4e487b7100000000000000000000000000000000000000000000000000000000600052603260045260246000fd5b602002602001018181525050828061160190614bc9565b9350505b50808061161190614bc9565b915050611414565b50819450505050505b92915050565b6000600c600083815260200190815260200160002060009054906101000a900460ff169050919050565b61165a6126a6565b61166261198b565b73ffffffffffffffffffffffffffffffffffffffff166108fc479081150290604051600060405180830381858888f193505050501580156116a7573d6000803e3d6000fd5b50565b6116c58383836040518060200160405280600081525061201e565b505050565b6000601654905090565b6000806116e083612bf5565b9050600073ffffffffffffffffffffffffffffffffffffffff168173ffffffffffffffffffffffffffffffffffffffff161415611752576040517f08c379a000000000000000000000000000000000000000000000000000000000815260040161174990614868565b60405180910390fd5b80915050919050565b6060600c600083815260200190815260200160002060009054906101000a900460ff16156117be576040517f08c379a00000000000000000000000000000000000000000000000000000000081526004016117b590614668565b60405180910390fd5b6014600083815260200190815260200160002080548060200260200160405190810160405280929190818152602001828054801561181b57602002820191906000526020600020905b815481526020019060010190808311611807575b50505050509050919050565b60008073ffffffffffffffffffffffffffffffffffffffff168273ffffffffffffffffffffffffffffffffffffffff161415611898576040517f08c379a000000000000000000000000000000000000000000000000000000000815260040161188f906147c8565b60405180910390fd5b600360008373ffffffffffffffffffffffffffffffffffffffff1673ffffffffffffffffffffffffffffffffffffffff168152602001908152602001600020549050919050565b6118e76126a6565b6118f16000612c32565b565b600a805461190090614b66565b80601f016020809104026020016040519081016040528092919081815260200182805461192c90614b66565b80156119795780601f1061194e57610100808354040283529160200191611979565b820191906000526020600020905b81548152906001019060200180831161195c57829003601f168201915b505050505081565b6000601754905090565b6000600760009054906101000a900473ffffffffffffffffffffffffffffffffffffffff16905090565b6119bd6126a6565b80600a90805190602001906119d3929190613ae7565b5050565b60006119e282612afe565b611a21576040517f08c379a0000000000000000000000000000000000000000000000000000000008152600401611a1890614788565b60405180910390fd5b6011600083815260200190815260200160002060009054906101000a900473ffffffffffffffffffffffffffffffffffffffff169050919050565b606060018054611a6b90614b66565b80601f0160208091040260200160405190810160405280929190818152602001828054611a9790614b66565b8015611ae45780601f10611ab957610100808354040283529160200191611ae4565b820191906000526020600020905b815481529060010190602001808311611ac757829003601f168201915b5050505050905090565b6060600080600090505b601580549050811015611cfa576000611b5460158381548110611b44577f4e487b7100000000000000000000000000000000000000000000000000000000600052603260045260246000fd5b9060005260206000200154611628565b905060006002811115611b90577f4e487b7100000000000000000000000000000000000000000000000000000000600052602160045260246000fd5b856002811115611bc9577f4e487b7100000000000000000000000000000000000000000000000000000000600052602160045260246000fd5b1480611c4e575060016002811115611c0a577f4e487b7100000000000000000000000000000000000000000000000000000000600052602160045260246000fd5b856002811115611c43577f4e487b7100000000000000000000000000000000000000000000000000000000600052602160045260246000fd5b148015611c4d5750805b5b80611cd25750600280811115611c8d577f4e487b7100000000000000000000000000000000000000000000000000000000600052602160045260246000fd5b856002811115611cc6577f4e487b7100000000000000000000000000000000000000000000000000000000600052602160045260246000fd5b148015611cd1575080155b5b15611ce6578280611ce290614bc9565b9350505b508080611cf290614bc9565b915050611af8565b5060008167ffffffffffffffff811115611d3d577f4e487b7100000000000000000000000000000000000000000000000000000000600052604160045260246000fd5b604051908082528060200260200182016040528015611d6b5781602001602082028036833780820191505090505b5090506000805b601580549050811015611ffc576000611dce60158381548110611dbe577f4e487b7100000000000000000000000000000000000000000000000000000000600052603260045260246000fd5b9060005260206000200154611628565b905060006002811115611e0a577f4e487b7100000000000000000000000000000000000000000000000000000000600052602160045260246000fd5b876002811115611e43577f4e487b7100000000000000000000000000000000000000000000000000000000600052602160045260246000fd5b1480611ec8575060016002811115611e84577f4e487b7100000000000000000000000000000000000000000000000000000000600052602160045260246000fd5b876002811115611ebd577f4e487b7100000000000000000000000000000000000000000000000000000000600052602160045260246000fd5b148015611ec75750805b5b80611f4c5750600280811115611f07577f4e487b7100000000000000000000000000000000000000000000000000000000600052602160045260246000fd5b876002811115611f40577f4e487b7100000000000000000000000000000000000000000000000000000000600052602160045260246000fd5b148015611f4b575080155b5b15611fe85760158281548110611f8b577f4e487b7100000000000000000000000000000000000000000000000000000000600052603260045260246000fd5b9060005260206000200154848480611fa290614bc9565b955081518110611fdb577f4e487b7100000000000000000000000000000000000000000000000000000000600052603260045260246000fd5b6020026020010181815250505b508080611ff490614bc9565b915050611d72565b50819350505050919050565b61201a6120136125e5565b8383612cf8565b5050565b61202f6120296125e5565b83612724565b61206e576040517f08c379a000000000000000000000000000000000000000000000000000000000815260040161206590614648565b60405180910390fd5b61207a84848484612e65565b50505050565b6000600c600083815260200190815260200160002060009054906101000a900460ff166120e2576040517f08c379a00000000000000000000000000000000000000000000000000000000081526004016120d9906147a8565b60405180910390fd5b600d6000838152602001908152602001600020549050919050565b600061210882612afe565b612147576040517f08c379a000000000000000000000000000000000000000000000000000000000815260040161213e90614788565b60405180910390fd5b600f600083815260200190815260200160002060009054906101000a900460ff169050919050565b6000600b54905090565b606061218482612ec1565b9050919050565b6000600e6000838152602001908152602001600020549050919050565b60095481565b60606121bb826000611103565b9050919050565b6121ca6126a6565b60006010826040516121dc9190614547565b9081526020016040518091039020541461222b576040517f08c379a000000000000000000000000000000000000000000000000000000000815260040161222290614808565b60405180910390fd5b6122356008612b3f565b600061223f61198b565b9050600061224d6008612b55565b90506122598282612fd4565b6000600c600083815260200190815260200160002060006101000a81548160ff02191690831515021790555061228f8185612b81565b806010846040516122a09190614547565b908152602001604051809103902081905550601360008373ffffffffffffffffffffffffffffffffffffffff1673ffffffffffffffffffffffffffffffffffffffff16815260200190815260200160002081908060018154018082558091505060019003906000526020600020016000909190919091505560158190806001815401808255809150506001900390600052602060002001600090919091909150556016600081548092919061235490614bc9565b9190505550816011600083815260200190815260200160002060006101000a81548173ffffffffffffffffffffffffffffffffffffffff021916908373ffffffffffffffffffffffffffffffffffffffff16021790555050505050565b6000600560008473ffffffffffffffffffffffffffffffffffffffff1673ffffffffffffffffffffffffffffffffffffffff16815260200190815260200160002060008373ffffffffffffffffffffffffffffffffffffffff1673ffffffffffffffffffffffffffffffffffffffff16815260200190815260200160002060009054906101000a900460ff16905092915050565b61244d6126a6565b6001600f600084815260200190815260200160002060006101000a81548160ff02191690831515021790555080600e6000848152602001908152602001600020819055505050565b61249d6126a6565b600073ffffffffffffffffffffffffffffffffffffffff168173ffffffffffffffffffffffffffffffffffffffff16141561250d576040517f08c379a0000000000000000000000000000000000000000000000000000000008152600401612504906146a8565b60405180910390fd5b61251681612c32565b50565b600060175460165461252b9190614a26565b905090565b60007f01ffc9a7000000000000000000000000000000000000000000000000000000007bffffffffffffffffffffffffffffffffffffffffffffffffffffffff1916827bffffffffffffffffffffffffffffffffffffffffffffffffffffffff1916149050919050565b6125a381612afe565b6125e2576040517f08c379a00000000000000000000000000000000000000000000000000000000081526004016125d990614868565b60405180910390fd5b50565b600033905090565b816004600083815260200190815260200160002060006101000a81548173ffffffffffffffffffffffffffffffffffffffff021916908373ffffffffffffffffffffffffffffffffffffffff160217905550808273ffffffffffffffffffffffffffffffffffffffff16612660836116d4565b73ffffffffffffffffffffffffffffffffffffffff167f8c5be1e5ebec7d5bd14f71427d1e84f3dd0314c0f7b2291e5b200ac8c7c3b92560405160405180910390a45050565b6126ae6125e5565b73ffffffffffffffffffffffffffffffffffffffff166126cc61198b565b73ffffffffffffffffffffffffffffffffffffffff1614612722576040517f08c379a000000000000000000000000000000000000000000000000000000000815260040161271990614848565b60405180910390fd5b565b600080612730836116d4565b90508073ffffffffffffffffffffffffffffffffffffffff168473ffffffffffffffffffffffffffffffffffffffff161480612772575061277181856123b1565b5b806127b057508373ffffffffffffffffffffffffffffffffffffffff1661279884610b86565b73ffffffffffffffffffffffffffffffffffffffff16145b91505092915050565b6127c48383836131f2565b60005b601360008573ffffffffffffffffffffffffffffffffffffffff1673ffffffffffffffffffffffffffffffffffffffff16815260200190815260200160002080549050811015612a925781601360008673ffffffffffffffffffffffffffffffffffffffff1673ffffffffffffffffffffffffffffffffffffffff1681526020019081526020016000208281548110612889577f4e487b7100000000000000000000000000000000000000000000000000000000600052603260045260246000fd5b90600052602060002001541415612a7f57601360008573ffffffffffffffffffffffffffffffffffffffff1673ffffffffffffffffffffffffffffffffffffffff1681526020019081526020016000206001601360008773ffffffffffffffffffffffffffffffffffffffff1673ffffffffffffffffffffffffffffffffffffffff168152602001908152602001600020805490506129289190614a7c565b8154811061295f577f4e487b7100000000000000000000000000000000000000000000000000000000600052603260045260246000fd5b9060005260206000200154601360008673ffffffffffffffffffffffffffffffffffffffff1673ffffffffffffffffffffffffffffffffffffffff16815260200190815260200160002082815481106129e1577f4e487b7100000000000000000000000000000000000000000000000000000000600052603260045260246000fd5b9060005260206000200181905550601360008573ffffffffffffffffffffffffffffffffffffffff1673ffffffffffffffffffffffffffffffffffffffff168152602001908152602001600020805480612a64577f4e487b7100000000000000000000000000000000000000000000000000000000600052603160045260246000fd5b60019003818190600052602060002001600090559055612a92565b8080612a8a90614bc9565b9150506127c7565b50601360008373ffffffffffffffffffffffffffffffffffffffff1673ffffffffffffffffffffffffffffffffffffffff168152602001908152602001600020819080600181540180825580915050600190039060005260206000200160009091909190915055505050565b60008073ffffffffffffffffffffffffffffffffffffffff16612b2083612bf5565b73ffffffffffffffffffffffffffffffffffffffff1614159050919050565b6001816000016000828254019250508190555050565b600081600001549050919050565b612b7d8282604051806020016040528060008152506134ec565b5050565b612b8a82612afe565b612bc9576040517f08c379a0000000000000000000000000000000000000000000000000000000008152600401612bc0906147e8565b60405180910390fd5b80600660008481526020019081526020016000209080519060200190612bf0929190613ae7565b505050565b60006002600083815260200190815260200160002060009054906101000a900473ffffffffffffffffffffffffffffffffffffffff169050919050565b6000600760009054906101000a900473ffffffffffffffffffffffffffffffffffffffff16905081600760006101000a81548173ffffffffffffffffffffffffffffffffffffffff021916908373ffffffffffffffffffffffffffffffffffffffff1602179055508173ffffffffffffffffffffffffffffffffffffffff168173ffffffffffffffffffffffffffffffffffffffff167f8be0079c531659141344cd1fd0a4f28419497f9722a3daafe3b4186f6b6457e060405160405180910390a35050565b8173ffffffffffffffffffffffffffffffffffffffff168373ffffffffffffffffffffffffffffffffffffffff161415612d67576040517f08c379a0000000000000000000000000000000000000000000000000000000008152600401612d5e90614728565b60405180910390fd5b80600560008573ffffffffffffffffffffffffffffffffffffffff1673ffffffffffffffffffffffffffffffffffffffff16815260200190815260200160002060008473ffffffffffffffffffffffffffffffffffffffff1673ffffffffffffffffffffffffffffffffffffffff16815260200190815260200160002060006101000a81548160ff0219169083151502179055508173ffffffffffffffffffffffffffffffffffffffff168373ffffffffffffffffffffffffffffffffffffffff167f17307eab39ab6107e8899845ad3d59bd9653f200f220920489ca2b5937696c3183604051612e58919061460b565b60405180910390a3505050565b612e708484846127b9565b612e7c84848484613547565b612ebb576040517f08c379a0000000000000000000000000000000000000000000000000000000008152600401612eb290614688565b60405180910390fd5b50505050565b6060612ecc8261259a565b6000600660008481526020019081526020016000208054612eec90614b66565b80601f0160208091040260200160405190810160405280929190818152602001828054612f1890614b66565b8015612f655780601f10612f3a57610100808354040283529160200191612f65565b820191906000526020600020905b815481529060010190602001808311612f4857829003601f168201915b505050505090506000612f766136de565b9050600081511415612f8c578192505050612fcf565b600082511115612fc1578082604051602001612fa992919061455e565b60405160208183030381529060405292505050612fcf565b612fca846136f5565b925050505b919050565b600073ffffffffffffffffffffffffffffffffffffffff168273ffffffffffffffffffffffffffffffffffffffff161415613044576040517f08c379a000000000000000000000000000000000000000000000000000000000815260040161303b90614828565b60405180910390fd5b61304d81612afe565b1561308d576040517f08c379a0000000000000000000000000000000000000000000000000000000008152600401613084906146e8565b60405180910390fd5b61309b60008383600161375d565b6130a481612afe565b156130e4576040517f08c379a00000000000000000000000000000000000000000000000000000000081526004016130db906146e8565b60405180910390fd5b6001600360008473ffffffffffffffffffffffffffffffffffffffff1673ffffffffffffffffffffffffffffffffffffffff16815260200190815260200160002060008282540192505081905550816002600083815260200190815260200160002060006101000a81548173ffffffffffffffffffffffffffffffffffffffff021916908373ffffffffffffffffffffffffffffffffffffffff160217905550808273ffffffffffffffffffffffffffffffffffffffff16600073ffffffffffffffffffffffffffffffffffffffff167fddf252ad1be2c89b69c2b068fc378daa952ba7f163c4a11628f55a4df523b3ef60405160405180910390a46131ee600083836001613763565b5050565b8273ffffffffffffffffffffffffffffffffffffffff16613212826116d4565b73ffffffffffffffffffffffffffffffffffffffff1614613268576040517f08c379a000000000000000000000000000000000000000000000000000000000815260040161325f906146c8565b60405180910390fd5b600073ffffffffffffffffffffffffffffffffffffffff168273ffffffffffffffffffffffffffffffffffffffff1614156132d8576040517f08c379a00000000000000000000000000000000000000000000000000000000081526004016132cf90614708565b60405180910390fd5b6132e5838383600161375d565b8273ffffffffffffffffffffffffffffffffffffffff16613305826116d4565b73ffffffffffffffffffffffffffffffffffffffff161461335b576040517f08c379a0000000000000000000000000000000000000000000000000000000008152600401613352906146c8565b60405180910390fd5b6004600082815260200190815260200160002060006101000a81549073ffffffffffffffffffffffffffffffffffffffff02191690556001600360008573ffffffffffffffffffffffffffffffffffffffff1673ffffffffffffffffffffffffffffffffffffffff168152602001908152602001600020600082825403925050819055506001600360008473ffffffffffffffffffffffffffffffffffffffff1673ffffffffffffffffffffffffffffffffffffffff16815260200190815260200160002060008282540192505081905550816002600083815260200190815260200160002060006101000a81548173ffffffffffffffffffffffffffffffffffffffff021916908373ffffffffffffffffffffffffffffffffffffffff160217905550808273ffffffffffffffffffffffffffffffffffffffff168473ffffffffffffffffffffffffffffffffffffffff167fddf252ad1be2c89b69c2b068fc378daa952ba7f163c4a11628f55a4df523b3ef60405160405180910390a46134e78383836001613763565b505050565b6134f68383612fd4565b6135036000848484613547565b613542576040517f08c379a000000000000000000000000000000000000000000000000000000000815260040161353990614688565b60405180910390fd5b505050565b60006135688473ffffffffffffffffffffffffffffffffffffffff16613769565b156136d1578373ffffffffffffffffffffffffffffffffffffffff1663150b7a026135916125e5565b8786866040518563ffffffff1660e01b81526004016135b3949392919061459d565b602060405180830381600087803b1580156135cd57600080fd5b505af19250505080156135fe57506040513d601f19601f820116820180604052508101906135fb9190613ee4565b60015b613681573d806000811461362e576040519150601f19603f3d011682016040523d82523d6000602084013e613633565b606091505b50600081511415613679576040517f08c379a000000000000000000000000000000000000000000000000000000000815260040161367090614688565b60405180910390fd5b805181602001fd5b63150b7a0260e01b7bffffffffffffffffffffffffffffffffffffffffffffffffffffffff1916817bffffffffffffffffffffffffffffffffffffffffffffffffffffffff1916149150506136d6565b600190505b949350505050565b606060405180602001604052806000815250905090565b60606137008261259a565b600061370a6136de565b9050600081511161372a5760405180602001604052806000815250613755565b806137348461378c565b60405160200161374592919061455e565b6040516020818303038152906040525b915050919050565b50505050565b50505050565b6000808273ffffffffffffffffffffffffffffffffffffffff163b119050919050565b60606000600161379b846138b0565b01905060008167ffffffffffffffff8111156137e0577f4e487b7100000000000000000000000000000000000000000000000000000000600052604160045260246000fd5b6040519080825280601f01601f1916602001820160405280156138125781602001600182028036833780820191505090505b509050600082602001820190505b6001156138a5578080600190039150507f3031323334353637383961626364656600000000000000000000000000000000600a86061a8153600a858161388f577f4e487b7100000000000000000000000000000000000000000000000000000000600052601260045260246000fd5b04945060008514156138a0576138a5565b613820565b819350505050919050565b600080600090507a184f03e93ff9f4daa797ed6e38ed64bf6a1f0100000000000000008310613934577a184f03e93ff9f4daa797ed6e38ed64bf6a1f010000000000000000838161392a577f4e487b7100000000000000000000000000000000000000000000000000000000600052601260045260246000fd5b0492506040810190505b6d04ee2d6d415b85acef81000000008310613997576d04ee2d6d415b85acef8100000000838161398d577f4e487b7100000000000000000000000000000000000000000000000000000000600052601260045260246000fd5b0492506020810190505b662386f26fc1000083106139ec57662386f26fc1000083816139e2577f4e487b7100000000000000000000000000000000000000000000000000000000600052601260045260246000fd5b0492506010810190505b6305f5e1008310613a3b576305f5e1008381613a31577f4e487b7100000000000000000000000000000000000000000000000000000000600052601260045260246000fd5b0492506008810190505b6127108310613a86576127108381613a7c577f4e487b7100000000000000000000000000000000000000000000000000000000600052601260045260246000fd5b0492506004810190505b60648310613acf5760648381613ac5577f4e487b7100000000000000000000000000000000000000000000000000000000600052601260045260246000fd5b0492506002810190505b600a8310613ade576001810190505b80915050919050565b828054613af390614b66565b90600052602060002090601f016020900481019282613b155760008555613b5c565b82601f10613b2e57805160ff1916838001178555613b5c565b82800160010185558215613b5c579182015b82811115613b5b578251825591602001919060010190613b40565b5b509050613b699190613b6d565b5090565b5b80821115613b86576000816000905550600101613b6e565b5090565b6000613b9d613b9884614948565b614923565b905082815260208101848484011115613bb557600080fd5b613bc0848285614b24565b509392505050565b6000613bdb613bd684614979565b614923565b905082815260208101848484011115613bf357600080fd5b613bfe848285614b24565b509392505050565b600081359050613c15816151b2565b92915050565b600081359050613c2a816151c9565b92915050565b600081359050613c3f816151e0565b92915050565b600081519050613c54816151e0565b92915050565b600082601f830112613c6b57600080fd5b8135613c7b848260208601613b8a565b91505092915050565b600081359050613c93816151f7565b92915050565b600082601f830112613caa57600080fd5b8135613cba848260208601613bc8565b91505092915050565b600081359050613cd281615207565b92915050565b600060208284031215613cea57600080fd5b6000613cf884828501613c06565b91505092915050565b60008060408385031215613d1457600080fd5b6000613d2285828601613c06565b9250506020613d3385828601613c06565b9150509250929050565b600080600060608486031215613d5257600080fd5b6000613d6086828701613c06565b9350506020613d7186828701613c06565b9250506040613d8286828701613cc3565b9150509250925092565b60008060008060808587031215613da257600080fd5b6000613db087828801613c06565b9450506020613dc187828801613c06565b9350506040613dd287828801613cc3565b925050606085013567ffffffffffffffff811115613def57600080fd5b613dfb87828801613c5a565b91505092959194509250565b60008060408385031215613e1a57600080fd5b6000613e2885828601613c06565b9250506020613e3985828601613c1b565b9150509250929050565b60008060408385031215613e5657600080fd5b6000613e6485828601613c06565b9250506020613e7585828601613c84565b9150509250929050565b60008060408385031215613e9257600080fd5b6000613ea085828601613c06565b9250506020613eb185828601613cc3565b9150509250929050565b600060208284031215613ecd57600080fd5b6000613edb84828501613c30565b91505092915050565b600060208284031215613ef657600080fd5b6000613f0484828501613c45565b91505092915050565b600060208284031215613f1f57600080fd5b6000613f2d84828501613c84565b91505092915050565b600060208284031215613f4857600080fd5b600082013567ffffffffffffffff811115613f6257600080fd5b613f6e84828501613c99565b91505092915050565b60008060408385031215613f8a57600080fd5b600083013567ffffffffffffffff811115613fa457600080fd5b613fb085828601613c99565b925050602083013567ffffffffffffffff811115613fcd57600080fd5b613fd985828601613c99565b9150509250929050565b60008060408385031215613ff657600080fd5b600083013567ffffffffffffffff81111561401057600080fd5b61401c85828601613c99565b925050602061402d85828601613cc3565b9150509250929050565b60006020828403121561404957600080fd5b600061405784828501613cc3565b91505092915050565b6000806040838503121561407357600080fd5b600061408185828601613cc3565b925050602083013567ffffffffffffffff81111561409e57600080fd5b6140aa85828601613c99565b9150509250929050565b600080604083850312156140c757600080fd5b60006140d585828601613cc3565b92505060206140e685828601613cc3565b9150509250929050565b60006140fc8383614529565b60208301905092915050565b61411181614ab0565b82525050565b6000614122826149ba565b61412c81856149e8565b9350614137836149aa565b8060005b8381101561416857815161414f88826140f0565b975061415a836149db565b92505060018101905061413b565b5085935050505092915050565b61417e81614ac2565b82525050565b600061418f826149c5565b61419981856149f9565b93506141a9818560208601614b33565b6141b281614c9f565b840191505092915050565b60006141c8826149d0565b6141d28185614a0a565b93506141e2818560208601614b33565b6141eb81614c9f565b840191505092915050565b6000614201826149d0565b61420b8185614a1b565b935061421b818560208601614b33565b80840191505092915050565b6000614234602d83614a0a565b915061423f82614cb0565b604082019050919050565b6000614257602183614a0a565b915061426282614cff565b604082019050919050565b600061427a603283614a0a565b915061428582614d4e565b604082019050919050565b600061429d602683614a0a565b91506142a882614d9d565b604082019050919050565b60006142c0602583614a0a565b91506142cb82614dec565b604082019050919050565b60006142e3601c83614a0a565b91506142ee82614e3b565b602082019050919050565b6000614306602483614a0a565b915061431182614e64565b604082019050919050565b6000614329601983614a0a565b915061433482614eb3565b602082019050919050565b600061434c601483614a0a565b915061435782614edc565b602082019050919050565b600061436f602083614a0a565b915061437a82614f05565b602082019050919050565b6000614392601483614a0a565b915061439d82614f2e565b602082019050919050565b60006143b5601483614a0a565b91506143c082614f57565b602082019050919050565b60006143d8602983614a0a565b91506143e382614f80565b604082019050919050565b60006143fb602e83614a0a565b915061440682614fcf565b604082019050919050565b600061441e601283614a0a565b91506144298261501e565b602082019050919050565b6000614441602083614a0a565b915061444c82615047565b602082019050919050565b6000614464602083614a0a565b915061446f82615070565b602082019050919050565b6000614487601883614a0a565b915061449282615099565b602082019050919050565b60006144aa601283614a0a565b91506144b5826150c2565b602082019050919050565b60006144cd601083614a0a565b91506144d8826150eb565b602082019050919050565b60006144f0602183614a0a565b91506144fb82615114565b604082019050919050565b6000614513603d83614a0a565b915061451e82615163565b604082019050919050565b61453281614b1a565b82525050565b61454181614b1a565b82525050565b600061455382846141f6565b915081905092915050565b600061456a82856141f6565b915061457682846141f6565b91508190509392505050565b60006020820190506145976000830184614108565b92915050565b60006080820190506145b26000830187614108565b6145bf6020830186614108565b6145cc6040830185614538565b81810360608301526145de8184614184565b905095945050505050565b600060208201905081810360008301526146038184614117565b905092915050565b60006020820190506146206000830184614175565b92915050565b6000602082019050818103600083015261464081846141bd565b905092915050565b6000602082019050818103600083015261466181614227565b9050919050565b600060208201905081810360008301526146818161424a565b9050919050565b600060208201905081810360008301526146a18161426d565b9050919050565b600060208201905081810360008301526146c181614290565b9050919050565b600060208201905081810360008301526146e1816142b3565b9050919050565b60006020820190508181036000830152614701816142d6565b9050919050565b60006020820190508181036000830152614721816142f9565b9050919050565b600060208201905081810360008301526147418161431c565b9050919050565b600060208201905081810360008301526147618161433f565b9050919050565b6000602082019050818103600083015261478181614362565b9050919050565b600060208201905081810360008301526147a181614385565b9050919050565b600060208201905081810360008301526147c1816143a8565b9050919050565b600060208201905081810360008301526147e1816143cb565b9050919050565b60006020820190508181036000830152614801816143ee565b9050919050565b6000602082019050818103600083015261482181614411565b9050919050565b6000602082019050818103600083015261484181614434565b9050919050565b6000602082019050818103600083015261486181614457565b9050919050565b600060208201905081810360008301526148818161447a565b9050919050565b600060208201905081810360008301526148a18161449d565b9050919050565b600060208201905081810360008301526148c1816144c0565b9050919050565b600060208201905081810360008301526148e1816144e3565b9050919050565b6000602082019050818103600083015261490181614506565b9050919050565b600060208201905061491d6000830184614538565b92915050565b600061492d61493e565b90506149398282614b98565b919050565b6000604051905090565b600067ffffffffffffffff82111561496357614962614c70565b5b61496c82614c9f565b9050602081019050919050565b600067ffffffffffffffff82111561499457614993614c70565b5b61499d82614c9f565b9050602081019050919050565b6000819050602082019050919050565b600081519050919050565b600081519050919050565b600081519050919050565b6000602082019050919050565b600082825260208201905092915050565b600082825260208201905092915050565b600082825260208201905092915050565b600081905092915050565b6000614a3182614b1a565b9150614a3c83614b1a565b9250827fffffffffffffffffffffffffffffffffffffffffffffffffffffffffffffffff03821115614a7157614a70614c12565b5b828201905092915050565b6000614a8782614b1a565b9150614a9283614b1a565b925082821015614aa557614aa4614c12565b5b828203905092915050565b6000614abb82614afa565b9050919050565b60008115159050919050565b60007fffffffff0000000000000000000000000000000000000000000000000000000082169050919050565b600073ffffffffffffffffffffffffffffffffffffffff82169050919050565b6000819050919050565b82818337600083830152505050565b60005b83811015614b51578082015181840152602081019050614b36565b83811115614b60576000848401525b50505050565b60006002820490506001821680614b7e57607f821691505b60208210811415614b9257614b91614c41565b5b50919050565b614ba182614c9f565b810181811067ffffffffffffffff82111715614bc057614bbf614c70565b5b80604052505050565b6000614bd482614b1a565b91507fffffffffffffffffffffffffffffffffffffffffffffffffffffffffffffffff821415614c0757614c06614c12565b5b600182019050919050565b7f4e487b7100000000000000000000000000000000000000000000000000000000600052601160045260246000fd5b7f4e487b7100000000000000000000000000000000000000000000000000000000600052602260045260246000fd5b7f4e487b7100000000000000000000000000000000000000000000000000000000600052604160045260246000fd5b6000601f19601f8301169050919050565b7f4552433732313a2063616c6c6572206973206e6f7420746f6b656e206f776e6560008201527f72206f7220617070726f76656400000000000000000000000000000000000000602082015250565b7f546f6b656e206973206120636c6f6e652c206e6f7420616e206f726967696e6160008201527f6c00000000000000000000000000000000000000000000000000000000000000602082015250565b7f4552433732313a207472616e7366657220746f206e6f6e20455243373231526560008201527f63656976657220696d706c656d656e7465720000000000000000000000000000602082015250565b7f4f776e61626c653a206e6577206f776e657220697320746865207a65726f206160008201527f6464726573730000000000000000000000000000000000000000000000000000602082015250565b7f4552433732313a207472616e736665722066726f6d20696e636f72726563742060008201527f6f776e6572000000000000000000000000000000000000000000000000000000602082015250565b7f4552433732313a20746f6b656e20616c7265616479206d696e74656400000000600082015250565b7f4552433732313a207472616e7366657220746f20746865207a65726f2061646460008201527f7265737300000000000000000000000000000000000000000000000000000000602082015250565b7f4552433732313a20617070726f766520746f2063616c6c657200000000000000600082015250565b7f43616e6e6f7420636c6f6e65206120636c6f6e65000000000000000000000000600082015250565b7f496e73756666696369656e742066756e647320746f206d696e7420636c6f6e65600082015250565b7f546f6b656e20646f6573206e6f74206578697374000000000000000000000000600082015250565b7f546f6b656e206973206e6f74206120636c6f6e65000000000000000000000000600082015250565b7f4552433732313a2061646472657373207a65726f206973206e6f74206120766160008201527f6c6964206f776e65720000000000000000000000000000000000000000000000602082015250565b7f45524337323155524953746f726167653a2055524920736574206f66206e6f6e60008201527f6578697374656e7420746f6b656e000000000000000000000000000000000000602082015250565b7f55524c20616c7265616479206578697374730000000000000000000000000000600082015250565b7f4552433732313a206d696e7420746f20746865207a65726f2061646472657373600082015250565b7f4f776e61626c653a2063616c6c6572206973206e6f7420746865206f776e6572600082015250565b7f4552433732313a20696e76616c696420746f6b656e2049440000000000000000600082015250565b7f55524c20646f6573206e6f742065786973740000000000000000000000000000600082015250565b7f496e76616c696420746f6b656e20494400000000000000000000000000000000600082015250565b7f4552433732313a20617070726f76616c20746f2063757272656e74206f776e6560008201527f7200000000000000000000000000000000000000000000000000000000000000602082015250565b7f4552433732313a20617070726f76652063616c6c6572206973206e6f7420746f60008201527f6b656e206f776e6572206f7220617070726f76656420666f7220616c6c000000602082015250565b6151bb81614ab0565b81146151c657600080fd5b50565b6151d281614ac2565b81146151dd57600080fd5b50565b6151e981614ace565b81146151f457600080fd5b50565b6003811061520457600080fd5b50565b61521081614b1a565b811461521b57600080fd5b5056fea26469706673582212205815c67c460f581fc3db3337751d4389a657fd623db12fab8761e0c97a2bcd4f64736f6c63430008010033",
  "linkReferences": {},
  "deployedLinkReferences": {}
}