{
  "_format": "hh-sol-artifact-1",
  "contractName": "CloneableNFT",
  "sourceName": "contracts/ClonableNFT.sol",
  "abi": [
    {
      "inputs": [
        {
          "internalType": "string",
          "name": "name",
          "type": "string"
        },
        {
          "internalType": "string",
          "name": "symbol",
          "type": "string"
        }
      ],
      "stateMutability": "nonpayable",
      "type": "constructor"
    },
    {
      "anonymous": false,
      "inputs": [
        {
          "indexed": true,
          "internalType": "address",
          "name": "owner",
          "type": "address"
        },
        {
          "indexed": true,
          "internalType": "address",
          "name": "approved",
          "type": "address"
        },
        {
          "indexed": true,
          "internalType": "uint256",
          "name": "tokenId",
          "type": "uint256"
        }
      ],
      "name": "Approval",
      "type": "event"
    },
    {
      "anonymous": false,
      "inputs": [
        {
          "indexed": true,
          "internalType": "address",
          "name": "owner",
          "type": "address"
        },
        {
          "indexed": true,
          "internalType": "address",
          "name": "operator",
          "type": "address"
        },
        {
          "indexed": false,
          "internalType": "bool",
          "name": "approved",
          "type": "bool"
        }
      ],
      "name": "ApprovalForAll",
      "type": "event"
    },
    {
      "anonymous": false,
      "inputs": [
        {
          "indexed": true,
          "internalType": "address",
          "name": "previousOwner",
          "type": "address"
        },
        {
          "indexed": true,
          "internalType": "address",
          "name": "newOwner",
          "type": "address"
        }
      ],
      "name": "OwnershipTransferred",
      "type": "event"
    },
    {
      "anonymous": false,
      "inputs": [
        {
          "indexed": true,
          "internalType": "address",
          "name": "from",
          "type": "address"
        },
        {
          "indexed": true,
          "internalType": "address",
          "name": "to",
          "type": "address"
        },
        {
          "indexed": true,
          "internalType": "uint256",
          "name": "tokenId",
          "type": "uint256"
        }
      ],
      "name": "Transfer",
      "type": "event"
    },
    {
      "inputs": [
        {
          "internalType": "address",
          "name": "to",
          "type": "address"
        },
        {
          "internalType": "uint256",
          "name": "tokenId",
          "type": "uint256"
        }
      ],
      "name": "approve",
      "outputs": [],
      "stateMutability": "nonpayable",
      "type": "function"
    },
    {
      "inputs": [
        {
          "internalType": "address",
          "name": "owner",
          "type": "address"
        }
      ],
      "name": "balanceOf",
      "outputs": [
        {
          "internalType": "uint256",
          "name": "",
          "type": "uint256"
        }
      ],
      "stateMutability": "view",
      "type": "function"
    },
    {
      "inputs": [
        {
          "internalType": "uint256",
          "name": "tokenId",
          "type": "uint256"
        }
      ],
      "name": "getApproved",
      "outputs": [
        {
          "internalType": "address",
          "name": "",
          "type": "address"
        }
      ],
      "stateMutability": "view",
      "type": "function"
    },
    {
      "inputs": [],
      "name": "getDefaultClonePrice",
      "outputs": [
        {
          "internalType": "uint256",
          "name": "",
          "type": "uint256"
        }
      ],
      "stateMutability": "view",
      "type": "function"
    },
    {
      "inputs": [
        {
          "internalType": "uint256",
          "name": "tokenId",
          "type": "uint256"
        }
      ],
      "name": "getOriginal",
      "outputs": [
        {
          "internalType": "uint256",
          "name": "",
          "type": "uint256"
        }
      ],
      "stateMutability": "view",
      "type": "function"
    },
    {
      "inputs": [
        {
          "internalType": "address",
          "name": "owner",
          "type": "address"
        },
        {
          "internalType": "address",
          "name": "operator",
          "type": "address"
        }
      ],
      "name": "isApprovedForAll",
      "outputs": [
        {
          "internalType": "bool",
          "name": "",
          "type": "bool"
        }
      ],
      "stateMutability": "view",
      "type": "function"
    },
    {
      "inputs": [
        {
          "internalType": "uint256",
          "name": "tokenId",
          "type": "uint256"
        }
      ],
      "name": "isClone",
      "outputs": [
        {
          "internalType": "bool",
          "name": "",
          "type": "bool"
        }
      ],
      "stateMutability": "view",
      "type": "function"
    },
    {
      "inputs": [
        {
          "internalType": "uint256",
          "name": "tokenId",
          "type": "uint256"
        }
      ],
      "name": "mintClone",
      "outputs": [],
      "stateMutability": "payable",
      "type": "function"
    },
    {
      "inputs": [
        {
          "internalType": "string",
          "name": "tokenURI",
          "type": "string"
        }
      ],
      "name": "mintNFT",
      "outputs": [],
      "stateMutability": "nonpayable",
      "type": "function"
    },
    {
      "inputs": [],
      "name": "name",
      "outputs": [
        {
          "internalType": "string",
          "name": "",
          "type": "string"
        }
      ],
      "stateMutability": "view",
      "type": "function"
    },
    {
      "inputs": [],
      "name": "owner",
      "outputs": [
        {
          "internalType": "address",
          "name": "",
          "type": "address"
        }
      ],
      "stateMutability": "view",
      "type": "function"
    },
    {
      "inputs": [
        {
          "internalType": "uint256",
          "name": "tokenId",
          "type": "uint256"
        }
      ],
      "name": "ownerOf",
      "outputs": [
        {
          "internalType": "address",
          "name": "",
          "type": "address"
        }
      ],
      "stateMutability": "view",
      "type": "function"
    },
    {
      "inputs": [],
      "name": "renounceOwnership",
      "outputs": [],
      "stateMutability": "nonpayable",
      "type": "function"
    },
    {
      "inputs": [
        {
          "internalType": "address",
          "name": "from",
          "type": "address"
        },
        {
          "internalType": "address",
          "name": "to",
          "type": "address"
        },
        {
          "internalType": "uint256",
          "name": "tokenId",
          "type": "uint256"
        }
      ],
      "name": "safeTransferFrom",
      "outputs": [],
      "stateMutability": "nonpayable",
      "type": "function"
    },
    {
      "inputs": [
        {
          "internalType": "address",
          "name": "from",
          "type": "address"
        },
        {
          "internalType": "address",
          "name": "to",
          "type": "address"
        },
        {
          "internalType": "uint256",
          "name": "tokenId",
          "type": "uint256"
        },
        {
          "internalType": "bytes",
          "name": "data",
          "type": "bytes"
        }
      ],
      "name": "safeTransferFrom",
      "outputs": [],
      "stateMutability": "nonpayable",
      "type": "function"
    },
    {
      "inputs": [
        {
          "internalType": "address",
          "name": "operator",
          "type": "address"
        },
        {
          "internalType": "bool",
          "name": "approved",
          "type": "bool"
        }
      ],
      "name": "setApprovalForAll",
      "outputs": [],
      "stateMutability": "nonpayable",
      "type": "function"
    },
    {
      "inputs": [
        {
          "internalType": "uint256",
          "name": "tokenId",
          "type": "uint256"
        },
        {
          "internalType": "uint256",
          "name": "newPrice",
          "type": "uint256"
        }
      ],
      "name": "setClonePrice",
      "outputs": [],
      "stateMutability": "nonpayable",
      "type": "function"
    },
    {
      "inputs": [
        {
          "internalType": "uint256",
          "name": "newPrice",
          "type": "uint256"
        }
      ],
      "name": "setDefaultClonePrice",
      "outputs": [],
      "stateMutability": "nonpayable",
      "type": "function"
    },
    {
      "inputs": [
        {
          "internalType": "bytes4",
          "name": "interfaceId",
          "type": "bytes4"
        }
      ],
      "name": "supportsInterface",
      "outputs": [
        {
          "internalType": "bool",
          "name": "",
          "type": "bool"
        }
      ],
      "stateMutability": "view",
      "type": "function"
    },
    {
      "inputs": [],
      "name": "symbol",
      "outputs": [
        {
          "internalType": "string",
          "name": "",
          "type": "string"
        }
      ],
      "stateMutability": "view",
      "type": "function"
    },
    {
      "inputs": [
        {
          "internalType": "uint256",
          "name": "tokenId",
          "type": "uint256"
        }
      ],
      "name": "tokenURI",
      "outputs": [
        {
          "internalType": "string",
          "name": "",
          "type": "string"
        }
      ],
      "stateMutability": "view",
      "type": "function"
    },
    {
      "inputs": [
        {
          "internalType": "address",
          "name": "from",
          "type": "address"
        },
        {
          "internalType": "address",
          "name": "to",
          "type": "address"
        },
        {
          "internalType": "uint256",
          "name": "tokenId",
          "type": "uint256"
        }
      ],
      "name": "transferFrom",
      "outputs": [],
      "stateMutability": "nonpayable",
      "type": "function"
    },
    {
      "inputs": [
        {
          "internalType": "address",
          "name": "newOwner",
          "type": "address"
        }
      ],
      "name": "transferOwnership",
      "outputs": [],
      "stateMutability": "nonpayable",
      "type": "function"
    },
    {
      "inputs": [],
      "name": "withdraw",
      "outputs": [],
      "stateMutability": "nonpayable",
      "type": "function"
    }
  ],
  "bytecode": "0x6080604052662386f26fc100006009553480156200001c57600080fd5b506040516200389b3803806200389b833981810160405281019062000042919062000290565b818181600090805190602001906200005c9291906200016e565b508060019080519060200190620000759291906200016e565b505050620000986200008c620000a060201b60201c565b620000a860201b60201c565b505062000473565b600033905090565b6000600760009054906101000a900473ffffffffffffffffffffffffffffffffffffffff16905081600760006101000a81548173ffffffffffffffffffffffffffffffffffffffff021916908373ffffffffffffffffffffffffffffffffffffffff1602179055508173ffffffffffffffffffffffffffffffffffffffff168173ffffffffffffffffffffffffffffffffffffffff167f8be0079c531659141344cd1fd0a4f28419497f9722a3daafe3b4186f6b6457e060405160405180910390a35050565b8280546200017c9062000398565b90600052602060002090601f016020900481019282620001a05760008555620001ec565b82601f10620001bb57805160ff1916838001178555620001ec565b82800160010185558215620001ec579182015b82811115620001eb578251825591602001919060010190620001ce565b5b509050620001fb9190620001ff565b5090565b5b808211156200021a57600081600090555060010162000200565b5090565b6000620002356200022f846200032c565b62000303565b9050828152602081018484840111156200024e57600080fd5b6200025b84828562000362565b509392505050565b600082601f8301126200027557600080fd5b8151620002878482602086016200021e565b91505092915050565b60008060408385031215620002a457600080fd5b600083015167ffffffffffffffff811115620002bf57600080fd5b620002cd8582860162000263565b925050602083015167ffffffffffffffff811115620002eb57600080fd5b620002f98582860162000263565b9150509250929050565b60006200030f62000322565b90506200031d8282620003ce565b919050565b6000604051905090565b600067ffffffffffffffff8211156200034a576200034962000433565b5b620003558262000462565b9050602081019050919050565b60005b838110156200038257808201518184015260208101905062000365565b8381111562000392576000848401525b50505050565b60006002820490506001821680620003b157607f821691505b60208210811415620003c857620003c762000404565b5b50919050565b620003d98262000462565b810181811067ffffffffffffffff82111715620003fb57620003fa62000433565b5b80604052505050565b7f4e487b7100000000000000000000000000000000000000000000000000000000600052602260045260246000fd5b7f4e487b7100000000000000000000000000000000000000000000000000000000600052604160045260246000fd5b6000601f19601f8301169050919050565b61341880620004836000396000f3fe60806040526004361061014b5760003560e01c80638beaa3ee116100b6578063c6af11221161006f578063c6af11221461047f578063c87b56dd146104aa578063e985e9c5146104e7578063ef74248d14610524578063f2fde38b1461054d578063fb37e883146105765761014b565b80638beaa3ee1461037e5780638da5cb5b1461039a57806395d89b41146103c5578063a22cb465146103f0578063b88d4fde14610419578063bc8c778f146104425761014b565b8063385eda9c11610108578063385eda9c146102705780633ccfd60b146102ad57806342842e0e146102c45780636352211e146102ed57806370a082311461032a578063715018a6146103675761014b565b806301ffc9a71461015057806306fdde031461018d578063081812fc146101b8578063095ea7b3146101f55780631a2b285e1461021e57806323b872dd14610247575b600080fd5b34801561015c57600080fd5b506101776004803603810190610172919061259b565b61059f565b6040516101849190612a64565b60405180910390f35b34801561019957600080fd5b506101a2610681565b6040516101af9190612a7f565b60405180910390f35b3480156101c457600080fd5b506101df60048036038101906101da919061262e565b610713565b6040516101ec91906129fd565b60405180910390f35b34801561020157600080fd5b5061021c6004803603810190610217919061255f565b610759565b005b34801561022a57600080fd5b506102456004803603810190610240919061262e565b610871565b005b34801561025357600080fd5b5061026e60048036038101906102699190612459565b610883565b005b34801561027c57600080fd5b506102976004803603810190610292919061262e565b6108e3565b6040516102a49190612a64565b60405180910390f35b3480156102b957600080fd5b506102c261090d565b005b3480156102d057600080fd5b506102eb60048036038101906102e69190612459565b610965565b005b3480156102f957600080fd5b50610314600480360381019061030f919061262e565b610985565b60405161032191906129fd565b60405180910390f35b34801561033657600080fd5b50610351600480360381019061034c91906123f4565b610a0c565b60405161035e9190612ce1565b60405180910390f35b34801561037357600080fd5b5061037c610ac4565b005b6103986004803603810190610393919061262e565b610ad8565b005b3480156103a657600080fd5b506103af610c6a565b6040516103bc91906129fd565b60405180910390f35b3480156103d157600080fd5b506103da610c94565b6040516103e79190612a7f565b60405180910390f35b3480156103fc57600080fd5b5061041760048036038101906104129190612523565b610d26565b005b34801561042557600080fd5b50610440600480360381019061043b91906124a8565b610d3c565b005b34801561044e57600080fd5b506104696004803603810190610464919061262e565b610d9e565b6040516104769190612ce1565b60405180910390f35b34801561048b57600080fd5b50610494610e1b565b6040516104a19190612ce1565b60405180910390f35b3480156104b657600080fd5b506104d160048036038101906104cc919061262e565b610e25565b6040516104de9190612a7f565b60405180910390f35b3480156104f357600080fd5b5061050e6004803603810190610509919061241d565b610f38565b60405161051b9190612a64565b60405180910390f35b34801561053057600080fd5b5061054b60048036038101906105469190612657565b610fcc565b005b34801561055957600080fd5b50610574600480360381019061056f91906123f4565b610ff0565b005b34801561058257600080fd5b5061059d600480360381019061059891906125ed565b611074565b005b60007f80ac58cd000000000000000000000000000000000000000000000000000000007bffffffffffffffffffffffffffffffffffffffffffffffffffffffff1916827bffffffffffffffffffffffffffffffffffffffffffffffffffffffff1916148061066a57507f5b5e139f000000000000000000000000000000000000000000000000000000007bffffffffffffffffffffffffffffffffffffffffffffffffffffffff1916827bffffffffffffffffffffffffffffffffffffffffffffffffffffffff1916145b8061067a5750610679826110b9565b5b9050919050565b60606000805461069090612e7c565b80601f01602080910402602001604051908101604052809291908181526020018280546106bc90612e7c565b80156107095780601f106106de57610100808354040283529160200191610709565b820191906000526020600020905b8154815290600101906020018083116106ec57829003601f168201915b5050505050905090565b600061071e82611123565b6004600083815260200190815260200160002060009054906101000a900473ffffffffffffffffffffffffffffffffffffffff169050919050565b600061076482610985565b90508073ffffffffffffffffffffffffffffffffffffffff168373ffffffffffffffffffffffffffffffffffffffff1614156107d5576040517f08c379a00000000000000000000000000000000000000000000000000000000081526004016107cc90612ca1565b60405180910390fd5b8073ffffffffffffffffffffffffffffffffffffffff166107f461116e565b73ffffffffffffffffffffffffffffffffffffffff16148061082357506108228161081d61116e565b610f38565b5b610862576040517f08c379a000000000000000000000000000000000000000000000000000000000815260040161085990612cc1565b60405180910390fd5b61086c8383611176565b505050565b61087961122f565b8060098190555050565b61089461088e61116e565b826112ad565b6108d3576040517f08c379a00000000000000000000000000000000000000000000000000000000081526004016108ca90612aa1565b60405180910390fd5b6108de838383611342565b505050565b6000600a600083815260200190815260200160002060009054906101000a900460ff169050919050565b61091561122f565b61091d610c6a565b73ffffffffffffffffffffffffffffffffffffffff166108fc479081150290604051600060405180830381858888f19350505050158015610962573d6000803e3d6000fd5b50565b61098083838360405180602001604052806000815250610d3c565b505050565b6000806109918361163c565b9050600073ffffffffffffffffffffffffffffffffffffffff168173ffffffffffffffffffffffffffffffffffffffff161415610a03576040517f08c379a00000000000000000000000000000000000000000000000000000000081526004016109fa90612c61565b60405180910390fd5b80915050919050565b60008073ffffffffffffffffffffffffffffffffffffffff168273ffffffffffffffffffffffffffffffffffffffff161415610a7d576040517f08c379a0000000000000000000000000000000000000000000000000000000008152600401610a7490612be1565b60405180910390fd5b600360008373ffffffffffffffffffffffffffffffffffffffff1673ffffffffffffffffffffffffffffffffffffffff168152602001908152602001600020549050919050565b610acc61122f565b610ad66000611679565b565b610ae18161173f565b610b20576040517f08c379a0000000000000000000000000000000000000000000000000000000008152600401610b1790612c81565b60405180910390fd5b600a600082815260200190815260200160002060009054906101000a900460ff1615610b81576040517f08c379a0000000000000000000000000000000000000000000000000000000008152600401610b7890612b81565b60405180910390fd5b600080600c60008481526020019081526020016000205411610ba557600954610bba565b600c6000838152602001908152602001600020545b905080341015610bff576040517f08c379a0000000000000000000000000000000000000000000000000000000008152600401610bf690612ba1565b60405180910390fd5b610c096008611780565b6000610c156008611796565b9050610c2133826117a4565b6001600a600083815260200190815260200160002060006101000a81548160ff02191690831515021790555082600b600083815260200190815260200160002081905550505050565b6000600760009054906101000a900473ffffffffffffffffffffffffffffffffffffffff16905090565b606060018054610ca390612e7c565b80601f0160208091040260200160405190810160405280929190818152602001828054610ccf90612e7c565b8015610d1c5780601f10610cf157610100808354040283529160200191610d1c565b820191906000526020600020905b815481529060010190602001808311610cff57829003601f168201915b5050505050905090565b610d38610d3161116e565b83836117c2565b5050565b610d4d610d4761116e565b836112ad565b610d8c576040517f08c379a0000000000000000000000000000000000000000000000000000000008152600401610d8390612aa1565b60405180910390fd5b610d988484848461192f565b50505050565b6000600a600083815260200190815260200160002060009054906101000a900460ff16610e00576040517f08c379a0000000000000000000000000000000000000000000000000000000008152600401610df790612bc1565b60405180910390fd5b600b6000838152602001908152602001600020549050919050565b6000600954905090565b6060610e3082611123565b6000600660008481526020019081526020016000208054610e5090612e7c565b80601f0160208091040260200160405190810160405280929190818152602001828054610e7c90612e7c565b8015610ec95780601f10610e9e57610100808354040283529160200191610ec9565b820191906000526020600020905b815481529060010190602001808311610eac57829003601f168201915b505050505090506000610eda61198b565b9050600081511415610ef0578192505050610f33565b600082511115610f25578082604051602001610f0d9291906129d9565b60405160208183030381529060405292505050610f33565b610f2e846119a2565b925050505b919050565b6000600560008473ffffffffffffffffffffffffffffffffffffffff1673ffffffffffffffffffffffffffffffffffffffff16815260200190815260200160002060008373ffffffffffffffffffffffffffffffffffffffff1673ffffffffffffffffffffffffffffffffffffffff16815260200190815260200160002060009054906101000a900460ff16905092915050565b610fd461122f565b80600c6000848152602001908152602001600020819055505050565b610ff861122f565b600073ffffffffffffffffffffffffffffffffffffffff168173ffffffffffffffffffffffffffffffffffffffff161415611068576040517f08c379a000000000000000000000000000000000000000000000000000000000815260040161105f90612ae1565b60405180910390fd5b61107181611679565b50565b61107c61122f565b6110866008611780565b6000611090610c6a565b9050600061109e6008611796565b90506110aa8282611a0a565b6110b48184611c28565b505050565b60007f01ffc9a7000000000000000000000000000000000000000000000000000000007bffffffffffffffffffffffffffffffffffffffffffffffffffffffff1916827bffffffffffffffffffffffffffffffffffffffffffffffffffffffff1916149050919050565b61112c8161173f565b61116b576040517f08c379a000000000000000000000000000000000000000000000000000000000815260040161116290612c61565b60405180910390fd5b50565b600033905090565b816004600083815260200190815260200160002060006101000a81548173ffffffffffffffffffffffffffffffffffffffff021916908373ffffffffffffffffffffffffffffffffffffffff160217905550808273ffffffffffffffffffffffffffffffffffffffff166111e983610985565b73ffffffffffffffffffffffffffffffffffffffff167f8c5be1e5ebec7d5bd14f71427d1e84f3dd0314c0f7b2291e5b200ac8c7c3b92560405160405180910390a45050565b61123761116e565b73ffffffffffffffffffffffffffffffffffffffff16611255610c6a565b73ffffffffffffffffffffffffffffffffffffffff16146112ab576040517f08c379a00000000000000000000000000000000000000000000000000000000081526004016112a290612c41565b60405180910390fd5b565b6000806112b983610985565b90508073ffffffffffffffffffffffffffffffffffffffff168473ffffffffffffffffffffffffffffffffffffffff1614806112fb57506112fa8185610f38565b5b8061133957508373ffffffffffffffffffffffffffffffffffffffff1661132184610713565b73ffffffffffffffffffffffffffffffffffffffff16145b91505092915050565b8273ffffffffffffffffffffffffffffffffffffffff1661136282610985565b73ffffffffffffffffffffffffffffffffffffffff16146113b8576040517f08c379a00000000000000000000000000000000000000000000000000000000081526004016113af90612b01565b60405180910390fd5b600073ffffffffffffffffffffffffffffffffffffffff168273ffffffffffffffffffffffffffffffffffffffff161415611428576040517f08c379a000000000000000000000000000000000000000000000000000000000815260040161141f90612b41565b60405180910390fd5b6114358383836001611c9c565b8273ffffffffffffffffffffffffffffffffffffffff1661145582610985565b73ffffffffffffffffffffffffffffffffffffffff16146114ab576040517f08c379a00000000000000000000000000000000000000000000000000000000081526004016114a290612b01565b60405180910390fd5b6004600082815260200190815260200160002060006101000a81549073ffffffffffffffffffffffffffffffffffffffff02191690556001600360008573ffffffffffffffffffffffffffffffffffffffff1673ffffffffffffffffffffffffffffffffffffffff168152602001908152602001600020600082825403925050819055506001600360008473ffffffffffffffffffffffffffffffffffffffff1673ffffffffffffffffffffffffffffffffffffffff16815260200190815260200160002060008282540192505081905550816002600083815260200190815260200160002060006101000a81548173ffffffffffffffffffffffffffffffffffffffff021916908373ffffffffffffffffffffffffffffffffffffffff160217905550808273ffffffffffffffffffffffffffffffffffffffff168473ffffffffffffffffffffffffffffffffffffffff167fddf252ad1be2c89b69c2b068fc378daa952ba7f163c4a11628f55a4df523b3ef60405160405180910390a46116378383836001611ca2565b505050565b60006002600083815260200190815260200160002060009054906101000a900473ffffffffffffffffffffffffffffffffffffffff169050919050565b6000600760009054906101000a900473ffffffffffffffffffffffffffffffffffffffff16905081600760006101000a81548173ffffffffffffffffffffffffffffffffffffffff021916908373ffffffffffffffffffffffffffffffffffffffff1602179055508173ffffffffffffffffffffffffffffffffffffffff168173ffffffffffffffffffffffffffffffffffffffff167f8be0079c531659141344cd1fd0a4f28419497f9722a3daafe3b4186f6b6457e060405160405180910390a35050565b60008073ffffffffffffffffffffffffffffffffffffffff166117618361163c565b73ffffffffffffffffffffffffffffffffffffffff1614159050919050565b6001816000016000828254019250508190555050565b600081600001549050919050565b6117be828260405180602001604052806000815250611ca8565b5050565b8173ffffffffffffffffffffffffffffffffffffffff168373ffffffffffffffffffffffffffffffffffffffff161415611831576040517f08c379a000000000000000000000000000000000000000000000000000000000815260040161182890612b61565b60405180910390fd5b80600560008573ffffffffffffffffffffffffffffffffffffffff1673ffffffffffffffffffffffffffffffffffffffff16815260200190815260200160002060008473ffffffffffffffffffffffffffffffffffffffff1673ffffffffffffffffffffffffffffffffffffffff16815260200190815260200160002060006101000a81548160ff0219169083151502179055508173ffffffffffffffffffffffffffffffffffffffff168373ffffffffffffffffffffffffffffffffffffffff167f17307eab39ab6107e8899845ad3d59bd9653f200f220920489ca2b5937696c31836040516119229190612a64565b60405180910390a3505050565b61193a848484611342565b61194684848484611d03565b611985576040517f08c379a000000000000000000000000000000000000000000000000000000000815260040161197c90612ac1565b60405180910390fd5b50505050565b606060405180602001604052806000815250905090565b60606119ad82611123565b60006119b761198b565b905060008151116119d75760405180602001604052806000815250611a02565b806119e184611e9a565b6040516020016119f29291906129d9565b6040516020818303038152906040525b915050919050565b600073ffffffffffffffffffffffffffffffffffffffff168273ffffffffffffffffffffffffffffffffffffffff161415611a7a576040517f08c379a0000000000000000000000000000000000000000000000000000000008152600401611a7190612c21565b60405180910390fd5b611a838161173f565b15611ac3576040517f08c379a0000000000000000000000000000000000000000000000000000000008152600401611aba90612b21565b60405180910390fd5b611ad1600083836001611c9c565b611ada8161173f565b15611b1a576040517f08c379a0000000000000000000000000000000000000000000000000000000008152600401611b1190612b21565b60405180910390fd5b6001600360008473ffffffffffffffffffffffffffffffffffffffff1673ffffffffffffffffffffffffffffffffffffffff16815260200190815260200160002060008282540192505081905550816002600083815260200190815260200160002060006101000a81548173ffffffffffffffffffffffffffffffffffffffff021916908373ffffffffffffffffffffffffffffffffffffffff160217905550808273ffffffffffffffffffffffffffffffffffffffff16600073ffffffffffffffffffffffffffffffffffffffff167fddf252ad1be2c89b69c2b068fc378daa952ba7f163c4a11628f55a4df523b3ef60405160405180910390a4611c24600083836001611ca2565b5050565b611c318261173f565b611c70576040517f08c379a0000000000000000000000000000000000000000000000000000000008152600401611c6790612c01565b60405180910390fd5b80600660008481526020019081526020016000209080519060200190611c97929190612218565b505050565b50505050565b50505050565b611cb28383611a0a565b611cbf6000848484611d03565b611cfe576040517f08c379a0000000000000000000000000000000000000000000000000000000008152600401611cf590612ac1565b60405180910390fd5b505050565b6000611d248473ffffffffffffffffffffffffffffffffffffffff16611fbe565b15611e8d578373ffffffffffffffffffffffffffffffffffffffff1663150b7a02611d4d61116e565b8786866040518563ffffffff1660e01b8152600401611d6f9493929190612a18565b602060405180830381600087803b158015611d8957600080fd5b505af1925050508015611dba57506040513d601f19601f82011682018060405250810190611db791906125c4565b60015b611e3d573d8060008114611dea576040519150601f19603f3d011682016040523d82523d6000602084013e611def565b606091505b50600081511415611e35576040517f08c379a0000000000000000000000000000000000000000000000000000000008152600401611e2c90612ac1565b60405180910390fd5b805181602001fd5b63150b7a0260e01b7bffffffffffffffffffffffffffffffffffffffffffffffffffffffff1916817bffffffffffffffffffffffffffffffffffffffffffffffffffffffff191614915050611e92565b600190505b949350505050565b606060006001611ea984611fe1565b01905060008167ffffffffffffffff811115611eee577f4e487b7100000000000000000000000000000000000000000000000000000000600052604160045260246000fd5b6040519080825280601f01601f191660200182016040528015611f205781602001600182028036833780820191505090505b509050600082602001820190505b600115611fb3578080600190039150507f3031323334353637383961626364656600000000000000000000000000000000600a86061a8153600a8581611f9d577f4e487b7100000000000000000000000000000000000000000000000000000000600052601260045260246000fd5b0494506000851415611fae57611fb3565b611f2e565b819350505050919050565b6000808273ffffffffffffffffffffffffffffffffffffffff163b119050919050565b600080600090507a184f03e93ff9f4daa797ed6e38ed64bf6a1f0100000000000000008310612065577a184f03e93ff9f4daa797ed6e38ed64bf6a1f010000000000000000838161205b577f4e487b7100000000000000000000000000000000000000000000000000000000600052601260045260246000fd5b0492506040810190505b6d04ee2d6d415b85acef810000000083106120c8576d04ee2d6d415b85acef810000000083816120be577f4e487b7100000000000000000000000000000000000000000000000000000000600052601260045260246000fd5b0492506020810190505b662386f26fc10000831061211d57662386f26fc100008381612113577f4e487b7100000000000000000000000000000000000000000000000000000000600052601260045260246000fd5b0492506010810190505b6305f5e100831061216c576305f5e1008381612162577f4e487b7100000000000000000000000000000000000000000000000000000000600052601260045260246000fd5b0492506008810190505b61271083106121b75761271083816121ad577f4e487b7100000000000000000000000000000000000000000000000000000000600052601260045260246000fd5b0492506004810190505b6064831061220057606483816121f6577f4e487b7100000000000000000000000000000000000000000000000000000000600052601260045260246000fd5b0492506002810190505b600a831061220f576001810190505b80915050919050565b82805461222490612e7c565b90600052602060002090601f016020900481019282612246576000855561228d565b82601f1061225f57805160ff191683800117855561228d565b8280016001018555821561228d579182015b8281111561228c578251825591602001919060010190612271565b5b50905061229a919061229e565b5090565b5b808211156122b757600081600090555060010161229f565b5090565b60006122ce6122c984612d21565b612cfc565b9050828152602081018484840111156122e657600080fd5b6122f1848285612e3a565b509392505050565b600061230c61230784612d52565b612cfc565b90508281526020810184848401111561232457600080fd5b61232f848285612e3a565b509392505050565b60008135905061234681613386565b92915050565b60008135905061235b8161339d565b92915050565b600081359050612370816133b4565b92915050565b600081519050612385816133b4565b92915050565b600082601f83011261239c57600080fd5b81356123ac8482602086016122bb565b91505092915050565b600082601f8301126123c657600080fd5b81356123d68482602086016122f9565b91505092915050565b6000813590506123ee816133cb565b92915050565b60006020828403121561240657600080fd5b600061241484828501612337565b91505092915050565b6000806040838503121561243057600080fd5b600061243e85828601612337565b925050602061244f85828601612337565b9150509250929050565b60008060006060848603121561246e57600080fd5b600061247c86828701612337565b935050602061248d86828701612337565b925050604061249e868287016123df565b9150509250925092565b600080600080608085870312156124be57600080fd5b60006124cc87828801612337565b94505060206124dd87828801612337565b93505060406124ee878288016123df565b925050606085013567ffffffffffffffff81111561250b57600080fd5b6125178782880161238b565b91505092959194509250565b6000806040838503121561253657600080fd5b600061254485828601612337565b92505060206125558582860161234c565b9150509250929050565b6000806040838503121561257257600080fd5b600061258085828601612337565b9250506020612591858286016123df565b9150509250929050565b6000602082840312156125ad57600080fd5b60006125bb84828501612361565b91505092915050565b6000602082840312156125d657600080fd5b60006125e484828501612376565b91505092915050565b6000602082840312156125ff57600080fd5b600082013567ffffffffffffffff81111561261957600080fd5b612625848285016123b5565b91505092915050565b60006020828403121561264057600080fd5b600061264e848285016123df565b91505092915050565b6000806040838503121561266a57600080fd5b6000612678858286016123df565b9250506020612689858286016123df565b9150509250929050565b61269c81612dc6565b82525050565b6126ab81612dd8565b82525050565b60006126bc82612d83565b6126c68185612d99565b93506126d6818560208601612e49565b6126df81612f3d565b840191505092915050565b60006126f582612d8e565b6126ff8185612daa565b935061270f818560208601612e49565b61271881612f3d565b840191505092915050565b600061272e82612d8e565b6127388185612dbb565b9350612748818560208601612e49565b80840191505092915050565b6000612761602d83612daa565b915061276c82612f4e565b604082019050919050565b6000612784603283612daa565b915061278f82612f9d565b604082019050919050565b60006127a7602683612daa565b91506127b282612fec565b604082019050919050565b60006127ca602583612daa565b91506127d58261303b565b604082019050919050565b60006127ed601c83612daa565b91506127f88261308a565b602082019050919050565b6000612810602483612daa565b915061281b826130b3565b604082019050919050565b6000612833601983612daa565b915061283e82613102565b602082019050919050565b6000612856601483612daa565b91506128618261312b565b602082019050919050565b6000612879602083612daa565b915061288482613154565b602082019050919050565b600061289c601483612daa565b91506128a78261317d565b602082019050919050565b60006128bf602983612daa565b91506128ca826131a6565b604082019050919050565b60006128e2602e83612daa565b91506128ed826131f5565b604082019050919050565b6000612905602083612daa565b915061291082613244565b602082019050919050565b6000612928602083612daa565b91506129338261326d565b602082019050919050565b600061294b601883612daa565b915061295682613296565b602082019050919050565b600061296e601083612daa565b9150612979826132bf565b602082019050919050565b6000612991602183612daa565b915061299c826132e8565b604082019050919050565b60006129b4603d83612daa565b91506129bf82613337565b604082019050919050565b6129d381612e30565b82525050565b60006129e58285612723565b91506129f18284612723565b91508190509392505050565b6000602082019050612a126000830184612693565b92915050565b6000608082019050612a2d6000830187612693565b612a3a6020830186612693565b612a4760408301856129ca565b8181036060830152612a5981846126b1565b905095945050505050565b6000602082019050612a7960008301846126a2565b92915050565b60006020820190508181036000830152612a9981846126ea565b905092915050565b60006020820190508181036000830152612aba81612754565b9050919050565b60006020820190508181036000830152612ada81612777565b9050919050565b60006020820190508181036000830152612afa8161279a565b9050919050565b60006020820190508181036000830152612b1a816127bd565b9050919050565b60006020820190508181036000830152612b3a816127e0565b9050919050565b60006020820190508181036000830152612b5a81612803565b9050919050565b60006020820190508181036000830152612b7a81612826565b9050919050565b60006020820190508181036000830152612b9a81612849565b9050919050565b60006020820190508181036000830152612bba8161286c565b9050919050565b60006020820190508181036000830152612bda8161288f565b9050919050565b60006020820190508181036000830152612bfa816128b2565b9050919050565b60006020820190508181036000830152612c1a816128d5565b9050919050565b60006020820190508181036000830152612c3a816128f8565b9050919050565b60006020820190508181036000830152612c5a8161291b565b9050919050565b60006020820190508181036000830152612c7a8161293e565b9050919050565b60006020820190508181036000830152612c9a81612961565b9050919050565b60006020820190508181036000830152612cba81612984565b9050919050565b60006020820190508181036000830152612cda816129a7565b9050919050565b6000602082019050612cf660008301846129ca565b92915050565b6000612d06612d17565b9050612d128282612eae565b919050565b6000604051905090565b600067ffffffffffffffff821115612d3c57612d3b612f0e565b5b612d4582612f3d565b9050602081019050919050565b600067ffffffffffffffff821115612d6d57612d6c612f0e565b5b612d7682612f3d565b9050602081019050919050565b600081519050919050565b600081519050919050565b600082825260208201905092915050565b600082825260208201905092915050565b600081905092915050565b6000612dd182612e10565b9050919050565b60008115159050919050565b60007fffffffff0000000000000000000000000000000000000000000000000000000082169050919050565b600073ffffffffffffffffffffffffffffffffffffffff82169050919050565b6000819050919050565b82818337600083830152505050565b60005b83811015612e67578082015181840152602081019050612e4c565b83811115612e76576000848401525b50505050565b60006002820490506001821680612e9457607f821691505b60208210811415612ea857612ea7612edf565b5b50919050565b612eb782612f3d565b810181811067ffffffffffffffff82111715612ed657612ed5612f0e565b5b80604052505050565b7f4e487b7100000000000000000000000000000000000000000000000000000000600052602260045260246000fd5b7f4e487b7100000000000000000000000000000000000000000000000000000000600052604160045260246000fd5b6000601f19601f8301169050919050565b7f4552433732313a2063616c6c6572206973206e6f7420746f6b656e206f776e6560008201527f72206f7220617070726f76656400000000000000000000000000000000000000602082015250565b7f4552433732313a207472616e7366657220746f206e6f6e20455243373231526560008201527f63656976657220696d706c656d656e7465720000000000000000000000000000602082015250565b7f4f776e61626c653a206e6577206f776e657220697320746865207a65726f206160008201527f6464726573730000000000000000000000000000000000000000000000000000602082015250565b7f4552433732313a207472616e736665722066726f6d20696e636f72726563742060008201527f6f776e6572000000000000000000000000000000000000000000000000000000602082015250565b7f4552433732313a20746f6b656e20616c7265616479206d696e74656400000000600082015250565b7f4552433732313a207472616e7366657220746f20746865207a65726f2061646460008201527f7265737300000000000000000000000000000000000000000000000000000000602082015250565b7f4552433732313a20617070726f766520746f2063616c6c657200000000000000600082015250565b7f43616e6e6f7420636c6f6e65206120636c6f6e65000000000000000000000000600082015250565b7f496e73756666696369656e742066756e647320746f206d696e7420636c6f6e65600082015250565b7f546f6b656e206973206e6f74206120636c6f6e65000000000000000000000000600082015250565b7f4552433732313a2061646472657373207a65726f206973206e6f74206120766160008201527f6c6964206f776e65720000000000000000000000000000000000000000000000602082015250565b7f45524337323155524953746f726167653a2055524920736574206f66206e6f6e60008201527f6578697374656e7420746f6b656e000000000000000000000000000000000000602082015250565b7f4552433732313a206d696e7420746f20746865207a65726f2061646472657373600082015250565b7f4f776e61626c653a2063616c6c6572206973206e6f7420746865206f776e6572600082015250565b7f4552433732313a20696e76616c696420746f6b656e2049440000000000000000600082015250565b7f496e76616c696420746f6b656e20494400000000000000000000000000000000600082015250565b7f4552433732313a20617070726f76616c20746f2063757272656e74206f776e6560008201527f7200000000000000000000000000000000000000000000000000000000000000602082015250565b7f4552433732313a20617070726f76652063616c6c6572206973206e6f7420746f60008201527f6b656e206f776e6572206f7220617070726f76656420666f7220616c6c000000602082015250565b61338f81612dc6565b811461339a57600080fd5b50565b6133a681612dd8565b81146133b157600080fd5b50565b6133bd81612de4565b81146133c857600080fd5b50565b6133d481612e30565b81146133df57600080fd5b5056fea264697066735822122099585d717634114b8b0f819d7fb72862cdaecc38d508c65677f81b283741b99164736f6c63430008010033",
  "linkReferences": {},
  "deployedLinkReferences": {}
}