{
  "_format": "hh-sol-artifact-1",
  "contractName": "CloneableNFT",
  "sourceName": "contracts/ClonableNFT.sol",
  "abi": [
    {
      "inputs": [
        {
          "internalType": "string",
          "name": "name",
          "type": "string"
        },
        {
          "internalType": "string",
          "name": "symbol",
          "type": "string"
        },
        {
          "internalType": "string",
          "name": "_description",
          "type": "string"
        },
        {
          "internalType": "uint256",
          "name": "defaultClonePrice",
          "type": "uint256"
        }
      ],
      "stateMutability": "nonpayable",
      "type": "constructor"
    },
    {
      "anonymous": false,
      "inputs": [
        {
          "indexed": true,
          "internalType": "address",
          "name": "owner",
          "type": "address"
        },
        {
          "indexed": true,
          "internalType": "address",
          "name": "approved",
          "type": "address"
        },
        {
          "indexed": true,
          "internalType": "uint256",
          "name": "tokenId",
          "type": "uint256"
        }
      ],
      "name": "Approval",
      "type": "event"
    },
    {
      "anonymous": false,
      "inputs": [
        {
          "indexed": true,
          "internalType": "address",
          "name": "owner",
          "type": "address"
        },
        {
          "indexed": true,
          "internalType": "address",
          "name": "operator",
          "type": "address"
        },
        {
          "indexed": false,
          "internalType": "bool",
          "name": "approved",
          "type": "bool"
        }
      ],
      "name": "ApprovalForAll",
      "type": "event"
    },
    {
      "anonymous": false,
      "inputs": [
        {
          "indexed": true,
          "internalType": "address",
          "name": "previousOwner",
          "type": "address"
        },
        {
          "indexed": true,
          "internalType": "address",
          "name": "newOwner",
          "type": "address"
        }
      ],
      "name": "OwnershipTransferred",
      "type": "event"
    },
    {
      "anonymous": false,
      "inputs": [
        {
          "indexed": true,
          "internalType": "address",
          "name": "from",
          "type": "address"
        },
        {
          "indexed": true,
          "internalType": "address",
          "name": "to",
          "type": "address"
        },
        {
          "indexed": true,
          "internalType": "uint256",
          "name": "tokenId",
          "type": "uint256"
        }
      ],
      "name": "Transfer",
      "type": "event"
    },
    {
      "inputs": [
        {
          "internalType": "address",
          "name": "_minter",
          "type": "address"
        }
      ],
      "name": "addMinter",
      "outputs": [],
      "stateMutability": "nonpayable",
      "type": "function"
    },
    {
      "inputs": [
        {
          "internalType": "address",
          "name": "to",
          "type": "address"
        },
        {
          "internalType": "uint256",
          "name": "tokenId",
          "type": "uint256"
        }
      ],
      "name": "approve",
      "outputs": [],
      "stateMutability": "nonpayable",
      "type": "function"
    },
    {
      "inputs": [
        {
          "internalType": "address",
          "name": "owner",
          "type": "address"
        }
      ],
      "name": "balanceOf",
      "outputs": [
        {
          "internalType": "uint256",
          "name": "",
          "type": "uint256"
        }
      ],
      "stateMutability": "view",
      "type": "function"
    },
    {
      "inputs": [
        {
          "internalType": "uint256",
          "name": "tokenId",
          "type": "uint256"
        },
        {
          "internalType": "string",
          "name": "_url",
          "type": "string"
        }
      ],
      "name": "burnToken",
      "outputs": [],
      "stateMutability": "nonpayable",
      "type": "function"
    },
    {
      "inputs": [],
      "name": "creationTime",
      "outputs": [
        {
          "internalType": "uint256",
          "name": "",
          "type": "uint256"
        }
      ],
      "stateMutability": "view",
      "type": "function"
    },
    {
      "inputs": [],
      "name": "description",
      "outputs": [
        {
          "internalType": "string",
          "name": "",
          "type": "string"
        }
      ],
      "stateMutability": "view",
      "type": "function"
    },
    {
      "inputs": [],
      "name": "getAllMintedTokens",
      "outputs": [
        {
          "internalType": "uint256[]",
          "name": "",
          "type": "uint256[]"
        }
      ],
      "stateMutability": "view",
      "type": "function"
    },
    {
      "inputs": [
        {
          "internalType": "enum CloneableNFT.CloneFilter",
          "name": "filter",
          "type": "uint8"
        }
      ],
      "name": "getAllMintedTokens",
      "outputs": [
        {
          "internalType": "uint256[]",
          "name": "",
          "type": "uint256[]"
        }
      ],
      "stateMutability": "view",
      "type": "function"
    },
    {
      "inputs": [
        {
          "internalType": "uint256",
          "name": "tokenId",
          "type": "uint256"
        }
      ],
      "name": "getApproved",
      "outputs": [
        {
          "internalType": "address",
          "name": "",
          "type": "address"
        }
      ],
      "stateMutability": "view",
      "type": "function"
    },
    {
      "inputs": [
        {
          "internalType": "uint256",
          "name": "tokenId",
          "type": "uint256"
        }
      ],
      "name": "getClonePrice",
      "outputs": [
        {
          "internalType": "uint256",
          "name": "",
          "type": "uint256"
        }
      ],
      "stateMutability": "view",
      "type": "function"
    },
    {
      "inputs": [
        {
          "internalType": "uint256",
          "name": "tokenId",
          "type": "uint256"
        }
      ],
      "name": "getClonesOfOriginal",
      "outputs": [
        {
          "internalType": "uint256[]",
          "name": "",
          "type": "uint256[]"
        }
      ],
      "stateMutability": "view",
      "type": "function"
    },
    {
      "inputs": [],
      "name": "getContractCreator",
      "outputs": [
        {
          "internalType": "address",
          "name": "",
          "type": "address"
        }
      ],
      "stateMutability": "view",
      "type": "function"
    },
    {
      "inputs": [],
      "name": "getDefaultClonePrice",
      "outputs": [
        {
          "internalType": "uint256",
          "name": "",
          "type": "uint256"
        }
      ],
      "stateMutability": "view",
      "type": "function"
    },
    {
      "inputs": [
        {
          "internalType": "uint256",
          "name": "tokenId",
          "type": "uint256"
        }
      ],
      "name": "getHasClonePrice",
      "outputs": [
        {
          "internalType": "bool",
          "name": "",
          "type": "bool"
        }
      ],
      "stateMutability": "view",
      "type": "function"
    },
    {
      "inputs": [
        {
          "internalType": "uint256",
          "name": "tokenId",
          "type": "uint256"
        }
      ],
      "name": "getOriginal",
      "outputs": [
        {
          "internalType": "uint256",
          "name": "",
          "type": "uint256"
        }
      ],
      "stateMutability": "view",
      "type": "function"
    },
    {
      "inputs": [
        {
          "internalType": "address",
          "name": "owner",
          "type": "address"
        },
        {
          "internalType": "enum CloneableNFT.CloneFilter",
          "name": "filter",
          "type": "uint8"
        }
      ],
      "name": "getOwnedTokens",
      "outputs": [
        {
          "internalType": "uint256[]",
          "name": "",
          "type": "uint256[]"
        }
      ],
      "stateMutability": "view",
      "type": "function"
    },
    {
      "inputs": [
        {
          "internalType": "address",
          "name": "owner",
          "type": "address"
        }
      ],
      "name": "getOwnedTokens",
      "outputs": [
        {
          "internalType": "uint256[]",
          "name": "",
          "type": "uint256[]"
        }
      ],
      "stateMutability": "view",
      "type": "function"
    },
    {
      "inputs": [
        {
          "internalType": "uint256",
          "name": "tokenId",
          "type": "uint256"
        }
      ],
      "name": "getTokenCreator",
      "outputs": [
        {
          "internalType": "address",
          "name": "",
          "type": "address"
        }
      ],
      "stateMutability": "view",
      "type": "function"
    },
    {
      "inputs": [
        {
          "internalType": "string",
          "name": "_url",
          "type": "string"
        }
      ],
      "name": "getTokenIdByUrl",
      "outputs": [
        {
          "internalType": "uint256",
          "name": "",
          "type": "uint256"
        }
      ],
      "stateMutability": "view",
      "type": "function"
    },
    {
      "inputs": [],
      "name": "getTotalMintClonedTokens",
      "outputs": [
        {
          "internalType": "uint256",
          "name": "",
          "type": "uint256"
        }
      ],
      "stateMutability": "view",
      "type": "function"
    },
    {
      "inputs": [],
      "name": "getTotalMintOriginalTokens",
      "outputs": [
        {
          "internalType": "uint256",
          "name": "",
          "type": "uint256"
        }
      ],
      "stateMutability": "view",
      "type": "function"
    },
    {
      "inputs": [],
      "name": "getTotalMintedTokens",
      "outputs": [
        {
          "internalType": "uint256",
          "name": "",
          "type": "uint256"
        }
      ],
      "stateMutability": "view",
      "type": "function"
    },
    {
      "inputs": [
        {
          "internalType": "address",
          "name": "owner",
          "type": "address"
        },
        {
          "internalType": "address",
          "name": "operator",
          "type": "address"
        }
      ],
      "name": "isApprovedForAll",
      "outputs": [
        {
          "internalType": "bool",
          "name": "",
          "type": "bool"
        }
      ],
      "stateMutability": "view",
      "type": "function"
    },
    {
      "inputs": [
        {
          "internalType": "uint256",
          "name": "tokenId",
          "type": "uint256"
        }
      ],
      "name": "isClone",
      "outputs": [
        {
          "internalType": "bool",
          "name": "",
          "type": "bool"
        }
      ],
      "stateMutability": "view",
      "type": "function"
    },
    {
      "inputs": [
        {
          "internalType": "uint256",
          "name": "tokenId",
          "type": "uint256"
        },
        {
          "internalType": "string",
          "name": "_tokenURI",
          "type": "string"
        }
      ],
      "name": "mintClone",
      "outputs": [],
      "stateMutability": "payable",
      "type": "function"
    },
    {
      "inputs": [
        {
          "internalType": "string",
          "name": "_tokenURI",
          "type": "string"
        },
        {
          "internalType": "string",
          "name": "_url",
          "type": "string"
        }
      ],
      "name": "mintNFT",
      "outputs": [],
      "stateMutability": "nonpayable",
      "type": "function"
    },
    {
      "inputs": [],
      "name": "name",
      "outputs": [
        {
          "internalType": "string",
          "name": "",
          "type": "string"
        }
      ],
      "stateMutability": "view",
      "type": "function"
    },
    {
      "inputs": [],
      "name": "owner",
      "outputs": [
        {
          "internalType": "address",
          "name": "",
          "type": "address"
        }
      ],
      "stateMutability": "view",
      "type": "function"
    },
    {
      "inputs": [
        {
          "internalType": "uint256",
          "name": "tokenId",
          "type": "uint256"
        }
      ],
      "name": "ownerOf",
      "outputs": [
        {
          "internalType": "address",
          "name": "",
          "type": "address"
        }
      ],
      "stateMutability": "view",
      "type": "function"
    },
    {
      "inputs": [
        {
          "internalType": "address",
          "name": "_minter",
          "type": "address"
        }
      ],
      "name": "removeMinter",
      "outputs": [],
      "stateMutability": "nonpayable",
      "type": "function"
    },
    {
      "inputs": [],
      "name": "renounceOwnership",
      "outputs": [],
      "stateMutability": "nonpayable",
      "type": "function"
    },
    {
      "inputs": [
        {
          "internalType": "address",
          "name": "from",
          "type": "address"
        },
        {
          "internalType": "address",
          "name": "to",
          "type": "address"
        },
        {
          "internalType": "uint256",
          "name": "tokenId",
          "type": "uint256"
        }
      ],
      "name": "safeTransferFrom",
      "outputs": [],
      "stateMutability": "nonpayable",
      "type": "function"
    },
    {
      "inputs": [
        {
          "internalType": "address",
          "name": "from",
          "type": "address"
        },
        {
          "internalType": "address",
          "name": "to",
          "type": "address"
        },
        {
          "internalType": "uint256",
          "name": "tokenId",
          "type": "uint256"
        },
        {
          "internalType": "bytes",
          "name": "data",
          "type": "bytes"
        }
      ],
      "name": "safeTransferFrom",
      "outputs": [],
      "stateMutability": "nonpayable",
      "type": "function"
    },
    {
      "inputs": [
        {
          "internalType": "address",
          "name": "operator",
          "type": "address"
        },
        {
          "internalType": "bool",
          "name": "approved",
          "type": "bool"
        }
      ],
      "name": "setApprovalForAll",
      "outputs": [],
      "stateMutability": "nonpayable",
      "type": "function"
    },
    {
      "inputs": [
        {
          "internalType": "uint256",
          "name": "tokenId",
          "type": "uint256"
        },
        {
          "internalType": "uint256",
          "name": "newPrice",
          "type": "uint256"
        }
      ],
      "name": "setClonePrice",
      "outputs": [],
      "stateMutability": "nonpayable",
      "type": "function"
    },
    {
      "inputs": [
        {
          "internalType": "uint256",
          "name": "newPrice",
          "type": "uint256"
        }
      ],
      "name": "setDefaultClonePrice",
      "outputs": [],
      "stateMutability": "nonpayable",
      "type": "function"
    },
    {
      "inputs": [
        {
          "internalType": "string",
          "name": "_description",
          "type": "string"
        }
      ],
      "name": "setDescription",
      "outputs": [],
      "stateMutability": "nonpayable",
      "type": "function"
    },
    {
      "inputs": [
        {
          "internalType": "string",
          "name": "_description",
          "type": "string"
        },
        {
          "internalType": "uint256",
          "name": "_newPrice",
          "type": "uint256"
        }
      ],
      "name": "setDescriptionAndDefaultClonePrice",
      "outputs": [],
      "stateMutability": "nonpayable",
      "type": "function"
    },
    {
      "inputs": [
        {
          "internalType": "bytes4",
          "name": "interfaceId",
          "type": "bytes4"
        }
      ],
      "name": "supportsInterface",
      "outputs": [
        {
          "internalType": "bool",
          "name": "",
          "type": "bool"
        }
      ],
      "stateMutability": "view",
      "type": "function"
    },
    {
      "inputs": [],
      "name": "symbol",
      "outputs": [
        {
          "internalType": "string",
          "name": "",
          "type": "string"
        }
      ],
      "stateMutability": "view",
      "type": "function"
    },
    {
      "inputs": [
        {
          "internalType": "uint256",
          "name": "tokenId",
          "type": "uint256"
        }
      ],
      "name": "tokenURI",
      "outputs": [
        {
          "internalType": "string",
          "name": "",
          "type": "string"
        }
      ],
      "stateMutability": "view",
      "type": "function"
    },
    {
      "inputs": [
        {
          "internalType": "address",
          "name": "from",
          "type": "address"
        },
        {
          "internalType": "address",
          "name": "to",
          "type": "address"
        },
        {
          "internalType": "uint256",
          "name": "tokenId",
          "type": "uint256"
        }
      ],
      "name": "transferFrom",
      "outputs": [],
      "stateMutability": "nonpayable",
      "type": "function"
    },
    {
      "inputs": [
        {
          "internalType": "address",
          "name": "newOwner",
          "type": "address"
        }
      ],
      "name": "transferOwnership",
      "outputs": [],
      "stateMutability": "nonpayable",
      "type": "function"
    },
    {
      "inputs": [],
      "name": "withdraw",
      "outputs": [],
      "stateMutability": "nonpayable",
      "type": "function"
    }
  ],
  "bytecode": "0x60806040526000600b553480156200001657600080fd5b50604051620063fa380380620063fa83398181016040528101906200003c91906200030b565b8383816000908051906020019062000056929190620001d2565b5080600190805190602001906200006f929190620001d2565b50505062000092620000866200010460201b60201c565b6200010c60201b60201c565b33601260006101000a81548173ffffffffffffffffffffffffffffffffffffffff021916908373ffffffffffffffffffffffffffffffffffffffff1602179055504260098190555081600a9080519060200190620000f2929190620001d2565b5080600b819055505050505062000556565b600033905090565b6000600760009054906101000a900473ffffffffffffffffffffffffffffffffffffffff16905081600760006101000a81548173ffffffffffffffffffffffffffffffffffffffff021916908373ffffffffffffffffffffffffffffffffffffffff1602179055508173ffffffffffffffffffffffffffffffffffffffff168173ffffffffffffffffffffffffffffffffffffffff167f8be0079c531659141344cd1fd0a4f28419497f9722a3daafe3b4186f6b6457e060405160405180910390a35050565b828054620001e09062000461565b90600052602060002090601f01602090048101928262000204576000855562000250565b82601f106200021f57805160ff191683800117855562000250565b8280016001018555821562000250579182015b828111156200024f57825182559160200191906001019062000232565b5b5090506200025f919062000263565b5090565b5b808211156200027e57600081600090555060010162000264565b5090565b6000620002996200029384620003eb565b620003c2565b905082815260208101848484011115620002b257600080fd5b620002bf8482856200042b565b509392505050565b600082601f830112620002d957600080fd5b8151620002eb84826020860162000282565b91505092915050565b60008151905062000305816200053c565b92915050565b600080600080608085870312156200032257600080fd5b600085015167ffffffffffffffff8111156200033d57600080fd5b6200034b87828801620002c7565b945050602085015167ffffffffffffffff8111156200036957600080fd5b6200037787828801620002c7565b935050604085015167ffffffffffffffff8111156200039557600080fd5b620003a387828801620002c7565b9250506060620003b687828801620002f4565b91505092959194509250565b6000620003ce620003e1565b9050620003dc828262000497565b919050565b6000604051905090565b600067ffffffffffffffff821115620004095762000408620004fc565b5b62000414826200052b565b9050602081019050919050565b6000819050919050565b60005b838110156200044b5780820151818401526020810190506200042e565b838111156200045b576000848401525b50505050565b600060028204905060018216806200047a57607f821691505b60208210811415620004915762000490620004cd565b5b50919050565b620004a2826200052b565b810181811067ffffffffffffffff82111715620004c457620004c3620004fc565b5b80604052505050565b7f4e487b7100000000000000000000000000000000000000000000000000000000600052602260045260246000fd5b7f4e487b7100000000000000000000000000000000000000000000000000000000600052604160045260246000fd5b6000601f19601f8301169050919050565b620005478162000421565b81146200055357600080fd5b50565b615e9480620005666000396000f3fe6080604052600436106102675760003560e01c80637284e41611610144578063c144dd2a116100b6578063d9d616551161007a578063d9d616551461097d578063e9605544146109ba578063e985e9c5146109e3578063ef74248d14610a20578063f2fde38b14610a49578063f67a769c14610a7257610267565b8063c144dd2a14610870578063c6af1122146108ad578063c87b56dd146108d8578063d800fe4514610915578063d8270dce1461095257610267565b806395d89b411161010857806395d89b4114610750578063983b2d561461077b57806399639382146107a4578063a22cb465146107e1578063b88d4fde1461080a578063bc8c778f1461083357610267565b80637284e416146106695780637d5298b9146106945780638da5cb5b146106bf57806390c3f38f146106ea578063934689a91461071357610267565b80632aa2e90a116101dd57806342842e0e116101a157806342842e0e146105475780634da6de3f146105705780636352211e1461059b578063639032cc146105d857806370a0823114610615578063715018a61461065257610267565b80632aa2e90a146104715780633092afd51461048d57806330f7319d146104b6578063385eda9c146104f35780633ccfd60b1461053057610267565b8063095ea7b31161022f578063095ea7b3146103655780630b01ac8e1461038e5780630e258726146103b75780631741f3e2146103e25780631a2b285e1461041f57806323b872dd1461044857610267565b8063010f77351461026c57806301ffc9a71461029557806306fdde03146102d2578063080b0179146102fd578063081812fc14610328575b600080fd5b34801561027857600080fd5b50610293600480360381019061028e9190614b36565b610a9d565b005b3480156102a157600080fd5b506102bc60048036038101906102b79190614991565b610b82565b6040516102c9919061514a565b60405180910390f35b3480156102de57600080fd5b506102e7610c64565b6040516102f49190615165565b60405180910390f35b34801561030957600080fd5b50610312610cf6565b60405161031f9190615128565b60405180910390f35b34801561033457600080fd5b5061034f600480360381019061034a9190614b0d565b610d07565b60405161035c91906150c1565b60405180910390f35b34801561037157600080fd5b5061038c60048036038101906103879190614955565b610d4d565b005b34801561039a57600080fd5b506103b560048036038101906103b09190614ab9565b610e65565b005b3480156103c357600080fd5b506103cc610e8f565b6040516103d991906150c1565b60405180910390f35b3480156103ee57600080fd5b5061040960048036038101906104049190614a0c565b610eb9565b60405161041691906154a7565b60405180910390f35b34801561042b57600080fd5b5061044660048036038101906104419190614b0d565b610f42565b005b34801561045457600080fd5b5061046f600480360381019061046a9190614813565b610f54565b005b61048b60048036038101906104869190614b36565b610fb4565b005b34801561049957600080fd5b506104b460048036038101906104af91906147ae565b611284565b005b3480156104c257600080fd5b506104dd60048036038101906104d89190614919565b6112e7565b6040516104ea9190615128565b60405180910390f35b3480156104ff57600080fd5b5061051a60048036038101906105159190614b0d565b61180c565b604051610527919061514a565b60405180910390f35b34801561053c57600080fd5b50610545611836565b005b34801561055357600080fd5b5061056e60048036038101906105699190614813565b61188e565b005b34801561057c57600080fd5b506105856118ae565b60405161059291906154a7565b60405180910390f35b3480156105a757600080fd5b506105c260048036038101906105bd9190614b0d565b6118b8565b6040516105cf91906150c1565b60405180910390f35b3480156105e457600080fd5b506105ff60048036038101906105fa9190614b0d565b61193f565b60405161060c9190615128565b60405180910390f35b34801561062157600080fd5b5061063c600480360381019061063791906147ae565b611a0b565b60405161064991906154a7565b60405180910390f35b34801561065e57600080fd5b50610667611ac3565b005b34801561067557600080fd5b5061067e611ad7565b60405161068b9190615165565b60405180910390f35b3480156106a057600080fd5b506106a9611b65565b6040516106b691906154a7565b60405180910390f35b3480156106cb57600080fd5b506106d4611b6f565b6040516106e191906150c1565b60405180910390f35b3480156106f657600080fd5b50610711600480360381019061070c9190614a0c565b611b99565b005b34801561071f57600080fd5b5061073a60048036038101906107359190614b0d565b611bbb565b60405161074791906150c1565b60405180910390f35b34801561075c57600080fd5b50610765611c40565b6040516107729190615165565b60405180910390f35b34801561078757600080fd5b506107a2600480360381019061079d91906147ae565b611cd2565b005b3480156107b057600080fd5b506107cb60048036038101906107c691906149e3565b611d35565b6040516107d89190615128565b60405180910390f35b3480156107ed57600080fd5b50610808600480360381019061080391906148dd565b61224f565b005b34801561081657600080fd5b50610831600480360381019061082c9190614862565b612265565b005b34801561083f57600080fd5b5061085a60048036038101906108559190614b0d565b6122c7565b60405161086791906154a7565b60405180910390f35b34801561087c57600080fd5b5061089760048036038101906108929190614b0d565b612344565b6040516108a4919061514a565b60405180910390f35b3480156108b957600080fd5b506108c26123b6565b6040516108cf91906154a7565b60405180910390f35b3480156108e457600080fd5b506108ff60048036038101906108fa9190614b0d565b6123c0565b60405161090c9190615165565b60405180910390f35b34801561092157600080fd5b5061093c60048036038101906109379190614b0d565b6123d2565b60405161094991906154a7565b60405180910390f35b34801561095e57600080fd5b506109676123ef565b60405161097491906154a7565b60405180910390f35b34801561098957600080fd5b506109a4600480360381019061099f91906147ae565b6123f5565b6040516109b19190615128565b60405180910390f35b3480156109c657600080fd5b506109e160048036038101906109dc9190614a4d565b612409565b005b3480156109ef57600080fd5b50610a0a6004803603810190610a0591906147d7565b6126b9565b604051610a17919061514a565b60405180910390f35b348015610a2c57600080fd5b50610a476004803603810190610a429190614b8a565b61274d565b005b348015610a5557600080fd5b50610a706004803603810190610a6b91906147ae565b6127f1565b005b348015610a7e57600080fd5b50610a87612875565b604051610a9491906154a7565b60405180910390f35b610aae610aa861288c565b83612894565b610aed576040517f08c379a0000000000000000000000000000000000000000000000000000000008152600401610ae4906153c7565b60405180910390fd5b6000601082604051610aff9190615086565b9081526020016040518091039020549050828114610b52576040517f08c379a0000000000000000000000000000000000000000000000000000000008152600401610b4990615307565b60405180910390fd5b601082604051610b629190615086565b908152602001604051809103902060009055610b7d83612929565b505050565b60007f80ac58cd000000000000000000000000000000000000000000000000000000007bffffffffffffffffffffffffffffffffffffffffffffffffffffffff1916827bffffffffffffffffffffffffffffffffffffffffffffffffffffffff19161480610c4d57507f5b5e139f000000000000000000000000000000000000000000000000000000007bffffffffffffffffffffffffffffffffffffffffffffffffffffffff1916827bffffffffffffffffffffffffffffffffffffffffffffffffffffffff1916145b80610c5d5750610c5c82612ea1565b5b9050919050565b606060008054610c7390615705565b80601f0160208091040260200160405190810160405280929190818152602001828054610c9f90615705565b8015610cec5780601f10610cc157610100808354040283529160200191610cec565b820191906000526020600020905b815481529060010190602001808311610ccf57829003601f168201915b5050505050905090565b6060610d026000611d35565b905090565b6000610d1282612f0b565b6004600083815260200190815260200160002060009054906101000a900473ffffffffffffffffffffffffffffffffffffffff169050919050565b6000610d58826118b8565b90508073ffffffffffffffffffffffffffffffffffffffff168373ffffffffffffffffffffffffffffffffffffffff161415610dc9576040517f08c379a0000000000000000000000000000000000000000000000000000000008152600401610dc090615467565b60405180910390fd5b8073ffffffffffffffffffffffffffffffffffffffff16610de861288c565b73ffffffffffffffffffffffffffffffffffffffff161480610e175750610e1681610e1161288c565b6126b9565b5b610e56576040517f08c379a0000000000000000000000000000000000000000000000000000000008152600401610e4d90615487565b60405180910390fd5b610e608383612f56565b505050565b610e6d61300f565b81600a9080519060200190610e8392919061455c565b5080600b819055505050565b6000601260009054906101000a900473ffffffffffffffffffffffffffffffffffffffff16905090565b600080601083604051610ecc9190615086565b9081526020016040518091039020541415610f1c576040517f08c379a0000000000000000000000000000000000000000000000000000000008152600401610f1390615427565b60405180910390fd5b601082604051610f2c9190615086565b9081526020016040518091039020549050919050565b610f4a61300f565b80600b8190555050565b610f65610f5f61288c565b82612894565b610fa4576040517f08c379a0000000000000000000000000000000000000000000000000000000008152600401610f9b90615187565b60405180910390fd5b610faf83838361308d565b505050565b610fbd826133d2565b610ffc576040517f08c379a0000000000000000000000000000000000000000000000000000000008152600401610ff390615447565b60405180910390fd5b600c600083815260200190815260200160002060009054906101000a900460ff161561105d576040517f08c379a0000000000000000000000000000000000000000000000000000000008152600401611054906152a7565b60405180910390fd5b600080600e6000858152602001908152602001600020541161108157600b54611096565b600e6000848152602001908152602001600020545b9050803410156110db576040517f08c379a00000000000000000000000000000000000000000000000000000000081526004016110d2906152c7565b60405180910390fd5b6110e56008613413565b60006110f16008613429565b90506110fd3382613437565b6001600c600083815260200190815260200160002060006101000a81548160ff02191690831515021790555083600d60008381526020019081526020016000208190555061114b8184613455565b60146000858152602001908152602001600020819080600181540180825580915050600190039060005260206000200160009091909190915055601360003373ffffffffffffffffffffffffffffffffffffffff1673ffffffffffffffffffffffffffffffffffffffff16815260200190815260200160002081908060018154018082558091505060019003906000526020600020016000909190919091505560158190806001815401808255809150506001900390600052602060002001600090919091909150556017600081548092919061122790615768565b9190505550336011600083815260200190815260200160002060006101000a81548173ffffffffffffffffffffffffffffffffffffffff021916908373ffffffffffffffffffffffffffffffffffffffff16021790555050505050565b61128c61300f565b6000601860008373ffffffffffffffffffffffffffffffffffffffff1673ffffffffffffffffffffffffffffffffffffffff16815260200190815260200160002060006101000a81548160ff02191690831515021790555050565b60606000601360008573ffffffffffffffffffffffffffffffffffffffff1673ffffffffffffffffffffffffffffffffffffffff16815260200190815260200160002080548060200260200160405190810160405280929190818152602001828054801561137457602002820191906000526020600020905b815481526020019060010190808311611360575b50505050509050600060028111156113b5577f4e487b7100000000000000000000000000000000000000000000000000000000600052602160045260246000fd5b8360028111156113ee577f4e487b7100000000000000000000000000000000000000000000000000000000600052602160045260246000fd5b14156113fd5780915050611806565b6000805b8251811015611580576000611455848381518110611448577f4e487b7100000000000000000000000000000000000000000000000000000000600052603260045260246000fd5b602002602001015161180c565b905060016002811115611491577f4e487b7100000000000000000000000000000000000000000000000000000000600052602160045260246000fd5b8660028111156114ca577f4e487b7100000000000000000000000000000000000000000000000000000000600052602160045260246000fd5b1480156114d45750805b806115585750600280811115611513577f4e487b7100000000000000000000000000000000000000000000000000000000600052602160045260246000fd5b86600281111561154c577f4e487b7100000000000000000000000000000000000000000000000000000000600052602160045260246000fd5b148015611557575080155b5b1561156c57828061156890615768565b9350505b50808061157890615768565b915050611401565b5060008167ffffffffffffffff8111156115c3577f4e487b7100000000000000000000000000000000000000000000000000000000600052604160045260246000fd5b6040519080825280602002602001820160405280156115f15781602001602082028036833780820191505090505b5090506000805b84518110156117fd57600061164c86838151811061163f577f4e487b7100000000000000000000000000000000000000000000000000000000600052603260045260246000fd5b602002602001015161180c565b905060016002811115611688577f4e487b7100000000000000000000000000000000000000000000000000000000600052602160045260246000fd5b8860028111156116c1577f4e487b7100000000000000000000000000000000000000000000000000000000600052602160045260246000fd5b1480156116cb5750805b8061174f575060028081111561170a577f4e487b7100000000000000000000000000000000000000000000000000000000600052602160045260246000fd5b886002811115611743577f4e487b7100000000000000000000000000000000000000000000000000000000600052602160045260246000fd5b14801561174e575080155b5b156117e95785828151811061178d577f4e487b7100000000000000000000000000000000000000000000000000000000600052603260045260246000fd5b60200260200101518484815181106117ce577f4e487b7100000000000000000000000000000000000000000000000000000000600052603260045260246000fd5b60200260200101818152505082806117e590615768565b9350505b5080806117f590615768565b9150506115f8565b50819450505050505b92915050565b6000600c600083815260200190815260200160002060009054906101000a900460ff169050919050565b61183e61300f565b611846611b6f565b73ffffffffffffffffffffffffffffffffffffffff166108fc479081150290604051600060405180830381858888f1935050505015801561188b573d6000803e3d6000fd5b50565b6118a983838360405180602001604052806000815250612265565b505050565b6000601654905090565b6000806118c4836134c9565b9050600073ffffffffffffffffffffffffffffffffffffffff168173ffffffffffffffffffffffffffffffffffffffff161415611936576040517f08c379a000000000000000000000000000000000000000000000000000000000815260040161192d90615407565b60405180910390fd5b80915050919050565b6060600c600083815260200190815260200160002060009054906101000a900460ff16156119a2576040517f08c379a0000000000000000000000000000000000000000000000000000000008152600401611999906151a7565b60405180910390fd5b601460008381526020019081526020016000208054806020026020016040519081016040528092919081815260200182805480156119ff57602002820191906000526020600020905b8154815260200190600101908083116119eb575b50505050509050919050565b60008073ffffffffffffffffffffffffffffffffffffffff168273ffffffffffffffffffffffffffffffffffffffff161415611a7c576040517f08c379a0000000000000000000000000000000000000000000000000000000008152600401611a7390615347565b60405180910390fd5b600360008373ffffffffffffffffffffffffffffffffffffffff1673ffffffffffffffffffffffffffffffffffffffff168152602001908152602001600020549050919050565b611acb61300f565b611ad56000613506565b565b600a8054611ae490615705565b80601f0160208091040260200160405190810160405280929190818152602001828054611b1090615705565b8015611b5d5780601f10611b3257610100808354040283529160200191611b5d565b820191906000526020600020905b815481529060010190602001808311611b4057829003601f168201915b505050505081565b6000601754905090565b6000600760009054906101000a900473ffffffffffffffffffffffffffffffffffffffff16905090565b611ba161300f565b80600a9080519060200190611bb792919061455c565b5050565b6000611bc6826133d2565b611c05576040517f08c379a0000000000000000000000000000000000000000000000000000000008152600401611bfc906152e7565b60405180910390fd5b6011600083815260200190815260200160002060009054906101000a900473ffffffffffffffffffffffffffffffffffffffff169050919050565b606060018054611c4f90615705565b80601f0160208091040260200160405190810160405280929190818152602001828054611c7b90615705565b8015611cc85780601f10611c9d57610100808354040283529160200191611cc8565b820191906000526020600020905b815481529060010190602001808311611cab57829003601f168201915b5050505050905090565b611cda61300f565b6001601860008373ffffffffffffffffffffffffffffffffffffffff1673ffffffffffffffffffffffffffffffffffffffff16815260200190815260200160002060006101000a81548160ff02191690831515021790555050565b6060600080600090505b601580549050811015611f41576000611d9b60158381548110611d8b577f4e487b7100000000000000000000000000000000000000000000000000000000600052603260045260246000fd5b906000526020600020015461180c565b905060006002811115611dd7577f4e487b7100000000000000000000000000000000000000000000000000000000600052602160045260246000fd5b856002811115611e10577f4e487b7100000000000000000000000000000000000000000000000000000000600052602160045260246000fd5b1480611e95575060016002811115611e51577f4e487b7100000000000000000000000000000000000000000000000000000000600052602160045260246000fd5b856002811115611e8a577f4e487b7100000000000000000000000000000000000000000000000000000000600052602160045260246000fd5b148015611e945750805b5b80611f195750600280811115611ed4577f4e487b7100000000000000000000000000000000000000000000000000000000600052602160045260246000fd5b856002811115611f0d577f4e487b7100000000000000000000000000000000000000000000000000000000600052602160045260246000fd5b148015611f18575080155b5b15611f2d578280611f2990615768565b9350505b508080611f3990615768565b915050611d3f565b5060008167ffffffffffffffff811115611f84577f4e487b7100000000000000000000000000000000000000000000000000000000600052604160045260246000fd5b604051908082528060200260200182016040528015611fb25781602001602082028036833780820191505090505b5090506000805b60158054905081101561224357600061201560158381548110612005577f4e487b7100000000000000000000000000000000000000000000000000000000600052603260045260246000fd5b906000526020600020015461180c565b905060006002811115612051577f4e487b7100000000000000000000000000000000000000000000000000000000600052602160045260246000fd5b87600281111561208a577f4e487b7100000000000000000000000000000000000000000000000000000000600052602160045260246000fd5b148061210f5750600160028111156120cb577f4e487b7100000000000000000000000000000000000000000000000000000000600052602160045260246000fd5b876002811115612104577f4e487b7100000000000000000000000000000000000000000000000000000000600052602160045260246000fd5b14801561210e5750805b5b80612193575060028081111561214e577f4e487b7100000000000000000000000000000000000000000000000000000000600052602160045260246000fd5b876002811115612187577f4e487b7100000000000000000000000000000000000000000000000000000000600052602160045260246000fd5b148015612192575080155b5b1561222f57601582815481106121d2577f4e487b7100000000000000000000000000000000000000000000000000000000600052603260045260246000fd5b90600052602060002001548484806121e990615768565b955081518110612222577f4e487b7100000000000000000000000000000000000000000000000000000000600052603260045260246000fd5b6020026020010181815250505b50808061223b90615768565b915050611fb9565b50819350505050919050565b61226161225a61288c565b83836135cc565b5050565b61227661227061288c565b83612894565b6122b5576040517f08c379a00000000000000000000000000000000000000000000000000000000081526004016122ac90615187565b60405180910390fd5b6122c184848484613739565b50505050565b6000600c600083815260200190815260200160002060009054906101000a900460ff16612329576040517f08c379a000000000000000000000000000000000000000000000000000000000815260040161232090615327565b60405180910390fd5b600d6000838152602001908152602001600020549050919050565b600061234f826133d2565b61238e576040517f08c379a0000000000000000000000000000000000000000000000000000000008152600401612385906152e7565b60405180910390fd5b600f600083815260200190815260200160002060009054906101000a900460ff169050919050565b6000600b54905090565b60606123cb82613795565b9050919050565b6000600e6000838152602001908152602001600020549050919050565b60095481565b60606124028260006112e7565b9050919050565b600060108260405161241b9190615086565b9081526020016040518091039020541461246a576040517f08c379a000000000000000000000000000000000000000000000000000000000815260040161246190615387565b60405180910390fd5b612472611b6f565b73ffffffffffffffffffffffffffffffffffffffff163373ffffffffffffffffffffffffffffffffffffffff1614806124f45750601860003373ffffffffffffffffffffffffffffffffffffffff1673ffffffffffffffffffffffffffffffffffffffff16815260200190815260200160002060009054906101000a900460ff165b612533576040517f08c379a000000000000000000000000000000000000000000000000000000000815260040161252a906151e7565b60405180910390fd5b61253d6008613413565b600061254761288c565b905060006125556008613429565b90506125618282613437565b6000600c600083815260200190815260200160002060006101000a81548160ff0219169083151502179055506125978185613455565b806010846040516125a89190615086565b908152602001604051809103902081905550601360008373ffffffffffffffffffffffffffffffffffffffff1673ffffffffffffffffffffffffffffffffffffffff16815260200190815260200160002081908060018154018082558091505060019003906000526020600020016000909190919091505560158190806001815401808255809150506001900390600052602060002001600090919091909150556016600081548092919061265c90615768565b9190505550816011600083815260200190815260200160002060006101000a81548173ffffffffffffffffffffffffffffffffffffffff021916908373ffffffffffffffffffffffffffffffffffffffff16021790555050505050565b6000600560008473ffffffffffffffffffffffffffffffffffffffff1673ffffffffffffffffffffffffffffffffffffffff16815260200190815260200160002060008373ffffffffffffffffffffffffffffffffffffffff1673ffffffffffffffffffffffffffffffffffffffff16815260200190815260200160002060009054906101000a900460ff16905092915050565b61275561300f565b60008111156127a7576001600f600084815260200190815260200160002060006101000a81548160ff02191690831515021790555080600e6000848152602001908152602001600020819055506127ed565b6000600f600084815260200190815260200160002060006101000a81548160ff0219169083151502179055506000600e6000848152602001908152602001600020819055505b5050565b6127f961300f565b600073ffffffffffffffffffffffffffffffffffffffff168173ffffffffffffffffffffffffffffffffffffffff161415612869576040517f08c379a000000000000000000000000000000000000000000000000000000000815260040161286090615207565b60405180910390fd5b61287281613506565b50565b600060175460165461288791906155c5565b905090565b600033905090565b6000806128a0836118b8565b90508073ffffffffffffffffffffffffffffffffffffffff168473ffffffffffffffffffffffffffffffffffffffff1614806128e257506128e181856126b9565b5b8061292057508373ffffffffffffffffffffffffffffffffffffffff1661290884610d07565b73ffffffffffffffffffffffffffffffffffffffff16145b91505092915050565b6000612934826118b8565b905061293f826138a8565b600c600083815260200190815260200160002060009054906101000a900460ff1615612b0d576000600d6000848152602001908152602001600020549050600060146000838152602001908152602001600020905060005b8180549050811015612aee57848282815481106129dd577f4e487b7100000000000000000000000000000000000000000000000000000000600052603260045260246000fd5b90600052602060002001541415612adb578160018380549050612a00919061561b565b81548110612a37577f4e487b7100000000000000000000000000000000000000000000000000000000600052603260045260246000fd5b9060005260206000200154828281548110612a7b577f4e487b7100000000000000000000000000000000000000000000000000000000600052603260045260246000fd5b906000526020600020018190555081805480612ac0577f4e487b7100000000000000000000000000000000000000000000000000000000600052603160045260246000fd5b60019003818190600052602060002001600090559055612aee565b8080612ae690615768565b915050612997565b50600d6000858152602001908152602001600020600090555050612b2d565b601460008381526020019081526020016000206000612b2c91906145e2565b5b600c600083815260200190815260200160002060006101000a81549060ff0219169055600e6000838152602001908152602001600020600090556011600083815260200190815260200160002060006101000a81549073ffffffffffffffffffffffffffffffffffffffff02191690556000601360008373ffffffffffffffffffffffffffffffffffffffff1673ffffffffffffffffffffffffffffffffffffffff168152602001908152602001600020905060005b8180549050811015612d3a5783828281548110612c29577f4e487b7100000000000000000000000000000000000000000000000000000000600052603260045260246000fd5b90600052602060002001541415612d27578160018380549050612c4c919061561b565b81548110612c83577f4e487b7100000000000000000000000000000000000000000000000000000000600052603260045260246000fd5b9060005260206000200154828281548110612cc7577f4e487b7100000000000000000000000000000000000000000000000000000000600052603260045260246000fd5b906000526020600020018190555081805480612d0c577f4e487b7100000000000000000000000000000000000000000000000000000000600052603160045260246000fd5b60019003818190600052602060002001600090559055612d3a565b8080612d3290615768565b915050612be3565b5060005b601580549050811015612e9b578360158281548110612d86577f4e487b7100000000000000000000000000000000000000000000000000000000600052603260045260246000fd5b90600052602060002001541415612e885760156001601580549050612dab919061561b565b81548110612de2577f4e487b7100000000000000000000000000000000000000000000000000000000600052603260045260246000fd5b906000526020600020015460158281548110612e27577f4e487b7100000000000000000000000000000000000000000000000000000000600052603260045260246000fd5b90600052602060002001819055506015805480612e6d577f4e487b7100000000000000000000000000000000000000000000000000000000600052603160045260246000fd5b60019003818190600052602060002001600090559055612e9b565b8080612e9390615768565b915050612d3e565b50505050565b60007f01ffc9a7000000000000000000000000000000000000000000000000000000007bffffffffffffffffffffffffffffffffffffffffffffffffffffffff1916827bffffffffffffffffffffffffffffffffffffffffffffffffffffffff1916149050919050565b612f14816133d2565b612f53576040517f08c379a0000000000000000000000000000000000000000000000000000000008152600401612f4a90615407565b60405180910390fd5b50565b816004600083815260200190815260200160002060006101000a81548173ffffffffffffffffffffffffffffffffffffffff021916908373ffffffffffffffffffffffffffffffffffffffff160217905550808273ffffffffffffffffffffffffffffffffffffffff16612fc9836118b8565b73ffffffffffffffffffffffffffffffffffffffff167f8c5be1e5ebec7d5bd14f71427d1e84f3dd0314c0f7b2291e5b200ac8c7c3b92560405160405180910390a45050565b61301761288c565b73ffffffffffffffffffffffffffffffffffffffff16613035611b6f565b73ffffffffffffffffffffffffffffffffffffffff161461308b576040517f08c379a0000000000000000000000000000000000000000000000000000000008152600401613082906153e7565b60405180910390fd5b565b6130988383836138fb565b60005b601360008573ffffffffffffffffffffffffffffffffffffffff1673ffffffffffffffffffffffffffffffffffffffff168152602001908152602001600020805490508110156133665781601360008673ffffffffffffffffffffffffffffffffffffffff1673ffffffffffffffffffffffffffffffffffffffff168152602001908152602001600020828154811061315d577f4e487b7100000000000000000000000000000000000000000000000000000000600052603260045260246000fd5b9060005260206000200154141561335357601360008573ffffffffffffffffffffffffffffffffffffffff1673ffffffffffffffffffffffffffffffffffffffff1681526020019081526020016000206001601360008773ffffffffffffffffffffffffffffffffffffffff1673ffffffffffffffffffffffffffffffffffffffff168152602001908152602001600020805490506131fc919061561b565b81548110613233577f4e487b7100000000000000000000000000000000000000000000000000000000600052603260045260246000fd5b9060005260206000200154601360008673ffffffffffffffffffffffffffffffffffffffff1673ffffffffffffffffffffffffffffffffffffffff16815260200190815260200160002082815481106132b5577f4e487b7100000000000000000000000000000000000000000000000000000000600052603260045260246000fd5b9060005260206000200181905550601360008573ffffffffffffffffffffffffffffffffffffffff1673ffffffffffffffffffffffffffffffffffffffff168152602001908152602001600020805480613338577f4e487b7100000000000000000000000000000000000000000000000000000000600052603160045260246000fd5b60019003818190600052602060002001600090559055613366565b808061335e90615768565b91505061309b565b50601360008373ffffffffffffffffffffffffffffffffffffffff1673ffffffffffffffffffffffffffffffffffffffff168152602001908152602001600020819080600181540180825580915050600190039060005260206000200160009091909190915055505050565b60008073ffffffffffffffffffffffffffffffffffffffff166133f4836134c9565b73ffffffffffffffffffffffffffffffffffffffff1614159050919050565b6001816000016000828254019250508190555050565b600081600001549050919050565b613451828260405180602001604052806000815250613bf5565b5050565b61345e826133d2565b61349d576040517f08c379a000000000000000000000000000000000000000000000000000000000815260040161349490615367565b60405180910390fd5b806006600084815260200190815260200160002090805190602001906134c492919061455c565b505050565b60006002600083815260200190815260200160002060009054906101000a900473ffffffffffffffffffffffffffffffffffffffff169050919050565b6000600760009054906101000a900473ffffffffffffffffffffffffffffffffffffffff16905081600760006101000a81548173ffffffffffffffffffffffffffffffffffffffff021916908373ffffffffffffffffffffffffffffffffffffffff1602179055508173ffffffffffffffffffffffffffffffffffffffff168173ffffffffffffffffffffffffffffffffffffffff167f8be0079c531659141344cd1fd0a4f28419497f9722a3daafe3b4186f6b6457e060405160405180910390a35050565b8173ffffffffffffffffffffffffffffffffffffffff168373ffffffffffffffffffffffffffffffffffffffff16141561363b576040517f08c379a000000000000000000000000000000000000000000000000000000000815260040161363290615287565b60405180910390fd5b80600560008573ffffffffffffffffffffffffffffffffffffffff1673ffffffffffffffffffffffffffffffffffffffff16815260200190815260200160002060008473ffffffffffffffffffffffffffffffffffffffff1673ffffffffffffffffffffffffffffffffffffffff16815260200190815260200160002060006101000a81548160ff0219169083151502179055508173ffffffffffffffffffffffffffffffffffffffff168373ffffffffffffffffffffffffffffffffffffffff167f17307eab39ab6107e8899845ad3d59bd9653f200f220920489ca2b5937696c318360405161372c919061514a565b60405180910390a3505050565b61374484848461308d565b61375084848484613c50565b61378f576040517f08c379a0000000000000000000000000000000000000000000000000000000008152600401613786906151c7565b60405180910390fd5b50505050565b60606137a082612f0b565b60006006600084815260200190815260200160002080546137c090615705565b80601f01602080910402602001604051908101604052809291908181526020018280546137ec90615705565b80156138395780601f1061380e57610100808354040283529160200191613839565b820191906000526020600020905b81548152906001019060200180831161381c57829003601f168201915b50505050509050600061384a613de7565b90506000815114156138605781925050506138a3565b60008251111561389557808260405160200161387d92919061509d565b604051602081830303815290604052925050506138a3565b61389e84613dfe565b925050505b919050565b6138b181613e66565b60006006600083815260200190815260200160002080546138d190615705565b9050146138f8576006600082815260200190815260200160002060006138f79190614603565b5b50565b8273ffffffffffffffffffffffffffffffffffffffff1661391b826118b8565b73ffffffffffffffffffffffffffffffffffffffff1614613971576040517f08c379a000000000000000000000000000000000000000000000000000000000815260040161396890615227565b60405180910390fd5b600073ffffffffffffffffffffffffffffffffffffffff168273ffffffffffffffffffffffffffffffffffffffff1614156139e1576040517f08c379a00000000000000000000000000000000000000000000000000000000081526004016139d890615267565b60405180910390fd5b6139ee8383836001613fb4565b8273ffffffffffffffffffffffffffffffffffffffff16613a0e826118b8565b73ffffffffffffffffffffffffffffffffffffffff1614613a64576040517f08c379a0000000000000000000000000000000000000000000000000000000008152600401613a5b90615227565b60405180910390fd5b6004600082815260200190815260200160002060006101000a81549073ffffffffffffffffffffffffffffffffffffffff02191690556001600360008573ffffffffffffffffffffffffffffffffffffffff1673ffffffffffffffffffffffffffffffffffffffff168152602001908152602001600020600082825403925050819055506001600360008473ffffffffffffffffffffffffffffffffffffffff1673ffffffffffffffffffffffffffffffffffffffff16815260200190815260200160002060008282540192505081905550816002600083815260200190815260200160002060006101000a81548173ffffffffffffffffffffffffffffffffffffffff021916908373ffffffffffffffffffffffffffffffffffffffff160217905550808273ffffffffffffffffffffffffffffffffffffffff168473ffffffffffffffffffffffffffffffffffffffff167fddf252ad1be2c89b69c2b068fc378daa952ba7f163c4a11628f55a4df523b3ef60405160405180910390a4613bf08383836001613fba565b505050565b613bff8383613fc0565b613c0c6000848484613c50565b613c4b576040517f08c379a0000000000000000000000000000000000000000000000000000000008152600401613c42906151c7565b60405180910390fd5b505050565b6000613c718473ffffffffffffffffffffffffffffffffffffffff166141de565b15613dda578373ffffffffffffffffffffffffffffffffffffffff1663150b7a02613c9a61288c565b8786866040518563ffffffff1660e01b8152600401613cbc94939291906150dc565b602060405180830381600087803b158015613cd657600080fd5b505af1925050508015613d0757506040513d601f19601f82011682018060405250810190613d0491906149ba565b60015b613d8a573d8060008114613d37576040519150601f19603f3d011682016040523d82523d6000602084013e613d3c565b606091505b50600081511415613d82576040517f08c379a0000000000000000000000000000000000000000000000000000000008152600401613d79906151c7565b60405180910390fd5b805181602001fd5b63150b7a0260e01b7bffffffffffffffffffffffffffffffffffffffffffffffffffffffff1916817bffffffffffffffffffffffffffffffffffffffffffffffffffffffff191614915050613ddf565b600190505b949350505050565b606060405180602001604052806000815250905090565b6060613e0982612f0b565b6000613e13613de7565b90506000815111613e335760405180602001604052806000815250613e5e565b80613e3d84614201565b604051602001613e4e92919061509d565b6040516020818303038152906040525b915050919050565b6000613e71826118b8565b9050613e81816000846001613fb4565b613e8a826118b8565b90506004600083815260200190815260200160002060006101000a81549073ffffffffffffffffffffffffffffffffffffffff02191690556001600360008373ffffffffffffffffffffffffffffffffffffffff1673ffffffffffffffffffffffffffffffffffffffff168152602001908152602001600020600082825403925050819055506002600083815260200190815260200160002060006101000a81549073ffffffffffffffffffffffffffffffffffffffff021916905581600073ffffffffffffffffffffffffffffffffffffffff168273ffffffffffffffffffffffffffffffffffffffff167fddf252ad1be2c89b69c2b068fc378daa952ba7f163c4a11628f55a4df523b3ef60405160405180910390a4613fb0816000846001613fba565b5050565b50505050565b50505050565b600073ffffffffffffffffffffffffffffffffffffffff168273ffffffffffffffffffffffffffffffffffffffff161415614030576040517f08c379a0000000000000000000000000000000000000000000000000000000008152600401614027906153a7565b60405180910390fd5b614039816133d2565b15614079576040517f08c379a000000000000000000000000000000000000000000000000000000000815260040161407090615247565b60405180910390fd5b614087600083836001613fb4565b614090816133d2565b156140d0576040517f08c379a00000000000000000000000000000000000000000000000000000000081526004016140c790615247565b60405180910390fd5b6001600360008473ffffffffffffffffffffffffffffffffffffffff1673ffffffffffffffffffffffffffffffffffffffff16815260200190815260200160002060008282540192505081905550816002600083815260200190815260200160002060006101000a81548173ffffffffffffffffffffffffffffffffffffffff021916908373ffffffffffffffffffffffffffffffffffffffff160217905550808273ffffffffffffffffffffffffffffffffffffffff16600073ffffffffffffffffffffffffffffffffffffffff167fddf252ad1be2c89b69c2b068fc378daa952ba7f163c4a11628f55a4df523b3ef60405160405180910390a46141da600083836001613fba565b5050565b6000808273ffffffffffffffffffffffffffffffffffffffff163b119050919050565b60606000600161421084614325565b01905060008167ffffffffffffffff811115614255577f4e487b7100000000000000000000000000000000000000000000000000000000600052604160045260246000fd5b6040519080825280601f01601f1916602001820160405280156142875781602001600182028036833780820191505090505b509050600082602001820190505b60011561431a578080600190039150507f3031323334353637383961626364656600000000000000000000000000000000600a86061a8153600a8581614304577f4e487b7100000000000000000000000000000000000000000000000000000000600052601260045260246000fd5b04945060008514156143155761431a565b614295565b819350505050919050565b600080600090507a184f03e93ff9f4daa797ed6e38ed64bf6a1f01000000000000000083106143a9577a184f03e93ff9f4daa797ed6e38ed64bf6a1f010000000000000000838161439f577f4e487b7100000000000000000000000000000000000000000000000000000000600052601260045260246000fd5b0492506040810190505b6d04ee2d6d415b85acef8100000000831061440c576d04ee2d6d415b85acef81000000008381614402577f4e487b7100000000000000000000000000000000000000000000000000000000600052601260045260246000fd5b0492506020810190505b662386f26fc10000831061446157662386f26fc100008381614457577f4e487b7100000000000000000000000000000000000000000000000000000000600052601260045260246000fd5b0492506010810190505b6305f5e10083106144b0576305f5e10083816144a6577f4e487b7100000000000000000000000000000000000000000000000000000000600052601260045260246000fd5b0492506008810190505b61271083106144fb5761271083816144f1577f4e487b7100000000000000000000000000000000000000000000000000000000600052601260045260246000fd5b0492506004810190505b60648310614544576064838161453a577f4e487b7100000000000000000000000000000000000000000000000000000000600052601260045260246000fd5b0492506002810190505b600a8310614553576001810190505b80915050919050565b82805461456890615705565b90600052602060002090601f01602090048101928261458a57600085556145d1565b82601f106145a357805160ff19168380011785556145d1565b828001600101855582156145d1579182015b828111156145d05782518255916020019190600101906145b5565b5b5090506145de9190614643565b5090565b50805460008255906000526020600020908101906146009190614643565b50565b50805461460f90615705565b6000825580601f106146215750614640565b601f01602090049060005260206000209081019061463f9190614643565b5b50565b5b8082111561465c576000816000905550600101614644565b5090565b600061467361466e846154e7565b6154c2565b90508281526020810184848401111561468b57600080fd5b6146968482856156c3565b509392505050565b60006146b16146ac84615518565b6154c2565b9050828152602081018484840111156146c957600080fd5b6146d48482856156c3565b509392505050565b6000813590506146eb81615df2565b92915050565b60008135905061470081615e09565b92915050565b60008135905061471581615e20565b92915050565b60008151905061472a81615e20565b92915050565b600082601f83011261474157600080fd5b8135614751848260208601614660565b91505092915050565b60008135905061476981615e37565b92915050565b600082601f83011261478057600080fd5b813561479084826020860161469e565b91505092915050565b6000813590506147a881615e47565b92915050565b6000602082840312156147c057600080fd5b60006147ce848285016146dc565b91505092915050565b600080604083850312156147ea57600080fd5b60006147f8858286016146dc565b9250506020614809858286016146dc565b9150509250929050565b60008060006060848603121561482857600080fd5b6000614836868287016146dc565b9350506020614847868287016146dc565b925050604061485886828701614799565b9150509250925092565b6000806000806080858703121561487857600080fd5b6000614886878288016146dc565b9450506020614897878288016146dc565b93505060406148a887828801614799565b925050606085013567ffffffffffffffff8111156148c557600080fd5b6148d187828801614730565b91505092959194509250565b600080604083850312156148f057600080fd5b60006148fe858286016146dc565b925050602061490f858286016146f1565b9150509250929050565b6000806040838503121561492c57600080fd5b600061493a858286016146dc565b925050602061494b8582860161475a565b9150509250929050565b6000806040838503121561496857600080fd5b6000614976858286016146dc565b925050602061498785828601614799565b9150509250929050565b6000602082840312156149a357600080fd5b60006149b184828501614706565b91505092915050565b6000602082840312156149cc57600080fd5b60006149da8482850161471b565b91505092915050565b6000602082840312156149f557600080fd5b6000614a038482850161475a565b91505092915050565b600060208284031215614a1e57600080fd5b600082013567ffffffffffffffff811115614a3857600080fd5b614a448482850161476f565b91505092915050565b60008060408385031215614a6057600080fd5b600083013567ffffffffffffffff811115614a7a57600080fd5b614a868582860161476f565b925050602083013567ffffffffffffffff811115614aa357600080fd5b614aaf8582860161476f565b9150509250929050565b60008060408385031215614acc57600080fd5b600083013567ffffffffffffffff811115614ae657600080fd5b614af28582860161476f565b9250506020614b0385828601614799565b9150509250929050565b600060208284031215614b1f57600080fd5b6000614b2d84828501614799565b91505092915050565b60008060408385031215614b4957600080fd5b6000614b5785828601614799565b925050602083013567ffffffffffffffff811115614b7457600080fd5b614b808582860161476f565b9150509250929050565b60008060408385031215614b9d57600080fd5b6000614bab85828601614799565b9250506020614bbc85828601614799565b9150509250929050565b6000614bd28383615068565b60208301905092915050565b614be78161564f565b82525050565b6000614bf882615559565b614c028185615587565b9350614c0d83615549565b8060005b83811015614c3e578151614c258882614bc6565b9750614c308361557a565b925050600181019050614c11565b5085935050505092915050565b614c5481615661565b82525050565b6000614c6582615564565b614c6f8185615598565b9350614c7f8185602086016156d2565b614c888161583e565b840191505092915050565b6000614c9e8261556f565b614ca881856155a9565b9350614cb88185602086016156d2565b614cc18161583e565b840191505092915050565b6000614cd78261556f565b614ce181856155ba565b9350614cf18185602086016156d2565b80840191505092915050565b6000614d0a602d836155a9565b9150614d158261584f565b604082019050919050565b6000614d2d6021836155a9565b9150614d388261589e565b604082019050919050565b6000614d506032836155a9565b9150614d5b826158ed565b604082019050919050565b6000614d73601d836155a9565b9150614d7e8261593c565b602082019050919050565b6000614d966026836155a9565b9150614da182615965565b604082019050919050565b6000614db96025836155a9565b9150614dc4826159b4565b604082019050919050565b6000614ddc601c836155a9565b9150614de782615a03565b602082019050919050565b6000614dff6024836155a9565b9150614e0a82615a2c565b604082019050919050565b6000614e226019836155a9565b9150614e2d82615a7b565b602082019050919050565b6000614e456014836155a9565b9150614e5082615aa4565b602082019050919050565b6000614e686020836155a9565b9150614e7382615acd565b602082019050919050565b6000614e8b6014836155a9565b9150614e9682615af6565b602082019050919050565b6000614eae601b836155a9565b9150614eb982615b1f565b602082019050919050565b6000614ed16014836155a9565b9150614edc82615b48565b602082019050919050565b6000614ef46029836155a9565b9150614eff82615b71565b604082019050919050565b6000614f17602e836155a9565b9150614f2282615bc0565b604082019050919050565b6000614f3a6012836155a9565b9150614f4582615c0f565b602082019050919050565b6000614f5d6020836155a9565b9150614f6882615c38565b602082019050919050565b6000614f806028836155a9565b9150614f8b82615c61565b604082019050919050565b6000614fa36020836155a9565b9150614fae82615cb0565b602082019050919050565b6000614fc66018836155a9565b9150614fd182615cd9565b602082019050919050565b6000614fe96012836155a9565b9150614ff482615d02565b602082019050919050565b600061500c6010836155a9565b915061501782615d2b565b602082019050919050565b600061502f6021836155a9565b915061503a82615d54565b604082019050919050565b6000615052603d836155a9565b915061505d82615da3565b604082019050919050565b615071816156b9565b82525050565b615080816156b9565b82525050565b60006150928284614ccc565b915081905092915050565b60006150a98285614ccc565b91506150b58284614ccc565b91508190509392505050565b60006020820190506150d66000830184614bde565b92915050565b60006080820190506150f16000830187614bde565b6150fe6020830186614bde565b61510b6040830185615077565b818103606083015261511d8184614c5a565b905095945050505050565b600060208201905081810360008301526151428184614bed565b905092915050565b600060208201905061515f6000830184614c4b565b92915050565b6000602082019050818103600083015261517f8184614c93565b905092915050565b600060208201905081810360008301526151a081614cfd565b9050919050565b600060208201905081810360008301526151c081614d20565b9050919050565b600060208201905081810360008301526151e081614d43565b9050919050565b6000602082019050818103600083015261520081614d66565b9050919050565b6000602082019050818103600083015261522081614d89565b9050919050565b6000602082019050818103600083015261524081614dac565b9050919050565b6000602082019050818103600083015261526081614dcf565b9050919050565b6000602082019050818103600083015261528081614df2565b9050919050565b600060208201905081810360008301526152a081614e15565b9050919050565b600060208201905081810360008301526152c081614e38565b9050919050565b600060208201905081810360008301526152e081614e5b565b9050919050565b6000602082019050818103600083015261530081614e7e565b9050919050565b6000602082019050818103600083015261532081614ea1565b9050919050565b6000602082019050818103600083015261534081614ec4565b9050919050565b6000602082019050818103600083015261536081614ee7565b9050919050565b6000602082019050818103600083015261538081614f0a565b9050919050565b600060208201905081810360008301526153a081614f2d565b9050919050565b600060208201905081810360008301526153c081614f50565b9050919050565b600060208201905081810360008301526153e081614f73565b9050919050565b6000602082019050818103600083015261540081614f96565b9050919050565b6000602082019050818103600083015261542081614fb9565b9050919050565b6000602082019050818103600083015261544081614fdc565b9050919050565b6000602082019050818103600083015261546081614fff565b9050919050565b6000602082019050818103600083015261548081615022565b9050919050565b600060208201905081810360008301526154a081615045565b9050919050565b60006020820190506154bc6000830184615077565b92915050565b60006154cc6154dd565b90506154d88282615737565b919050565b6000604051905090565b600067ffffffffffffffff8211156155025761550161580f565b5b61550b8261583e565b9050602081019050919050565b600067ffffffffffffffff8211156155335761553261580f565b5b61553c8261583e565b9050602081019050919050565b6000819050602082019050919050565b600081519050919050565b600081519050919050565b600081519050919050565b6000602082019050919050565b600082825260208201905092915050565b600082825260208201905092915050565b600082825260208201905092915050565b600081905092915050565b60006155d0826156b9565b91506155db836156b9565b9250827fffffffffffffffffffffffffffffffffffffffffffffffffffffffffffffffff038211156156105761560f6157b1565b5b828201905092915050565b6000615626826156b9565b9150615631836156b9565b925082821015615644576156436157b1565b5b828203905092915050565b600061565a82615699565b9050919050565b60008115159050919050565b60007fffffffff0000000000000000000000000000000000000000000000000000000082169050919050565b600073ffffffffffffffffffffffffffffffffffffffff82169050919050565b6000819050919050565b82818337600083830152505050565b60005b838110156156f05780820151818401526020810190506156d5565b838111156156ff576000848401525b50505050565b6000600282049050600182168061571d57607f821691505b60208210811415615731576157306157e0565b5b50919050565b6157408261583e565b810181811067ffffffffffffffff8211171561575f5761575e61580f565b5b80604052505050565b6000615773826156b9565b91507fffffffffffffffffffffffffffffffffffffffffffffffffffffffffffffffff8214156157a6576157a56157b1565b5b600182019050919050565b7f4e487b7100000000000000000000000000000000000000000000000000000000600052601160045260246000fd5b7f4e487b7100000000000000000000000000000000000000000000000000000000600052602260045260246000fd5b7f4e487b7100000000000000000000000000000000000000000000000000000000600052604160045260246000fd5b6000601f19601f8301169050919050565b7f4552433732313a2063616c6c6572206973206e6f7420746f6b656e206f776e6560008201527f72206f7220617070726f76656400000000000000000000000000000000000000602082015250565b7f546f6b656e206973206120636c6f6e652c206e6f7420616e206f726967696e6160008201527f6c00000000000000000000000000000000000000000000000000000000000000602082015250565b7f4552433732313a207472616e7366657220746f206e6f6e20455243373231526560008201527f63656976657220696d706c656d656e7465720000000000000000000000000000602082015250565b7f43616c6c6572206973206e6f7420616c6c6f77656420746f206d696e74000000600082015250565b7f4f776e61626c653a206e6577206f776e657220697320746865207a65726f206160008201527f6464726573730000000000000000000000000000000000000000000000000000602082015250565b7f4552433732313a207472616e736665722066726f6d20696e636f72726563742060008201527f6f776e6572000000000000000000000000000000000000000000000000000000602082015250565b7f4552433732313a20746f6b656e20616c7265616479206d696e74656400000000600082015250565b7f4552433732313a207472616e7366657220746f20746865207a65726f2061646460008201527f7265737300000000000000000000000000000000000000000000000000000000602082015250565b7f4552433732313a20617070726f766520746f2063616c6c657200000000000000600082015250565b7f43616e6e6f7420636c6f6e65206120636c6f6e65000000000000000000000000600082015250565b7f496e73756666696369656e742066756e647320746f206d696e7420636c6f6e65600082015250565b7f546f6b656e20646f6573206e6f74206578697374000000000000000000000000600082015250565b7f546f6b656e20494420646f6573206e6f74206d617463682055524c0000000000600082015250565b7f546f6b656e206973206e6f74206120636c6f6e65000000000000000000000000600082015250565b7f4552433732313a2061646472657373207a65726f206973206e6f74206120766160008201527f6c6964206f776e65720000000000000000000000000000000000000000000000602082015250565b7f45524337323155524953746f726167653a2055524920736574206f66206e6f6e60008201527f6578697374656e7420746f6b656e000000000000000000000000000000000000602082015250565b7f55524c20616c7265616479206578697374730000000000000000000000000000600082015250565b7f4552433732313a206d696e7420746f20746865207a65726f2061646472657373600082015250565b7f4552433732313a2063616c6c6572206973206e6f74206f776e6572206e6f722060008201527f617070726f766564000000000000000000000000000000000000000000000000602082015250565b7f4f776e61626c653a2063616c6c6572206973206e6f7420746865206f776e6572600082015250565b7f4552433732313a20696e76616c696420746f6b656e2049440000000000000000600082015250565b7f55524c20646f6573206e6f742065786973740000000000000000000000000000600082015250565b7f496e76616c696420746f6b656e20494400000000000000000000000000000000600082015250565b7f4552433732313a20617070726f76616c20746f2063757272656e74206f776e6560008201527f7200000000000000000000000000000000000000000000000000000000000000602082015250565b7f4552433732313a20617070726f76652063616c6c6572206973206e6f7420746f60008201527f6b656e206f776e6572206f7220617070726f76656420666f7220616c6c000000602082015250565b615dfb8161564f565b8114615e0657600080fd5b50565b615e1281615661565b8114615e1d57600080fd5b50565b615e298161566d565b8114615e3457600080fd5b50565b60038110615e4457600080fd5b50565b615e50816156b9565b8114615e5b57600080fd5b5056fea2646970667358221220ee91b77d16ed8c1e281fd3bce69c6662a01088de204f9f1255ae2c4241482ddf64736f6c63430008010033",
  "linkReferences": {},
  "deployedLinkReferences": {}
}