{
  "_format": "hh-sol-artifact-1",
  "contractName": "CloneableNFT",
  "sourceName": "contracts/ClonableNFT.sol",
  "abi": [
    {
      "inputs": [
        {
          "internalType": "string",
          "name": "name",
          "type": "string"
        },
        {
          "internalType": "string",
          "name": "symbol",
          "type": "string"
        },
        {
          "internalType": "string",
          "name": "_description",
          "type": "string"
        }
      ],
      "stateMutability": "nonpayable",
      "type": "constructor"
    },
    {
      "anonymous": false,
      "inputs": [
        {
          "indexed": true,
          "internalType": "address",
          "name": "owner",
          "type": "address"
        },
        {
          "indexed": true,
          "internalType": "address",
          "name": "approved",
          "type": "address"
        },
        {
          "indexed": true,
          "internalType": "uint256",
          "name": "tokenId",
          "type": "uint256"
        }
      ],
      "name": "Approval",
      "type": "event"
    },
    {
      "anonymous": false,
      "inputs": [
        {
          "indexed": true,
          "internalType": "address",
          "name": "owner",
          "type": "address"
        },
        {
          "indexed": true,
          "internalType": "address",
          "name": "operator",
          "type": "address"
        },
        {
          "indexed": false,
          "internalType": "bool",
          "name": "approved",
          "type": "bool"
        }
      ],
      "name": "ApprovalForAll",
      "type": "event"
    },
    {
      "anonymous": false,
      "inputs": [
        {
          "indexed": true,
          "internalType": "address",
          "name": "previousOwner",
          "type": "address"
        },
        {
          "indexed": true,
          "internalType": "address",
          "name": "newOwner",
          "type": "address"
        }
      ],
      "name": "OwnershipTransferred",
      "type": "event"
    },
    {
      "anonymous": false,
      "inputs": [
        {
          "indexed": true,
          "internalType": "address",
          "name": "from",
          "type": "address"
        },
        {
          "indexed": true,
          "internalType": "address",
          "name": "to",
          "type": "address"
        },
        {
          "indexed": true,
          "internalType": "uint256",
          "name": "tokenId",
          "type": "uint256"
        }
      ],
      "name": "Transfer",
      "type": "event"
    },
    {
      "inputs": [
        {
          "internalType": "address",
          "name": "to",
          "type": "address"
        },
        {
          "internalType": "uint256",
          "name": "tokenId",
          "type": "uint256"
        }
      ],
      "name": "approve",
      "outputs": [],
      "stateMutability": "nonpayable",
      "type": "function"
    },
    {
      "inputs": [
        {
          "internalType": "address",
          "name": "owner",
          "type": "address"
        }
      ],
      "name": "balanceOf",
      "outputs": [
        {
          "internalType": "uint256",
          "name": "",
          "type": "uint256"
        }
      ],
      "stateMutability": "view",
      "type": "function"
    },
    {
      "inputs": [],
      "name": "creationTime",
      "outputs": [
        {
          "internalType": "uint256",
          "name": "",
          "type": "uint256"
        }
      ],
      "stateMutability": "view",
      "type": "function"
    },
    {
      "inputs": [],
      "name": "description",
      "outputs": [
        {
          "internalType": "string",
          "name": "",
          "type": "string"
        }
      ],
      "stateMutability": "view",
      "type": "function"
    },
    {
      "inputs": [],
      "name": "getAllMintedTokens",
      "outputs": [
        {
          "internalType": "uint256[]",
          "name": "",
          "type": "uint256[]"
        }
      ],
      "stateMutability": "view",
      "type": "function"
    },
    {
      "inputs": [
        {
          "internalType": "uint256",
          "name": "tokenId",
          "type": "uint256"
        }
      ],
      "name": "getApproved",
      "outputs": [
        {
          "internalType": "address",
          "name": "",
          "type": "address"
        }
      ],
      "stateMutability": "view",
      "type": "function"
    },
    {
      "inputs": [
        {
          "internalType": "uint256",
          "name": "tokenId",
          "type": "uint256"
        }
      ],
      "name": "getClonePrice",
      "outputs": [
        {
          "internalType": "uint256",
          "name": "",
          "type": "uint256"
        }
      ],
      "stateMutability": "view",
      "type": "function"
    },
    {
      "inputs": [
        {
          "internalType": "uint256",
          "name": "tokenId",
          "type": "uint256"
        }
      ],
      "name": "getClonesOfOriginal",
      "outputs": [
        {
          "internalType": "uint256[]",
          "name": "",
          "type": "uint256[]"
        }
      ],
      "stateMutability": "view",
      "type": "function"
    },
    {
      "inputs": [],
      "name": "getContractCreator",
      "outputs": [
        {
          "internalType": "address",
          "name": "",
          "type": "address"
        }
      ],
      "stateMutability": "view",
      "type": "function"
    },
    {
      "inputs": [],
      "name": "getDefaultClonePrice",
      "outputs": [
        {
          "internalType": "uint256",
          "name": "",
          "type": "uint256"
        }
      ],
      "stateMutability": "view",
      "type": "function"
    },
    {
      "inputs": [
        {
          "internalType": "uint256",
          "name": "tokenId",
          "type": "uint256"
        }
      ],
      "name": "getHasClonePrice",
      "outputs": [
        {
          "internalType": "bool",
          "name": "",
          "type": "bool"
        }
      ],
      "stateMutability": "view",
      "type": "function"
    },
    {
      "inputs": [
        {
          "internalType": "uint256",
          "name": "tokenId",
          "type": "uint256"
        }
      ],
      "name": "getOriginal",
      "outputs": [
        {
          "internalType": "uint256",
          "name": "",
          "type": "uint256"
        }
      ],
      "stateMutability": "view",
      "type": "function"
    },
    {
      "inputs": [
        {
          "internalType": "address",
          "name": "owner",
          "type": "address"
        }
      ],
      "name": "getOwnedTokens",
      "outputs": [
        {
          "internalType": "uint256[]",
          "name": "",
          "type": "uint256[]"
        }
      ],
      "stateMutability": "view",
      "type": "function"
    },
    {
      "inputs": [
        {
          "internalType": "uint256",
          "name": "tokenId",
          "type": "uint256"
        }
      ],
      "name": "getTokenCreator",
      "outputs": [
        {
          "internalType": "address",
          "name": "",
          "type": "address"
        }
      ],
      "stateMutability": "view",
      "type": "function"
    },
    {
      "inputs": [
        {
          "internalType": "string",
          "name": "_url",
          "type": "string"
        }
      ],
      "name": "getTokenIdByUrl",
      "outputs": [
        {
          "internalType": "uint256",
          "name": "",
          "type": "uint256"
        }
      ],
      "stateMutability": "view",
      "type": "function"
    },
    {
      "inputs": [],
      "name": "getTotalMintClonedTokens",
      "outputs": [
        {
          "internalType": "uint256",
          "name": "",
          "type": "uint256"
        }
      ],
      "stateMutability": "view",
      "type": "function"
    },
    {
      "inputs": [],
      "name": "getTotalMintOriginalTokens",
      "outputs": [
        {
          "internalType": "uint256",
          "name": "",
          "type": "uint256"
        }
      ],
      "stateMutability": "view",
      "type": "function"
    },
    {
      "inputs": [],
      "name": "getTotalMintedTokens",
      "outputs": [
        {
          "internalType": "uint256",
          "name": "",
          "type": "uint256"
        }
      ],
      "stateMutability": "view",
      "type": "function"
    },
    {
      "inputs": [
        {
          "internalType": "address",
          "name": "owner",
          "type": "address"
        },
        {
          "internalType": "address",
          "name": "operator",
          "type": "address"
        }
      ],
      "name": "isApprovedForAll",
      "outputs": [
        {
          "internalType": "bool",
          "name": "",
          "type": "bool"
        }
      ],
      "stateMutability": "view",
      "type": "function"
    },
    {
      "inputs": [
        {
          "internalType": "uint256",
          "name": "tokenId",
          "type": "uint256"
        }
      ],
      "name": "isClone",
      "outputs": [
        {
          "internalType": "bool",
          "name": "",
          "type": "bool"
        }
      ],
      "stateMutability": "view",
      "type": "function"
    },
    {
      "inputs": [
        {
          "internalType": "uint256",
          "name": "tokenId",
          "type": "uint256"
        },
        {
          "internalType": "string",
          "name": "_tokenURI",
          "type": "string"
        }
      ],
      "name": "mintClone",
      "outputs": [],
      "stateMutability": "payable",
      "type": "function"
    },
    {
      "inputs": [
        {
          "internalType": "string",
          "name": "_tokenURI",
          "type": "string"
        },
        {
          "internalType": "string",
          "name": "_url",
          "type": "string"
        }
      ],
      "name": "mintNFT",
      "outputs": [],
      "stateMutability": "nonpayable",
      "type": "function"
    },
    {
      "inputs": [],
      "name": "name",
      "outputs": [
        {
          "internalType": "string",
          "name": "",
          "type": "string"
        }
      ],
      "stateMutability": "view",
      "type": "function"
    },
    {
      "inputs": [],
      "name": "owner",
      "outputs": [
        {
          "internalType": "address",
          "name": "",
          "type": "address"
        }
      ],
      "stateMutability": "view",
      "type": "function"
    },
    {
      "inputs": [
        {
          "internalType": "uint256",
          "name": "tokenId",
          "type": "uint256"
        }
      ],
      "name": "ownerOf",
      "outputs": [
        {
          "internalType": "address",
          "name": "",
          "type": "address"
        }
      ],
      "stateMutability": "view",
      "type": "function"
    },
    {
      "inputs": [],
      "name": "renounceOwnership",
      "outputs": [],
      "stateMutability": "nonpayable",
      "type": "function"
    },
    {
      "inputs": [
        {
          "internalType": "address",
          "name": "from",
          "type": "address"
        },
        {
          "internalType": "address",
          "name": "to",
          "type": "address"
        },
        {
          "internalType": "uint256",
          "name": "tokenId",
          "type": "uint256"
        }
      ],
      "name": "safeTransferFrom",
      "outputs": [],
      "stateMutability": "nonpayable",
      "type": "function"
    },
    {
      "inputs": [
        {
          "internalType": "address",
          "name": "from",
          "type": "address"
        },
        {
          "internalType": "address",
          "name": "to",
          "type": "address"
        },
        {
          "internalType": "uint256",
          "name": "tokenId",
          "type": "uint256"
        },
        {
          "internalType": "bytes",
          "name": "data",
          "type": "bytes"
        }
      ],
      "name": "safeTransferFrom",
      "outputs": [],
      "stateMutability": "nonpayable",
      "type": "function"
    },
    {
      "inputs": [
        {
          "internalType": "address",
          "name": "operator",
          "type": "address"
        },
        {
          "internalType": "bool",
          "name": "approved",
          "type": "bool"
        }
      ],
      "name": "setApprovalForAll",
      "outputs": [],
      "stateMutability": "nonpayable",
      "type": "function"
    },
    {
      "inputs": [
        {
          "internalType": "uint256",
          "name": "tokenId",
          "type": "uint256"
        },
        {
          "internalType": "uint256",
          "name": "newPrice",
          "type": "uint256"
        }
      ],
      "name": "setClonePrice",
      "outputs": [],
      "stateMutability": "nonpayable",
      "type": "function"
    },
    {
      "inputs": [
        {
          "internalType": "uint256",
          "name": "newPrice",
          "type": "uint256"
        }
      ],
      "name": "setDefaultClonePrice",
      "outputs": [],
      "stateMutability": "nonpayable",
      "type": "function"
    },
    {
      "inputs": [
        {
          "internalType": "string",
          "name": "_description",
          "type": "string"
        }
      ],
      "name": "setDescription",
      "outputs": [],
      "stateMutability": "nonpayable",
      "type": "function"
    },
    {
      "inputs": [
        {
          "internalType": "bytes4",
          "name": "interfaceId",
          "type": "bytes4"
        }
      ],
      "name": "supportsInterface",
      "outputs": [
        {
          "internalType": "bool",
          "name": "",
          "type": "bool"
        }
      ],
      "stateMutability": "view",
      "type": "function"
    },
    {
      "inputs": [],
      "name": "symbol",
      "outputs": [
        {
          "internalType": "string",
          "name": "",
          "type": "string"
        }
      ],
      "stateMutability": "view",
      "type": "function"
    },
    {
      "inputs": [
        {
          "internalType": "uint256",
          "name": "tokenId",
          "type": "uint256"
        }
      ],
      "name": "tokenURI",
      "outputs": [
        {
          "internalType": "string",
          "name": "",
          "type": "string"
        }
      ],
      "stateMutability": "view",
      "type": "function"
    },
    {
      "inputs": [
        {
          "internalType": "address",
          "name": "from",
          "type": "address"
        },
        {
          "internalType": "address",
          "name": "to",
          "type": "address"
        },
        {
          "internalType": "uint256",
          "name": "tokenId",
          "type": "uint256"
        }
      ],
      "name": "transferFrom",
      "outputs": [],
      "stateMutability": "nonpayable",
      "type": "function"
    },
    {
      "inputs": [
        {
          "internalType": "address",
          "name": "newOwner",
          "type": "address"
        }
      ],
      "name": "transferOwnership",
      "outputs": [],
      "stateMutability": "nonpayable",
      "type": "function"
    },
    {
      "inputs": [],
      "name": "withdraw",
      "outputs": [],
      "stateMutability": "nonpayable",
      "type": "function"
    }
  ],
  "bytecode": "0x60806040526000600b553480156200001657600080fd5b5060405162004c2038038062004c2083398181016040528101906200003c9190620002ec565b8282816000908051906020019062000056929190620001ca565b5080600190805190602001906200006f929190620001ca565b5050506200009262000086620000fc60201b60201c565b6200010460201b60201c565b33601260006101000a81548173ffffffffffffffffffffffffffffffffffffffff021916908373ffffffffffffffffffffffffffffffffffffffff1602179055504260098190555080600a9080519060200190620000f2929190620001ca565b50505050620004fd565b600033905090565b6000600760009054906101000a900473ffffffffffffffffffffffffffffffffffffffff16905081600760006101000a81548173ffffffffffffffffffffffffffffffffffffffff021916908373ffffffffffffffffffffffffffffffffffffffff1602179055508173ffffffffffffffffffffffffffffffffffffffff168173ffffffffffffffffffffffffffffffffffffffff167f8be0079c531659141344cd1fd0a4f28419497f9722a3daafe3b4186f6b6457e060405160405180910390a35050565b828054620001d89062000422565b90600052602060002090601f016020900481019282620001fc576000855562000248565b82601f106200021757805160ff191683800117855562000248565b8280016001018555821562000248579182015b82811115620002475782518255916020019190600101906200022a565b5b5090506200025791906200025b565b5090565b5b80821115620002765760008160009055506001016200025c565b5090565b6000620002916200028b84620003b6565b6200038d565b905082815260208101848484011115620002aa57600080fd5b620002b7848285620003ec565b509392505050565b600082601f830112620002d157600080fd5b8151620002e38482602086016200027a565b91505092915050565b6000806000606084860312156200030257600080fd5b600084015167ffffffffffffffff8111156200031d57600080fd5b6200032b86828701620002bf565b935050602084015167ffffffffffffffff8111156200034957600080fd5b6200035786828701620002bf565b925050604084015167ffffffffffffffff8111156200037557600080fd5b6200038386828701620002bf565b9150509250925092565b600062000399620003ac565b9050620003a7828262000458565b919050565b6000604051905090565b600067ffffffffffffffff821115620003d457620003d3620004bd565b5b620003df82620004ec565b9050602081019050919050565b60005b838110156200040c578082015181840152602081019050620003ef565b838111156200041c576000848401525b50505050565b600060028204905060018216806200043b57607f821691505b602082108114156200045257620004516200048e565b5b50919050565b6200046382620004ec565b810181811067ffffffffffffffff82111715620004855762000484620004bd565b5b80604052505050565b7f4e487b7100000000000000000000000000000000000000000000000000000000600052602260045260246000fd5b7f4e487b7100000000000000000000000000000000000000000000000000000000600052604160045260246000fd5b6000601f19601f8301169050919050565b614713806200050d6000396000f3fe6080604052600436106102255760003560e01c80637d5298b911610123578063c6af1122116100ab578063e96055441161006f578063e96055441461085a578063e985e9c514610883578063ef74248d146108c0578063f2fde38b146108e9578063f67a769c1461091257610225565b8063c6af11221461074d578063c87b56dd14610778578063d800fe45146107b5578063d8270dce146107f2578063d9d616551461081d57610225565b806395d89b41116100f257806395d89b4114610656578063a22cb46514610681578063b88d4fde146106aa578063bc8c778f146106d3578063c144dd2a1461071057610225565b80637d5298b91461059a5780638da5cb5b146105c557806390c3f38f146105f0578063934689a91461061957610225565b80632aa2e90a116101b15780636352211e116101755780636352211e146104a1578063639032cc146104de57806370a082311461051b578063715018a6146105585780637284e4161461056f57610225565b80632aa2e90a146103dd578063385eda9c146103f95780633ccfd60b1461043657806342842e0e1461044d5780634da6de3f1461047657610225565b8063095ea7b3116101f8578063095ea7b3146102fa5780630e258726146103235780631741f3e21461034e5780631a2b285e1461038b57806323b872dd146103b457610225565b806301ffc9a71461022a57806306fdde0314610267578063080b017914610292578063081812fc146102bd575b600080fd5b34801561023657600080fd5b50610251600480360381019061024c9190613407565b61093d565b60405161025e9190613ada565b60405180910390f35b34801561027357600080fd5b5061027c610a1f565b6040516102899190613af5565b60405180910390f35b34801561029e57600080fd5b506102a7610ab1565b6040516102b49190613ab8565b60405180910390f35b3480156102c957600080fd5b506102e460048036038101906102df9190613506565b610b09565b6040516102f19190613a51565b60405180910390f35b34801561030657600080fd5b50610321600480360381019061031c91906133cb565b610b4f565b005b34801561032f57600080fd5b50610338610c67565b6040516103459190613a51565b60405180910390f35b34801561035a57600080fd5b5061037560048036038101906103709190613459565b610c91565b6040516103829190613dd7565b60405180910390f35b34801561039757600080fd5b506103b260048036038101906103ad9190613506565b610d1a565b005b3480156103c057600080fd5b506103db60048036038101906103d691906132c5565b610d2c565b005b6103f760048036038101906103f2919061352f565b610d8c565b005b34801561040557600080fd5b50610420600480360381019061041b9190613506565b61105c565b60405161042d9190613ada565b60405180910390f35b34801561044257600080fd5b5061044b611086565b005b34801561045957600080fd5b50610474600480360381019061046f91906132c5565b6110de565b005b34801561048257600080fd5b5061048b6110fe565b6040516104989190613dd7565b60405180910390f35b3480156104ad57600080fd5b506104c860048036038101906104c39190613506565b611108565b6040516104d59190613a51565b60405180910390f35b3480156104ea57600080fd5b5061050560048036038101906105009190613506565b61118f565b6040516105129190613ab8565b60405180910390f35b34801561052757600080fd5b50610542600480360381019061053d9190613260565b61125b565b60405161054f9190613dd7565b60405180910390f35b34801561056457600080fd5b5061056d611313565b005b34801561057b57600080fd5b50610584611327565b6040516105919190613af5565b60405180910390f35b3480156105a657600080fd5b506105af6113b5565b6040516105bc9190613dd7565b60405180910390f35b3480156105d157600080fd5b506105da6113bf565b6040516105e79190613a51565b60405180910390f35b3480156105fc57600080fd5b5061061760048036038101906106129190613459565b6113e9565b005b34801561062557600080fd5b50610640600480360381019061063b9190613506565b61140b565b60405161064d9190613a51565b60405180910390f35b34801561066257600080fd5b5061066b611490565b6040516106789190613af5565b60405180910390f35b34801561068d57600080fd5b506106a860048036038101906106a3919061338f565b611522565b005b3480156106b657600080fd5b506106d160048036038101906106cc9190613314565b611538565b005b3480156106df57600080fd5b506106fa60048036038101906106f59190613506565b61159a565b6040516107079190613dd7565b60405180910390f35b34801561071c57600080fd5b5061073760048036038101906107329190613506565b611617565b6040516107449190613ada565b60405180910390f35b34801561075957600080fd5b50610762611689565b60405161076f9190613dd7565b60405180910390f35b34801561078457600080fd5b5061079f600480360381019061079a9190613506565b611693565b6040516107ac9190613af5565b60405180910390f35b3480156107c157600080fd5b506107dc60048036038101906107d79190613506565b6116a5565b6040516107e99190613dd7565b60405180910390f35b3480156107fe57600080fd5b506108076116c2565b6040516108149190613dd7565b60405180910390f35b34801561082957600080fd5b50610844600480360381019061083f9190613260565b6116c8565b6040516108519190613ab8565b60405180910390f35b34801561086657600080fd5b50610881600480360381019061087c919061349a565b61175f565b005b34801561088f57600080fd5b506108aa60048036038101906108a59190613289565b61194e565b6040516108b79190613ada565b60405180910390f35b3480156108cc57600080fd5b506108e760048036038101906108e29190613583565b6119e2565b005b3480156108f557600080fd5b50610910600480360381019061090b9190613260565b611a32565b005b34801561091e57600080fd5b50610927611ab6565b6040516109349190613dd7565b60405180910390f35b60007f80ac58cd000000000000000000000000000000000000000000000000000000007bffffffffffffffffffffffffffffffffffffffffffffffffffffffff1916827bffffffffffffffffffffffffffffffffffffffffffffffffffffffff19161480610a0857507f5b5e139f000000000000000000000000000000000000000000000000000000007bffffffffffffffffffffffffffffffffffffffffffffffffffffffff1916827bffffffffffffffffffffffffffffffffffffffffffffffffffffffff1916145b80610a185750610a1782611acd565b5b9050919050565b606060008054610a2e90614035565b80601f0160208091040260200160405190810160405280929190818152602001828054610a5a90614035565b8015610aa75780601f10610a7c57610100808354040283529160200191610aa7565b820191906000526020600020905b815481529060010190602001808311610a8a57829003601f168201915b5050505050905090565b60606015805480602002602001604051908101604052809291908181526020018280548015610aff57602002820191906000526020600020905b815481526020019060010190808311610aeb575b5050505050905090565b6000610b1482611b37565b6004600083815260200190815260200160002060009054906101000a900473ffffffffffffffffffffffffffffffffffffffff169050919050565b6000610b5a82611108565b90508073ffffffffffffffffffffffffffffffffffffffff168373ffffffffffffffffffffffffffffffffffffffff161415610bcb576040517f08c379a0000000000000000000000000000000000000000000000000000000008152600401610bc290613d97565b60405180910390fd5b8073ffffffffffffffffffffffffffffffffffffffff16610bea611b82565b73ffffffffffffffffffffffffffffffffffffffff161480610c195750610c1881610c13611b82565b61194e565b5b610c58576040517f08c379a0000000000000000000000000000000000000000000000000000000008152600401610c4f90613db7565b60405180910390fd5b610c628383611b8a565b505050565b6000601260009054906101000a900473ffffffffffffffffffffffffffffffffffffffff16905090565b600080601083604051610ca49190613a16565b9081526020016040518091039020541415610cf4576040517f08c379a0000000000000000000000000000000000000000000000000000000008152600401610ceb90613d57565b60405180910390fd5b601082604051610d049190613a16565b9081526020016040518091039020549050919050565b610d22611c43565b80600b8190555050565b610d3d610d37611b82565b82611cc1565b610d7c576040517f08c379a0000000000000000000000000000000000000000000000000000000008152600401610d7390613b17565b60405180910390fd5b610d87838383611d56565b505050565b610d958261209b565b610dd4576040517f08c379a0000000000000000000000000000000000000000000000000000000008152600401610dcb90613d77565b60405180910390fd5b600c600083815260200190815260200160002060009054906101000a900460ff1615610e35576040517f08c379a0000000000000000000000000000000000000000000000000000000008152600401610e2c90613c17565b60405180910390fd5b600080600e60008581526020019081526020016000205411610e5957600b54610e6e565b600e6000848152602001908152602001600020545b905080341015610eb3576040517f08c379a0000000000000000000000000000000000000000000000000000000008152600401610eaa90613c37565b60405180910390fd5b610ebd60086120dc565b6000610ec960086120f2565b9050610ed53382612100565b6001600c600083815260200190815260200160002060006101000a81548160ff02191690831515021790555083600d600083815260200190815260200160002081905550610f23818461211e565b60146000858152602001908152602001600020819080600181540180825580915050600190039060005260206000200160009091909190915055601360003373ffffffffffffffffffffffffffffffffffffffff1673ffffffffffffffffffffffffffffffffffffffff168152602001908152602001600020819080600181540180825580915050600190039060005260206000200160009091909190915055601581908060018154018082558091505060019003906000526020600020016000909190919091505560176000815480929190610fff90614098565b9190505550336011600083815260200190815260200160002060006101000a81548173ffffffffffffffffffffffffffffffffffffffff021916908373ffffffffffffffffffffffffffffffffffffffff16021790555050505050565b6000600c600083815260200190815260200160002060009054906101000a900460ff169050919050565b61108e611c43565b6110966113bf565b73ffffffffffffffffffffffffffffffffffffffff166108fc479081150290604051600060405180830381858888f193505050501580156110db573d6000803e3d6000fd5b50565b6110f983838360405180602001604052806000815250611538565b505050565b6000601654905090565b60008061111483612192565b9050600073ffffffffffffffffffffffffffffffffffffffff168173ffffffffffffffffffffffffffffffffffffffff161415611186576040517f08c379a000000000000000000000000000000000000000000000000000000000815260040161117d90613d37565b60405180910390fd5b80915050919050565b6060600c600083815260200190815260200160002060009054906101000a900460ff16156111f2576040517f08c379a00000000000000000000000000000000000000000000000000000000081526004016111e990613b37565b60405180910390fd5b6014600083815260200190815260200160002080548060200260200160405190810160405280929190818152602001828054801561124f57602002820191906000526020600020905b81548152602001906001019080831161123b575b50505050509050919050565b60008073ffffffffffffffffffffffffffffffffffffffff168273ffffffffffffffffffffffffffffffffffffffff1614156112cc576040517f08c379a00000000000000000000000000000000000000000000000000000000081526004016112c390613c97565b60405180910390fd5b600360008373ffffffffffffffffffffffffffffffffffffffff1673ffffffffffffffffffffffffffffffffffffffff168152602001908152602001600020549050919050565b61131b611c43565b61132560006121cf565b565b600a805461133490614035565b80601f016020809104026020016040519081016040528092919081815260200182805461136090614035565b80156113ad5780601f10611382576101008083540402835291602001916113ad565b820191906000526020600020905b81548152906001019060200180831161139057829003601f168201915b505050505081565b6000601754905090565b6000600760009054906101000a900473ffffffffffffffffffffffffffffffffffffffff16905090565b6113f1611c43565b80600a9080519060200190611407929190613084565b5050565b60006114168261209b565b611455576040517f08c379a000000000000000000000000000000000000000000000000000000000815260040161144c90613c57565b60405180910390fd5b6011600083815260200190815260200160002060009054906101000a900473ffffffffffffffffffffffffffffffffffffffff169050919050565b60606001805461149f90614035565b80601f01602080910402602001604051908101604052809291908181526020018280546114cb90614035565b80156115185780601f106114ed57610100808354040283529160200191611518565b820191906000526020600020905b8154815290600101906020018083116114fb57829003601f168201915b5050505050905090565b61153461152d611b82565b8383612295565b5050565b611549611543611b82565b83611cc1565b611588576040517f08c379a000000000000000000000000000000000000000000000000000000000815260040161157f90613b17565b60405180910390fd5b61159484848484612402565b50505050565b6000600c600083815260200190815260200160002060009054906101000a900460ff166115fc576040517f08c379a00000000000000000000000000000000000000000000000000000000081526004016115f390613c77565b60405180910390fd5b600d6000838152602001908152602001600020549050919050565b60006116228261209b565b611661576040517f08c379a000000000000000000000000000000000000000000000000000000000815260040161165890613c57565b60405180910390fd5b600f600083815260200190815260200160002060009054906101000a900460ff169050919050565b6000600b54905090565b606061169e8261245e565b9050919050565b6000600e6000838152602001908152602001600020549050919050565b60095481565b6060601360008373ffffffffffffffffffffffffffffffffffffffff1673ffffffffffffffffffffffffffffffffffffffff16815260200190815260200160002080548060200260200160405190810160405280929190818152602001828054801561175357602002820191906000526020600020905b81548152602001906001019080831161173f575b50505050509050919050565b611767611c43565b60006010826040516117799190613a16565b908152602001604051809103902054146117c8576040517f08c379a00000000000000000000000000000000000000000000000000000000081526004016117bf90613cd7565b60405180910390fd5b6117d260086120dc565b60006117dc6113bf565b905060006117ea60086120f2565b90506117f68282612571565b6000600c600083815260200190815260200160002060006101000a81548160ff02191690831515021790555061182c818561211e565b8060108460405161183d9190613a16565b908152602001604051809103902081905550601360008373ffffffffffffffffffffffffffffffffffffffff1673ffffffffffffffffffffffffffffffffffffffff1681526020019081526020016000208190806001815401808255809150506001900390600052602060002001600090919091909150556015819080600181540180825580915050600190039060005260206000200160009091909190915055601660008154809291906118f190614098565b9190505550816011600083815260200190815260200160002060006101000a81548173ffffffffffffffffffffffffffffffffffffffff021916908373ffffffffffffffffffffffffffffffffffffffff16021790555050505050565b6000600560008473ffffffffffffffffffffffffffffffffffffffff1673ffffffffffffffffffffffffffffffffffffffff16815260200190815260200160002060008373ffffffffffffffffffffffffffffffffffffffff1673ffffffffffffffffffffffffffffffffffffffff16815260200190815260200160002060009054906101000a900460ff16905092915050565b6119ea611c43565b6001600f600084815260200190815260200160002060006101000a81548160ff02191690831515021790555080600e6000848152602001908152602001600020819055505050565b611a3a611c43565b600073ffffffffffffffffffffffffffffffffffffffff168173ffffffffffffffffffffffffffffffffffffffff161415611aaa576040517f08c379a0000000000000000000000000000000000000000000000000000000008152600401611aa190613b77565b60405180910390fd5b611ab3816121cf565b50565b6000601754601654611ac89190613ef5565b905090565b60007f01ffc9a7000000000000000000000000000000000000000000000000000000007bffffffffffffffffffffffffffffffffffffffffffffffffffffffff1916827bffffffffffffffffffffffffffffffffffffffffffffffffffffffff1916149050919050565b611b408161209b565b611b7f576040517f08c379a0000000000000000000000000000000000000000000000000000000008152600401611b7690613d37565b60405180910390fd5b50565b600033905090565b816004600083815260200190815260200160002060006101000a81548173ffffffffffffffffffffffffffffffffffffffff021916908373ffffffffffffffffffffffffffffffffffffffff160217905550808273ffffffffffffffffffffffffffffffffffffffff16611bfd83611108565b73ffffffffffffffffffffffffffffffffffffffff167f8c5be1e5ebec7d5bd14f71427d1e84f3dd0314c0f7b2291e5b200ac8c7c3b92560405160405180910390a45050565b611c4b611b82565b73ffffffffffffffffffffffffffffffffffffffff16611c696113bf565b73ffffffffffffffffffffffffffffffffffffffff1614611cbf576040517f08c379a0000000000000000000000000000000000000000000000000000000008152600401611cb690613d17565b60405180910390fd5b565b600080611ccd83611108565b90508073ffffffffffffffffffffffffffffffffffffffff168473ffffffffffffffffffffffffffffffffffffffff161480611d0f5750611d0e818561194e565b5b80611d4d57508373ffffffffffffffffffffffffffffffffffffffff16611d3584610b09565b73ffffffffffffffffffffffffffffffffffffffff16145b91505092915050565b611d6183838361278f565b60005b601360008573ffffffffffffffffffffffffffffffffffffffff1673ffffffffffffffffffffffffffffffffffffffff1681526020019081526020016000208054905081101561202f5781601360008673ffffffffffffffffffffffffffffffffffffffff1673ffffffffffffffffffffffffffffffffffffffff1681526020019081526020016000208281548110611e26577f4e487b7100000000000000000000000000000000000000000000000000000000600052603260045260246000fd5b9060005260206000200154141561201c57601360008573ffffffffffffffffffffffffffffffffffffffff1673ffffffffffffffffffffffffffffffffffffffff1681526020019081526020016000206001601360008773ffffffffffffffffffffffffffffffffffffffff1673ffffffffffffffffffffffffffffffffffffffff16815260200190815260200160002080549050611ec59190613f4b565b81548110611efc577f4e487b7100000000000000000000000000000000000000000000000000000000600052603260045260246000fd5b9060005260206000200154601360008673ffffffffffffffffffffffffffffffffffffffff1673ffffffffffffffffffffffffffffffffffffffff1681526020019081526020016000208281548110611f7e577f4e487b7100000000000000000000000000000000000000000000000000000000600052603260045260246000fd5b9060005260206000200181905550601360008573ffffffffffffffffffffffffffffffffffffffff1673ffffffffffffffffffffffffffffffffffffffff168152602001908152602001600020805480612001577f4e487b7100000000000000000000000000000000000000000000000000000000600052603160045260246000fd5b6001900381819060005260206000200160009055905561202f565b808061202790614098565b915050611d64565b50601360008373ffffffffffffffffffffffffffffffffffffffff1673ffffffffffffffffffffffffffffffffffffffff168152602001908152602001600020819080600181540180825580915050600190039060005260206000200160009091909190915055505050565b60008073ffffffffffffffffffffffffffffffffffffffff166120bd83612192565b73ffffffffffffffffffffffffffffffffffffffff1614159050919050565b6001816000016000828254019250508190555050565b600081600001549050919050565b61211a828260405180602001604052806000815250612a89565b5050565b6121278261209b565b612166576040517f08c379a000000000000000000000000000000000000000000000000000000000815260040161215d90613cb7565b60405180910390fd5b8060066000848152602001908152602001600020908051906020019061218d929190613084565b505050565b60006002600083815260200190815260200160002060009054906101000a900473ffffffffffffffffffffffffffffffffffffffff169050919050565b6000600760009054906101000a900473ffffffffffffffffffffffffffffffffffffffff16905081600760006101000a81548173ffffffffffffffffffffffffffffffffffffffff021916908373ffffffffffffffffffffffffffffffffffffffff1602179055508173ffffffffffffffffffffffffffffffffffffffff168173ffffffffffffffffffffffffffffffffffffffff167f8be0079c531659141344cd1fd0a4f28419497f9722a3daafe3b4186f6b6457e060405160405180910390a35050565b8173ffffffffffffffffffffffffffffffffffffffff168373ffffffffffffffffffffffffffffffffffffffff161415612304576040517f08c379a00000000000000000000000000000000000000000000000000000000081526004016122fb90613bf7565b60405180910390fd5b80600560008573ffffffffffffffffffffffffffffffffffffffff1673ffffffffffffffffffffffffffffffffffffffff16815260200190815260200160002060008473ffffffffffffffffffffffffffffffffffffffff1673ffffffffffffffffffffffffffffffffffffffff16815260200190815260200160002060006101000a81548160ff0219169083151502179055508173ffffffffffffffffffffffffffffffffffffffff168373ffffffffffffffffffffffffffffffffffffffff167f17307eab39ab6107e8899845ad3d59bd9653f200f220920489ca2b5937696c31836040516123f59190613ada565b60405180910390a3505050565b61240d848484611d56565b61241984848484612ae4565b612458576040517f08c379a000000000000000000000000000000000000000000000000000000000815260040161244f90613b57565b60405180910390fd5b50505050565b606061246982611b37565b600060066000848152602001908152602001600020805461248990614035565b80601f01602080910402602001604051908101604052809291908181526020018280546124b590614035565b80156125025780601f106124d757610100808354040283529160200191612502565b820191906000526020600020905b8154815290600101906020018083116124e557829003601f168201915b505050505090506000612513612c7b565b905060008151141561252957819250505061256c565b60008251111561255e578082604051602001612546929190613a2d565b6040516020818303038152906040529250505061256c565b61256784612c92565b925050505b919050565b600073ffffffffffffffffffffffffffffffffffffffff168273ffffffffffffffffffffffffffffffffffffffff1614156125e1576040517f08c379a00000000000000000000000000000000000000000000000000000000081526004016125d890613cf7565b60405180910390fd5b6125ea8161209b565b1561262a576040517f08c379a000000000000000000000000000000000000000000000000000000000815260040161262190613bb7565b60405180910390fd5b612638600083836001612cfa565b6126418161209b565b15612681576040517f08c379a000000000000000000000000000000000000000000000000000000000815260040161267890613bb7565b60405180910390fd5b6001600360008473ffffffffffffffffffffffffffffffffffffffff1673ffffffffffffffffffffffffffffffffffffffff16815260200190815260200160002060008282540192505081905550816002600083815260200190815260200160002060006101000a81548173ffffffffffffffffffffffffffffffffffffffff021916908373ffffffffffffffffffffffffffffffffffffffff160217905550808273ffffffffffffffffffffffffffffffffffffffff16600073ffffffffffffffffffffffffffffffffffffffff167fddf252ad1be2c89b69c2b068fc378daa952ba7f163c4a11628f55a4df523b3ef60405160405180910390a461278b600083836001612d00565b5050565b8273ffffffffffffffffffffffffffffffffffffffff166127af82611108565b73ffffffffffffffffffffffffffffffffffffffff1614612805576040517f08c379a00000000000000000000000000000000000000000000000000000000081526004016127fc90613b97565b60405180910390fd5b600073ffffffffffffffffffffffffffffffffffffffff168273ffffffffffffffffffffffffffffffffffffffff161415612875576040517f08c379a000000000000000000000000000000000000000000000000000000000815260040161286c90613bd7565b60405180910390fd5b6128828383836001612cfa565b8273ffffffffffffffffffffffffffffffffffffffff166128a282611108565b73ffffffffffffffffffffffffffffffffffffffff16146128f8576040517f08c379a00000000000000000000000000000000000000000000000000000000081526004016128ef90613b97565b60405180910390fd5b6004600082815260200190815260200160002060006101000a81549073ffffffffffffffffffffffffffffffffffffffff02191690556001600360008573ffffffffffffffffffffffffffffffffffffffff1673ffffffffffffffffffffffffffffffffffffffff168152602001908152602001600020600082825403925050819055506001600360008473ffffffffffffffffffffffffffffffffffffffff1673ffffffffffffffffffffffffffffffffffffffff16815260200190815260200160002060008282540192505081905550816002600083815260200190815260200160002060006101000a81548173ffffffffffffffffffffffffffffffffffffffff021916908373ffffffffffffffffffffffffffffffffffffffff160217905550808273ffffffffffffffffffffffffffffffffffffffff168473ffffffffffffffffffffffffffffffffffffffff167fddf252ad1be2c89b69c2b068fc378daa952ba7f163c4a11628f55a4df523b3ef60405160405180910390a4612a848383836001612d00565b505050565b612a938383612571565b612aa06000848484612ae4565b612adf576040517f08c379a0000000000000000000000000000000000000000000000000000000008152600401612ad690613b57565b60405180910390fd5b505050565b6000612b058473ffffffffffffffffffffffffffffffffffffffff16612d06565b15612c6e578373ffffffffffffffffffffffffffffffffffffffff1663150b7a02612b2e611b82565b8786866040518563ffffffff1660e01b8152600401612b509493929190613a6c565b602060405180830381600087803b158015612b6a57600080fd5b505af1925050508015612b9b57506040513d601f19601f82011682018060405250810190612b989190613430565b60015b612c1e573d8060008114612bcb576040519150601f19603f3d011682016040523d82523d6000602084013e612bd0565b606091505b50600081511415612c16576040517f08c379a0000000000000000000000000000000000000000000000000000000008152600401612c0d90613b57565b60405180910390fd5b805181602001fd5b63150b7a0260e01b7bffffffffffffffffffffffffffffffffffffffffffffffffffffffff1916817bffffffffffffffffffffffffffffffffffffffffffffffffffffffff191614915050612c73565b600190505b949350505050565b606060405180602001604052806000815250905090565b6060612c9d82611b37565b6000612ca7612c7b565b90506000815111612cc75760405180602001604052806000815250612cf2565b80612cd184612d29565b604051602001612ce2929190613a2d565b6040516020818303038152906040525b915050919050565b50505050565b50505050565b6000808273ffffffffffffffffffffffffffffffffffffffff163b119050919050565b606060006001612d3884612e4d565b01905060008167ffffffffffffffff811115612d7d577f4e487b7100000000000000000000000000000000000000000000000000000000600052604160045260246000fd5b6040519080825280601f01601f191660200182016040528015612daf5781602001600182028036833780820191505090505b509050600082602001820190505b600115612e42578080600190039150507f3031323334353637383961626364656600000000000000000000000000000000600a86061a8153600a8581612e2c577f4e487b7100000000000000000000000000000000000000000000000000000000600052601260045260246000fd5b0494506000851415612e3d57612e42565b612dbd565b819350505050919050565b600080600090507a184f03e93ff9f4daa797ed6e38ed64bf6a1f0100000000000000008310612ed1577a184f03e93ff9f4daa797ed6e38ed64bf6a1f0100000000000000008381612ec7577f4e487b7100000000000000000000000000000000000000000000000000000000600052601260045260246000fd5b0492506040810190505b6d04ee2d6d415b85acef81000000008310612f34576d04ee2d6d415b85acef81000000008381612f2a577f4e487b7100000000000000000000000000000000000000000000000000000000600052601260045260246000fd5b0492506020810190505b662386f26fc100008310612f8957662386f26fc100008381612f7f577f4e487b7100000000000000000000000000000000000000000000000000000000600052601260045260246000fd5b0492506010810190505b6305f5e1008310612fd8576305f5e1008381612fce577f4e487b7100000000000000000000000000000000000000000000000000000000600052601260045260246000fd5b0492506008810190505b6127108310613023576127108381613019577f4e487b7100000000000000000000000000000000000000000000000000000000600052601260045260246000fd5b0492506004810190505b6064831061306c5760648381613062577f4e487b7100000000000000000000000000000000000000000000000000000000600052601260045260246000fd5b0492506002810190505b600a831061307b576001810190505b80915050919050565b82805461309090614035565b90600052602060002090601f0160209004810192826130b257600085556130f9565b82601f106130cb57805160ff19168380011785556130f9565b828001600101855582156130f9579182015b828111156130f85782518255916020019190600101906130dd565b5b509050613106919061310a565b5090565b5b8082111561312357600081600090555060010161310b565b5090565b600061313a61313584613e17565b613df2565b90508281526020810184848401111561315257600080fd5b61315d848285613ff3565b509392505050565b600061317861317384613e48565b613df2565b90508281526020810184848401111561319057600080fd5b61319b848285613ff3565b509392505050565b6000813590506131b281614681565b92915050565b6000813590506131c781614698565b92915050565b6000813590506131dc816146af565b92915050565b6000815190506131f1816146af565b92915050565b600082601f83011261320857600080fd5b8135613218848260208601613127565b91505092915050565b600082601f83011261323257600080fd5b8135613242848260208601613165565b91505092915050565b60008135905061325a816146c6565b92915050565b60006020828403121561327257600080fd5b6000613280848285016131a3565b91505092915050565b6000806040838503121561329c57600080fd5b60006132aa858286016131a3565b92505060206132bb858286016131a3565b9150509250929050565b6000806000606084860312156132da57600080fd5b60006132e8868287016131a3565b93505060206132f9868287016131a3565b925050604061330a8682870161324b565b9150509250925092565b6000806000806080858703121561332a57600080fd5b6000613338878288016131a3565b9450506020613349878288016131a3565b935050604061335a8782880161324b565b925050606085013567ffffffffffffffff81111561337757600080fd5b613383878288016131f7565b91505092959194509250565b600080604083850312156133a257600080fd5b60006133b0858286016131a3565b92505060206133c1858286016131b8565b9150509250929050565b600080604083850312156133de57600080fd5b60006133ec858286016131a3565b92505060206133fd8582860161324b565b9150509250929050565b60006020828403121561341957600080fd5b6000613427848285016131cd565b91505092915050565b60006020828403121561344257600080fd5b6000613450848285016131e2565b91505092915050565b60006020828403121561346b57600080fd5b600082013567ffffffffffffffff81111561348557600080fd5b61349184828501613221565b91505092915050565b600080604083850312156134ad57600080fd5b600083013567ffffffffffffffff8111156134c757600080fd5b6134d385828601613221565b925050602083013567ffffffffffffffff8111156134f057600080fd5b6134fc85828601613221565b9150509250929050565b60006020828403121561351857600080fd5b60006135268482850161324b565b91505092915050565b6000806040838503121561354257600080fd5b60006135508582860161324b565b925050602083013567ffffffffffffffff81111561356d57600080fd5b61357985828601613221565b9150509250929050565b6000806040838503121561359657600080fd5b60006135a48582860161324b565b92505060206135b58582860161324b565b9150509250929050565b60006135cb83836139f8565b60208301905092915050565b6135e081613f7f565b82525050565b60006135f182613e89565b6135fb8185613eb7565b935061360683613e79565b8060005b8381101561363757815161361e88826135bf565b975061362983613eaa565b92505060018101905061360a565b5085935050505092915050565b61364d81613f91565b82525050565b600061365e82613e94565b6136688185613ec8565b9350613678818560208601614002565b6136818161416e565b840191505092915050565b600061369782613e9f565b6136a18185613ed9565b93506136b1818560208601614002565b6136ba8161416e565b840191505092915050565b60006136d082613e9f565b6136da8185613eea565b93506136ea818560208601614002565b80840191505092915050565b6000613703602d83613ed9565b915061370e8261417f565b604082019050919050565b6000613726602183613ed9565b9150613731826141ce565b604082019050919050565b6000613749603283613ed9565b91506137548261421d565b604082019050919050565b600061376c602683613ed9565b91506137778261426c565b604082019050919050565b600061378f602583613ed9565b915061379a826142bb565b604082019050919050565b60006137b2601c83613ed9565b91506137bd8261430a565b602082019050919050565b60006137d5602483613ed9565b91506137e082614333565b604082019050919050565b60006137f8601983613ed9565b915061380382614382565b602082019050919050565b600061381b601483613ed9565b9150613826826143ab565b602082019050919050565b600061383e602083613ed9565b9150613849826143d4565b602082019050919050565b6000613861601483613ed9565b915061386c826143fd565b602082019050919050565b6000613884601483613ed9565b915061388f82614426565b602082019050919050565b60006138a7602983613ed9565b91506138b28261444f565b604082019050919050565b60006138ca602e83613ed9565b91506138d58261449e565b604082019050919050565b60006138ed601283613ed9565b91506138f8826144ed565b602082019050919050565b6000613910602083613ed9565b915061391b82614516565b602082019050919050565b6000613933602083613ed9565b915061393e8261453f565b602082019050919050565b6000613956601883613ed9565b915061396182614568565b602082019050919050565b6000613979601283613ed9565b915061398482614591565b602082019050919050565b600061399c601083613ed9565b91506139a7826145ba565b602082019050919050565b60006139bf602183613ed9565b91506139ca826145e3565b604082019050919050565b60006139e2603d83613ed9565b91506139ed82614632565b604082019050919050565b613a0181613fe9565b82525050565b613a1081613fe9565b82525050565b6000613a2282846136c5565b915081905092915050565b6000613a3982856136c5565b9150613a4582846136c5565b91508190509392505050565b6000602082019050613a6660008301846135d7565b92915050565b6000608082019050613a8160008301876135d7565b613a8e60208301866135d7565b613a9b6040830185613a07565b8181036060830152613aad8184613653565b905095945050505050565b60006020820190508181036000830152613ad281846135e6565b905092915050565b6000602082019050613aef6000830184613644565b92915050565b60006020820190508181036000830152613b0f818461368c565b905092915050565b60006020820190508181036000830152613b30816136f6565b9050919050565b60006020820190508181036000830152613b5081613719565b9050919050565b60006020820190508181036000830152613b708161373c565b9050919050565b60006020820190508181036000830152613b908161375f565b9050919050565b60006020820190508181036000830152613bb081613782565b9050919050565b60006020820190508181036000830152613bd0816137a5565b9050919050565b60006020820190508181036000830152613bf0816137c8565b9050919050565b60006020820190508181036000830152613c10816137eb565b9050919050565b60006020820190508181036000830152613c308161380e565b9050919050565b60006020820190508181036000830152613c5081613831565b9050919050565b60006020820190508181036000830152613c7081613854565b9050919050565b60006020820190508181036000830152613c9081613877565b9050919050565b60006020820190508181036000830152613cb08161389a565b9050919050565b60006020820190508181036000830152613cd0816138bd565b9050919050565b60006020820190508181036000830152613cf0816138e0565b9050919050565b60006020820190508181036000830152613d1081613903565b9050919050565b60006020820190508181036000830152613d3081613926565b9050919050565b60006020820190508181036000830152613d5081613949565b9050919050565b60006020820190508181036000830152613d708161396c565b9050919050565b60006020820190508181036000830152613d908161398f565b9050919050565b60006020820190508181036000830152613db0816139b2565b9050919050565b60006020820190508181036000830152613dd0816139d5565b9050919050565b6000602082019050613dec6000830184613a07565b92915050565b6000613dfc613e0d565b9050613e088282614067565b919050565b6000604051905090565b600067ffffffffffffffff821115613e3257613e3161413f565b5b613e3b8261416e565b9050602081019050919050565b600067ffffffffffffffff821115613e6357613e6261413f565b5b613e6c8261416e565b9050602081019050919050565b6000819050602082019050919050565b600081519050919050565b600081519050919050565b600081519050919050565b6000602082019050919050565b600082825260208201905092915050565b600082825260208201905092915050565b600082825260208201905092915050565b600081905092915050565b6000613f0082613fe9565b9150613f0b83613fe9565b9250827fffffffffffffffffffffffffffffffffffffffffffffffffffffffffffffffff03821115613f4057613f3f6140e1565b5b828201905092915050565b6000613f5682613fe9565b9150613f6183613fe9565b925082821015613f7457613f736140e1565b5b828203905092915050565b6000613f8a82613fc9565b9050919050565b60008115159050919050565b60007fffffffff0000000000000000000000000000000000000000000000000000000082169050919050565b600073ffffffffffffffffffffffffffffffffffffffff82169050919050565b6000819050919050565b82818337600083830152505050565b60005b83811015614020578082015181840152602081019050614005565b8381111561402f576000848401525b50505050565b6000600282049050600182168061404d57607f821691505b6020821081141561406157614060614110565b5b50919050565b6140708261416e565b810181811067ffffffffffffffff8211171561408f5761408e61413f565b5b80604052505050565b60006140a382613fe9565b91507fffffffffffffffffffffffffffffffffffffffffffffffffffffffffffffffff8214156140d6576140d56140e1565b5b600182019050919050565b7f4e487b7100000000000000000000000000000000000000000000000000000000600052601160045260246000fd5b7f4e487b7100000000000000000000000000000000000000000000000000000000600052602260045260246000fd5b7f4e487b7100000000000000000000000000000000000000000000000000000000600052604160045260246000fd5b6000601f19601f8301169050919050565b7f4552433732313a2063616c6c6572206973206e6f7420746f6b656e206f776e6560008201527f72206f7220617070726f76656400000000000000000000000000000000000000602082015250565b7f546f6b656e206973206120636c6f6e652c206e6f7420616e206f726967696e6160008201527f6c00000000000000000000000000000000000000000000000000000000000000602082015250565b7f4552433732313a207472616e7366657220746f206e6f6e20455243373231526560008201527f63656976657220696d706c656d656e7465720000000000000000000000000000602082015250565b7f4f776e61626c653a206e6577206f776e657220697320746865207a65726f206160008201527f6464726573730000000000000000000000000000000000000000000000000000602082015250565b7f4552433732313a207472616e736665722066726f6d20696e636f72726563742060008201527f6f776e6572000000000000000000000000000000000000000000000000000000602082015250565b7f4552433732313a20746f6b656e20616c7265616479206d696e74656400000000600082015250565b7f4552433732313a207472616e7366657220746f20746865207a65726f2061646460008201527f7265737300000000000000000000000000000000000000000000000000000000602082015250565b7f4552433732313a20617070726f766520746f2063616c6c657200000000000000600082015250565b7f43616e6e6f7420636c6f6e65206120636c6f6e65000000000000000000000000600082015250565b7f496e73756666696369656e742066756e647320746f206d696e7420636c6f6e65600082015250565b7f546f6b656e20646f6573206e6f74206578697374000000000000000000000000600082015250565b7f546f6b656e206973206e6f74206120636c6f6e65000000000000000000000000600082015250565b7f4552433732313a2061646472657373207a65726f206973206e6f74206120766160008201527f6c6964206f776e65720000000000000000000000000000000000000000000000602082015250565b7f45524337323155524953746f726167653a2055524920736574206f66206e6f6e60008201527f6578697374656e7420746f6b656e000000000000000000000000000000000000602082015250565b7f55524c20616c7265616479206578697374730000000000000000000000000000600082015250565b7f4552433732313a206d696e7420746f20746865207a65726f2061646472657373600082015250565b7f4f776e61626c653a2063616c6c6572206973206e6f7420746865206f776e6572600082015250565b7f4552433732313a20696e76616c696420746f6b656e2049440000000000000000600082015250565b7f55524c20646f6573206e6f742065786973740000000000000000000000000000600082015250565b7f496e76616c696420746f6b656e20494400000000000000000000000000000000600082015250565b7f4552433732313a20617070726f76616c20746f2063757272656e74206f776e6560008201527f7200000000000000000000000000000000000000000000000000000000000000602082015250565b7f4552433732313a20617070726f76652063616c6c6572206973206e6f7420746f60008201527f6b656e206f776e6572206f7220617070726f76656420666f7220616c6c000000602082015250565b61468a81613f7f565b811461469557600080fd5b50565b6146a181613f91565b81146146ac57600080fd5b50565b6146b881613f9d565b81146146c357600080fd5b50565b6146cf81613fe9565b81146146da57600080fd5b5056fea26469706673582212205c91e2e747fa08d4459929257c102110a182c87dfc587da371d443a392afa74d64736f6c63430008010033",
  "linkReferences": {},
  "deployedLinkReferences": {}
}