{
  "_format": "hh-sol-artifact-1",
  "contractName": "CloneableNFT",
  "sourceName": "contracts/ClonableNFT.sol",
  "abi": [
    {
      "inputs": [
        {
          "internalType": "string",
          "name": "name",
          "type": "string"
        },
        {
          "internalType": "string",
          "name": "symbol",
          "type": "string"
        }
      ],
      "stateMutability": "nonpayable",
      "type": "constructor"
    },
    {
      "anonymous": false,
      "inputs": [
        {
          "indexed": true,
          "internalType": "address",
          "name": "owner",
          "type": "address"
        },
        {
          "indexed": true,
          "internalType": "address",
          "name": "approved",
          "type": "address"
        },
        {
          "indexed": true,
          "internalType": "uint256",
          "name": "tokenId",
          "type": "uint256"
        }
      ],
      "name": "Approval",
      "type": "event"
    },
    {
      "anonymous": false,
      "inputs": [
        {
          "indexed": true,
          "internalType": "address",
          "name": "owner",
          "type": "address"
        },
        {
          "indexed": true,
          "internalType": "address",
          "name": "operator",
          "type": "address"
        },
        {
          "indexed": false,
          "internalType": "bool",
          "name": "approved",
          "type": "bool"
        }
      ],
      "name": "ApprovalForAll",
      "type": "event"
    },
    {
      "anonymous": false,
      "inputs": [
        {
          "indexed": true,
          "internalType": "address",
          "name": "previousOwner",
          "type": "address"
        },
        {
          "indexed": true,
          "internalType": "address",
          "name": "newOwner",
          "type": "address"
        }
      ],
      "name": "OwnershipTransferred",
      "type": "event"
    },
    {
      "anonymous": false,
      "inputs": [
        {
          "indexed": true,
          "internalType": "address",
          "name": "from",
          "type": "address"
        },
        {
          "indexed": true,
          "internalType": "address",
          "name": "to",
          "type": "address"
        },
        {
          "indexed": true,
          "internalType": "uint256",
          "name": "tokenId",
          "type": "uint256"
        }
      ],
      "name": "Transfer",
      "type": "event"
    },
    {
      "inputs": [
        {
          "internalType": "address",
          "name": "to",
          "type": "address"
        },
        {
          "internalType": "uint256",
          "name": "tokenId",
          "type": "uint256"
        }
      ],
      "name": "approve",
      "outputs": [],
      "stateMutability": "nonpayable",
      "type": "function"
    },
    {
      "inputs": [
        {
          "internalType": "address",
          "name": "owner",
          "type": "address"
        }
      ],
      "name": "balanceOf",
      "outputs": [
        {
          "internalType": "uint256",
          "name": "",
          "type": "uint256"
        }
      ],
      "stateMutability": "view",
      "type": "function"
    },
    {
      "inputs": [
        {
          "internalType": "uint256",
          "name": "tokenId",
          "type": "uint256"
        }
      ],
      "name": "getApproved",
      "outputs": [
        {
          "internalType": "address",
          "name": "",
          "type": "address"
        }
      ],
      "stateMutability": "view",
      "type": "function"
    },
    {
      "inputs": [],
      "name": "getDefaultClonePrice",
      "outputs": [
        {
          "internalType": "uint256",
          "name": "",
          "type": "uint256"
        }
      ],
      "stateMutability": "view",
      "type": "function"
    },
    {
      "inputs": [
        {
          "internalType": "uint256",
          "name": "tokenId",
          "type": "uint256"
        }
      ],
      "name": "getOriginal",
      "outputs": [
        {
          "internalType": "uint256",
          "name": "",
          "type": "uint256"
        }
      ],
      "stateMutability": "view",
      "type": "function"
    },
    {
      "inputs": [
        {
          "internalType": "string",
          "name": "_url",
          "type": "string"
        }
      ],
      "name": "getTokenIdByUrl",
      "outputs": [
        {
          "internalType": "uint256",
          "name": "",
          "type": "uint256"
        }
      ],
      "stateMutability": "view",
      "type": "function"
    },
    {
      "inputs": [
        {
          "internalType": "address",
          "name": "owner",
          "type": "address"
        },
        {
          "internalType": "address",
          "name": "operator",
          "type": "address"
        }
      ],
      "name": "isApprovedForAll",
      "outputs": [
        {
          "internalType": "bool",
          "name": "",
          "type": "bool"
        }
      ],
      "stateMutability": "view",
      "type": "function"
    },
    {
      "inputs": [
        {
          "internalType": "uint256",
          "name": "tokenId",
          "type": "uint256"
        }
      ],
      "name": "isClone",
      "outputs": [
        {
          "internalType": "bool",
          "name": "",
          "type": "bool"
        }
      ],
      "stateMutability": "view",
      "type": "function"
    },
    {
      "inputs": [
        {
          "internalType": "uint256",
          "name": "tokenId",
          "type": "uint256"
        },
        {
          "internalType": "string",
          "name": "_url",
          "type": "string"
        }
      ],
      "name": "mintClone",
      "outputs": [],
      "stateMutability": "payable",
      "type": "function"
    },
    {
      "inputs": [
        {
          "internalType": "string",
          "name": "_tokenURI",
          "type": "string"
        },
        {
          "internalType": "string",
          "name": "_url",
          "type": "string"
        }
      ],
      "name": "mintNFT",
      "outputs": [],
      "stateMutability": "nonpayable",
      "type": "function"
    },
    {
      "inputs": [],
      "name": "name",
      "outputs": [
        {
          "internalType": "string",
          "name": "",
          "type": "string"
        }
      ],
      "stateMutability": "view",
      "type": "function"
    },
    {
      "inputs": [],
      "name": "owner",
      "outputs": [
        {
          "internalType": "address",
          "name": "",
          "type": "address"
        }
      ],
      "stateMutability": "view",
      "type": "function"
    },
    {
      "inputs": [
        {
          "internalType": "uint256",
          "name": "tokenId",
          "type": "uint256"
        }
      ],
      "name": "ownerOf",
      "outputs": [
        {
          "internalType": "address",
          "name": "",
          "type": "address"
        }
      ],
      "stateMutability": "view",
      "type": "function"
    },
    {
      "inputs": [],
      "name": "renounceOwnership",
      "outputs": [],
      "stateMutability": "nonpayable",
      "type": "function"
    },
    {
      "inputs": [
        {
          "internalType": "address",
          "name": "from",
          "type": "address"
        },
        {
          "internalType": "address",
          "name": "to",
          "type": "address"
        },
        {
          "internalType": "uint256",
          "name": "tokenId",
          "type": "uint256"
        }
      ],
      "name": "safeTransferFrom",
      "outputs": [],
      "stateMutability": "nonpayable",
      "type": "function"
    },
    {
      "inputs": [
        {
          "internalType": "address",
          "name": "from",
          "type": "address"
        },
        {
          "internalType": "address",
          "name": "to",
          "type": "address"
        },
        {
          "internalType": "uint256",
          "name": "tokenId",
          "type": "uint256"
        },
        {
          "internalType": "bytes",
          "name": "data",
          "type": "bytes"
        }
      ],
      "name": "safeTransferFrom",
      "outputs": [],
      "stateMutability": "nonpayable",
      "type": "function"
    },
    {
      "inputs": [
        {
          "internalType": "address",
          "name": "operator",
          "type": "address"
        },
        {
          "internalType": "bool",
          "name": "approved",
          "type": "bool"
        }
      ],
      "name": "setApprovalForAll",
      "outputs": [],
      "stateMutability": "nonpayable",
      "type": "function"
    },
    {
      "inputs": [
        {
          "internalType": "uint256",
          "name": "tokenId",
          "type": "uint256"
        },
        {
          "internalType": "uint256",
          "name": "newPrice",
          "type": "uint256"
        }
      ],
      "name": "setClonePrice",
      "outputs": [],
      "stateMutability": "nonpayable",
      "type": "function"
    },
    {
      "inputs": [
        {
          "internalType": "uint256",
          "name": "newPrice",
          "type": "uint256"
        }
      ],
      "name": "setDefaultClonePrice",
      "outputs": [],
      "stateMutability": "nonpayable",
      "type": "function"
    },
    {
      "inputs": [
        {
          "internalType": "bytes4",
          "name": "interfaceId",
          "type": "bytes4"
        }
      ],
      "name": "supportsInterface",
      "outputs": [
        {
          "internalType": "bool",
          "name": "",
          "type": "bool"
        }
      ],
      "stateMutability": "view",
      "type": "function"
    },
    {
      "inputs": [],
      "name": "symbol",
      "outputs": [
        {
          "internalType": "string",
          "name": "",
          "type": "string"
        }
      ],
      "stateMutability": "view",
      "type": "function"
    },
    {
      "inputs": [
        {
          "internalType": "uint256",
          "name": "tokenId",
          "type": "uint256"
        }
      ],
      "name": "tokenURI",
      "outputs": [
        {
          "internalType": "string",
          "name": "",
          "type": "string"
        }
      ],
      "stateMutability": "view",
      "type": "function"
    },
    {
      "inputs": [
        {
          "internalType": "address",
          "name": "from",
          "type": "address"
        },
        {
          "internalType": "address",
          "name": "to",
          "type": "address"
        },
        {
          "internalType": "uint256",
          "name": "tokenId",
          "type": "uint256"
        }
      ],
      "name": "transferFrom",
      "outputs": [],
      "stateMutability": "nonpayable",
      "type": "function"
    },
    {
      "inputs": [
        {
          "internalType": "address",
          "name": "newOwner",
          "type": "address"
        }
      ],
      "name": "transferOwnership",
      "outputs": [],
      "stateMutability": "nonpayable",
      "type": "function"
    },
    {
      "inputs": [],
      "name": "withdraw",
      "outputs": [],
      "stateMutability": "nonpayable",
      "type": "function"
    }
  ],
  "bytecode": "0x6080604052662386f26fc100006009553480156200001c57600080fd5b5060405162003b4538038062003b45833981810160405281019062000042919062000290565b818181600090805190602001906200005c9291906200016e565b508060019080519060200190620000759291906200016e565b505050620000986200008c620000a060201b60201c565b620000a860201b60201c565b505062000473565b600033905090565b6000600760009054906101000a900473ffffffffffffffffffffffffffffffffffffffff16905081600760006101000a81548173ffffffffffffffffffffffffffffffffffffffff021916908373ffffffffffffffffffffffffffffffffffffffff1602179055508173ffffffffffffffffffffffffffffffffffffffff168173ffffffffffffffffffffffffffffffffffffffff167f8be0079c531659141344cd1fd0a4f28419497f9722a3daafe3b4186f6b6457e060405160405180910390a35050565b8280546200017c9062000398565b90600052602060002090601f016020900481019282620001a05760008555620001ec565b82601f10620001bb57805160ff1916838001178555620001ec565b82800160010185558215620001ec579182015b82811115620001eb578251825591602001919060010190620001ce565b5b509050620001fb9190620001ff565b5090565b5b808211156200021a57600081600090555060010162000200565b5090565b6000620002356200022f846200032c565b62000303565b9050828152602081018484840111156200024e57600080fd5b6200025b84828562000362565b509392505050565b600082601f8301126200027557600080fd5b8151620002878482602086016200021e565b91505092915050565b60008060408385031215620002a457600080fd5b600083015167ffffffffffffffff811115620002bf57600080fd5b620002cd8582860162000263565b925050602083015167ffffffffffffffff811115620002eb57600080fd5b620002f98582860162000263565b9150509250929050565b60006200030f62000322565b90506200031d8282620003ce565b919050565b6000604051905090565b600067ffffffffffffffff8211156200034a576200034962000433565b5b620003558262000462565b9050602081019050919050565b60005b838110156200038257808201518184015260208101905062000365565b8381111562000392576000848401525b50505050565b60006002820490506001821680620003b157607f821691505b60208210811415620003c857620003c762000404565b5b50919050565b620003d98262000462565b810181811067ffffffffffffffff82111715620003fb57620003fa62000433565b5b80604052505050565b7f4e487b7100000000000000000000000000000000000000000000000000000000600052602260045260246000fd5b7f4e487b7100000000000000000000000000000000000000000000000000000000600052604160045260246000fd5b6000601f19601f8301169050919050565b6136c280620004836000396000f3fe6080604052600436106101665760003560e01c806370a08231116100d1578063bc8c778f1161008a578063e960554411610064578063e96055441461053f578063e985e9c514610568578063ef74248d146105a5578063f2fde38b146105ce57610166565b8063bc8c778f1461049a578063c6af1122146104d7578063c87b56dd1461050257610166565b806370a082311461039e578063715018a6146103db5780638da5cb5b146103f257806395d89b411461041d578063a22cb46514610448578063b88d4fde1461047157610166565b806323b872dd1161012357806323b872dd1461029f5780632aa2e90a146102c8578063385eda9c146102e45780633ccfd60b1461032157806342842e0e146103385780636352211e1461036157610166565b806301ffc9a71461016b57806306fdde03146101a8578063081812fc146101d3578063095ea7b3146102105780631741f3e2146102395780631a2b285e14610276575b600080fd5b34801561017757600080fd5b50610192600480360381019061018d9190612702565b6105f7565b60405161019f9190612cc5565b60405180910390f35b3480156101b457600080fd5b506101bd6106d9565b6040516101ca9190612ce0565b60405180910390f35b3480156101df57600080fd5b506101fa60048036038101906101f59190612801565b61076b565b6040516102079190612c5e565b60405180910390f35b34801561021c57600080fd5b50610237600480360381019061023291906126c6565b6107b1565b005b34801561024557600080fd5b50610260600480360381019061025b9190612754565b6108c9565b60405161026d9190612f62565b60405180910390f35b34801561028257600080fd5b5061029d60048036038101906102989190612801565b610952565b005b3480156102ab57600080fd5b506102c660048036038101906102c191906125c0565b610964565b005b6102e260048036038101906102dd919061282a565b6109c4565b005b3480156102f057600080fd5b5061030b60048036038101906103069190612801565b610b7a565b6040516103189190612cc5565b60405180910390f35b34801561032d57600080fd5b50610336610ba4565b005b34801561034457600080fd5b5061035f600480360381019061035a91906125c0565b610bfc565b005b34801561036d57600080fd5b5061038860048036038101906103839190612801565b610c1c565b6040516103959190612c5e565b60405180910390f35b3480156103aa57600080fd5b506103c560048036038101906103c0919061255b565b610ca3565b6040516103d29190612f62565b60405180910390f35b3480156103e757600080fd5b506103f0610d5b565b005b3480156103fe57600080fd5b50610407610d6f565b6040516104149190612c5e565b60405180910390f35b34801561042957600080fd5b50610432610d99565b60405161043f9190612ce0565b60405180910390f35b34801561045457600080fd5b5061046f600480360381019061046a919061268a565b610e2b565b005b34801561047d57600080fd5b506104986004803603810190610493919061260f565b610e41565b005b3480156104a657600080fd5b506104c160048036038101906104bc9190612801565b610ea3565b6040516104ce9190612f62565b60405180910390f35b3480156104e357600080fd5b506104ec610f20565b6040516104f99190612f62565b60405180910390f35b34801561050e57600080fd5b5061052960048036038101906105249190612801565b610f2a565b6040516105369190612ce0565b60405180910390f35b34801561054b57600080fd5b5061056660048036038101906105619190612795565b610f3c565b005b34801561057457600080fd5b5061058f600480360381019061058a9190612584565b610fd1565b60405161059c9190612cc5565b60405180910390f35b3480156105b157600080fd5b506105cc60048036038101906105c7919061287e565b611065565b005b3480156105da57600080fd5b506105f560048036038101906105f0919061255b565b611089565b005b60007f80ac58cd000000000000000000000000000000000000000000000000000000007bffffffffffffffffffffffffffffffffffffffffffffffffffffffff1916827bffffffffffffffffffffffffffffffffffffffffffffffffffffffff191614806106c257507f5b5e139f000000000000000000000000000000000000000000000000000000007bffffffffffffffffffffffffffffffffffffffffffffffffffffffff1916827bffffffffffffffffffffffffffffffffffffffffffffffffffffffff1916145b806106d257506106d18261110d565b5b9050919050565b6060600080546106e8906130fd565b80601f0160208091040260200160405190810160405280929190818152602001828054610714906130fd565b80156107615780601f1061073657610100808354040283529160200191610761565b820191906000526020600020905b81548152906001019060200180831161074457829003601f168201915b5050505050905090565b600061077682611177565b6004600083815260200190815260200160002060009054906101000a900473ffffffffffffffffffffffffffffffffffffffff169050919050565b60006107bc82610c1c565b90508073ffffffffffffffffffffffffffffffffffffffff168373ffffffffffffffffffffffffffffffffffffffff16141561082d576040517f08c379a000000000000000000000000000000000000000000000000000000000815260040161082490612f22565b60405180910390fd5b8073ffffffffffffffffffffffffffffffffffffffff1661084c6111c2565b73ffffffffffffffffffffffffffffffffffffffff16148061087b575061087a816108756111c2565b610fd1565b5b6108ba576040517f08c379a00000000000000000000000000000000000000000000000000000000081526004016108b190612f42565b60405180910390fd5b6108c483836111ca565b505050565b600080600d836040516108dc9190612c23565b908152602001604051809103902054141561092c576040517f08c379a000000000000000000000000000000000000000000000000000000000815260040161092390612ee2565b60405180910390fd5b600d8260405161093c9190612c23565b9081526020016040518091039020549050919050565b61095a611283565b8060098190555050565b61097561096f6111c2565b82611301565b6109b4576040517f08c379a00000000000000000000000000000000000000000000000000000000081526004016109ab90612d02565b60405180910390fd5b6109bf838383611396565b505050565b6109cd82611690565b610a0c576040517f08c379a0000000000000000000000000000000000000000000000000000000008152600401610a0390612f02565b60405180910390fd5b600a600083815260200190815260200160002060009054906101000a900460ff1615610a6d576040517f08c379a0000000000000000000000000000000000000000000000000000000008152600401610a6490612de2565b60405180910390fd5b600080600c60008581526020019081526020016000205411610a9157600954610aa6565b600c6000848152602001908152602001600020545b905080341015610aeb576040517f08c379a0000000000000000000000000000000000000000000000000000000008152600401610ae290612e02565b60405180910390fd5b610af560086116d1565b6000610b0160086116e7565b9050610b0d33826116f5565b6001600a600083815260200190815260200160002060006101000a81548160ff02191690831515021790555083600b60008381526020019081526020016000208190555080600d84604051610b629190612c23565b90815260200160405180910390208190555050505050565b6000600a600083815260200190815260200160002060009054906101000a900460ff169050919050565b610bac611283565b610bb4610d6f565b73ffffffffffffffffffffffffffffffffffffffff166108fc479081150290604051600060405180830381858888f19350505050158015610bf9573d6000803e3d6000fd5b50565b610c1783838360405180602001604052806000815250610e41565b505050565b600080610c2883611713565b9050600073ffffffffffffffffffffffffffffffffffffffff168173ffffffffffffffffffffffffffffffffffffffff161415610c9a576040517f08c379a0000000000000000000000000000000000000000000000000000000008152600401610c9190612ec2565b60405180910390fd5b80915050919050565b60008073ffffffffffffffffffffffffffffffffffffffff168273ffffffffffffffffffffffffffffffffffffffff161415610d14576040517f08c379a0000000000000000000000000000000000000000000000000000000008152600401610d0b90612e42565b60405180910390fd5b600360008373ffffffffffffffffffffffffffffffffffffffff1673ffffffffffffffffffffffffffffffffffffffff168152602001908152602001600020549050919050565b610d63611283565b610d6d6000611750565b565b6000600760009054906101000a900473ffffffffffffffffffffffffffffffffffffffff16905090565b606060018054610da8906130fd565b80601f0160208091040260200160405190810160405280929190818152602001828054610dd4906130fd565b8015610e215780601f10610df657610100808354040283529160200191610e21565b820191906000526020600020905b815481529060010190602001808311610e0457829003601f168201915b5050505050905090565b610e3d610e366111c2565b8383611816565b5050565b610e52610e4c6111c2565b83611301565b610e91576040517f08c379a0000000000000000000000000000000000000000000000000000000008152600401610e8890612d02565b60405180910390fd5b610e9d84848484611983565b50505050565b6000600a600083815260200190815260200160002060009054906101000a900460ff16610f05576040517f08c379a0000000000000000000000000000000000000000000000000000000008152600401610efc90612e22565b60405180910390fd5b600b6000838152602001908152602001600020549050919050565b6000600954905090565b6060610f35826119df565b9050919050565b610f44611283565b610f4e60086116d1565b6000610f58610d6f565b90506000610f6660086116e7565b9050610f728282611af2565b6000600a600083815260200190815260200160002060006101000a81548160ff021916908315150217905550610fa88185611d10565b80600d84604051610fb99190612c23565b90815260200160405180910390208190555050505050565b6000600560008473ffffffffffffffffffffffffffffffffffffffff1673ffffffffffffffffffffffffffffffffffffffff16815260200190815260200160002060008373ffffffffffffffffffffffffffffffffffffffff1673ffffffffffffffffffffffffffffffffffffffff16815260200190815260200160002060009054906101000a900460ff16905092915050565b61106d611283565b80600c6000848152602001908152602001600020819055505050565b611091611283565b600073ffffffffffffffffffffffffffffffffffffffff168173ffffffffffffffffffffffffffffffffffffffff161415611101576040517f08c379a00000000000000000000000000000000000000000000000000000000081526004016110f890612d42565b60405180910390fd5b61110a81611750565b50565b60007f01ffc9a7000000000000000000000000000000000000000000000000000000007bffffffffffffffffffffffffffffffffffffffffffffffffffffffff1916827bffffffffffffffffffffffffffffffffffffffffffffffffffffffff1916149050919050565b61118081611690565b6111bf576040517f08c379a00000000000000000000000000000000000000000000000000000000081526004016111b690612ec2565b60405180910390fd5b50565b600033905090565b816004600083815260200190815260200160002060006101000a81548173ffffffffffffffffffffffffffffffffffffffff021916908373ffffffffffffffffffffffffffffffffffffffff160217905550808273ffffffffffffffffffffffffffffffffffffffff1661123d83610c1c565b73ffffffffffffffffffffffffffffffffffffffff167f8c5be1e5ebec7d5bd14f71427d1e84f3dd0314c0f7b2291e5b200ac8c7c3b92560405160405180910390a45050565b61128b6111c2565b73ffffffffffffffffffffffffffffffffffffffff166112a9610d6f565b73ffffffffffffffffffffffffffffffffffffffff16146112ff576040517f08c379a00000000000000000000000000000000000000000000000000000000081526004016112f690612ea2565b60405180910390fd5b565b60008061130d83610c1c565b90508073ffffffffffffffffffffffffffffffffffffffff168473ffffffffffffffffffffffffffffffffffffffff16148061134f575061134e8185610fd1565b5b8061138d57508373ffffffffffffffffffffffffffffffffffffffff166113758461076b565b73ffffffffffffffffffffffffffffffffffffffff16145b91505092915050565b8273ffffffffffffffffffffffffffffffffffffffff166113b682610c1c565b73ffffffffffffffffffffffffffffffffffffffff161461140c576040517f08c379a000000000000000000000000000000000000000000000000000000000815260040161140390612d62565b60405180910390fd5b600073ffffffffffffffffffffffffffffffffffffffff168273ffffffffffffffffffffffffffffffffffffffff16141561147c576040517f08c379a000000000000000000000000000000000000000000000000000000000815260040161147390612da2565b60405180910390fd5b6114898383836001611d84565b8273ffffffffffffffffffffffffffffffffffffffff166114a982610c1c565b73ffffffffffffffffffffffffffffffffffffffff16146114ff576040517f08c379a00000000000000000000000000000000000000000000000000000000081526004016114f690612d62565b60405180910390fd5b6004600082815260200190815260200160002060006101000a81549073ffffffffffffffffffffffffffffffffffffffff02191690556001600360008573ffffffffffffffffffffffffffffffffffffffff1673ffffffffffffffffffffffffffffffffffffffff168152602001908152602001600020600082825403925050819055506001600360008473ffffffffffffffffffffffffffffffffffffffff1673ffffffffffffffffffffffffffffffffffffffff16815260200190815260200160002060008282540192505081905550816002600083815260200190815260200160002060006101000a81548173ffffffffffffffffffffffffffffffffffffffff021916908373ffffffffffffffffffffffffffffffffffffffff160217905550808273ffffffffffffffffffffffffffffffffffffffff168473ffffffffffffffffffffffffffffffffffffffff167fddf252ad1be2c89b69c2b068fc378daa952ba7f163c4a11628f55a4df523b3ef60405160405180910390a461168b8383836001611d8a565b505050565b60008073ffffffffffffffffffffffffffffffffffffffff166116b283611713565b73ffffffffffffffffffffffffffffffffffffffff1614159050919050565b6001816000016000828254019250508190555050565b600081600001549050919050565b61170f828260405180602001604052806000815250611d90565b5050565b60006002600083815260200190815260200160002060009054906101000a900473ffffffffffffffffffffffffffffffffffffffff169050919050565b6000600760009054906101000a900473ffffffffffffffffffffffffffffffffffffffff16905081600760006101000a81548173ffffffffffffffffffffffffffffffffffffffff021916908373ffffffffffffffffffffffffffffffffffffffff1602179055508173ffffffffffffffffffffffffffffffffffffffff168173ffffffffffffffffffffffffffffffffffffffff167f8be0079c531659141344cd1fd0a4f28419497f9722a3daafe3b4186f6b6457e060405160405180910390a35050565b8173ffffffffffffffffffffffffffffffffffffffff168373ffffffffffffffffffffffffffffffffffffffff161415611885576040517f08c379a000000000000000000000000000000000000000000000000000000000815260040161187c90612dc2565b60405180910390fd5b80600560008573ffffffffffffffffffffffffffffffffffffffff1673ffffffffffffffffffffffffffffffffffffffff16815260200190815260200160002060008473ffffffffffffffffffffffffffffffffffffffff1673ffffffffffffffffffffffffffffffffffffffff16815260200190815260200160002060006101000a81548160ff0219169083151502179055508173ffffffffffffffffffffffffffffffffffffffff168373ffffffffffffffffffffffffffffffffffffffff167f17307eab39ab6107e8899845ad3d59bd9653f200f220920489ca2b5937696c31836040516119769190612cc5565b60405180910390a3505050565b61198e848484611396565b61199a84848484611deb565b6119d9576040517f08c379a00000000000000000000000000000000000000000000000000000000081526004016119d090612d22565b60405180910390fd5b50505050565b60606119ea82611177565b6000600660008481526020019081526020016000208054611a0a906130fd565b80601f0160208091040260200160405190810160405280929190818152602001828054611a36906130fd565b8015611a835780601f10611a5857610100808354040283529160200191611a83565b820191906000526020600020905b815481529060010190602001808311611a6657829003601f168201915b505050505090506000611a94611f82565b9050600081511415611aaa578192505050611aed565b600082511115611adf578082604051602001611ac7929190612c3a565b60405160208183030381529060405292505050611aed565b611ae884611f99565b925050505b919050565b600073ffffffffffffffffffffffffffffffffffffffff168273ffffffffffffffffffffffffffffffffffffffff161415611b62576040517f08c379a0000000000000000000000000000000000000000000000000000000008152600401611b5990612e82565b60405180910390fd5b611b6b81611690565b15611bab576040517f08c379a0000000000000000000000000000000000000000000000000000000008152600401611ba290612d82565b60405180910390fd5b611bb9600083836001611d84565b611bc281611690565b15611c02576040517f08c379a0000000000000000000000000000000000000000000000000000000008152600401611bf990612d82565b60405180910390fd5b6001600360008473ffffffffffffffffffffffffffffffffffffffff1673ffffffffffffffffffffffffffffffffffffffff16815260200190815260200160002060008282540192505081905550816002600083815260200190815260200160002060006101000a81548173ffffffffffffffffffffffffffffffffffffffff021916908373ffffffffffffffffffffffffffffffffffffffff160217905550808273ffffffffffffffffffffffffffffffffffffffff16600073ffffffffffffffffffffffffffffffffffffffff167fddf252ad1be2c89b69c2b068fc378daa952ba7f163c4a11628f55a4df523b3ef60405160405180910390a4611d0c600083836001611d8a565b5050565b611d1982611690565b611d58576040517f08c379a0000000000000000000000000000000000000000000000000000000008152600401611d4f90612e62565b60405180910390fd5b80600660008481526020019081526020016000209080519060200190611d7f92919061237f565b505050565b50505050565b50505050565b611d9a8383611af2565b611da76000848484611deb565b611de6576040517f08c379a0000000000000000000000000000000000000000000000000000000008152600401611ddd90612d22565b60405180910390fd5b505050565b6000611e0c8473ffffffffffffffffffffffffffffffffffffffff16612001565b15611f75578373ffffffffffffffffffffffffffffffffffffffff1663150b7a02611e356111c2565b8786866040518563ffffffff1660e01b8152600401611e579493929190612c79565b602060405180830381600087803b158015611e7157600080fd5b505af1925050508015611ea257506040513d601f19601f82011682018060405250810190611e9f919061272b565b60015b611f25573d8060008114611ed2576040519150601f19603f3d011682016040523d82523d6000602084013e611ed7565b606091505b50600081511415611f1d576040517f08c379a0000000000000000000000000000000000000000000000000000000008152600401611f1490612d22565b60405180910390fd5b805181602001fd5b63150b7a0260e01b7bffffffffffffffffffffffffffffffffffffffffffffffffffffffff1916817bffffffffffffffffffffffffffffffffffffffffffffffffffffffff191614915050611f7a565b600190505b949350505050565b606060405180602001604052806000815250905090565b6060611fa482611177565b6000611fae611f82565b90506000815111611fce5760405180602001604052806000815250611ff9565b80611fd884612024565b604051602001611fe9929190612c3a565b6040516020818303038152906040525b915050919050565b6000808273ffffffffffffffffffffffffffffffffffffffff163b119050919050565b60606000600161203384612148565b01905060008167ffffffffffffffff811115612078577f4e487b7100000000000000000000000000000000000000000000000000000000600052604160045260246000fd5b6040519080825280601f01601f1916602001820160405280156120aa5781602001600182028036833780820191505090505b509050600082602001820190505b60011561213d578080600190039150507f3031323334353637383961626364656600000000000000000000000000000000600a86061a8153600a8581612127577f4e487b7100000000000000000000000000000000000000000000000000000000600052601260045260246000fd5b04945060008514156121385761213d565b6120b8565b819350505050919050565b600080600090507a184f03e93ff9f4daa797ed6e38ed64bf6a1f01000000000000000083106121cc577a184f03e93ff9f4daa797ed6e38ed64bf6a1f01000000000000000083816121c2577f4e487b7100000000000000000000000000000000000000000000000000000000600052601260045260246000fd5b0492506040810190505b6d04ee2d6d415b85acef8100000000831061222f576d04ee2d6d415b85acef81000000008381612225577f4e487b7100000000000000000000000000000000000000000000000000000000600052601260045260246000fd5b0492506020810190505b662386f26fc10000831061228457662386f26fc10000838161227a577f4e487b7100000000000000000000000000000000000000000000000000000000600052601260045260246000fd5b0492506010810190505b6305f5e10083106122d3576305f5e10083816122c9577f4e487b7100000000000000000000000000000000000000000000000000000000600052601260045260246000fd5b0492506008810190505b612710831061231e576127108381612314577f4e487b7100000000000000000000000000000000000000000000000000000000600052601260045260246000fd5b0492506004810190505b60648310612367576064838161235d577f4e487b7100000000000000000000000000000000000000000000000000000000600052601260045260246000fd5b0492506002810190505b600a8310612376576001810190505b80915050919050565b82805461238b906130fd565b90600052602060002090601f0160209004810192826123ad57600085556123f4565b82601f106123c657805160ff19168380011785556123f4565b828001600101855582156123f4579182015b828111156123f35782518255916020019190600101906123d8565b5b5090506124019190612405565b5090565b5b8082111561241e576000816000905550600101612406565b5090565b600061243561243084612fa2565b612f7d565b90508281526020810184848401111561244d57600080fd5b6124588482856130bb565b509392505050565b600061247361246e84612fd3565b612f7d565b90508281526020810184848401111561248b57600080fd5b6124968482856130bb565b509392505050565b6000813590506124ad81613630565b92915050565b6000813590506124c281613647565b92915050565b6000813590506124d78161365e565b92915050565b6000815190506124ec8161365e565b92915050565b600082601f83011261250357600080fd5b8135612513848260208601612422565b91505092915050565b600082601f83011261252d57600080fd5b813561253d848260208601612460565b91505092915050565b60008135905061255581613675565b92915050565b60006020828403121561256d57600080fd5b600061257b8482850161249e565b91505092915050565b6000806040838503121561259757600080fd5b60006125a58582860161249e565b92505060206125b68582860161249e565b9150509250929050565b6000806000606084860312156125d557600080fd5b60006125e38682870161249e565b93505060206125f48682870161249e565b925050604061260586828701612546565b9150509250925092565b6000806000806080858703121561262557600080fd5b60006126338782880161249e565b94505060206126448782880161249e565b935050604061265587828801612546565b925050606085013567ffffffffffffffff81111561267257600080fd5b61267e878288016124f2565b91505092959194509250565b6000806040838503121561269d57600080fd5b60006126ab8582860161249e565b92505060206126bc858286016124b3565b9150509250929050565b600080604083850312156126d957600080fd5b60006126e78582860161249e565b92505060206126f885828601612546565b9150509250929050565b60006020828403121561271457600080fd5b6000612722848285016124c8565b91505092915050565b60006020828403121561273d57600080fd5b600061274b848285016124dd565b91505092915050565b60006020828403121561276657600080fd5b600082013567ffffffffffffffff81111561278057600080fd5b61278c8482850161251c565b91505092915050565b600080604083850312156127a857600080fd5b600083013567ffffffffffffffff8111156127c257600080fd5b6127ce8582860161251c565b925050602083013567ffffffffffffffff8111156127eb57600080fd5b6127f78582860161251c565b9150509250929050565b60006020828403121561281357600080fd5b600061282184828501612546565b91505092915050565b6000806040838503121561283d57600080fd5b600061284b85828601612546565b925050602083013567ffffffffffffffff81111561286857600080fd5b6128748582860161251c565b9150509250929050565b6000806040838503121561289157600080fd5b600061289f85828601612546565b92505060206128b085828601612546565b9150509250929050565b6128c381613047565b82525050565b6128d281613059565b82525050565b60006128e382613004565b6128ed818561301a565b93506128fd8185602086016130ca565b612906816131be565b840191505092915050565b600061291c8261300f565b612926818561302b565b93506129368185602086016130ca565b61293f816131be565b840191505092915050565b60006129558261300f565b61295f818561303c565b935061296f8185602086016130ca565b80840191505092915050565b6000612988602d8361302b565b9150612993826131cf565b604082019050919050565b60006129ab60328361302b565b91506129b68261321e565b604082019050919050565b60006129ce60268361302b565b91506129d98261326d565b604082019050919050565b60006129f160258361302b565b91506129fc826132bc565b604082019050919050565b6000612a14601c8361302b565b9150612a1f8261330b565b602082019050919050565b6000612a3760248361302b565b9150612a4282613334565b604082019050919050565b6000612a5a60198361302b565b9150612a6582613383565b602082019050919050565b6000612a7d60148361302b565b9150612a88826133ac565b602082019050919050565b6000612aa060208361302b565b9150612aab826133d5565b602082019050919050565b6000612ac360148361302b565b9150612ace826133fe565b602082019050919050565b6000612ae660298361302b565b9150612af182613427565b604082019050919050565b6000612b09602e8361302b565b9150612b1482613476565b604082019050919050565b6000612b2c60208361302b565b9150612b37826134c5565b602082019050919050565b6000612b4f60208361302b565b9150612b5a826134ee565b602082019050919050565b6000612b7260188361302b565b9150612b7d82613517565b602082019050919050565b6000612b9560128361302b565b9150612ba082613540565b602082019050919050565b6000612bb860108361302b565b9150612bc382613569565b602082019050919050565b6000612bdb60218361302b565b9150612be682613592565b604082019050919050565b6000612bfe603d8361302b565b9150612c09826135e1565b604082019050919050565b612c1d816130b1565b82525050565b6000612c2f828461294a565b915081905092915050565b6000612c46828561294a565b9150612c52828461294a565b91508190509392505050565b6000602082019050612c7360008301846128ba565b92915050565b6000608082019050612c8e60008301876128ba565b612c9b60208301866128ba565b612ca86040830185612c14565b8181036060830152612cba81846128d8565b905095945050505050565b6000602082019050612cda60008301846128c9565b92915050565b60006020820190508181036000830152612cfa8184612911565b905092915050565b60006020820190508181036000830152612d1b8161297b565b9050919050565b60006020820190508181036000830152612d3b8161299e565b9050919050565b60006020820190508181036000830152612d5b816129c1565b9050919050565b60006020820190508181036000830152612d7b816129e4565b9050919050565b60006020820190508181036000830152612d9b81612a07565b9050919050565b60006020820190508181036000830152612dbb81612a2a565b9050919050565b60006020820190508181036000830152612ddb81612a4d565b9050919050565b60006020820190508181036000830152612dfb81612a70565b9050919050565b60006020820190508181036000830152612e1b81612a93565b9050919050565b60006020820190508181036000830152612e3b81612ab6565b9050919050565b60006020820190508181036000830152612e5b81612ad9565b9050919050565b60006020820190508181036000830152612e7b81612afc565b9050919050565b60006020820190508181036000830152612e9b81612b1f565b9050919050565b60006020820190508181036000830152612ebb81612b42565b9050919050565b60006020820190508181036000830152612edb81612b65565b9050919050565b60006020820190508181036000830152612efb81612b88565b9050919050565b60006020820190508181036000830152612f1b81612bab565b9050919050565b60006020820190508181036000830152612f3b81612bce565b9050919050565b60006020820190508181036000830152612f5b81612bf1565b9050919050565b6000602082019050612f776000830184612c14565b92915050565b6000612f87612f98565b9050612f93828261312f565b919050565b6000604051905090565b600067ffffffffffffffff821115612fbd57612fbc61318f565b5b612fc6826131be565b9050602081019050919050565b600067ffffffffffffffff821115612fee57612fed61318f565b5b612ff7826131be565b9050602081019050919050565b600081519050919050565b600081519050919050565b600082825260208201905092915050565b600082825260208201905092915050565b600081905092915050565b600061305282613091565b9050919050565b60008115159050919050565b60007fffffffff0000000000000000000000000000000000000000000000000000000082169050919050565b600073ffffffffffffffffffffffffffffffffffffffff82169050919050565b6000819050919050565b82818337600083830152505050565b60005b838110156130e85780820151818401526020810190506130cd565b838111156130f7576000848401525b50505050565b6000600282049050600182168061311557607f821691505b6020821081141561312957613128613160565b5b50919050565b613138826131be565b810181811067ffffffffffffffff821117156131575761315661318f565b5b80604052505050565b7f4e487b7100000000000000000000000000000000000000000000000000000000600052602260045260246000fd5b7f4e487b7100000000000000000000000000000000000000000000000000000000600052604160045260246000fd5b6000601f19601f8301169050919050565b7f4552433732313a2063616c6c6572206973206e6f7420746f6b656e206f776e6560008201527f72206f7220617070726f76656400000000000000000000000000000000000000602082015250565b7f4552433732313a207472616e7366657220746f206e6f6e20455243373231526560008201527f63656976657220696d706c656d656e7465720000000000000000000000000000602082015250565b7f4f776e61626c653a206e6577206f776e657220697320746865207a65726f206160008201527f6464726573730000000000000000000000000000000000000000000000000000602082015250565b7f4552433732313a207472616e736665722066726f6d20696e636f72726563742060008201527f6f776e6572000000000000000000000000000000000000000000000000000000602082015250565b7f4552433732313a20746f6b656e20616c7265616479206d696e74656400000000600082015250565b7f4552433732313a207472616e7366657220746f20746865207a65726f2061646460008201527f7265737300000000000000000000000000000000000000000000000000000000602082015250565b7f4552433732313a20617070726f766520746f2063616c6c657200000000000000600082015250565b7f43616e6e6f7420636c6f6e65206120636c6f6e65000000000000000000000000600082015250565b7f496e73756666696369656e742066756e647320746f206d696e7420636c6f6e65600082015250565b7f546f6b656e206973206e6f74206120636c6f6e65000000000000000000000000600082015250565b7f4552433732313a2061646472657373207a65726f206973206e6f74206120766160008201527f6c6964206f776e65720000000000000000000000000000000000000000000000602082015250565b7f45524337323155524953746f726167653a2055524920736574206f66206e6f6e60008201527f6578697374656e7420746f6b656e000000000000000000000000000000000000602082015250565b7f4552433732313a206d696e7420746f20746865207a65726f2061646472657373600082015250565b7f4f776e61626c653a2063616c6c6572206973206e6f7420746865206f776e6572600082015250565b7f4552433732313a20696e76616c696420746f6b656e2049440000000000000000600082015250565b7f55524c20646f6573206e6f742065786973740000000000000000000000000000600082015250565b7f496e76616c696420746f6b656e20494400000000000000000000000000000000600082015250565b7f4552433732313a20617070726f76616c20746f2063757272656e74206f776e6560008201527f7200000000000000000000000000000000000000000000000000000000000000602082015250565b7f4552433732313a20617070726f76652063616c6c6572206973206e6f7420746f60008201527f6b656e206f776e6572206f7220617070726f76656420666f7220616c6c000000602082015250565b61363981613047565b811461364457600080fd5b50565b61365081613059565b811461365b57600080fd5b50565b61366781613065565b811461367257600080fd5b50565b61367e816130b1565b811461368957600080fd5b5056fea2646970667358221220b4bb144dde53aae3402ac7a86d2f4a0bb5c2a4cc2696d45c957de9ce0ef4687864736f6c63430008010033",
  "linkReferences": {},
  "deployedLinkReferences": {}
}