{
  "_format": "hh-sol-artifact-1",
  "contractName": "CloneableNFT",
  "sourceName": "contracts/ClonableNFT.sol",
  "abi": [
    {
      "inputs": [
        {
          "internalType": "string",
          "name": "name",
          "type": "string"
        },
        {
          "internalType": "string",
          "name": "symbol",
          "type": "string"
        }
      ],
      "stateMutability": "nonpayable",
      "type": "constructor"
    },
    {
      "anonymous": false,
      "inputs": [
        {
          "indexed": true,
          "internalType": "address",
          "name": "owner",
          "type": "address"
        },
        {
          "indexed": true,
          "internalType": "address",
          "name": "approved",
          "type": "address"
        },
        {
          "indexed": true,
          "internalType": "uint256",
          "name": "tokenId",
          "type": "uint256"
        }
      ],
      "name": "Approval",
      "type": "event"
    },
    {
      "anonymous": false,
      "inputs": [
        {
          "indexed": true,
          "internalType": "address",
          "name": "owner",
          "type": "address"
        },
        {
          "indexed": true,
          "internalType": "address",
          "name": "operator",
          "type": "address"
        },
        {
          "indexed": false,
          "internalType": "bool",
          "name": "approved",
          "type": "bool"
        }
      ],
      "name": "ApprovalForAll",
      "type": "event"
    },
    {
      "anonymous": false,
      "inputs": [
        {
          "indexed": true,
          "internalType": "address",
          "name": "from",
          "type": "address"
        },
        {
          "indexed": true,
          "internalType": "address",
          "name": "to",
          "type": "address"
        },
        {
          "indexed": true,
          "internalType": "uint256",
          "name": "tokenId",
          "type": "uint256"
        }
      ],
      "name": "Transfer",
      "type": "event"
    },
    {
      "inputs": [
        {
          "internalType": "address",
          "name": "to",
          "type": "address"
        },
        {
          "internalType": "uint256",
          "name": "tokenId",
          "type": "uint256"
        }
      ],
      "name": "approve",
      "outputs": [],
      "stateMutability": "nonpayable",
      "type": "function"
    },
    {
      "inputs": [
        {
          "internalType": "address",
          "name": "owner",
          "type": "address"
        }
      ],
      "name": "balanceOf",
      "outputs": [
        {
          "internalType": "uint256",
          "name": "",
          "type": "uint256"
        }
      ],
      "stateMutability": "view",
      "type": "function"
    },
    {
      "inputs": [
        {
          "internalType": "uint256",
          "name": "tokenId",
          "type": "uint256"
        }
      ],
      "name": "getApproved",
      "outputs": [
        {
          "internalType": "address",
          "name": "",
          "type": "address"
        }
      ],
      "stateMutability": "view",
      "type": "function"
    },
    {
      "inputs": [],
      "name": "getDefaultClonePrice",
      "outputs": [
        {
          "internalType": "uint256",
          "name": "",
          "type": "uint256"
        }
      ],
      "stateMutability": "view",
      "type": "function"
    },
    {
      "inputs": [
        {
          "internalType": "uint256",
          "name": "tokenId",
          "type": "uint256"
        }
      ],
      "name": "getOriginal",
      "outputs": [
        {
          "internalType": "uint256",
          "name": "",
          "type": "uint256"
        }
      ],
      "stateMutability": "view",
      "type": "function"
    },
    {
      "inputs": [
        {
          "internalType": "address",
          "name": "owner",
          "type": "address"
        },
        {
          "internalType": "address",
          "name": "operator",
          "type": "address"
        }
      ],
      "name": "isApprovedForAll",
      "outputs": [
        {
          "internalType": "bool",
          "name": "",
          "type": "bool"
        }
      ],
      "stateMutability": "view",
      "type": "function"
    },
    {
      "inputs": [
        {
          "internalType": "uint256",
          "name": "tokenId",
          "type": "uint256"
        }
      ],
      "name": "isClone",
      "outputs": [
        {
          "internalType": "bool",
          "name": "",
          "type": "bool"
        }
      ],
      "stateMutability": "view",
      "type": "function"
    },
    {
      "inputs": [
        {
          "internalType": "uint256",
          "name": "tokenId",
          "type": "uint256"
        }
      ],
      "name": "mintClone",
      "outputs": [],
      "stateMutability": "payable",
      "type": "function"
    },
    {
      "inputs": [],
      "name": "mintOriginal",
      "outputs": [],
      "stateMutability": "nonpayable",
      "type": "function"
    },
    {
      "inputs": [],
      "name": "name",
      "outputs": [
        {
          "internalType": "string",
          "name": "",
          "type": "string"
        }
      ],
      "stateMutability": "view",
      "type": "function"
    },
    {
      "inputs": [
        {
          "internalType": "uint256",
          "name": "tokenId",
          "type": "uint256"
        }
      ],
      "name": "ownerOf",
      "outputs": [
        {
          "internalType": "address",
          "name": "",
          "type": "address"
        }
      ],
      "stateMutability": "view",
      "type": "function"
    },
    {
      "inputs": [
        {
          "internalType": "address",
          "name": "from",
          "type": "address"
        },
        {
          "internalType": "address",
          "name": "to",
          "type": "address"
        },
        {
          "internalType": "uint256",
          "name": "tokenId",
          "type": "uint256"
        }
      ],
      "name": "safeTransferFrom",
      "outputs": [],
      "stateMutability": "nonpayable",
      "type": "function"
    },
    {
      "inputs": [
        {
          "internalType": "address",
          "name": "from",
          "type": "address"
        },
        {
          "internalType": "address",
          "name": "to",
          "type": "address"
        },
        {
          "internalType": "uint256",
          "name": "tokenId",
          "type": "uint256"
        },
        {
          "internalType": "bytes",
          "name": "data",
          "type": "bytes"
        }
      ],
      "name": "safeTransferFrom",
      "outputs": [],
      "stateMutability": "nonpayable",
      "type": "function"
    },
    {
      "inputs": [
        {
          "internalType": "address",
          "name": "operator",
          "type": "address"
        },
        {
          "internalType": "bool",
          "name": "approved",
          "type": "bool"
        }
      ],
      "name": "setApprovalForAll",
      "outputs": [],
      "stateMutability": "nonpayable",
      "type": "function"
    },
    {
      "inputs": [
        {
          "internalType": "uint256",
          "name": "tokenId",
          "type": "uint256"
        },
        {
          "internalType": "uint256",
          "name": "newPrice",
          "type": "uint256"
        }
      ],
      "name": "setClonePrice",
      "outputs": [],
      "stateMutability": "nonpayable",
      "type": "function"
    },
    {
      "inputs": [
        {
          "internalType": "uint256",
          "name": "newPrice",
          "type": "uint256"
        }
      ],
      "name": "setDefaultClonePrice",
      "outputs": [],
      "stateMutability": "nonpayable",
      "type": "function"
    },
    {
      "inputs": [
        {
          "internalType": "bytes4",
          "name": "interfaceId",
          "type": "bytes4"
        }
      ],
      "name": "supportsInterface",
      "outputs": [
        {
          "internalType": "bool",
          "name": "",
          "type": "bool"
        }
      ],
      "stateMutability": "view",
      "type": "function"
    },
    {
      "inputs": [],
      "name": "symbol",
      "outputs": [
        {
          "internalType": "string",
          "name": "",
          "type": "string"
        }
      ],
      "stateMutability": "view",
      "type": "function"
    },
    {
      "inputs": [
        {
          "internalType": "uint256",
          "name": "tokenId",
          "type": "uint256"
        }
      ],
      "name": "tokenURI",
      "outputs": [
        {
          "internalType": "string",
          "name": "",
          "type": "string"
        }
      ],
      "stateMutability": "view",
      "type": "function"
    },
    {
      "inputs": [
        {
          "internalType": "address",
          "name": "from",
          "type": "address"
        },
        {
          "internalType": "address",
          "name": "to",
          "type": "address"
        },
        {
          "internalType": "uint256",
          "name": "tokenId",
          "type": "uint256"
        }
      ],
      "name": "transferFrom",
      "outputs": [],
      "stateMutability": "nonpayable",
      "type": "function"
    },
    {
      "inputs": [],
      "name": "withdraw",
      "outputs": [],
      "stateMutability": "nonpayable",
      "type": "function"
    }
  ],
  "bytecode": "0x6080604052662386f26fc100006008553480156200001c57600080fd5b5060405162003397380380620033978339818101604052810190620000429190620001e3565b818181600090805190602001906200005c929190620000c1565b50806001908051906020019062000075929190620000c1565b50505033600760006101000a81548173ffffffffffffffffffffffffffffffffffffffff021916908373ffffffffffffffffffffffffffffffffffffffff1602179055505050620003c6565b828054620000cf90620002eb565b90600052602060002090601f016020900481019282620000f357600085556200013f565b82601f106200010e57805160ff19168380011785556200013f565b828001600101855582156200013f579182015b828111156200013e57825182559160200191906001019062000121565b5b5090506200014e919062000152565b5090565b5b808211156200016d57600081600090555060010162000153565b5090565b60006200018862000182846200027f565b62000256565b905082815260208101848484011115620001a157600080fd5b620001ae848285620002b5565b509392505050565b600082601f830112620001c857600080fd5b8151620001da84826020860162000171565b91505092915050565b60008060408385031215620001f757600080fd5b600083015167ffffffffffffffff8111156200021257600080fd5b6200022085828601620001b6565b925050602083015167ffffffffffffffff8111156200023e57600080fd5b6200024c85828601620001b6565b9150509250929050565b60006200026262000275565b905062000270828262000321565b919050565b6000604051905090565b600067ffffffffffffffff8211156200029d576200029c62000386565b5b620002a882620003b5565b9050602081019050919050565b60005b83811015620002d5578082015181840152602081019050620002b8565b83811115620002e5576000848401525b50505050565b600060028204905060018216806200030457607f821691505b602082108114156200031b576200031a62000357565b5b50919050565b6200032c82620003b5565b810181811067ffffffffffffffff821117156200034e576200034d62000386565b5b80604052505050565b7f4e487b7100000000000000000000000000000000000000000000000000000000600052602260045260246000fd5b7f4e487b7100000000000000000000000000000000000000000000000000000000600052604160045260246000fd5b6000601f19601f8301169050919050565b612fc180620003d66000396000f3fe60806040526004361061012a5760003560e01c80636352211e116100ab578063b88d4fde1161006f578063b88d4fde146103cd578063bc8c778f146103f6578063c6af112214610433578063c87b56dd1461045e578063e985e9c51461049b578063ef74248d146104d85761012a565b80636352211e146102e357806370a08231146103205780638beaa3ee1461035d57806395d89b4114610379578063a22cb465146103a45761012a565b806323b872dd116100f257806323b872dd1461022657806331310ad01461024f578063385eda9c146102665780633ccfd60b146102a357806342842e0e146102ba5761012a565b806301ffc9a71461012f57806306fdde031461016c578063081812fc14610197578063095ea7b3146101d45780631a2b285e146101fd575b600080fd5b34801561013b57600080fd5b50610156600480360381019061015191906122b4565b610501565b60405161016391906126f6565b60405180910390f35b34801561017857600080fd5b506101816105e3565b60405161018e9190612711565b60405180910390f35b3480156101a357600080fd5b506101be60048036038101906101b99190612306565b610675565b6040516101cb919061268f565b60405180910390f35b3480156101e057600080fd5b506101fb60048036038101906101f69190612278565b6106bb565b005b34801561020957600080fd5b50610224600480360381019061021f9190612306565b6107d3565b005b34801561023257600080fd5b5061024d60048036038101906102489190612172565b61086d565b005b34801561025b57600080fd5b506102646108cd565b005b34801561027257600080fd5b5061028d60048036038101906102889190612306565b6109ae565b60405161029a91906126f6565b60405180910390f35b3480156102af57600080fd5b506102b86109d8565b005b3480156102c657600080fd5b506102e160048036038101906102dc9190612172565b610ad3565b005b3480156102ef57600080fd5b5061030a60048036038101906103059190612306565b610af3565b604051610317919061268f565b60405180910390f35b34801561032c57600080fd5b506103476004803603810190610342919061210d565b610b7a565b6040516103549190612933565b60405180910390f35b61037760048036038101906103729190612306565b610c32565b005b34801561038557600080fd5b5061038e610dc4565b60405161039b9190612711565b60405180910390f35b3480156103b057600080fd5b506103cb60048036038101906103c6919061223c565b610e56565b005b3480156103d957600080fd5b506103f460048036038101906103ef91906121c1565b610e6c565b005b34801561040257600080fd5b5061041d60048036038101906104189190612306565b610ece565b60405161042a9190612933565b60405180910390f35b34801561043f57600080fd5b50610448610f4b565b6040516104559190612933565b60405180910390f35b34801561046a57600080fd5b5061048560048036038101906104809190612306565b610f55565b6040516104929190612711565b60405180910390f35b3480156104a757600080fd5b506104c260048036038101906104bd9190612136565b610fbd565b6040516104cf91906126f6565b60405180910390f35b3480156104e457600080fd5b506104ff60048036038101906104fa919061232f565b611051565b005b60007f80ac58cd000000000000000000000000000000000000000000000000000000007bffffffffffffffffffffffffffffffffffffffffffffffffffffffff1916827bffffffffffffffffffffffffffffffffffffffffffffffffffffffff191614806105cc57507f5b5e139f000000000000000000000000000000000000000000000000000000007bffffffffffffffffffffffffffffffffffffffffffffffffffffffff1916827bffffffffffffffffffffffffffffffffffffffffffffffffffffffff1916145b806105dc57506105db826110fd565b5b9050919050565b6060600080546105f290612a9d565b80601f016020809104026020016040519081016040528092919081815260200182805461061e90612a9d565b801561066b5780601f106106405761010080835404028352916020019161066b565b820191906000526020600020905b81548152906001019060200180831161064e57829003601f168201915b5050505050905090565b600061068082611167565b6004600083815260200190815260200160002060009054906101000a900473ffffffffffffffffffffffffffffffffffffffff169050919050565b60006106c682610af3565b90508073ffffffffffffffffffffffffffffffffffffffff168373ffffffffffffffffffffffffffffffffffffffff161415610737576040517f08c379a000000000000000000000000000000000000000000000000000000000815260040161072e906128f3565b60405180910390fd5b8073ffffffffffffffffffffffffffffffffffffffff166107566111b2565b73ffffffffffffffffffffffffffffffffffffffff16148061078557506107848161077f6111b2565b610fbd565b5b6107c4576040517f08c379a00000000000000000000000000000000000000000000000000000000081526004016107bb90612913565b60405180910390fd5b6107ce83836111ba565b505050565b600760009054906101000a900473ffffffffffffffffffffffffffffffffffffffff1673ffffffffffffffffffffffffffffffffffffffff163373ffffffffffffffffffffffffffffffffffffffff1614610863576040517f08c379a000000000000000000000000000000000000000000000000000000000815260040161085a90612873565b60405180910390fd5b8060088190555050565b61087e6108786111b2565b82611273565b6108bd576040517f08c379a00000000000000000000000000000000000000000000000000000000081526004016108b490612733565b60405180910390fd5b6108c8838383611308565b505050565b600760009054906101000a900473ffffffffffffffffffffffffffffffffffffffff1673ffffffffffffffffffffffffffffffffffffffff163373ffffffffffffffffffffffffffffffffffffffff161461095d576040517f08c379a000000000000000000000000000000000000000000000000000000000815260040161095490612873565b60405180910390fd5b6109676006611602565b60006109736006611618565b905061097f3382611626565b60006009600083815260200190815260200160002060006101000a81548160ff02191690831515021790555050565b60006009600083815260200190815260200160002060009054906101000a900460ff169050919050565b600760009054906101000a900473ffffffffffffffffffffffffffffffffffffffff1673ffffffffffffffffffffffffffffffffffffffff163373ffffffffffffffffffffffffffffffffffffffff1614610a68576040517f08c379a0000000000000000000000000000000000000000000000000000000008152600401610a5f90612873565b60405180910390fd5b600760009054906101000a900473ffffffffffffffffffffffffffffffffffffffff1673ffffffffffffffffffffffffffffffffffffffff166108fc479081150290604051600060405180830381858888f19350505050158015610ad0573d6000803e3d6000fd5b50565b610aee83838360405180602001604052806000815250610e6c565b505050565b600080610aff83611644565b9050600073ffffffffffffffffffffffffffffffffffffffff168173ffffffffffffffffffffffffffffffffffffffff161415610b71576040517f08c379a0000000000000000000000000000000000000000000000000000000008152600401610b68906128b3565b60405180910390fd5b80915050919050565b60008073ffffffffffffffffffffffffffffffffffffffff168273ffffffffffffffffffffffffffffffffffffffff161415610beb576040517f08c379a0000000000000000000000000000000000000000000000000000000008152600401610be290612853565b60405180910390fd5b600360008373ffffffffffffffffffffffffffffffffffffffff1673ffffffffffffffffffffffffffffffffffffffff168152602001908152602001600020549050919050565b610c3b81611681565b610c7a576040517f08c379a0000000000000000000000000000000000000000000000000000000008152600401610c71906128d3565b60405180910390fd5b6009600082815260200190815260200160002060009054906101000a900460ff1615610cdb576040517f08c379a0000000000000000000000000000000000000000000000000000000008152600401610cd2906127f3565b60405180910390fd5b600080600b60008481526020019081526020016000205411610cff57600854610d14565b600b6000838152602001908152602001600020545b905080341015610d59576040517f08c379a0000000000000000000000000000000000000000000000000000000008152600401610d5090612813565b60405180910390fd5b610d636006611602565b6000610d6f6006611618565b9050610d7b3382611626565b60016009600083815260200190815260200160002060006101000a81548160ff02191690831515021790555082600a600083815260200190815260200160002081905550505050565b606060018054610dd390612a9d565b80601f0160208091040260200160405190810160405280929190818152602001828054610dff90612a9d565b8015610e4c5780601f10610e2157610100808354040283529160200191610e4c565b820191906000526020600020905b815481529060010190602001808311610e2f57829003601f168201915b5050505050905090565b610e68610e616111b2565b83836116c2565b5050565b610e7d610e776111b2565b83611273565b610ebc576040517f08c379a0000000000000000000000000000000000000000000000000000000008152600401610eb390612733565b60405180910390fd5b610ec88484848461182f565b50505050565b60006009600083815260200190815260200160002060009054906101000a900460ff16610f30576040517f08c379a0000000000000000000000000000000000000000000000000000000008152600401610f2790612833565b60405180910390fd5b600a6000838152602001908152602001600020549050919050565b6000600854905090565b6060610f6082611167565b6000610f6a61188b565b90506000815111610f8a5760405180602001604052806000815250610fb5565b80610f94846118a2565b604051602001610fa592919061266b565b6040516020818303038152906040525b915050919050565b6000600560008473ffffffffffffffffffffffffffffffffffffffff1673ffffffffffffffffffffffffffffffffffffffff16815260200190815260200160002060008373ffffffffffffffffffffffffffffffffffffffff1673ffffffffffffffffffffffffffffffffffffffff16815260200190815260200160002060009054906101000a900460ff16905092915050565b600760009054906101000a900473ffffffffffffffffffffffffffffffffffffffff1673ffffffffffffffffffffffffffffffffffffffff163373ffffffffffffffffffffffffffffffffffffffff16146110e1576040517f08c379a00000000000000000000000000000000000000000000000000000000081526004016110d890612873565b60405180910390fd5b80600b6000848152602001908152602001600020819055505050565b60007f01ffc9a7000000000000000000000000000000000000000000000000000000007bffffffffffffffffffffffffffffffffffffffffffffffffffffffff1916827bffffffffffffffffffffffffffffffffffffffffffffffffffffffff1916149050919050565b61117081611681565b6111af576040517f08c379a00000000000000000000000000000000000000000000000000000000081526004016111a6906128b3565b60405180910390fd5b50565b600033905090565b816004600083815260200190815260200160002060006101000a81548173ffffffffffffffffffffffffffffffffffffffff021916908373ffffffffffffffffffffffffffffffffffffffff160217905550808273ffffffffffffffffffffffffffffffffffffffff1661122d83610af3565b73ffffffffffffffffffffffffffffffffffffffff167f8c5be1e5ebec7d5bd14f71427d1e84f3dd0314c0f7b2291e5b200ac8c7c3b92560405160405180910390a45050565b60008061127f83610af3565b90508073ffffffffffffffffffffffffffffffffffffffff168473ffffffffffffffffffffffffffffffffffffffff1614806112c157506112c08185610fbd565b5b806112ff57508373ffffffffffffffffffffffffffffffffffffffff166112e784610675565b73ffffffffffffffffffffffffffffffffffffffff16145b91505092915050565b8273ffffffffffffffffffffffffffffffffffffffff1661132882610af3565b73ffffffffffffffffffffffffffffffffffffffff161461137e576040517f08c379a000000000000000000000000000000000000000000000000000000000815260040161137590612773565b60405180910390fd5b600073ffffffffffffffffffffffffffffffffffffffff168273ffffffffffffffffffffffffffffffffffffffff1614156113ee576040517f08c379a00000000000000000000000000000000000000000000000000000000081526004016113e5906127b3565b60405180910390fd5b6113fb83838360016119c6565b8273ffffffffffffffffffffffffffffffffffffffff1661141b82610af3565b73ffffffffffffffffffffffffffffffffffffffff1614611471576040517f08c379a000000000000000000000000000000000000000000000000000000000815260040161146890612773565b60405180910390fd5b6004600082815260200190815260200160002060006101000a81549073ffffffffffffffffffffffffffffffffffffffff02191690556001600360008573ffffffffffffffffffffffffffffffffffffffff1673ffffffffffffffffffffffffffffffffffffffff168152602001908152602001600020600082825403925050819055506001600360008473ffffffffffffffffffffffffffffffffffffffff1673ffffffffffffffffffffffffffffffffffffffff16815260200190815260200160002060008282540192505081905550816002600083815260200190815260200160002060006101000a81548173ffffffffffffffffffffffffffffffffffffffff021916908373ffffffffffffffffffffffffffffffffffffffff160217905550808273ffffffffffffffffffffffffffffffffffffffff168473ffffffffffffffffffffffffffffffffffffffff167fddf252ad1be2c89b69c2b068fc378daa952ba7f163c4a11628f55a4df523b3ef60405160405180910390a46115fd83838360016119cc565b505050565b6001816000016000828254019250508190555050565b600081600001549050919050565b6116408282604051806020016040528060008152506119d2565b5050565b60006002600083815260200190815260200160002060009054906101000a900473ffffffffffffffffffffffffffffffffffffffff169050919050565b60008073ffffffffffffffffffffffffffffffffffffffff166116a383611644565b73ffffffffffffffffffffffffffffffffffffffff1614159050919050565b8173ffffffffffffffffffffffffffffffffffffffff168373ffffffffffffffffffffffffffffffffffffffff161415611731576040517f08c379a0000000000000000000000000000000000000000000000000000000008152600401611728906127d3565b60405180910390fd5b80600560008573ffffffffffffffffffffffffffffffffffffffff1673ffffffffffffffffffffffffffffffffffffffff16815260200190815260200160002060008473ffffffffffffffffffffffffffffffffffffffff1673ffffffffffffffffffffffffffffffffffffffff16815260200190815260200160002060006101000a81548160ff0219169083151502179055508173ffffffffffffffffffffffffffffffffffffffff168373ffffffffffffffffffffffffffffffffffffffff167f17307eab39ab6107e8899845ad3d59bd9653f200f220920489ca2b5937696c318360405161182291906126f6565b60405180910390a3505050565b61183a848484611308565b61184684848484611a2d565b611885576040517f08c379a000000000000000000000000000000000000000000000000000000000815260040161187c90612753565b60405180910390fd5b50505050565b606060405180602001604052806000815250905090565b6060600060016118b184611bc4565b01905060008167ffffffffffffffff8111156118f6577f4e487b7100000000000000000000000000000000000000000000000000000000600052604160045260246000fd5b6040519080825280601f01601f1916602001820160405280156119285781602001600182028036833780820191505090505b509050600082602001820190505b6001156119bb578080600190039150507f3031323334353637383961626364656600000000000000000000000000000000600a86061a8153600a85816119a5577f4e487b7100000000000000000000000000000000000000000000000000000000600052601260045260246000fd5b04945060008514156119b6576119bb565b611936565b819350505050919050565b50505050565b50505050565b6119dc8383611dfb565b6119e96000848484611a2d565b611a28576040517f08c379a0000000000000000000000000000000000000000000000000000000008152600401611a1f90612753565b60405180910390fd5b505050565b6000611a4e8473ffffffffffffffffffffffffffffffffffffffff16612019565b15611bb7578373ffffffffffffffffffffffffffffffffffffffff1663150b7a02611a776111b2565b8786866040518563ffffffff1660e01b8152600401611a9994939291906126aa565b602060405180830381600087803b158015611ab357600080fd5b505af1925050508015611ae457506040513d601f19601f82011682018060405250810190611ae191906122dd565b60015b611b67573d8060008114611b14576040519150601f19603f3d011682016040523d82523d6000602084013e611b19565b606091505b50600081511415611b5f576040517f08c379a0000000000000000000000000000000000000000000000000000000008152600401611b5690612753565b60405180910390fd5b805181602001fd5b63150b7a0260e01b7bffffffffffffffffffffffffffffffffffffffffffffffffffffffff1916817bffffffffffffffffffffffffffffffffffffffffffffffffffffffff191614915050611bbc565b600190505b949350505050565b600080600090507a184f03e93ff9f4daa797ed6e38ed64bf6a1f0100000000000000008310611c48577a184f03e93ff9f4daa797ed6e38ed64bf6a1f0100000000000000008381611c3e577f4e487b7100000000000000000000000000000000000000000000000000000000600052601260045260246000fd5b0492506040810190505b6d04ee2d6d415b85acef81000000008310611cab576d04ee2d6d415b85acef81000000008381611ca1577f4e487b7100000000000000000000000000000000000000000000000000000000600052601260045260246000fd5b0492506020810190505b662386f26fc100008310611d0057662386f26fc100008381611cf6577f4e487b7100000000000000000000000000000000000000000000000000000000600052601260045260246000fd5b0492506010810190505b6305f5e1008310611d4f576305f5e1008381611d45577f4e487b7100000000000000000000000000000000000000000000000000000000600052601260045260246000fd5b0492506008810190505b6127108310611d9a576127108381611d90577f4e487b7100000000000000000000000000000000000000000000000000000000600052601260045260246000fd5b0492506004810190505b60648310611de35760648381611dd9577f4e487b7100000000000000000000000000000000000000000000000000000000600052601260045260246000fd5b0492506002810190505b600a8310611df2576001810190505b80915050919050565b600073ffffffffffffffffffffffffffffffffffffffff168273ffffffffffffffffffffffffffffffffffffffff161415611e6b576040517f08c379a0000000000000000000000000000000000000000000000000000000008152600401611e6290612893565b60405180910390fd5b611e7481611681565b15611eb4576040517f08c379a0000000000000000000000000000000000000000000000000000000008152600401611eab90612793565b60405180910390fd5b611ec26000838360016119c6565b611ecb81611681565b15611f0b576040517f08c379a0000000000000000000000000000000000000000000000000000000008152600401611f0290612793565b60405180910390fd5b6001600360008473ffffffffffffffffffffffffffffffffffffffff1673ffffffffffffffffffffffffffffffffffffffff16815260200190815260200160002060008282540192505081905550816002600083815260200190815260200160002060006101000a81548173ffffffffffffffffffffffffffffffffffffffff021916908373ffffffffffffffffffffffffffffffffffffffff160217905550808273ffffffffffffffffffffffffffffffffffffffff16600073ffffffffffffffffffffffffffffffffffffffff167fddf252ad1be2c89b69c2b068fc378daa952ba7f163c4a11628f55a4df523b3ef60405160405180910390a46120156000838360016119cc565b5050565b6000808273ffffffffffffffffffffffffffffffffffffffff163b119050919050565b600061204f61204a84612973565b61294e565b90508281526020810184848401111561206757600080fd5b612072848285612a5b565b509392505050565b60008135905061208981612f2f565b92915050565b60008135905061209e81612f46565b92915050565b6000813590506120b381612f5d565b92915050565b6000815190506120c881612f5d565b92915050565b600082601f8301126120df57600080fd5b81356120ef84826020860161203c565b91505092915050565b60008135905061210781612f74565b92915050565b60006020828403121561211f57600080fd5b600061212d8482850161207a565b91505092915050565b6000806040838503121561214957600080fd5b60006121578582860161207a565b92505060206121688582860161207a565b9150509250929050565b60008060006060848603121561218757600080fd5b60006121958682870161207a565b93505060206121a68682870161207a565b92505060406121b7868287016120f8565b9150509250925092565b600080600080608085870312156121d757600080fd5b60006121e58782880161207a565b94505060206121f68782880161207a565b9350506040612207878288016120f8565b925050606085013567ffffffffffffffff81111561222457600080fd5b612230878288016120ce565b91505092959194509250565b6000806040838503121561224f57600080fd5b600061225d8582860161207a565b925050602061226e8582860161208f565b9150509250929050565b6000806040838503121561228b57600080fd5b60006122998582860161207a565b92505060206122aa858286016120f8565b9150509250929050565b6000602082840312156122c657600080fd5b60006122d4848285016120a4565b91505092915050565b6000602082840312156122ef57600080fd5b60006122fd848285016120b9565b91505092915050565b60006020828403121561231857600080fd5b6000612326848285016120f8565b91505092915050565b6000806040838503121561234257600080fd5b6000612350858286016120f8565b9250506020612361858286016120f8565b9150509250929050565b612374816129e7565b82525050565b612383816129f9565b82525050565b6000612394826129a4565b61239e81856129ba565b93506123ae818560208601612a6a565b6123b781612b5e565b840191505092915050565b60006123cd826129af565b6123d781856129cb565b93506123e7818560208601612a6a565b6123f081612b5e565b840191505092915050565b6000612406826129af565b61241081856129dc565b9350612420818560208601612a6a565b80840191505092915050565b6000612439602d836129cb565b915061244482612b6f565b604082019050919050565b600061245c6032836129cb565b915061246782612bbe565b604082019050919050565b600061247f6025836129cb565b915061248a82612c0d565b604082019050919050565b60006124a2601c836129cb565b91506124ad82612c5c565b602082019050919050565b60006124c56024836129cb565b91506124d082612c85565b604082019050919050565b60006124e86019836129cb565b91506124f382612cd4565b602082019050919050565b600061250b6014836129cb565b915061251682612cfd565b602082019050919050565b600061252e6020836129cb565b915061253982612d26565b602082019050919050565b60006125516014836129cb565b915061255c82612d4f565b602082019050919050565b60006125746029836129cb565b915061257f82612d78565b604082019050919050565b6000612597602f836129cb565b91506125a282612dc7565b604082019050919050565b60006125ba6020836129cb565b91506125c582612e16565b602082019050919050565b60006125dd6018836129cb565b91506125e882612e3f565b602082019050919050565b60006126006010836129cb565b915061260b82612e68565b602082019050919050565b60006126236021836129cb565b915061262e82612e91565b604082019050919050565b6000612646603d836129cb565b915061265182612ee0565b604082019050919050565b61266581612a51565b82525050565b600061267782856123fb565b915061268382846123fb565b91508190509392505050565b60006020820190506126a4600083018461236b565b92915050565b60006080820190506126bf600083018761236b565b6126cc602083018661236b565b6126d9604083018561265c565b81810360608301526126eb8184612389565b905095945050505050565b600060208201905061270b600083018461237a565b92915050565b6000602082019050818103600083015261272b81846123c2565b905092915050565b6000602082019050818103600083015261274c8161242c565b9050919050565b6000602082019050818103600083015261276c8161244f565b9050919050565b6000602082019050818103600083015261278c81612472565b9050919050565b600060208201905081810360008301526127ac81612495565b9050919050565b600060208201905081810360008301526127cc816124b8565b9050919050565b600060208201905081810360008301526127ec816124db565b9050919050565b6000602082019050818103600083015261280c816124fe565b9050919050565b6000602082019050818103600083015261282c81612521565b9050919050565b6000602082019050818103600083015261284c81612544565b9050919050565b6000602082019050818103600083015261286c81612567565b9050919050565b6000602082019050818103600083015261288c8161258a565b9050919050565b600060208201905081810360008301526128ac816125ad565b9050919050565b600060208201905081810360008301526128cc816125d0565b9050919050565b600060208201905081810360008301526128ec816125f3565b9050919050565b6000602082019050818103600083015261290c81612616565b9050919050565b6000602082019050818103600083015261292c81612639565b9050919050565b6000602082019050612948600083018461265c565b92915050565b6000612958612969565b90506129648282612acf565b919050565b6000604051905090565b600067ffffffffffffffff82111561298e5761298d612b2f565b5b61299782612b5e565b9050602081019050919050565b600081519050919050565b600081519050919050565b600082825260208201905092915050565b600082825260208201905092915050565b600081905092915050565b60006129f282612a31565b9050919050565b60008115159050919050565b60007fffffffff0000000000000000000000000000000000000000000000000000000082169050919050565b600073ffffffffffffffffffffffffffffffffffffffff82169050919050565b6000819050919050565b82818337600083830152505050565b60005b83811015612a88578082015181840152602081019050612a6d565b83811115612a97576000848401525b50505050565b60006002820490506001821680612ab557607f821691505b60208210811415612ac957612ac8612b00565b5b50919050565b612ad882612b5e565b810181811067ffffffffffffffff82111715612af757612af6612b2f565b5b80604052505050565b7f4e487b7100000000000000000000000000000000000000000000000000000000600052602260045260246000fd5b7f4e487b7100000000000000000000000000000000000000000000000000000000600052604160045260246000fd5b6000601f19601f8301169050919050565b7f4552433732313a2063616c6c6572206973206e6f7420746f6b656e206f776e6560008201527f72206f7220617070726f76656400000000000000000000000000000000000000602082015250565b7f4552433732313a207472616e7366657220746f206e6f6e20455243373231526560008201527f63656976657220696d706c656d656e7465720000000000000000000000000000602082015250565b7f4552433732313a207472616e736665722066726f6d20696e636f72726563742060008201527f6f776e6572000000000000000000000000000000000000000000000000000000602082015250565b7f4552433732313a20746f6b656e20616c7265616479206d696e74656400000000600082015250565b7f4552433732313a207472616e7366657220746f20746865207a65726f2061646460008201527f7265737300000000000000000000000000000000000000000000000000000000602082015250565b7f4552433732313a20617070726f766520746f2063616c6c657200000000000000600082015250565b7f43616e6e6f7420636c6f6e65206120636c6f6e65000000000000000000000000600082015250565b7f496e73756666696369656e742066756e647320746f206d696e7420636c6f6e65600082015250565b7f546f6b656e206973206e6f74206120636c6f6e65000000000000000000000000600082015250565b7f4552433732313a2061646472657373207a65726f206973206e6f74206120766160008201527f6c6964206f776e65720000000000000000000000000000000000000000000000602082015250565b7f4f6e6c792074686520636f6e7472616374206f776e65722063616e207065726660008201527f6f726d207468697320616374696f6e0000000000000000000000000000000000602082015250565b7f4552433732313a206d696e7420746f20746865207a65726f2061646472657373600082015250565b7f4552433732313a20696e76616c696420746f6b656e2049440000000000000000600082015250565b7f496e76616c696420746f6b656e20494400000000000000000000000000000000600082015250565b7f4552433732313a20617070726f76616c20746f2063757272656e74206f776e6560008201527f7200000000000000000000000000000000000000000000000000000000000000602082015250565b7f4552433732313a20617070726f76652063616c6c6572206973206e6f7420746f60008201527f6b656e206f776e6572206f7220617070726f76656420666f7220616c6c000000602082015250565b612f38816129e7565b8114612f4357600080fd5b50565b612f4f816129f9565b8114612f5a57600080fd5b50565b612f6681612a05565b8114612f7157600080fd5b50565b612f7d81612a51565b8114612f8857600080fd5b5056fea26469706673582212204189501688cfaae80e6b83a0e23ef0e1c53311e1c97cf2f16fa6202c3a304f2664736f6c63430008010033",
  "linkReferences": {},
  "deployedLinkReferences": {}
}