{
  "_format": "hh-sol-artifact-1",
  "contractName": "CloneableNFT",
  "sourceName": "contracts/ClonableNFT.sol",
  "abi": [
    {
      "inputs": [
        {
          "internalType": "string",
          "name": "name",
          "type": "string"
        },
        {
          "internalType": "string",
          "name": "symbol",
          "type": "string"
        }
      ],
      "stateMutability": "nonpayable",
      "type": "constructor"
    },
    {
      "anonymous": false,
      "inputs": [
        {
          "indexed": true,
          "internalType": "address",
          "name": "owner",
          "type": "address"
        },
        {
          "indexed": true,
          "internalType": "address",
          "name": "approved",
          "type": "address"
        },
        {
          "indexed": true,
          "internalType": "uint256",
          "name": "tokenId",
          "type": "uint256"
        }
      ],
      "name": "Approval",
      "type": "event"
    },
    {
      "anonymous": false,
      "inputs": [
        {
          "indexed": true,
          "internalType": "address",
          "name": "owner",
          "type": "address"
        },
        {
          "indexed": true,
          "internalType": "address",
          "name": "operator",
          "type": "address"
        },
        {
          "indexed": false,
          "internalType": "bool",
          "name": "approved",
          "type": "bool"
        }
      ],
      "name": "ApprovalForAll",
      "type": "event"
    },
    {
      "anonymous": false,
      "inputs": [
        {
          "indexed": true,
          "internalType": "address",
          "name": "previousOwner",
          "type": "address"
        },
        {
          "indexed": true,
          "internalType": "address",
          "name": "newOwner",
          "type": "address"
        }
      ],
      "name": "OwnershipTransferred",
      "type": "event"
    },
    {
      "anonymous": false,
      "inputs": [
        {
          "indexed": true,
          "internalType": "address",
          "name": "from",
          "type": "address"
        },
        {
          "indexed": true,
          "internalType": "address",
          "name": "to",
          "type": "address"
        },
        {
          "indexed": true,
          "internalType": "uint256",
          "name": "tokenId",
          "type": "uint256"
        }
      ],
      "name": "Transfer",
      "type": "event"
    },
    {
      "inputs": [
        {
          "internalType": "address",
          "name": "to",
          "type": "address"
        },
        {
          "internalType": "uint256",
          "name": "tokenId",
          "type": "uint256"
        }
      ],
      "name": "approve",
      "outputs": [],
      "stateMutability": "nonpayable",
      "type": "function"
    },
    {
      "inputs": [
        {
          "internalType": "address",
          "name": "owner",
          "type": "address"
        }
      ],
      "name": "balanceOf",
      "outputs": [
        {
          "internalType": "uint256",
          "name": "",
          "type": "uint256"
        }
      ],
      "stateMutability": "view",
      "type": "function"
    },
    {
      "inputs": [],
      "name": "getAllMintedTokens",
      "outputs": [
        {
          "internalType": "uint256[]",
          "name": "",
          "type": "uint256[]"
        }
      ],
      "stateMutability": "view",
      "type": "function"
    },
    {
      "inputs": [
        {
          "internalType": "uint256",
          "name": "tokenId",
          "type": "uint256"
        }
      ],
      "name": "getApproved",
      "outputs": [
        {
          "internalType": "address",
          "name": "",
          "type": "address"
        }
      ],
      "stateMutability": "view",
      "type": "function"
    },
    {
      "inputs": [
        {
          "internalType": "uint256",
          "name": "tokenId",
          "type": "uint256"
        }
      ],
      "name": "getClonesOfOriginal",
      "outputs": [
        {
          "internalType": "uint256[]",
          "name": "",
          "type": "uint256[]"
        }
      ],
      "stateMutability": "view",
      "type": "function"
    },
    {
      "inputs": [],
      "name": "getContractCreator",
      "outputs": [
        {
          "internalType": "address",
          "name": "",
          "type": "address"
        }
      ],
      "stateMutability": "view",
      "type": "function"
    },
    {
      "inputs": [],
      "name": "getDefaultClonePrice",
      "outputs": [
        {
          "internalType": "uint256",
          "name": "",
          "type": "uint256"
        }
      ],
      "stateMutability": "view",
      "type": "function"
    },
    {
      "inputs": [
        {
          "internalType": "uint256",
          "name": "tokenId",
          "type": "uint256"
        }
      ],
      "name": "getOriginal",
      "outputs": [
        {
          "internalType": "uint256",
          "name": "",
          "type": "uint256"
        }
      ],
      "stateMutability": "view",
      "type": "function"
    },
    {
      "inputs": [
        {
          "internalType": "address",
          "name": "owner",
          "type": "address"
        }
      ],
      "name": "getOwnedTokens",
      "outputs": [
        {
          "internalType": "uint256[]",
          "name": "",
          "type": "uint256[]"
        }
      ],
      "stateMutability": "view",
      "type": "function"
    },
    {
      "inputs": [
        {
          "internalType": "uint256",
          "name": "tokenId",
          "type": "uint256"
        }
      ],
      "name": "getTokenCreator",
      "outputs": [
        {
          "internalType": "address",
          "name": "",
          "type": "address"
        }
      ],
      "stateMutability": "view",
      "type": "function"
    },
    {
      "inputs": [
        {
          "internalType": "string",
          "name": "_url",
          "type": "string"
        }
      ],
      "name": "getTokenIdByUrl",
      "outputs": [
        {
          "internalType": "uint256",
          "name": "",
          "type": "uint256"
        }
      ],
      "stateMutability": "view",
      "type": "function"
    },
    {
      "inputs": [],
      "name": "getTotalMintClonedTokens",
      "outputs": [
        {
          "internalType": "uint256",
          "name": "",
          "type": "uint256"
        }
      ],
      "stateMutability": "view",
      "type": "function"
    },
    {
      "inputs": [],
      "name": "getTotalMintOriginalTokens",
      "outputs": [
        {
          "internalType": "uint256",
          "name": "",
          "type": "uint256"
        }
      ],
      "stateMutability": "view",
      "type": "function"
    },
    {
      "inputs": [],
      "name": "getTotalMintedTokens",
      "outputs": [
        {
          "internalType": "uint256",
          "name": "",
          "type": "uint256"
        }
      ],
      "stateMutability": "view",
      "type": "function"
    },
    {
      "inputs": [
        {
          "internalType": "address",
          "name": "owner",
          "type": "address"
        },
        {
          "internalType": "address",
          "name": "operator",
          "type": "address"
        }
      ],
      "name": "isApprovedForAll",
      "outputs": [
        {
          "internalType": "bool",
          "name": "",
          "type": "bool"
        }
      ],
      "stateMutability": "view",
      "type": "function"
    },
    {
      "inputs": [
        {
          "internalType": "uint256",
          "name": "tokenId",
          "type": "uint256"
        }
      ],
      "name": "isClone",
      "outputs": [
        {
          "internalType": "bool",
          "name": "",
          "type": "bool"
        }
      ],
      "stateMutability": "view",
      "type": "function"
    },
    {
      "inputs": [
        {
          "internalType": "uint256",
          "name": "tokenId",
          "type": "uint256"
        }
      ],
      "name": "mintClone",
      "outputs": [],
      "stateMutability": "payable",
      "type": "function"
    },
    {
      "inputs": [
        {
          "internalType": "string",
          "name": "_tokenURI",
          "type": "string"
        },
        {
          "internalType": "string",
          "name": "_url",
          "type": "string"
        }
      ],
      "name": "mintNFT",
      "outputs": [],
      "stateMutability": "nonpayable",
      "type": "function"
    },
    {
      "inputs": [],
      "name": "name",
      "outputs": [
        {
          "internalType": "string",
          "name": "",
          "type": "string"
        }
      ],
      "stateMutability": "view",
      "type": "function"
    },
    {
      "inputs": [],
      "name": "owner",
      "outputs": [
        {
          "internalType": "address",
          "name": "",
          "type": "address"
        }
      ],
      "stateMutability": "view",
      "type": "function"
    },
    {
      "inputs": [
        {
          "internalType": "uint256",
          "name": "tokenId",
          "type": "uint256"
        }
      ],
      "name": "ownerOf",
      "outputs": [
        {
          "internalType": "address",
          "name": "",
          "type": "address"
        }
      ],
      "stateMutability": "view",
      "type": "function"
    },
    {
      "inputs": [],
      "name": "renounceOwnership",
      "outputs": [],
      "stateMutability": "nonpayable",
      "type": "function"
    },
    {
      "inputs": [
        {
          "internalType": "address",
          "name": "from",
          "type": "address"
        },
        {
          "internalType": "address",
          "name": "to",
          "type": "address"
        },
        {
          "internalType": "uint256",
          "name": "tokenId",
          "type": "uint256"
        }
      ],
      "name": "safeTransferFrom",
      "outputs": [],
      "stateMutability": "nonpayable",
      "type": "function"
    },
    {
      "inputs": [
        {
          "internalType": "address",
          "name": "from",
          "type": "address"
        },
        {
          "internalType": "address",
          "name": "to",
          "type": "address"
        },
        {
          "internalType": "uint256",
          "name": "tokenId",
          "type": "uint256"
        },
        {
          "internalType": "bytes",
          "name": "data",
          "type": "bytes"
        }
      ],
      "name": "safeTransferFrom",
      "outputs": [],
      "stateMutability": "nonpayable",
      "type": "function"
    },
    {
      "inputs": [
        {
          "internalType": "address",
          "name": "operator",
          "type": "address"
        },
        {
          "internalType": "bool",
          "name": "approved",
          "type": "bool"
        }
      ],
      "name": "setApprovalForAll",
      "outputs": [],
      "stateMutability": "nonpayable",
      "type": "function"
    },
    {
      "inputs": [
        {
          "internalType": "uint256",
          "name": "tokenId",
          "type": "uint256"
        },
        {
          "internalType": "uint256",
          "name": "newPrice",
          "type": "uint256"
        }
      ],
      "name": "setClonePrice",
      "outputs": [],
      "stateMutability": "nonpayable",
      "type": "function"
    },
    {
      "inputs": [
        {
          "internalType": "uint256",
          "name": "newPrice",
          "type": "uint256"
        }
      ],
      "name": "setDefaultClonePrice",
      "outputs": [],
      "stateMutability": "nonpayable",
      "type": "function"
    },
    {
      "inputs": [
        {
          "internalType": "bytes4",
          "name": "interfaceId",
          "type": "bytes4"
        }
      ],
      "name": "supportsInterface",
      "outputs": [
        {
          "internalType": "bool",
          "name": "",
          "type": "bool"
        }
      ],
      "stateMutability": "view",
      "type": "function"
    },
    {
      "inputs": [],
      "name": "symbol",
      "outputs": [
        {
          "internalType": "string",
          "name": "",
          "type": "string"
        }
      ],
      "stateMutability": "view",
      "type": "function"
    },
    {
      "inputs": [
        {
          "internalType": "uint256",
          "name": "tokenId",
          "type": "uint256"
        }
      ],
      "name": "tokenURI",
      "outputs": [
        {
          "internalType": "string",
          "name": "",
          "type": "string"
        }
      ],
      "stateMutability": "view",
      "type": "function"
    },
    {
      "inputs": [
        {
          "internalType": "address",
          "name": "from",
          "type": "address"
        },
        {
          "internalType": "address",
          "name": "to",
          "type": "address"
        },
        {
          "internalType": "uint256",
          "name": "tokenId",
          "type": "uint256"
        }
      ],
      "name": "transferFrom",
      "outputs": [],
      "stateMutability": "nonpayable",
      "type": "function"
    },
    {
      "inputs": [
        {
          "internalType": "address",
          "name": "newOwner",
          "type": "address"
        }
      ],
      "name": "transferOwnership",
      "outputs": [],
      "stateMutability": "nonpayable",
      "type": "function"
    },
    {
      "inputs": [],
      "name": "withdraw",
      "outputs": [],
      "stateMutability": "nonpayable",
      "type": "function"
    }
  ],
  "bytecode": "0x6080604052662386f26fc100006009553480156200001c57600080fd5b50604051620048d7380380620048d78339818101604052810190620000429190620002d1565b818181600090805190602001906200005c929190620001af565b50806001908051906020019062000075929190620001af565b505050620000986200008c620000e160201b60201c565b620000e960201b60201c565b33600f60006101000a81548173ffffffffffffffffffffffffffffffffffffffff021916908373ffffffffffffffffffffffffffffffffffffffff1602179055505050620004b4565b600033905090565b6000600760009054906101000a900473ffffffffffffffffffffffffffffffffffffffff16905081600760006101000a81548173ffffffffffffffffffffffffffffffffffffffff021916908373ffffffffffffffffffffffffffffffffffffffff1602179055508173ffffffffffffffffffffffffffffffffffffffff168173ffffffffffffffffffffffffffffffffffffffff167f8be0079c531659141344cd1fd0a4f28419497f9722a3daafe3b4186f6b6457e060405160405180910390a35050565b828054620001bd90620003d9565b90600052602060002090601f016020900481019282620001e157600085556200022d565b82601f10620001fc57805160ff19168380011785556200022d565b828001600101855582156200022d579182015b828111156200022c5782518255916020019190600101906200020f565b5b5090506200023c919062000240565b5090565b5b808211156200025b57600081600090555060010162000241565b5090565b60006200027662000270846200036d565b62000344565b9050828152602081018484840111156200028f57600080fd5b6200029c848285620003a3565b509392505050565b600082601f830112620002b657600080fd5b8151620002c88482602086016200025f565b91505092915050565b60008060408385031215620002e557600080fd5b600083015167ffffffffffffffff8111156200030057600080fd5b6200030e85828601620002a4565b925050602083015167ffffffffffffffff8111156200032c57600080fd5b6200033a85828601620002a4565b9150509250929050565b60006200035062000363565b90506200035e82826200040f565b919050565b6000604051905090565b600067ffffffffffffffff8211156200038b576200038a62000474565b5b6200039682620004a3565b9050602081019050919050565b60005b83811015620003c3578082015181840152602081019050620003a6565b83811115620003d3576000848401525b50505050565b60006002820490506001821680620003f257607f821691505b6020821081141562000409576200040862000445565b5b50919050565b6200041a82620004a3565b810181811067ffffffffffffffff821117156200043c576200043b62000474565b5b80604052505050565b7f4e487b7100000000000000000000000000000000000000000000000000000000600052602260045260246000fd5b7f4e487b7100000000000000000000000000000000000000000000000000000000600052604160045260246000fd5b6000601f19601f8301169050919050565b61441380620004c46000396000f3fe6080604052600436106101ee5760003560e01c8063715018a61161010d578063bc8c778f116100a0578063e96055441161006f578063e96055441461072a578063e985e9c514610753578063ef74248d14610790578063f2fde38b146107b9578063f67a769c146107e2576101ee565b8063bc8c778f14610648578063c6af112214610685578063c87b56dd146106b0578063d9d61655146106ed576101ee565b8063934689a9116100dc578063934689a91461058e57806395d89b41146105cb578063a22cb465146105f6578063b88d4fde1461061f576101ee565b8063715018a6146105055780637d5298b91461051c5780638beaa3ee146105475780638da5cb5b14610563576101ee565b806323b872dd116101855780634da6de3f116101545780634da6de3f146104235780636352211e1461044e578063639032cc1461048b57806370a08231146104c8576101ee565b806323b872dd1461037d578063385eda9c146103a65780633ccfd60b146103e357806342842e0e146103fa576101ee565b8063095ea7b3116101c1578063095ea7b3146102c35780630e258726146102ec5780631741f3e2146103175780631a2b285e14610354576101ee565b806301ffc9a7146101f357806306fdde0314610230578063080b01791461025b578063081812fc14610286575b600080fd5b3480156101ff57600080fd5b5061021a6004803603810190610215919061315b565b61080d565b60405161022791906137da565b60405180910390f35b34801561023c57600080fd5b506102456108ef565b60405161025291906137f5565b60405180910390f35b34801561026757600080fd5b50610270610981565b60405161027d91906137b8565b60405180910390f35b34801561029257600080fd5b506102ad60048036038101906102a8919061325a565b6109d9565b6040516102ba9190613751565b60405180910390f35b3480156102cf57600080fd5b506102ea60048036038101906102e5919061311f565b610a1f565b005b3480156102f857600080fd5b50610301610b37565b60405161030e9190613751565b60405180910390f35b34801561032357600080fd5b5061033e600480360381019061033991906131ad565b610b61565b60405161034b9190613ad7565b60405180910390f35b34801561036057600080fd5b5061037b6004803603810190610376919061325a565b610bea565b005b34801561038957600080fd5b506103a4600480360381019061039f9190613019565b610bfc565b005b3480156103b257600080fd5b506103cd60048036038101906103c8919061325a565b610c5c565b6040516103da91906137da565b60405180910390f35b3480156103ef57600080fd5b506103f8610c86565b005b34801561040657600080fd5b50610421600480360381019061041c9190613019565b610cde565b005b34801561042f57600080fd5b50610438610cfe565b6040516104459190613ad7565b60405180910390f35b34801561045a57600080fd5b506104756004803603810190610470919061325a565b610d08565b6040516104829190613751565b60405180910390f35b34801561049757600080fd5b506104b260048036038101906104ad919061325a565b610d8f565b6040516104bf91906137b8565b60405180910390f35b3480156104d457600080fd5b506104ef60048036038101906104ea9190612fb4565b610e5b565b6040516104fc9190613ad7565b60405180910390f35b34801561051157600080fd5b5061051a610f13565b005b34801561052857600080fd5b50610531610f27565b60405161053e9190613ad7565b60405180910390f35b610561600480360381019061055c919061325a565b610f31565b005b34801561056f57600080fd5b506105786111f6565b6040516105859190613751565b60405180910390f35b34801561059a57600080fd5b506105b560048036038101906105b0919061325a565b611220565b6040516105c29190613751565b60405180910390f35b3480156105d757600080fd5b506105e06112a5565b6040516105ed91906137f5565b60405180910390f35b34801561060257600080fd5b5061061d600480360381019061061891906130e3565b611337565b005b34801561062b57600080fd5b5061064660048036038101906106419190613068565b61134d565b005b34801561065457600080fd5b5061066f600480360381019061066a919061325a565b6113af565b60405161067c9190613ad7565b60405180910390f35b34801561069157600080fd5b5061069a61142c565b6040516106a79190613ad7565b60405180910390f35b3480156106bc57600080fd5b506106d760048036038101906106d2919061325a565b611436565b6040516106e491906137f5565b60405180910390f35b3480156106f957600080fd5b50610714600480360381019061070f9190612fb4565b611448565b60405161072191906137b8565b60405180910390f35b34801561073657600080fd5b50610751600480360381019061074c91906131ee565b6114df565b005b34801561075f57600080fd5b5061077a60048036038101906107759190612fdd565b6116ce565b60405161078791906137da565b60405180910390f35b34801561079c57600080fd5b506107b760048036038101906107b29190613283565b611762565b005b3480156107c557600080fd5b506107e060048036038101906107db9190612fb4565b611786565b005b3480156107ee57600080fd5b506107f761180a565b6040516108049190613ad7565b60405180910390f35b60007f80ac58cd000000000000000000000000000000000000000000000000000000007bffffffffffffffffffffffffffffffffffffffffffffffffffffffff1916827bffffffffffffffffffffffffffffffffffffffffffffffffffffffff191614806108d857507f5b5e139f000000000000000000000000000000000000000000000000000000007bffffffffffffffffffffffffffffffffffffffffffffffffffffffff1916827bffffffffffffffffffffffffffffffffffffffffffffffffffffffff1916145b806108e857506108e782611821565b5b9050919050565b6060600080546108fe90613d35565b80601f016020809104026020016040519081016040528092919081815260200182805461092a90613d35565b80156109775780601f1061094c57610100808354040283529160200191610977565b820191906000526020600020905b81548152906001019060200180831161095a57829003601f168201915b5050505050905090565b606060128054806020026020016040519081016040528092919081815260200182805480156109cf57602002820191906000526020600020905b8154815260200190600101908083116109bb575b5050505050905090565b60006109e48261188b565b6004600083815260200190815260200160002060009054906101000a900473ffffffffffffffffffffffffffffffffffffffff169050919050565b6000610a2a82610d08565b90508073ffffffffffffffffffffffffffffffffffffffff168373ffffffffffffffffffffffffffffffffffffffff161415610a9b576040517f08c379a0000000000000000000000000000000000000000000000000000000008152600401610a9290613a97565b60405180910390fd5b8073ffffffffffffffffffffffffffffffffffffffff16610aba6118d6565b73ffffffffffffffffffffffffffffffffffffffff161480610ae95750610ae881610ae36118d6565b6116ce565b5b610b28576040517f08c379a0000000000000000000000000000000000000000000000000000000008152600401610b1f90613ab7565b60405180910390fd5b610b3283836118de565b505050565b6000600f60009054906101000a900473ffffffffffffffffffffffffffffffffffffffff16905090565b600080600d83604051610b749190613716565b9081526020016040518091039020541415610bc4576040517f08c379a0000000000000000000000000000000000000000000000000000000008152600401610bbb90613a57565b60405180910390fd5b600d82604051610bd49190613716565b9081526020016040518091039020549050919050565b610bf2611997565b8060098190555050565b610c0d610c076118d6565b82611a15565b610c4c576040517f08c379a0000000000000000000000000000000000000000000000000000000008152600401610c4390613817565b60405180910390fd5b610c57838383611aaa565b505050565b6000600a600083815260200190815260200160002060009054906101000a900460ff169050919050565b610c8e611997565b610c966111f6565b73ffffffffffffffffffffffffffffffffffffffff166108fc479081150290604051600060405180830381858888f19350505050158015610cdb573d6000803e3d6000fd5b50565b610cf98383836040518060200160405280600081525061134d565b505050565b6000601354905090565b600080610d1483611def565b9050600073ffffffffffffffffffffffffffffffffffffffff168173ffffffffffffffffffffffffffffffffffffffff161415610d86576040517f08c379a0000000000000000000000000000000000000000000000000000000008152600401610d7d90613a37565b60405180910390fd5b80915050919050565b6060600a600083815260200190815260200160002060009054906101000a900460ff1615610df2576040517f08c379a0000000000000000000000000000000000000000000000000000000008152600401610de990613837565b60405180910390fd5b60116000838152602001908152602001600020805480602002602001604051908101604052809291908181526020018280548015610e4f57602002820191906000526020600020905b815481526020019060010190808311610e3b575b50505050509050919050565b60008073ffffffffffffffffffffffffffffffffffffffff168273ffffffffffffffffffffffffffffffffffffffff161415610ecc576040517f08c379a0000000000000000000000000000000000000000000000000000000008152600401610ec390613997565b60405180910390fd5b600360008373ffffffffffffffffffffffffffffffffffffffff1673ffffffffffffffffffffffffffffffffffffffff168152602001908152602001600020549050919050565b610f1b611997565b610f256000611e2c565b565b6000601454905090565b610f3a81611ef2565b610f79576040517f08c379a0000000000000000000000000000000000000000000000000000000008152600401610f7090613a77565b60405180910390fd5b600a600082815260200190815260200160002060009054906101000a900460ff1615610fda576040517f08c379a0000000000000000000000000000000000000000000000000000000008152600401610fd190613917565b60405180910390fd5b600080600c60008481526020019081526020016000205411610ffe57600954611013565b600c6000838152602001908152602001600020545b905080341015611058576040517f08c379a000000000000000000000000000000000000000000000000000000000815260040161104f90613937565b60405180910390fd5b6110626008611f33565b600061106e6008611f49565b905061107a3382611f57565b6001600a600083815260200190815260200160002060006101000a81548160ff02191690831515021790555082600b60008381526020019081526020016000208190555060116000848152602001908152602001600020819080600181540180825580915050600190039060005260206000200160009091909190915055601060003373ffffffffffffffffffffffffffffffffffffffff1673ffffffffffffffffffffffffffffffffffffffff16815260200190815260200160002081908060018154018082558091505060019003906000526020600020016000909190919091505560128190806001815401808255809150506001900390600052602060002001600090919091909150556014600081548092919061119a90613d98565b919050555033600e600083815260200190815260200160002060006101000a81548173ffffffffffffffffffffffffffffffffffffffff021916908373ffffffffffffffffffffffffffffffffffffffff160217905550505050565b6000600760009054906101000a900473ffffffffffffffffffffffffffffffffffffffff16905090565b600061122b82611ef2565b61126a576040517f08c379a000000000000000000000000000000000000000000000000000000000815260040161126190613957565b60405180910390fd5b600e600083815260200190815260200160002060009054906101000a900473ffffffffffffffffffffffffffffffffffffffff169050919050565b6060600180546112b490613d35565b80601f01602080910402602001604051908101604052809291908181526020018280546112e090613d35565b801561132d5780601f106113025761010080835404028352916020019161132d565b820191906000526020600020905b81548152906001019060200180831161131057829003601f168201915b5050505050905090565b6113496113426118d6565b8383611f75565b5050565b61135e6113586118d6565b83611a15565b61139d576040517f08c379a000000000000000000000000000000000000000000000000000000000815260040161139490613817565b60405180910390fd5b6113a9848484846120e2565b50505050565b6000600a600083815260200190815260200160002060009054906101000a900460ff16611411576040517f08c379a000000000000000000000000000000000000000000000000000000000815260040161140890613977565b60405180910390fd5b600b6000838152602001908152602001600020549050919050565b6000600954905090565b60606114418261213e565b9050919050565b6060601060008373ffffffffffffffffffffffffffffffffffffffff1673ffffffffffffffffffffffffffffffffffffffff1681526020019081526020016000208054806020026020016040519081016040528092919081815260200182805480156114d357602002820191906000526020600020905b8154815260200190600101908083116114bf575b50505050509050919050565b6114e7611997565b6000600d826040516114f99190613716565b90815260200160405180910390205414611548576040517f08c379a000000000000000000000000000000000000000000000000000000000815260040161153f906139d7565b60405180910390fd5b6115526008611f33565b600061155c6111f6565b9050600061156a6008611f49565b90506115768282612251565b6000600a600083815260200190815260200160002060006101000a81548160ff0219169083151502179055506115ac818561246f565b80600d846040516115bd9190613716565b908152602001604051809103902081905550601060008373ffffffffffffffffffffffffffffffffffffffff1673ffffffffffffffffffffffffffffffffffffffff16815260200190815260200160002081908060018154018082558091505060019003906000526020600020016000909190919091505560128190806001815401808255809150506001900390600052602060002001600090919091909150556013600081548092919061167190613d98565b919050555081600e600083815260200190815260200160002060006101000a81548173ffffffffffffffffffffffffffffffffffffffff021916908373ffffffffffffffffffffffffffffffffffffffff16021790555050505050565b6000600560008473ffffffffffffffffffffffffffffffffffffffff1673ffffffffffffffffffffffffffffffffffffffff16815260200190815260200160002060008373ffffffffffffffffffffffffffffffffffffffff1673ffffffffffffffffffffffffffffffffffffffff16815260200190815260200160002060009054906101000a900460ff16905092915050565b61176a611997565b80600c6000848152602001908152602001600020819055505050565b61178e611997565b600073ffffffffffffffffffffffffffffffffffffffff168173ffffffffffffffffffffffffffffffffffffffff1614156117fe576040517f08c379a00000000000000000000000000000000000000000000000000000000081526004016117f590613877565b60405180910390fd5b61180781611e2c565b50565b600060145460135461181c9190613bf5565b905090565b60007f01ffc9a7000000000000000000000000000000000000000000000000000000007bffffffffffffffffffffffffffffffffffffffffffffffffffffffff1916827bffffffffffffffffffffffffffffffffffffffffffffffffffffffff1916149050919050565b61189481611ef2565b6118d3576040517f08c379a00000000000000000000000000000000000000000000000000000000081526004016118ca90613a37565b60405180910390fd5b50565b600033905090565b816004600083815260200190815260200160002060006101000a81548173ffffffffffffffffffffffffffffffffffffffff021916908373ffffffffffffffffffffffffffffffffffffffff160217905550808273ffffffffffffffffffffffffffffffffffffffff1661195183610d08565b73ffffffffffffffffffffffffffffffffffffffff167f8c5be1e5ebec7d5bd14f71427d1e84f3dd0314c0f7b2291e5b200ac8c7c3b92560405160405180910390a45050565b61199f6118d6565b73ffffffffffffffffffffffffffffffffffffffff166119bd6111f6565b73ffffffffffffffffffffffffffffffffffffffff1614611a13576040517f08c379a0000000000000000000000000000000000000000000000000000000008152600401611a0a90613a17565b60405180910390fd5b565b600080611a2183610d08565b90508073ffffffffffffffffffffffffffffffffffffffff168473ffffffffffffffffffffffffffffffffffffffff161480611a635750611a6281856116ce565b5b80611aa157508373ffffffffffffffffffffffffffffffffffffffff16611a89846109d9565b73ffffffffffffffffffffffffffffffffffffffff16145b91505092915050565b611ab58383836124e3565b60005b601060008573ffffffffffffffffffffffffffffffffffffffff1673ffffffffffffffffffffffffffffffffffffffff16815260200190815260200160002080549050811015611d835781601060008673ffffffffffffffffffffffffffffffffffffffff1673ffffffffffffffffffffffffffffffffffffffff1681526020019081526020016000208281548110611b7a577f4e487b7100000000000000000000000000000000000000000000000000000000600052603260045260246000fd5b90600052602060002001541415611d7057601060008573ffffffffffffffffffffffffffffffffffffffff1673ffffffffffffffffffffffffffffffffffffffff1681526020019081526020016000206001601060008773ffffffffffffffffffffffffffffffffffffffff1673ffffffffffffffffffffffffffffffffffffffff16815260200190815260200160002080549050611c199190613c4b565b81548110611c50577f4e487b7100000000000000000000000000000000000000000000000000000000600052603260045260246000fd5b9060005260206000200154601060008673ffffffffffffffffffffffffffffffffffffffff1673ffffffffffffffffffffffffffffffffffffffff1681526020019081526020016000208281548110611cd2577f4e487b7100000000000000000000000000000000000000000000000000000000600052603260045260246000fd5b9060005260206000200181905550601060008573ffffffffffffffffffffffffffffffffffffffff1673ffffffffffffffffffffffffffffffffffffffff168152602001908152602001600020805480611d55577f4e487b7100000000000000000000000000000000000000000000000000000000600052603160045260246000fd5b60019003818190600052602060002001600090559055611d83565b8080611d7b90613d98565b915050611ab8565b50601060008373ffffffffffffffffffffffffffffffffffffffff1673ffffffffffffffffffffffffffffffffffffffff168152602001908152602001600020819080600181540180825580915050600190039060005260206000200160009091909190915055505050565b60006002600083815260200190815260200160002060009054906101000a900473ffffffffffffffffffffffffffffffffffffffff169050919050565b6000600760009054906101000a900473ffffffffffffffffffffffffffffffffffffffff16905081600760006101000a81548173ffffffffffffffffffffffffffffffffffffffff021916908373ffffffffffffffffffffffffffffffffffffffff1602179055508173ffffffffffffffffffffffffffffffffffffffff168173ffffffffffffffffffffffffffffffffffffffff167f8be0079c531659141344cd1fd0a4f28419497f9722a3daafe3b4186f6b6457e060405160405180910390a35050565b60008073ffffffffffffffffffffffffffffffffffffffff16611f1483611def565b73ffffffffffffffffffffffffffffffffffffffff1614159050919050565b6001816000016000828254019250508190555050565b600081600001549050919050565b611f718282604051806020016040528060008152506127dd565b5050565b8173ffffffffffffffffffffffffffffffffffffffff168373ffffffffffffffffffffffffffffffffffffffff161415611fe4576040517f08c379a0000000000000000000000000000000000000000000000000000000008152600401611fdb906138f7565b60405180910390fd5b80600560008573ffffffffffffffffffffffffffffffffffffffff1673ffffffffffffffffffffffffffffffffffffffff16815260200190815260200160002060008473ffffffffffffffffffffffffffffffffffffffff1673ffffffffffffffffffffffffffffffffffffffff16815260200190815260200160002060006101000a81548160ff0219169083151502179055508173ffffffffffffffffffffffffffffffffffffffff168373ffffffffffffffffffffffffffffffffffffffff167f17307eab39ab6107e8899845ad3d59bd9653f200f220920489ca2b5937696c31836040516120d591906137da565b60405180910390a3505050565b6120ed848484611aaa565b6120f984848484612838565b612138576040517f08c379a000000000000000000000000000000000000000000000000000000000815260040161212f90613857565b60405180910390fd5b50505050565b60606121498261188b565b600060066000848152602001908152602001600020805461216990613d35565b80601f016020809104026020016040519081016040528092919081815260200182805461219590613d35565b80156121e25780601f106121b7576101008083540402835291602001916121e2565b820191906000526020600020905b8154815290600101906020018083116121c557829003601f168201915b5050505050905060006121f36129cf565b905060008151141561220957819250505061224c565b60008251111561223e57808260405160200161222692919061372d565b6040516020818303038152906040529250505061224c565b612247846129e6565b925050505b919050565b600073ffffffffffffffffffffffffffffffffffffffff168273ffffffffffffffffffffffffffffffffffffffff1614156122c1576040517f08c379a00000000000000000000000000000000000000000000000000000000081526004016122b8906139f7565b60405180910390fd5b6122ca81611ef2565b1561230a576040517f08c379a0000000000000000000000000000000000000000000000000000000008152600401612301906138b7565b60405180910390fd5b612318600083836001612a4e565b61232181611ef2565b15612361576040517f08c379a0000000000000000000000000000000000000000000000000000000008152600401612358906138b7565b60405180910390fd5b6001600360008473ffffffffffffffffffffffffffffffffffffffff1673ffffffffffffffffffffffffffffffffffffffff16815260200190815260200160002060008282540192505081905550816002600083815260200190815260200160002060006101000a81548173ffffffffffffffffffffffffffffffffffffffff021916908373ffffffffffffffffffffffffffffffffffffffff160217905550808273ffffffffffffffffffffffffffffffffffffffff16600073ffffffffffffffffffffffffffffffffffffffff167fddf252ad1be2c89b69c2b068fc378daa952ba7f163c4a11628f55a4df523b3ef60405160405180910390a461246b600083836001612a54565b5050565b61247882611ef2565b6124b7576040517f08c379a00000000000000000000000000000000000000000000000000000000081526004016124ae906139b7565b60405180910390fd5b806006600084815260200190815260200160002090805190602001906124de929190612dd8565b505050565b8273ffffffffffffffffffffffffffffffffffffffff1661250382610d08565b73ffffffffffffffffffffffffffffffffffffffff1614612559576040517f08c379a000000000000000000000000000000000000000000000000000000000815260040161255090613897565b60405180910390fd5b600073ffffffffffffffffffffffffffffffffffffffff168273ffffffffffffffffffffffffffffffffffffffff1614156125c9576040517f08c379a00000000000000000000000000000000000000000000000000000000081526004016125c0906138d7565b60405180910390fd5b6125d68383836001612a4e565b8273ffffffffffffffffffffffffffffffffffffffff166125f682610d08565b73ffffffffffffffffffffffffffffffffffffffff161461264c576040517f08c379a000000000000000000000000000000000000000000000000000000000815260040161264390613897565b60405180910390fd5b6004600082815260200190815260200160002060006101000a81549073ffffffffffffffffffffffffffffffffffffffff02191690556001600360008573ffffffffffffffffffffffffffffffffffffffff1673ffffffffffffffffffffffffffffffffffffffff168152602001908152602001600020600082825403925050819055506001600360008473ffffffffffffffffffffffffffffffffffffffff1673ffffffffffffffffffffffffffffffffffffffff16815260200190815260200160002060008282540192505081905550816002600083815260200190815260200160002060006101000a81548173ffffffffffffffffffffffffffffffffffffffff021916908373ffffffffffffffffffffffffffffffffffffffff160217905550808273ffffffffffffffffffffffffffffffffffffffff168473ffffffffffffffffffffffffffffffffffffffff167fddf252ad1be2c89b69c2b068fc378daa952ba7f163c4a11628f55a4df523b3ef60405160405180910390a46127d88383836001612a54565b505050565b6127e78383612251565b6127f46000848484612838565b612833576040517f08c379a000000000000000000000000000000000000000000000000000000000815260040161282a90613857565b60405180910390fd5b505050565b60006128598473ffffffffffffffffffffffffffffffffffffffff16612a5a565b156129c2578373ffffffffffffffffffffffffffffffffffffffff1663150b7a026128826118d6565b8786866040518563ffffffff1660e01b81526004016128a4949392919061376c565b602060405180830381600087803b1580156128be57600080fd5b505af19250505080156128ef57506040513d601f19601f820116820180604052508101906128ec9190613184565b60015b612972573d806000811461291f576040519150601f19603f3d011682016040523d82523d6000602084013e612924565b606091505b5060008151141561296a576040517f08c379a000000000000000000000000000000000000000000000000000000000815260040161296190613857565b60405180910390fd5b805181602001fd5b63150b7a0260e01b7bffffffffffffffffffffffffffffffffffffffffffffffffffffffff1916817bffffffffffffffffffffffffffffffffffffffffffffffffffffffff1916149150506129c7565b600190505b949350505050565b606060405180602001604052806000815250905090565b60606129f18261188b565b60006129fb6129cf565b90506000815111612a1b5760405180602001604052806000815250612a46565b80612a2584612a7d565b604051602001612a3692919061372d565b6040516020818303038152906040525b915050919050565b50505050565b50505050565b6000808273ffffffffffffffffffffffffffffffffffffffff163b119050919050565b606060006001612a8c84612ba1565b01905060008167ffffffffffffffff811115612ad1577f4e487b7100000000000000000000000000000000000000000000000000000000600052604160045260246000fd5b6040519080825280601f01601f191660200182016040528015612b035781602001600182028036833780820191505090505b509050600082602001820190505b600115612b96578080600190039150507f3031323334353637383961626364656600000000000000000000000000000000600a86061a8153600a8581612b80577f4e487b7100000000000000000000000000000000000000000000000000000000600052601260045260246000fd5b0494506000851415612b9157612b96565b612b11565b819350505050919050565b600080600090507a184f03e93ff9f4daa797ed6e38ed64bf6a1f0100000000000000008310612c25577a184f03e93ff9f4daa797ed6e38ed64bf6a1f0100000000000000008381612c1b577f4e487b7100000000000000000000000000000000000000000000000000000000600052601260045260246000fd5b0492506040810190505b6d04ee2d6d415b85acef81000000008310612c88576d04ee2d6d415b85acef81000000008381612c7e577f4e487b7100000000000000000000000000000000000000000000000000000000600052601260045260246000fd5b0492506020810190505b662386f26fc100008310612cdd57662386f26fc100008381612cd3577f4e487b7100000000000000000000000000000000000000000000000000000000600052601260045260246000fd5b0492506010810190505b6305f5e1008310612d2c576305f5e1008381612d22577f4e487b7100000000000000000000000000000000000000000000000000000000600052601260045260246000fd5b0492506008810190505b6127108310612d77576127108381612d6d577f4e487b7100000000000000000000000000000000000000000000000000000000600052601260045260246000fd5b0492506004810190505b60648310612dc05760648381612db6577f4e487b7100000000000000000000000000000000000000000000000000000000600052601260045260246000fd5b0492506002810190505b600a8310612dcf576001810190505b80915050919050565b828054612de490613d35565b90600052602060002090601f016020900481019282612e065760008555612e4d565b82601f10612e1f57805160ff1916838001178555612e4d565b82800160010185558215612e4d579182015b82811115612e4c578251825591602001919060010190612e31565b5b509050612e5a9190612e5e565b5090565b5b80821115612e77576000816000905550600101612e5f565b5090565b6000612e8e612e8984613b17565b613af2565b905082815260208101848484011115612ea657600080fd5b612eb1848285613cf3565b509392505050565b6000612ecc612ec784613b48565b613af2565b905082815260208101848484011115612ee457600080fd5b612eef848285613cf3565b509392505050565b600081359050612f0681614381565b92915050565b600081359050612f1b81614398565b92915050565b600081359050612f30816143af565b92915050565b600081519050612f45816143af565b92915050565b600082601f830112612f5c57600080fd5b8135612f6c848260208601612e7b565b91505092915050565b600082601f830112612f8657600080fd5b8135612f96848260208601612eb9565b91505092915050565b600081359050612fae816143c6565b92915050565b600060208284031215612fc657600080fd5b6000612fd484828501612ef7565b91505092915050565b60008060408385031215612ff057600080fd5b6000612ffe85828601612ef7565b925050602061300f85828601612ef7565b9150509250929050565b60008060006060848603121561302e57600080fd5b600061303c86828701612ef7565b935050602061304d86828701612ef7565b925050604061305e86828701612f9f565b9150509250925092565b6000806000806080858703121561307e57600080fd5b600061308c87828801612ef7565b945050602061309d87828801612ef7565b93505060406130ae87828801612f9f565b925050606085013567ffffffffffffffff8111156130cb57600080fd5b6130d787828801612f4b565b91505092959194509250565b600080604083850312156130f657600080fd5b600061310485828601612ef7565b925050602061311585828601612f0c565b9150509250929050565b6000806040838503121561313257600080fd5b600061314085828601612ef7565b925050602061315185828601612f9f565b9150509250929050565b60006020828403121561316d57600080fd5b600061317b84828501612f21565b91505092915050565b60006020828403121561319657600080fd5b60006131a484828501612f36565b91505092915050565b6000602082840312156131bf57600080fd5b600082013567ffffffffffffffff8111156131d957600080fd5b6131e584828501612f75565b91505092915050565b6000806040838503121561320157600080fd5b600083013567ffffffffffffffff81111561321b57600080fd5b61322785828601612f75565b925050602083013567ffffffffffffffff81111561324457600080fd5b61325085828601612f75565b9150509250929050565b60006020828403121561326c57600080fd5b600061327a84828501612f9f565b91505092915050565b6000806040838503121561329657600080fd5b60006132a485828601612f9f565b92505060206132b585828601612f9f565b9150509250929050565b60006132cb83836136f8565b60208301905092915050565b6132e081613c7f565b82525050565b60006132f182613b89565b6132fb8185613bb7565b935061330683613b79565b8060005b8381101561333757815161331e88826132bf565b975061332983613baa565b92505060018101905061330a565b5085935050505092915050565b61334d81613c91565b82525050565b600061335e82613b94565b6133688185613bc8565b9350613378818560208601613d02565b61338181613e6e565b840191505092915050565b600061339782613b9f565b6133a18185613bd9565b93506133b1818560208601613d02565b6133ba81613e6e565b840191505092915050565b60006133d082613b9f565b6133da8185613bea565b93506133ea818560208601613d02565b80840191505092915050565b6000613403602d83613bd9565b915061340e82613e7f565b604082019050919050565b6000613426602183613bd9565b915061343182613ece565b604082019050919050565b6000613449603283613bd9565b915061345482613f1d565b604082019050919050565b600061346c602683613bd9565b915061347782613f6c565b604082019050919050565b600061348f602583613bd9565b915061349a82613fbb565b604082019050919050565b60006134b2601c83613bd9565b91506134bd8261400a565b602082019050919050565b60006134d5602483613bd9565b91506134e082614033565b604082019050919050565b60006134f8601983613bd9565b915061350382614082565b602082019050919050565b600061351b601483613bd9565b9150613526826140ab565b602082019050919050565b600061353e602083613bd9565b9150613549826140d4565b602082019050919050565b6000613561601483613bd9565b915061356c826140fd565b602082019050919050565b6000613584601483613bd9565b915061358f82614126565b602082019050919050565b60006135a7602983613bd9565b91506135b28261414f565b604082019050919050565b60006135ca602e83613bd9565b91506135d58261419e565b604082019050919050565b60006135ed601283613bd9565b91506135f8826141ed565b602082019050919050565b6000613610602083613bd9565b915061361b82614216565b602082019050919050565b6000613633602083613bd9565b915061363e8261423f565b602082019050919050565b6000613656601883613bd9565b915061366182614268565b602082019050919050565b6000613679601283613bd9565b915061368482614291565b602082019050919050565b600061369c601083613bd9565b91506136a7826142ba565b602082019050919050565b60006136bf602183613bd9565b91506136ca826142e3565b604082019050919050565b60006136e2603d83613bd9565b91506136ed82614332565b604082019050919050565b61370181613ce9565b82525050565b61371081613ce9565b82525050565b600061372282846133c5565b915081905092915050565b600061373982856133c5565b915061374582846133c5565b91508190509392505050565b600060208201905061376660008301846132d7565b92915050565b600060808201905061378160008301876132d7565b61378e60208301866132d7565b61379b6040830185613707565b81810360608301526137ad8184613353565b905095945050505050565b600060208201905081810360008301526137d281846132e6565b905092915050565b60006020820190506137ef6000830184613344565b92915050565b6000602082019050818103600083015261380f818461338c565b905092915050565b60006020820190508181036000830152613830816133f6565b9050919050565b6000602082019050818103600083015261385081613419565b9050919050565b600060208201905081810360008301526138708161343c565b9050919050565b600060208201905081810360008301526138908161345f565b9050919050565b600060208201905081810360008301526138b081613482565b9050919050565b600060208201905081810360008301526138d0816134a5565b9050919050565b600060208201905081810360008301526138f0816134c8565b9050919050565b60006020820190508181036000830152613910816134eb565b9050919050565b600060208201905081810360008301526139308161350e565b9050919050565b6000602082019050818103600083015261395081613531565b9050919050565b6000602082019050818103600083015261397081613554565b9050919050565b6000602082019050818103600083015261399081613577565b9050919050565b600060208201905081810360008301526139b08161359a565b9050919050565b600060208201905081810360008301526139d0816135bd565b9050919050565b600060208201905081810360008301526139f0816135e0565b9050919050565b60006020820190508181036000830152613a1081613603565b9050919050565b60006020820190508181036000830152613a3081613626565b9050919050565b60006020820190508181036000830152613a5081613649565b9050919050565b60006020820190508181036000830152613a708161366c565b9050919050565b60006020820190508181036000830152613a908161368f565b9050919050565b60006020820190508181036000830152613ab0816136b2565b9050919050565b60006020820190508181036000830152613ad0816136d5565b9050919050565b6000602082019050613aec6000830184613707565b92915050565b6000613afc613b0d565b9050613b088282613d67565b919050565b6000604051905090565b600067ffffffffffffffff821115613b3257613b31613e3f565b5b613b3b82613e6e565b9050602081019050919050565b600067ffffffffffffffff821115613b6357613b62613e3f565b5b613b6c82613e6e565b9050602081019050919050565b6000819050602082019050919050565b600081519050919050565b600081519050919050565b600081519050919050565b6000602082019050919050565b600082825260208201905092915050565b600082825260208201905092915050565b600082825260208201905092915050565b600081905092915050565b6000613c0082613ce9565b9150613c0b83613ce9565b9250827fffffffffffffffffffffffffffffffffffffffffffffffffffffffffffffffff03821115613c4057613c3f613de1565b5b828201905092915050565b6000613c5682613ce9565b9150613c6183613ce9565b925082821015613c7457613c73613de1565b5b828203905092915050565b6000613c8a82613cc9565b9050919050565b60008115159050919050565b60007fffffffff0000000000000000000000000000000000000000000000000000000082169050919050565b600073ffffffffffffffffffffffffffffffffffffffff82169050919050565b6000819050919050565b82818337600083830152505050565b60005b83811015613d20578082015181840152602081019050613d05565b83811115613d2f576000848401525b50505050565b60006002820490506001821680613d4d57607f821691505b60208210811415613d6157613d60613e10565b5b50919050565b613d7082613e6e565b810181811067ffffffffffffffff82111715613d8f57613d8e613e3f565b5b80604052505050565b6000613da382613ce9565b91507fffffffffffffffffffffffffffffffffffffffffffffffffffffffffffffffff821415613dd657613dd5613de1565b5b600182019050919050565b7f4e487b7100000000000000000000000000000000000000000000000000000000600052601160045260246000fd5b7f4e487b7100000000000000000000000000000000000000000000000000000000600052602260045260246000fd5b7f4e487b7100000000000000000000000000000000000000000000000000000000600052604160045260246000fd5b6000601f19601f8301169050919050565b7f4552433732313a2063616c6c6572206973206e6f7420746f6b656e206f776e6560008201527f72206f7220617070726f76656400000000000000000000000000000000000000602082015250565b7f546f6b656e206973206120636c6f6e652c206e6f7420616e206f726967696e6160008201527f6c00000000000000000000000000000000000000000000000000000000000000602082015250565b7f4552433732313a207472616e7366657220746f206e6f6e20455243373231526560008201527f63656976657220696d706c656d656e7465720000000000000000000000000000602082015250565b7f4f776e61626c653a206e6577206f776e657220697320746865207a65726f206160008201527f6464726573730000000000000000000000000000000000000000000000000000602082015250565b7f4552433732313a207472616e736665722066726f6d20696e636f72726563742060008201527f6f776e6572000000000000000000000000000000000000000000000000000000602082015250565b7f4552433732313a20746f6b656e20616c7265616479206d696e74656400000000600082015250565b7f4552433732313a207472616e7366657220746f20746865207a65726f2061646460008201527f7265737300000000000000000000000000000000000000000000000000000000602082015250565b7f4552433732313a20617070726f766520746f2063616c6c657200000000000000600082015250565b7f43616e6e6f7420636c6f6e65206120636c6f6e65000000000000000000000000600082015250565b7f496e73756666696369656e742066756e647320746f206d696e7420636c6f6e65600082015250565b7f546f6b656e20646f6573206e6f74206578697374000000000000000000000000600082015250565b7f546f6b656e206973206e6f74206120636c6f6e65000000000000000000000000600082015250565b7f4552433732313a2061646472657373207a65726f206973206e6f74206120766160008201527f6c6964206f776e65720000000000000000000000000000000000000000000000602082015250565b7f45524337323155524953746f726167653a2055524920736574206f66206e6f6e60008201527f6578697374656e7420746f6b656e000000000000000000000000000000000000602082015250565b7f55524c20616c7265616479206578697374730000000000000000000000000000600082015250565b7f4552433732313a206d696e7420746f20746865207a65726f2061646472657373600082015250565b7f4f776e61626c653a2063616c6c6572206973206e6f7420746865206f776e6572600082015250565b7f4552433732313a20696e76616c696420746f6b656e2049440000000000000000600082015250565b7f55524c20646f6573206e6f742065786973740000000000000000000000000000600082015250565b7f496e76616c696420746f6b656e20494400000000000000000000000000000000600082015250565b7f4552433732313a20617070726f76616c20746f2063757272656e74206f776e6560008201527f7200000000000000000000000000000000000000000000000000000000000000602082015250565b7f4552433732313a20617070726f76652063616c6c6572206973206e6f7420746f60008201527f6b656e206f776e6572206f7220617070726f76656420666f7220616c6c000000602082015250565b61438a81613c7f565b811461439557600080fd5b50565b6143a181613c91565b81146143ac57600080fd5b50565b6143b881613c9d565b81146143c357600080fd5b50565b6143cf81613ce9565b81146143da57600080fd5b5056fea26469706673582212202497f6503ede148a52aefb85afc194a6119f4c3fb4065518bb1ad2b0b232807564736f6c63430008010033",
  "linkReferences": {},
  "deployedLinkReferences": {}
}