{
  "_format": "hh-sol-artifact-1",
  "contractName": "CloneableNFT",
  "sourceName": "contracts/ClonableNFT.sol",
  "abi": [
    {
      "inputs": [
        {
          "internalType": "string",
          "name": "name",
          "type": "string"
        },
        {
          "internalType": "string",
          "name": "symbol",
          "type": "string"
        }
      ],
      "stateMutability": "nonpayable",
      "type": "constructor"
    },
    {
      "anonymous": false,
      "inputs": [
        {
          "indexed": true,
          "internalType": "address",
          "name": "owner",
          "type": "address"
        },
        {
          "indexed": true,
          "internalType": "address",
          "name": "approved",
          "type": "address"
        },
        {
          "indexed": true,
          "internalType": "uint256",
          "name": "tokenId",
          "type": "uint256"
        }
      ],
      "name": "Approval",
      "type": "event"
    },
    {
      "anonymous": false,
      "inputs": [
        {
          "indexed": true,
          "internalType": "address",
          "name": "owner",
          "type": "address"
        },
        {
          "indexed": true,
          "internalType": "address",
          "name": "operator",
          "type": "address"
        },
        {
          "indexed": false,
          "internalType": "bool",
          "name": "approved",
          "type": "bool"
        }
      ],
      "name": "ApprovalForAll",
      "type": "event"
    },
    {
      "anonymous": false,
      "inputs": [
        {
          "indexed": true,
          "internalType": "address",
          "name": "previousOwner",
          "type": "address"
        },
        {
          "indexed": true,
          "internalType": "address",
          "name": "newOwner",
          "type": "address"
        }
      ],
      "name": "OwnershipTransferred",
      "type": "event"
    },
    {
      "anonymous": false,
      "inputs": [
        {
          "indexed": true,
          "internalType": "address",
          "name": "from",
          "type": "address"
        },
        {
          "indexed": true,
          "internalType": "address",
          "name": "to",
          "type": "address"
        },
        {
          "indexed": true,
          "internalType": "uint256",
          "name": "tokenId",
          "type": "uint256"
        }
      ],
      "name": "Transfer",
      "type": "event"
    },
    {
      "inputs": [
        {
          "internalType": "address",
          "name": "to",
          "type": "address"
        },
        {
          "internalType": "uint256",
          "name": "tokenId",
          "type": "uint256"
        }
      ],
      "name": "approve",
      "outputs": [],
      "stateMutability": "nonpayable",
      "type": "function"
    },
    {
      "inputs": [
        {
          "internalType": "address",
          "name": "owner",
          "type": "address"
        }
      ],
      "name": "balanceOf",
      "outputs": [
        {
          "internalType": "uint256",
          "name": "",
          "type": "uint256"
        }
      ],
      "stateMutability": "view",
      "type": "function"
    },
    {
      "inputs": [
        {
          "internalType": "uint256",
          "name": "tokenId",
          "type": "uint256"
        }
      ],
      "name": "getApproved",
      "outputs": [
        {
          "internalType": "address",
          "name": "",
          "type": "address"
        }
      ],
      "stateMutability": "view",
      "type": "function"
    },
    {
      "inputs": [],
      "name": "getDefaultClonePrice",
      "outputs": [
        {
          "internalType": "uint256",
          "name": "",
          "type": "uint256"
        }
      ],
      "stateMutability": "view",
      "type": "function"
    },
    {
      "inputs": [
        {
          "internalType": "uint256",
          "name": "tokenId",
          "type": "uint256"
        }
      ],
      "name": "getOriginal",
      "outputs": [
        {
          "internalType": "uint256",
          "name": "",
          "type": "uint256"
        }
      ],
      "stateMutability": "view",
      "type": "function"
    },
    {
      "inputs": [
        {
          "internalType": "address",
          "name": "owner",
          "type": "address"
        }
      ],
      "name": "getOwnedTokens",
      "outputs": [
        {
          "internalType": "uint256[]",
          "name": "",
          "type": "uint256[]"
        }
      ],
      "stateMutability": "view",
      "type": "function"
    },
    {
      "inputs": [
        {
          "internalType": "string",
          "name": "_url",
          "type": "string"
        }
      ],
      "name": "getTokenIdByUrl",
      "outputs": [
        {
          "internalType": "uint256",
          "name": "",
          "type": "uint256"
        }
      ],
      "stateMutability": "view",
      "type": "function"
    },
    {
      "inputs": [],
      "name": "getTotalMintClonedTokens",
      "outputs": [
        {
          "internalType": "uint256",
          "name": "",
          "type": "uint256"
        }
      ],
      "stateMutability": "view",
      "type": "function"
    },
    {
      "inputs": [],
      "name": "getTotalMintOriginalTokens",
      "outputs": [
        {
          "internalType": "uint256",
          "name": "",
          "type": "uint256"
        }
      ],
      "stateMutability": "view",
      "type": "function"
    },
    {
      "inputs": [],
      "name": "getTotalMintedTokens",
      "outputs": [
        {
          "internalType": "uint256",
          "name": "",
          "type": "uint256"
        }
      ],
      "stateMutability": "view",
      "type": "function"
    },
    {
      "inputs": [
        {
          "internalType": "address",
          "name": "owner",
          "type": "address"
        },
        {
          "internalType": "address",
          "name": "operator",
          "type": "address"
        }
      ],
      "name": "isApprovedForAll",
      "outputs": [
        {
          "internalType": "bool",
          "name": "",
          "type": "bool"
        }
      ],
      "stateMutability": "view",
      "type": "function"
    },
    {
      "inputs": [
        {
          "internalType": "uint256",
          "name": "tokenId",
          "type": "uint256"
        }
      ],
      "name": "isClone",
      "outputs": [
        {
          "internalType": "bool",
          "name": "",
          "type": "bool"
        }
      ],
      "stateMutability": "view",
      "type": "function"
    },
    {
      "inputs": [
        {
          "internalType": "uint256",
          "name": "tokenId",
          "type": "uint256"
        },
        {
          "internalType": "string",
          "name": "_url",
          "type": "string"
        }
      ],
      "name": "mintClone",
      "outputs": [],
      "stateMutability": "payable",
      "type": "function"
    },
    {
      "inputs": [
        {
          "internalType": "string",
          "name": "_tokenURI",
          "type": "string"
        },
        {
          "internalType": "string",
          "name": "_url",
          "type": "string"
        }
      ],
      "name": "mintNFT",
      "outputs": [],
      "stateMutability": "nonpayable",
      "type": "function"
    },
    {
      "inputs": [],
      "name": "name",
      "outputs": [
        {
          "internalType": "string",
          "name": "",
          "type": "string"
        }
      ],
      "stateMutability": "view",
      "type": "function"
    },
    {
      "inputs": [],
      "name": "owner",
      "outputs": [
        {
          "internalType": "address",
          "name": "",
          "type": "address"
        }
      ],
      "stateMutability": "view",
      "type": "function"
    },
    {
      "inputs": [
        {
          "internalType": "uint256",
          "name": "tokenId",
          "type": "uint256"
        }
      ],
      "name": "ownerOf",
      "outputs": [
        {
          "internalType": "address",
          "name": "",
          "type": "address"
        }
      ],
      "stateMutability": "view",
      "type": "function"
    },
    {
      "inputs": [],
      "name": "renounceOwnership",
      "outputs": [],
      "stateMutability": "nonpayable",
      "type": "function"
    },
    {
      "inputs": [
        {
          "internalType": "address",
          "name": "from",
          "type": "address"
        },
        {
          "internalType": "address",
          "name": "to",
          "type": "address"
        },
        {
          "internalType": "uint256",
          "name": "tokenId",
          "type": "uint256"
        }
      ],
      "name": "safeTransferFrom",
      "outputs": [],
      "stateMutability": "nonpayable",
      "type": "function"
    },
    {
      "inputs": [
        {
          "internalType": "address",
          "name": "from",
          "type": "address"
        },
        {
          "internalType": "address",
          "name": "to",
          "type": "address"
        },
        {
          "internalType": "uint256",
          "name": "tokenId",
          "type": "uint256"
        },
        {
          "internalType": "bytes",
          "name": "data",
          "type": "bytes"
        }
      ],
      "name": "safeTransferFrom",
      "outputs": [],
      "stateMutability": "nonpayable",
      "type": "function"
    },
    {
      "inputs": [
        {
          "internalType": "address",
          "name": "operator",
          "type": "address"
        },
        {
          "internalType": "bool",
          "name": "approved",
          "type": "bool"
        }
      ],
      "name": "setApprovalForAll",
      "outputs": [],
      "stateMutability": "nonpayable",
      "type": "function"
    },
    {
      "inputs": [
        {
          "internalType": "uint256",
          "name": "tokenId",
          "type": "uint256"
        },
        {
          "internalType": "uint256",
          "name": "newPrice",
          "type": "uint256"
        }
      ],
      "name": "setClonePrice",
      "outputs": [],
      "stateMutability": "nonpayable",
      "type": "function"
    },
    {
      "inputs": [
        {
          "internalType": "uint256",
          "name": "newPrice",
          "type": "uint256"
        }
      ],
      "name": "setDefaultClonePrice",
      "outputs": [],
      "stateMutability": "nonpayable",
      "type": "function"
    },
    {
      "inputs": [
        {
          "internalType": "bytes4",
          "name": "interfaceId",
          "type": "bytes4"
        }
      ],
      "name": "supportsInterface",
      "outputs": [
        {
          "internalType": "bool",
          "name": "",
          "type": "bool"
        }
      ],
      "stateMutability": "view",
      "type": "function"
    },
    {
      "inputs": [],
      "name": "symbol",
      "outputs": [
        {
          "internalType": "string",
          "name": "",
          "type": "string"
        }
      ],
      "stateMutability": "view",
      "type": "function"
    },
    {
      "inputs": [
        {
          "internalType": "uint256",
          "name": "tokenId",
          "type": "uint256"
        }
      ],
      "name": "tokenURI",
      "outputs": [
        {
          "internalType": "string",
          "name": "",
          "type": "string"
        }
      ],
      "stateMutability": "view",
      "type": "function"
    },
    {
      "inputs": [
        {
          "internalType": "address",
          "name": "from",
          "type": "address"
        },
        {
          "internalType": "address",
          "name": "to",
          "type": "address"
        },
        {
          "internalType": "uint256",
          "name": "tokenId",
          "type": "uint256"
        }
      ],
      "name": "transferFrom",
      "outputs": [],
      "stateMutability": "nonpayable",
      "type": "function"
    },
    {
      "inputs": [
        {
          "internalType": "address",
          "name": "newOwner",
          "type": "address"
        }
      ],
      "name": "transferOwnership",
      "outputs": [],
      "stateMutability": "nonpayable",
      "type": "function"
    },
    {
      "inputs": [],
      "name": "withdraw",
      "outputs": [],
      "stateMutability": "nonpayable",
      "type": "function"
    }
  ],
  "bytecode": "0x6080604052662386f26fc100006009553480156200001c57600080fd5b506040516200434438038062004344833981810160405281019062000042919062000290565b818181600090805190602001906200005c9291906200016e565b508060019080519060200190620000759291906200016e565b505050620000986200008c620000a060201b60201c565b620000a860201b60201c565b505062000473565b600033905090565b6000600760009054906101000a900473ffffffffffffffffffffffffffffffffffffffff16905081600760006101000a81548173ffffffffffffffffffffffffffffffffffffffff021916908373ffffffffffffffffffffffffffffffffffffffff1602179055508173ffffffffffffffffffffffffffffffffffffffff168173ffffffffffffffffffffffffffffffffffffffff167f8be0079c531659141344cd1fd0a4f28419497f9722a3daafe3b4186f6b6457e060405160405180910390a35050565b8280546200017c9062000398565b90600052602060002090601f016020900481019282620001a05760008555620001ec565b82601f10620001bb57805160ff1916838001178555620001ec565b82800160010185558215620001ec579182015b82811115620001eb578251825591602001919060010190620001ce565b5b509050620001fb9190620001ff565b5090565b5b808211156200021a57600081600090555060010162000200565b5090565b6000620002356200022f846200032c565b62000303565b9050828152602081018484840111156200024e57600080fd5b6200025b84828562000362565b509392505050565b600082601f8301126200027557600080fd5b8151620002878482602086016200021e565b91505092915050565b60008060408385031215620002a457600080fd5b600083015167ffffffffffffffff811115620002bf57600080fd5b620002cd8582860162000263565b925050602083015167ffffffffffffffff811115620002eb57600080fd5b620002f98582860162000263565b9150509250929050565b60006200030f62000322565b90506200031d8282620003ce565b919050565b6000604051905090565b600067ffffffffffffffff8211156200034a576200034962000433565b5b620003558262000462565b9050602081019050919050565b60005b838110156200038257808201518184015260208101905062000365565b8381111562000392576000848401525b50505050565b60006002820490506001821680620003b157607f821691505b60208210811415620003c857620003c762000404565b5b50919050565b620003d98262000462565b810181811067ffffffffffffffff82111715620003fb57620003fa62000433565b5b80604052505050565b7f4e487b7100000000000000000000000000000000000000000000000000000000600052602260045260246000fd5b7f4e487b7100000000000000000000000000000000000000000000000000000000600052604160045260246000fd5b6000601f19601f8301169050919050565b613ec180620004836000396000f3fe6080604052600436106101c25760003560e01c8063715018a6116100f7578063c6af112211610095578063e985e9c511610064578063e985e9c514610657578063ef74248d14610694578063f2fde38b146106bd578063f67a769c146106e6576101c2565b8063c6af112214610589578063c87b56dd146105b4578063d9d61655146105f1578063e96055441461062e576101c2565b806395d89b41116100d157806395d89b41146104cf578063a22cb465146104fa578063b88d4fde14610523578063bc8c778f1461054c576101c2565b8063715018a6146104625780637d5298b9146104795780638da5cb5b146104a4576101c2565b80632aa2e90a1161016457806342842e0e1161013e57806342842e0e146103945780634da6de3f146103bd5780636352211e146103e857806370a0823114610425576101c2565b80632aa2e90a14610324578063385eda9c146103405780633ccfd60b1461037d576101c2565b8063095ea7b3116101a0578063095ea7b31461026c5780631741f3e2146102955780631a2b285e146102d257806323b872dd146102fb576101c2565b806301ffc9a7146101c757806306fdde0314610204578063081812fc1461022f575b600080fd5b3480156101d357600080fd5b506101ee60048036038101906101e99190612d1f565b610711565b6040516101fb9190613389565b60405180910390f35b34801561021057600080fd5b506102196107f3565b60405161022691906133a4565b60405180910390f35b34801561023b57600080fd5b5061025660048036038101906102519190612e1e565b610885565b6040516102639190613300565b60405180910390f35b34801561027857600080fd5b50610293600480360381019061028e9190612ce3565b6108cb565b005b3480156102a157600080fd5b506102bc60048036038101906102b79190612d71565b6109e3565b6040516102c99190613626565b60405180910390f35b3480156102de57600080fd5b506102f960048036038101906102f49190612e1e565b610a6c565b005b34801561030757600080fd5b50610322600480360381019061031d9190612bdd565b610a7e565b005b61033e60048036038101906103399190612e47565b610ade565b005b34801561034c57600080fd5b5061036760048036038101906103629190612e1e565b610d12565b6040516103749190613389565b60405180910390f35b34801561038957600080fd5b50610392610d3c565b005b3480156103a057600080fd5b506103bb60048036038101906103b69190612bdd565b610d94565b005b3480156103c957600080fd5b506103d2610db4565b6040516103df9190613626565b60405180910390f35b3480156103f457600080fd5b5061040f600480360381019061040a9190612e1e565b610dbe565b60405161041c9190613300565b60405180910390f35b34801561043157600080fd5b5061044c60048036038101906104479190612b78565b610e45565b6040516104599190613626565b60405180910390f35b34801561046e57600080fd5b50610477610efd565b005b34801561048557600080fd5b5061048e610f11565b60405161049b9190613626565b60405180910390f35b3480156104b057600080fd5b506104b9610f1b565b6040516104c69190613300565b60405180910390f35b3480156104db57600080fd5b506104e4610f45565b6040516104f191906133a4565b60405180910390f35b34801561050657600080fd5b50610521600480360381019061051c9190612ca7565b610fd7565b005b34801561052f57600080fd5b5061054a60048036038101906105459190612c2c565b610fed565b005b34801561055857600080fd5b50610573600480360381019061056e9190612e1e565b61104f565b6040516105809190613626565b60405180910390f35b34801561059557600080fd5b5061059e6110cc565b6040516105ab9190613626565b60405180910390f35b3480156105c057600080fd5b506105db60048036038101906105d69190612e1e565b6110d6565b6040516105e891906133a4565b60405180910390f35b3480156105fd57600080fd5b5061061860048036038101906106139190612b78565b6110e8565b6040516106259190613367565b60405180910390f35b34801561063a57600080fd5b5061065560048036038101906106509190612db2565b61117f565b005b34801561066357600080fd5b5061067e60048036038101906106799190612ba1565b611292565b60405161068b9190613389565b60405180910390f35b3480156106a057600080fd5b506106bb60048036038101906106b69190612e9b565b611326565b005b3480156106c957600080fd5b506106e460048036038101906106df9190612b78565b61134a565b005b3480156106f257600080fd5b506106fb6113ce565b6040516107089190613626565b60405180910390f35b60007f80ac58cd000000000000000000000000000000000000000000000000000000007bffffffffffffffffffffffffffffffffffffffffffffffffffffffff1916827bffffffffffffffffffffffffffffffffffffffffffffffffffffffff191614806107dc57507f5b5e139f000000000000000000000000000000000000000000000000000000007bffffffffffffffffffffffffffffffffffffffffffffffffffffffff1916827bffffffffffffffffffffffffffffffffffffffffffffffffffffffff1916145b806107ec57506107eb826113e5565b5b9050919050565b60606000805461080290613884565b80601f016020809104026020016040519081016040528092919081815260200182805461082e90613884565b801561087b5780601f106108505761010080835404028352916020019161087b565b820191906000526020600020905b81548152906001019060200180831161085e57829003601f168201915b5050505050905090565b60006108908261144f565b6004600083815260200190815260200160002060009054906101000a900473ffffffffffffffffffffffffffffffffffffffff169050919050565b60006108d682610dbe565b90508073ffffffffffffffffffffffffffffffffffffffff168373ffffffffffffffffffffffffffffffffffffffff161415610947576040517f08c379a000000000000000000000000000000000000000000000000000000000815260040161093e906135e6565b60405180910390fd5b8073ffffffffffffffffffffffffffffffffffffffff1661096661149a565b73ffffffffffffffffffffffffffffffffffffffff16148061099557506109948161098f61149a565b611292565b5b6109d4576040517f08c379a00000000000000000000000000000000000000000000000000000000081526004016109cb90613606565b60405180910390fd5b6109de83836114a2565b505050565b600080600d836040516109f691906132c5565b9081526020016040518091039020541415610a46576040517f08c379a0000000000000000000000000000000000000000000000000000000008152600401610a3d906135a6565b60405180910390fd5b600d82604051610a5691906132c5565b9081526020016040518091039020549050919050565b610a7461155b565b8060098190555050565b610a8f610a8961149a565b826115d9565b610ace576040517f08c379a0000000000000000000000000000000000000000000000000000000008152600401610ac5906133c6565b60405180910390fd5b610ad983838361166e565b505050565b610ae7826119b3565b610b26576040517f08c379a0000000000000000000000000000000000000000000000000000000008152600401610b1d906135c6565b60405180910390fd5b600a600083815260200190815260200160002060009054906101000a900460ff1615610b87576040517f08c379a0000000000000000000000000000000000000000000000000000000008152600401610b7e906134a6565b60405180910390fd5b600080600c60008581526020019081526020016000205411610bab57600954610bc0565b600c6000848152602001908152602001600020545b905080341015610c05576040517f08c379a0000000000000000000000000000000000000000000000000000000008152600401610bfc906134c6565b60405180910390fd5b610c0f60086119f4565b6000610c1b6008611a0a565b9050610c273382611a18565b6001600a600083815260200190815260200160002060006101000a81548160ff02191690831515021790555083600b60008381526020019081526020016000208190555080600d84604051610c7c91906132c5565b908152602001604051809103902081905550600e60003373ffffffffffffffffffffffffffffffffffffffff1673ffffffffffffffffffffffffffffffffffffffff16815260200190815260200160002081908060018154018082558091505060019003906000526020600020016000909190919091505560106000815480929190610d07906138e7565b919050555050505050565b6000600a600083815260200190815260200160002060009054906101000a900460ff169050919050565b610d4461155b565b610d4c610f1b565b73ffffffffffffffffffffffffffffffffffffffff166108fc479081150290604051600060405180830381858888f19350505050158015610d91573d6000803e3d6000fd5b50565b610daf83838360405180602001604052806000815250610fed565b505050565b6000600f54905090565b600080610dca83611a36565b9050600073ffffffffffffffffffffffffffffffffffffffff168173ffffffffffffffffffffffffffffffffffffffff161415610e3c576040517f08c379a0000000000000000000000000000000000000000000000000000000008152600401610e3390613586565b60405180910390fd5b80915050919050565b60008073ffffffffffffffffffffffffffffffffffffffff168273ffffffffffffffffffffffffffffffffffffffff161415610eb6576040517f08c379a0000000000000000000000000000000000000000000000000000000008152600401610ead90613506565b60405180910390fd5b600360008373ffffffffffffffffffffffffffffffffffffffff1673ffffffffffffffffffffffffffffffffffffffff168152602001908152602001600020549050919050565b610f0561155b565b610f0f6000611a73565b565b6000601054905090565b6000600760009054906101000a900473ffffffffffffffffffffffffffffffffffffffff16905090565b606060018054610f5490613884565b80601f0160208091040260200160405190810160405280929190818152602001828054610f8090613884565b8015610fcd5780601f10610fa257610100808354040283529160200191610fcd565b820191906000526020600020905b815481529060010190602001808311610fb057829003601f168201915b5050505050905090565b610fe9610fe261149a565b8383611b39565b5050565b610ffe610ff861149a565b836115d9565b61103d576040517f08c379a0000000000000000000000000000000000000000000000000000000008152600401611034906133c6565b60405180910390fd5b61104984848484611ca6565b50505050565b6000600a600083815260200190815260200160002060009054906101000a900460ff166110b1576040517f08c379a00000000000000000000000000000000000000000000000000000000081526004016110a8906134e6565b60405180910390fd5b600b6000838152602001908152602001600020549050919050565b6000600954905090565b60606110e182611d02565b9050919050565b6060600e60008373ffffffffffffffffffffffffffffffffffffffff1673ffffffffffffffffffffffffffffffffffffffff16815260200190815260200160002080548060200260200160405190810160405280929190818152602001828054801561117357602002820191906000526020600020905b81548152602001906001019080831161115f575b50505050509050919050565b61118761155b565b61119160086119f4565b600061119b610f1b565b905060006111a96008611a0a565b90506111b58282611e15565b6000600a600083815260200190815260200160002060006101000a81548160ff0219169083151502179055506111eb8185612033565b80600d846040516111fc91906132c5565b908152602001604051809103902081905550600e60008373ffffffffffffffffffffffffffffffffffffffff1673ffffffffffffffffffffffffffffffffffffffff168152602001908152602001600020819080600181540180825580915050600190039060005260206000200160009091909190915055600f6000815480929190611287906138e7565b919050555050505050565b6000600560008473ffffffffffffffffffffffffffffffffffffffff1673ffffffffffffffffffffffffffffffffffffffff16815260200190815260200160002060008373ffffffffffffffffffffffffffffffffffffffff1673ffffffffffffffffffffffffffffffffffffffff16815260200190815260200160002060009054906101000a900460ff16905092915050565b61132e61155b565b80600c6000848152602001908152602001600020819055505050565b61135261155b565b600073ffffffffffffffffffffffffffffffffffffffff168173ffffffffffffffffffffffffffffffffffffffff1614156113c2576040517f08c379a00000000000000000000000000000000000000000000000000000000081526004016113b990613406565b60405180910390fd5b6113cb81611a73565b50565b6000601054600f546113e09190613744565b905090565b60007f01ffc9a7000000000000000000000000000000000000000000000000000000007bffffffffffffffffffffffffffffffffffffffffffffffffffffffff1916827bffffffffffffffffffffffffffffffffffffffffffffffffffffffff1916149050919050565b611458816119b3565b611497576040517f08c379a000000000000000000000000000000000000000000000000000000000815260040161148e90613586565b60405180910390fd5b50565b600033905090565b816004600083815260200190815260200160002060006101000a81548173ffffffffffffffffffffffffffffffffffffffff021916908373ffffffffffffffffffffffffffffffffffffffff160217905550808273ffffffffffffffffffffffffffffffffffffffff1661151583610dbe565b73ffffffffffffffffffffffffffffffffffffffff167f8c5be1e5ebec7d5bd14f71427d1e84f3dd0314c0f7b2291e5b200ac8c7c3b92560405160405180910390a45050565b61156361149a565b73ffffffffffffffffffffffffffffffffffffffff16611581610f1b565b73ffffffffffffffffffffffffffffffffffffffff16146115d7576040517f08c379a00000000000000000000000000000000000000000000000000000000081526004016115ce90613566565b60405180910390fd5b565b6000806115e583610dbe565b90508073ffffffffffffffffffffffffffffffffffffffff168473ffffffffffffffffffffffffffffffffffffffff16148061162757506116268185611292565b5b8061166557508373ffffffffffffffffffffffffffffffffffffffff1661164d84610885565b73ffffffffffffffffffffffffffffffffffffffff16145b91505092915050565b6116798383836120a7565b60005b600e60008573ffffffffffffffffffffffffffffffffffffffff1673ffffffffffffffffffffffffffffffffffffffff168152602001908152602001600020805490508110156119475781600e60008673ffffffffffffffffffffffffffffffffffffffff1673ffffffffffffffffffffffffffffffffffffffff168152602001908152602001600020828154811061173e577f4e487b7100000000000000000000000000000000000000000000000000000000600052603260045260246000fd5b9060005260206000200154141561193457600e60008573ffffffffffffffffffffffffffffffffffffffff1673ffffffffffffffffffffffffffffffffffffffff1681526020019081526020016000206001600e60008773ffffffffffffffffffffffffffffffffffffffff1673ffffffffffffffffffffffffffffffffffffffff168152602001908152602001600020805490506117dd919061379a565b81548110611814577f4e487b7100000000000000000000000000000000000000000000000000000000600052603260045260246000fd5b9060005260206000200154600e60008673ffffffffffffffffffffffffffffffffffffffff1673ffffffffffffffffffffffffffffffffffffffff1681526020019081526020016000208281548110611896577f4e487b7100000000000000000000000000000000000000000000000000000000600052603260045260246000fd5b9060005260206000200181905550600e60008573ffffffffffffffffffffffffffffffffffffffff1673ffffffffffffffffffffffffffffffffffffffff168152602001908152602001600020805480611919577f4e487b7100000000000000000000000000000000000000000000000000000000600052603160045260246000fd5b60019003818190600052602060002001600090559055611947565b808061193f906138e7565b91505061167c565b50600e60008373ffffffffffffffffffffffffffffffffffffffff1673ffffffffffffffffffffffffffffffffffffffff168152602001908152602001600020819080600181540180825580915050600190039060005260206000200160009091909190915055505050565b60008073ffffffffffffffffffffffffffffffffffffffff166119d583611a36565b73ffffffffffffffffffffffffffffffffffffffff1614159050919050565b6001816000016000828254019250508190555050565b600081600001549050919050565b611a328282604051806020016040528060008152506123a1565b5050565b60006002600083815260200190815260200160002060009054906101000a900473ffffffffffffffffffffffffffffffffffffffff169050919050565b6000600760009054906101000a900473ffffffffffffffffffffffffffffffffffffffff16905081600760006101000a81548173ffffffffffffffffffffffffffffffffffffffff021916908373ffffffffffffffffffffffffffffffffffffffff1602179055508173ffffffffffffffffffffffffffffffffffffffff168173ffffffffffffffffffffffffffffffffffffffff167f8be0079c531659141344cd1fd0a4f28419497f9722a3daafe3b4186f6b6457e060405160405180910390a35050565b8173ffffffffffffffffffffffffffffffffffffffff168373ffffffffffffffffffffffffffffffffffffffff161415611ba8576040517f08c379a0000000000000000000000000000000000000000000000000000000008152600401611b9f90613486565b60405180910390fd5b80600560008573ffffffffffffffffffffffffffffffffffffffff1673ffffffffffffffffffffffffffffffffffffffff16815260200190815260200160002060008473ffffffffffffffffffffffffffffffffffffffff1673ffffffffffffffffffffffffffffffffffffffff16815260200190815260200160002060006101000a81548160ff0219169083151502179055508173ffffffffffffffffffffffffffffffffffffffff168373ffffffffffffffffffffffffffffffffffffffff167f17307eab39ab6107e8899845ad3d59bd9653f200f220920489ca2b5937696c3183604051611c999190613389565b60405180910390a3505050565b611cb184848461166e565b611cbd848484846123fc565b611cfc576040517f08c379a0000000000000000000000000000000000000000000000000000000008152600401611cf3906133e6565b60405180910390fd5b50505050565b6060611d0d8261144f565b6000600660008481526020019081526020016000208054611d2d90613884565b80601f0160208091040260200160405190810160405280929190818152602001828054611d5990613884565b8015611da65780601f10611d7b57610100808354040283529160200191611da6565b820191906000526020600020905b815481529060010190602001808311611d8957829003601f168201915b505050505090506000611db7612593565b9050600081511415611dcd578192505050611e10565b600082511115611e02578082604051602001611dea9291906132dc565b60405160208183030381529060405292505050611e10565b611e0b846125aa565b925050505b919050565b600073ffffffffffffffffffffffffffffffffffffffff168273ffffffffffffffffffffffffffffffffffffffff161415611e85576040517f08c379a0000000000000000000000000000000000000000000000000000000008152600401611e7c90613546565b60405180910390fd5b611e8e816119b3565b15611ece576040517f08c379a0000000000000000000000000000000000000000000000000000000008152600401611ec590613446565b60405180910390fd5b611edc600083836001612612565b611ee5816119b3565b15611f25576040517f08c379a0000000000000000000000000000000000000000000000000000000008152600401611f1c90613446565b60405180910390fd5b6001600360008473ffffffffffffffffffffffffffffffffffffffff1673ffffffffffffffffffffffffffffffffffffffff16815260200190815260200160002060008282540192505081905550816002600083815260200190815260200160002060006101000a81548173ffffffffffffffffffffffffffffffffffffffff021916908373ffffffffffffffffffffffffffffffffffffffff160217905550808273ffffffffffffffffffffffffffffffffffffffff16600073ffffffffffffffffffffffffffffffffffffffff167fddf252ad1be2c89b69c2b068fc378daa952ba7f163c4a11628f55a4df523b3ef60405160405180910390a461202f600083836001612618565b5050565b61203c826119b3565b61207b576040517f08c379a000000000000000000000000000000000000000000000000000000000815260040161207290613526565b60405180910390fd5b806006600084815260200190815260200160002090805190602001906120a292919061299c565b505050565b8273ffffffffffffffffffffffffffffffffffffffff166120c782610dbe565b73ffffffffffffffffffffffffffffffffffffffff161461211d576040517f08c379a000000000000000000000000000000000000000000000000000000000815260040161211490613426565b60405180910390fd5b600073ffffffffffffffffffffffffffffffffffffffff168273ffffffffffffffffffffffffffffffffffffffff16141561218d576040517f08c379a000000000000000000000000000000000000000000000000000000000815260040161218490613466565b60405180910390fd5b61219a8383836001612612565b8273ffffffffffffffffffffffffffffffffffffffff166121ba82610dbe565b73ffffffffffffffffffffffffffffffffffffffff1614612210576040517f08c379a000000000000000000000000000000000000000000000000000000000815260040161220790613426565b60405180910390fd5b6004600082815260200190815260200160002060006101000a81549073ffffffffffffffffffffffffffffffffffffffff02191690556001600360008573ffffffffffffffffffffffffffffffffffffffff1673ffffffffffffffffffffffffffffffffffffffff168152602001908152602001600020600082825403925050819055506001600360008473ffffffffffffffffffffffffffffffffffffffff1673ffffffffffffffffffffffffffffffffffffffff16815260200190815260200160002060008282540192505081905550816002600083815260200190815260200160002060006101000a81548173ffffffffffffffffffffffffffffffffffffffff021916908373ffffffffffffffffffffffffffffffffffffffff160217905550808273ffffffffffffffffffffffffffffffffffffffff168473ffffffffffffffffffffffffffffffffffffffff167fddf252ad1be2c89b69c2b068fc378daa952ba7f163c4a11628f55a4df523b3ef60405160405180910390a461239c8383836001612618565b505050565b6123ab8383611e15565b6123b860008484846123fc565b6123f7576040517f08c379a00000000000000000000000000000000000000000000000000000000081526004016123ee906133e6565b60405180910390fd5b505050565b600061241d8473ffffffffffffffffffffffffffffffffffffffff1661261e565b15612586578373ffffffffffffffffffffffffffffffffffffffff1663150b7a0261244661149a565b8786866040518563ffffffff1660e01b8152600401612468949392919061331b565b602060405180830381600087803b15801561248257600080fd5b505af19250505080156124b357506040513d601f19601f820116820180604052508101906124b09190612d48565b60015b612536573d80600081146124e3576040519150601f19603f3d011682016040523d82523d6000602084013e6124e8565b606091505b5060008151141561252e576040517f08c379a0000000000000000000000000000000000000000000000000000000008152600401612525906133e6565b60405180910390fd5b805181602001fd5b63150b7a0260e01b7bffffffffffffffffffffffffffffffffffffffffffffffffffffffff1916817bffffffffffffffffffffffffffffffffffffffffffffffffffffffff19161491505061258b565b600190505b949350505050565b606060405180602001604052806000815250905090565b60606125b58261144f565b60006125bf612593565b905060008151116125df576040518060200160405280600081525061260a565b806125e984612641565b6040516020016125fa9291906132dc565b6040516020818303038152906040525b915050919050565b50505050565b50505050565b6000808273ffffffffffffffffffffffffffffffffffffffff163b119050919050565b60606000600161265084612765565b01905060008167ffffffffffffffff811115612695577f4e487b7100000000000000000000000000000000000000000000000000000000600052604160045260246000fd5b6040519080825280601f01601f1916602001820160405280156126c75781602001600182028036833780820191505090505b509050600082602001820190505b60011561275a578080600190039150507f3031323334353637383961626364656600000000000000000000000000000000600a86061a8153600a8581612744577f4e487b7100000000000000000000000000000000000000000000000000000000600052601260045260246000fd5b04945060008514156127555761275a565b6126d5565b819350505050919050565b600080600090507a184f03e93ff9f4daa797ed6e38ed64bf6a1f01000000000000000083106127e9577a184f03e93ff9f4daa797ed6e38ed64bf6a1f01000000000000000083816127df577f4e487b7100000000000000000000000000000000000000000000000000000000600052601260045260246000fd5b0492506040810190505b6d04ee2d6d415b85acef8100000000831061284c576d04ee2d6d415b85acef81000000008381612842577f4e487b7100000000000000000000000000000000000000000000000000000000600052601260045260246000fd5b0492506020810190505b662386f26fc1000083106128a157662386f26fc100008381612897577f4e487b7100000000000000000000000000000000000000000000000000000000600052601260045260246000fd5b0492506010810190505b6305f5e10083106128f0576305f5e10083816128e6577f4e487b7100000000000000000000000000000000000000000000000000000000600052601260045260246000fd5b0492506008810190505b612710831061293b576127108381612931577f4e487b7100000000000000000000000000000000000000000000000000000000600052601260045260246000fd5b0492506004810190505b60648310612984576064838161297a577f4e487b7100000000000000000000000000000000000000000000000000000000600052601260045260246000fd5b0492506002810190505b600a8310612993576001810190505b80915050919050565b8280546129a890613884565b90600052602060002090601f0160209004810192826129ca5760008555612a11565b82601f106129e357805160ff1916838001178555612a11565b82800160010185558215612a11579182015b82811115612a105782518255916020019190600101906129f5565b5b509050612a1e9190612a22565b5090565b5b80821115612a3b576000816000905550600101612a23565b5090565b6000612a52612a4d84613666565b613641565b905082815260208101848484011115612a6a57600080fd5b612a75848285613842565b509392505050565b6000612a90612a8b84613697565b613641565b905082815260208101848484011115612aa857600080fd5b612ab3848285613842565b509392505050565b600081359050612aca81613e2f565b92915050565b600081359050612adf81613e46565b92915050565b600081359050612af481613e5d565b92915050565b600081519050612b0981613e5d565b92915050565b600082601f830112612b2057600080fd5b8135612b30848260208601612a3f565b91505092915050565b600082601f830112612b4a57600080fd5b8135612b5a848260208601612a7d565b91505092915050565b600081359050612b7281613e74565b92915050565b600060208284031215612b8a57600080fd5b6000612b9884828501612abb565b91505092915050565b60008060408385031215612bb457600080fd5b6000612bc285828601612abb565b9250506020612bd385828601612abb565b9150509250929050565b600080600060608486031215612bf257600080fd5b6000612c0086828701612abb565b9350506020612c1186828701612abb565b9250506040612c2286828701612b63565b9150509250925092565b60008060008060808587031215612c4257600080fd5b6000612c5087828801612abb565b9450506020612c6187828801612abb565b9350506040612c7287828801612b63565b925050606085013567ffffffffffffffff811115612c8f57600080fd5b612c9b87828801612b0f565b91505092959194509250565b60008060408385031215612cba57600080fd5b6000612cc885828601612abb565b9250506020612cd985828601612ad0565b9150509250929050565b60008060408385031215612cf657600080fd5b6000612d0485828601612abb565b9250506020612d1585828601612b63565b9150509250929050565b600060208284031215612d3157600080fd5b6000612d3f84828501612ae5565b91505092915050565b600060208284031215612d5a57600080fd5b6000612d6884828501612afa565b91505092915050565b600060208284031215612d8357600080fd5b600082013567ffffffffffffffff811115612d9d57600080fd5b612da984828501612b39565b91505092915050565b60008060408385031215612dc557600080fd5b600083013567ffffffffffffffff811115612ddf57600080fd5b612deb85828601612b39565b925050602083013567ffffffffffffffff811115612e0857600080fd5b612e1485828601612b39565b9150509250929050565b600060208284031215612e3057600080fd5b6000612e3e84828501612b63565b91505092915050565b60008060408385031215612e5a57600080fd5b6000612e6885828601612b63565b925050602083013567ffffffffffffffff811115612e8557600080fd5b612e9185828601612b39565b9150509250929050565b60008060408385031215612eae57600080fd5b6000612ebc85828601612b63565b9250506020612ecd85828601612b63565b9150509250929050565b6000612ee383836132a7565b60208301905092915050565b612ef8816137ce565b82525050565b6000612f09826136d8565b612f138185613706565b9350612f1e836136c8565b8060005b83811015612f4f578151612f368882612ed7565b9750612f41836136f9565b925050600181019050612f22565b5085935050505092915050565b612f65816137e0565b82525050565b6000612f76826136e3565b612f808185613717565b9350612f90818560208601613851565b612f99816139bd565b840191505092915050565b6000612faf826136ee565b612fb98185613728565b9350612fc9818560208601613851565b612fd2816139bd565b840191505092915050565b6000612fe8826136ee565b612ff28185613739565b9350613002818560208601613851565b80840191505092915050565b600061301b602d83613728565b9150613026826139ce565b604082019050919050565b600061303e603283613728565b915061304982613a1d565b604082019050919050565b6000613061602683613728565b915061306c82613a6c565b604082019050919050565b6000613084602583613728565b915061308f82613abb565b604082019050919050565b60006130a7601c83613728565b91506130b282613b0a565b602082019050919050565b60006130ca602483613728565b91506130d582613b33565b604082019050919050565b60006130ed601983613728565b91506130f882613b82565b602082019050919050565b6000613110601483613728565b915061311b82613bab565b602082019050919050565b6000613133602083613728565b915061313e82613bd4565b602082019050919050565b6000613156601483613728565b915061316182613bfd565b602082019050919050565b6000613179602983613728565b915061318482613c26565b604082019050919050565b600061319c602e83613728565b91506131a782613c75565b604082019050919050565b60006131bf602083613728565b91506131ca82613cc4565b602082019050919050565b60006131e2602083613728565b91506131ed82613ced565b602082019050919050565b6000613205601883613728565b915061321082613d16565b602082019050919050565b6000613228601283613728565b915061323382613d3f565b602082019050919050565b600061324b601083613728565b915061325682613d68565b602082019050919050565b600061326e602183613728565b915061327982613d91565b604082019050919050565b6000613291603d83613728565b915061329c82613de0565b604082019050919050565b6132b081613838565b82525050565b6132bf81613838565b82525050565b60006132d18284612fdd565b915081905092915050565b60006132e88285612fdd565b91506132f48284612fdd565b91508190509392505050565b60006020820190506133156000830184612eef565b92915050565b60006080820190506133306000830187612eef565b61333d6020830186612eef565b61334a60408301856132b6565b818103606083015261335c8184612f6b565b905095945050505050565b600060208201905081810360008301526133818184612efe565b905092915050565b600060208201905061339e6000830184612f5c565b92915050565b600060208201905081810360008301526133be8184612fa4565b905092915050565b600060208201905081810360008301526133df8161300e565b9050919050565b600060208201905081810360008301526133ff81613031565b9050919050565b6000602082019050818103600083015261341f81613054565b9050919050565b6000602082019050818103600083015261343f81613077565b9050919050565b6000602082019050818103600083015261345f8161309a565b9050919050565b6000602082019050818103600083015261347f816130bd565b9050919050565b6000602082019050818103600083015261349f816130e0565b9050919050565b600060208201905081810360008301526134bf81613103565b9050919050565b600060208201905081810360008301526134df81613126565b9050919050565b600060208201905081810360008301526134ff81613149565b9050919050565b6000602082019050818103600083015261351f8161316c565b9050919050565b6000602082019050818103600083015261353f8161318f565b9050919050565b6000602082019050818103600083015261355f816131b2565b9050919050565b6000602082019050818103600083015261357f816131d5565b9050919050565b6000602082019050818103600083015261359f816131f8565b9050919050565b600060208201905081810360008301526135bf8161321b565b9050919050565b600060208201905081810360008301526135df8161323e565b9050919050565b600060208201905081810360008301526135ff81613261565b9050919050565b6000602082019050818103600083015261361f81613284565b9050919050565b600060208201905061363b60008301846132b6565b92915050565b600061364b61365c565b905061365782826138b6565b919050565b6000604051905090565b600067ffffffffffffffff8211156136815761368061398e565b5b61368a826139bd565b9050602081019050919050565b600067ffffffffffffffff8211156136b2576136b161398e565b5b6136bb826139bd565b9050602081019050919050565b6000819050602082019050919050565b600081519050919050565b600081519050919050565b600081519050919050565b6000602082019050919050565b600082825260208201905092915050565b600082825260208201905092915050565b600082825260208201905092915050565b600081905092915050565b600061374f82613838565b915061375a83613838565b9250827fffffffffffffffffffffffffffffffffffffffffffffffffffffffffffffffff0382111561378f5761378e613930565b5b828201905092915050565b60006137a582613838565b91506137b083613838565b9250828210156137c3576137c2613930565b5b828203905092915050565b60006137d982613818565b9050919050565b60008115159050919050565b60007fffffffff0000000000000000000000000000000000000000000000000000000082169050919050565b600073ffffffffffffffffffffffffffffffffffffffff82169050919050565b6000819050919050565b82818337600083830152505050565b60005b8381101561386f578082015181840152602081019050613854565b8381111561387e576000848401525b50505050565b6000600282049050600182168061389c57607f821691505b602082108114156138b0576138af61395f565b5b50919050565b6138bf826139bd565b810181811067ffffffffffffffff821117156138de576138dd61398e565b5b80604052505050565b60006138f282613838565b91507fffffffffffffffffffffffffffffffffffffffffffffffffffffffffffffffff82141561392557613924613930565b5b600182019050919050565b7f4e487b7100000000000000000000000000000000000000000000000000000000600052601160045260246000fd5b7f4e487b7100000000000000000000000000000000000000000000000000000000600052602260045260246000fd5b7f4e487b7100000000000000000000000000000000000000000000000000000000600052604160045260246000fd5b6000601f19601f8301169050919050565b7f4552433732313a2063616c6c6572206973206e6f7420746f6b656e206f776e6560008201527f72206f7220617070726f76656400000000000000000000000000000000000000602082015250565b7f4552433732313a207472616e7366657220746f206e6f6e20455243373231526560008201527f63656976657220696d706c656d656e7465720000000000000000000000000000602082015250565b7f4f776e61626c653a206e6577206f776e657220697320746865207a65726f206160008201527f6464726573730000000000000000000000000000000000000000000000000000602082015250565b7f4552433732313a207472616e736665722066726f6d20696e636f72726563742060008201527f6f776e6572000000000000000000000000000000000000000000000000000000602082015250565b7f4552433732313a20746f6b656e20616c7265616479206d696e74656400000000600082015250565b7f4552433732313a207472616e7366657220746f20746865207a65726f2061646460008201527f7265737300000000000000000000000000000000000000000000000000000000602082015250565b7f4552433732313a20617070726f766520746f2063616c6c657200000000000000600082015250565b7f43616e6e6f7420636c6f6e65206120636c6f6e65000000000000000000000000600082015250565b7f496e73756666696369656e742066756e647320746f206d696e7420636c6f6e65600082015250565b7f546f6b656e206973206e6f74206120636c6f6e65000000000000000000000000600082015250565b7f4552433732313a2061646472657373207a65726f206973206e6f74206120766160008201527f6c6964206f776e65720000000000000000000000000000000000000000000000602082015250565b7f45524337323155524953746f726167653a2055524920736574206f66206e6f6e60008201527f6578697374656e7420746f6b656e000000000000000000000000000000000000602082015250565b7f4552433732313a206d696e7420746f20746865207a65726f2061646472657373600082015250565b7f4f776e61626c653a2063616c6c6572206973206e6f7420746865206f776e6572600082015250565b7f4552433732313a20696e76616c696420746f6b656e2049440000000000000000600082015250565b7f55524c20646f6573206e6f742065786973740000000000000000000000000000600082015250565b7f496e76616c696420746f6b656e20494400000000000000000000000000000000600082015250565b7f4552433732313a20617070726f76616c20746f2063757272656e74206f776e6560008201527f7200000000000000000000000000000000000000000000000000000000000000602082015250565b7f4552433732313a20617070726f76652063616c6c6572206973206e6f7420746f60008201527f6b656e206f776e6572206f7220617070726f76656420666f7220616c6c000000602082015250565b613e38816137ce565b8114613e4357600080fd5b50565b613e4f816137e0565b8114613e5a57600080fd5b50565b613e66816137ec565b8114613e7157600080fd5b50565b613e7d81613838565b8114613e8857600080fd5b5056fea264697066735822122069802676a68a7dce95b9666b98eaafad3985c16c36526935b05c48802fba1e1764736f6c63430008010033",
  "linkReferences": {},
  "deployedLinkReferences": {}
}