{
  "_format": "hh-sol-artifact-1",
  "contractName": "CloneableNFT",
  "sourceName": "contracts/ClonableNFT.sol",
  "abi": [
    {
      "inputs": [
        {
          "internalType": "string",
          "name": "name",
          "type": "string"
        },
        {
          "internalType": "string",
          "name": "symbol",
          "type": "string"
        },
        {
          "internalType": "string",
          "name": "_description",
          "type": "string"
        }
      ],
      "stateMutability": "nonpayable",
      "type": "constructor"
    },
    {
      "anonymous": false,
      "inputs": [
        {
          "indexed": true,
          "internalType": "address",
          "name": "owner",
          "type": "address"
        },
        {
          "indexed": true,
          "internalType": "address",
          "name": "approved",
          "type": "address"
        },
        {
          "indexed": true,
          "internalType": "uint256",
          "name": "tokenId",
          "type": "uint256"
        }
      ],
      "name": "Approval",
      "type": "event"
    },
    {
      "anonymous": false,
      "inputs": [
        {
          "indexed": true,
          "internalType": "address",
          "name": "owner",
          "type": "address"
        },
        {
          "indexed": true,
          "internalType": "address",
          "name": "operator",
          "type": "address"
        },
        {
          "indexed": false,
          "internalType": "bool",
          "name": "approved",
          "type": "bool"
        }
      ],
      "name": "ApprovalForAll",
      "type": "event"
    },
    {
      "anonymous": false,
      "inputs": [
        {
          "indexed": true,
          "internalType": "address",
          "name": "previousOwner",
          "type": "address"
        },
        {
          "indexed": true,
          "internalType": "address",
          "name": "newOwner",
          "type": "address"
        }
      ],
      "name": "OwnershipTransferred",
      "type": "event"
    },
    {
      "anonymous": false,
      "inputs": [
        {
          "indexed": true,
          "internalType": "address",
          "name": "from",
          "type": "address"
        },
        {
          "indexed": true,
          "internalType": "address",
          "name": "to",
          "type": "address"
        },
        {
          "indexed": true,
          "internalType": "uint256",
          "name": "tokenId",
          "type": "uint256"
        }
      ],
      "name": "Transfer",
      "type": "event"
    },
    {
      "inputs": [
        {
          "internalType": "address",
          "name": "to",
          "type": "address"
        },
        {
          "internalType": "uint256",
          "name": "tokenId",
          "type": "uint256"
        }
      ],
      "name": "approve",
      "outputs": [],
      "stateMutability": "nonpayable",
      "type": "function"
    },
    {
      "inputs": [
        {
          "internalType": "address",
          "name": "owner",
          "type": "address"
        }
      ],
      "name": "balanceOf",
      "outputs": [
        {
          "internalType": "uint256",
          "name": "",
          "type": "uint256"
        }
      ],
      "stateMutability": "view",
      "type": "function"
    },
    {
      "inputs": [],
      "name": "creationTime",
      "outputs": [
        {
          "internalType": "uint256",
          "name": "",
          "type": "uint256"
        }
      ],
      "stateMutability": "view",
      "type": "function"
    },
    {
      "inputs": [],
      "name": "description",
      "outputs": [
        {
          "internalType": "string",
          "name": "",
          "type": "string"
        }
      ],
      "stateMutability": "view",
      "type": "function"
    },
    {
      "inputs": [],
      "name": "getAllMintedTokens",
      "outputs": [
        {
          "internalType": "uint256[]",
          "name": "",
          "type": "uint256[]"
        }
      ],
      "stateMutability": "view",
      "type": "function"
    },
    {
      "inputs": [
        {
          "internalType": "uint256",
          "name": "tokenId",
          "type": "uint256"
        }
      ],
      "name": "getApproved",
      "outputs": [
        {
          "internalType": "address",
          "name": "",
          "type": "address"
        }
      ],
      "stateMutability": "view",
      "type": "function"
    },
    {
      "inputs": [
        {
          "internalType": "uint256",
          "name": "tokenId",
          "type": "uint256"
        }
      ],
      "name": "getClonesOfOriginal",
      "outputs": [
        {
          "internalType": "uint256[]",
          "name": "",
          "type": "uint256[]"
        }
      ],
      "stateMutability": "view",
      "type": "function"
    },
    {
      "inputs": [],
      "name": "getContractCreator",
      "outputs": [
        {
          "internalType": "address",
          "name": "",
          "type": "address"
        }
      ],
      "stateMutability": "view",
      "type": "function"
    },
    {
      "inputs": [],
      "name": "getDefaultClonePrice",
      "outputs": [
        {
          "internalType": "uint256",
          "name": "",
          "type": "uint256"
        }
      ],
      "stateMutability": "view",
      "type": "function"
    },
    {
      "inputs": [
        {
          "internalType": "uint256",
          "name": "tokenId",
          "type": "uint256"
        }
      ],
      "name": "getOriginal",
      "outputs": [
        {
          "internalType": "uint256",
          "name": "",
          "type": "uint256"
        }
      ],
      "stateMutability": "view",
      "type": "function"
    },
    {
      "inputs": [
        {
          "internalType": "address",
          "name": "owner",
          "type": "address"
        }
      ],
      "name": "getOwnedTokens",
      "outputs": [
        {
          "internalType": "uint256[]",
          "name": "",
          "type": "uint256[]"
        }
      ],
      "stateMutability": "view",
      "type": "function"
    },
    {
      "inputs": [
        {
          "internalType": "uint256",
          "name": "tokenId",
          "type": "uint256"
        }
      ],
      "name": "getTokenCreator",
      "outputs": [
        {
          "internalType": "address",
          "name": "",
          "type": "address"
        }
      ],
      "stateMutability": "view",
      "type": "function"
    },
    {
      "inputs": [
        {
          "internalType": "string",
          "name": "_url",
          "type": "string"
        }
      ],
      "name": "getTokenIdByUrl",
      "outputs": [
        {
          "internalType": "uint256",
          "name": "",
          "type": "uint256"
        }
      ],
      "stateMutability": "view",
      "type": "function"
    },
    {
      "inputs": [],
      "name": "getTotalMintClonedTokens",
      "outputs": [
        {
          "internalType": "uint256",
          "name": "",
          "type": "uint256"
        }
      ],
      "stateMutability": "view",
      "type": "function"
    },
    {
      "inputs": [],
      "name": "getTotalMintOriginalTokens",
      "outputs": [
        {
          "internalType": "uint256",
          "name": "",
          "type": "uint256"
        }
      ],
      "stateMutability": "view",
      "type": "function"
    },
    {
      "inputs": [],
      "name": "getTotalMintedTokens",
      "outputs": [
        {
          "internalType": "uint256",
          "name": "",
          "type": "uint256"
        }
      ],
      "stateMutability": "view",
      "type": "function"
    },
    {
      "inputs": [
        {
          "internalType": "address",
          "name": "owner",
          "type": "address"
        },
        {
          "internalType": "address",
          "name": "operator",
          "type": "address"
        }
      ],
      "name": "isApprovedForAll",
      "outputs": [
        {
          "internalType": "bool",
          "name": "",
          "type": "bool"
        }
      ],
      "stateMutability": "view",
      "type": "function"
    },
    {
      "inputs": [
        {
          "internalType": "uint256",
          "name": "tokenId",
          "type": "uint256"
        }
      ],
      "name": "isClone",
      "outputs": [
        {
          "internalType": "bool",
          "name": "",
          "type": "bool"
        }
      ],
      "stateMutability": "view",
      "type": "function"
    },
    {
      "inputs": [
        {
          "internalType": "uint256",
          "name": "tokenId",
          "type": "uint256"
        }
      ],
      "name": "mintClone",
      "outputs": [],
      "stateMutability": "payable",
      "type": "function"
    },
    {
      "inputs": [
        {
          "internalType": "string",
          "name": "_tokenURI",
          "type": "string"
        },
        {
          "internalType": "string",
          "name": "_url",
          "type": "string"
        }
      ],
      "name": "mintNFT",
      "outputs": [],
      "stateMutability": "nonpayable",
      "type": "function"
    },
    {
      "inputs": [],
      "name": "name",
      "outputs": [
        {
          "internalType": "string",
          "name": "",
          "type": "string"
        }
      ],
      "stateMutability": "view",
      "type": "function"
    },
    {
      "inputs": [],
      "name": "owner",
      "outputs": [
        {
          "internalType": "address",
          "name": "",
          "type": "address"
        }
      ],
      "stateMutability": "view",
      "type": "function"
    },
    {
      "inputs": [
        {
          "internalType": "uint256",
          "name": "tokenId",
          "type": "uint256"
        }
      ],
      "name": "ownerOf",
      "outputs": [
        {
          "internalType": "address",
          "name": "",
          "type": "address"
        }
      ],
      "stateMutability": "view",
      "type": "function"
    },
    {
      "inputs": [],
      "name": "renounceOwnership",
      "outputs": [],
      "stateMutability": "nonpayable",
      "type": "function"
    },
    {
      "inputs": [
        {
          "internalType": "address",
          "name": "from",
          "type": "address"
        },
        {
          "internalType": "address",
          "name": "to",
          "type": "address"
        },
        {
          "internalType": "uint256",
          "name": "tokenId",
          "type": "uint256"
        }
      ],
      "name": "safeTransferFrom",
      "outputs": [],
      "stateMutability": "nonpayable",
      "type": "function"
    },
    {
      "inputs": [
        {
          "internalType": "address",
          "name": "from",
          "type": "address"
        },
        {
          "internalType": "address",
          "name": "to",
          "type": "address"
        },
        {
          "internalType": "uint256",
          "name": "tokenId",
          "type": "uint256"
        },
        {
          "internalType": "bytes",
          "name": "data",
          "type": "bytes"
        }
      ],
      "name": "safeTransferFrom",
      "outputs": [],
      "stateMutability": "nonpayable",
      "type": "function"
    },
    {
      "inputs": [
        {
          "internalType": "address",
          "name": "operator",
          "type": "address"
        },
        {
          "internalType": "bool",
          "name": "approved",
          "type": "bool"
        }
      ],
      "name": "setApprovalForAll",
      "outputs": [],
      "stateMutability": "nonpayable",
      "type": "function"
    },
    {
      "inputs": [
        {
          "internalType": "uint256",
          "name": "tokenId",
          "type": "uint256"
        },
        {
          "internalType": "uint256",
          "name": "newPrice",
          "type": "uint256"
        }
      ],
      "name": "setClonePrice",
      "outputs": [],
      "stateMutability": "nonpayable",
      "type": "function"
    },
    {
      "inputs": [
        {
          "internalType": "uint256",
          "name": "newPrice",
          "type": "uint256"
        }
      ],
      "name": "setDefaultClonePrice",
      "outputs": [],
      "stateMutability": "nonpayable",
      "type": "function"
    },
    {
      "inputs": [
        {
          "internalType": "string",
          "name": "_description",
          "type": "string"
        }
      ],
      "name": "setDescription",
      "outputs": [],
      "stateMutability": "nonpayable",
      "type": "function"
    },
    {
      "inputs": [
        {
          "internalType": "bytes4",
          "name": "interfaceId",
          "type": "bytes4"
        }
      ],
      "name": "supportsInterface",
      "outputs": [
        {
          "internalType": "bool",
          "name": "",
          "type": "bool"
        }
      ],
      "stateMutability": "view",
      "type": "function"
    },
    {
      "inputs": [],
      "name": "symbol",
      "outputs": [
        {
          "internalType": "string",
          "name": "",
          "type": "string"
        }
      ],
      "stateMutability": "view",
      "type": "function"
    },
    {
      "inputs": [
        {
          "internalType": "uint256",
          "name": "tokenId",
          "type": "uint256"
        }
      ],
      "name": "tokenURI",
      "outputs": [
        {
          "internalType": "string",
          "name": "",
          "type": "string"
        }
      ],
      "stateMutability": "view",
      "type": "function"
    },
    {
      "inputs": [
        {
          "internalType": "address",
          "name": "from",
          "type": "address"
        },
        {
          "internalType": "address",
          "name": "to",
          "type": "address"
        },
        {
          "internalType": "uint256",
          "name": "tokenId",
          "type": "uint256"
        }
      ],
      "name": "transferFrom",
      "outputs": [],
      "stateMutability": "nonpayable",
      "type": "function"
    },
    {
      "inputs": [
        {
          "internalType": "address",
          "name": "newOwner",
          "type": "address"
        }
      ],
      "name": "transferOwnership",
      "outputs": [],
      "stateMutability": "nonpayable",
      "type": "function"
    },
    {
      "inputs": [],
      "name": "withdraw",
      "outputs": [],
      "stateMutability": "nonpayable",
      "type": "function"
    }
  ],
  "bytecode": "0x6080604052662386f26fc10000600b553480156200001c57600080fd5b5060405162004a7c38038062004a7c8339818101604052810190620000429190620002f2565b828281600090805190602001906200005c929190620001d0565b50806001908051906020019062000075929190620001d0565b505050620000986200008c6200010260201b60201c565b6200010a60201b60201c565b33601160006101000a81548173ffffffffffffffffffffffffffffffffffffffff021916908373ffffffffffffffffffffffffffffffffffffffff1602179055504260098190555080600a9080519060200190620000f8929190620001d0565b5050505062000503565b600033905090565b6000600760009054906101000a900473ffffffffffffffffffffffffffffffffffffffff16905081600760006101000a81548173ffffffffffffffffffffffffffffffffffffffff021916908373ffffffffffffffffffffffffffffffffffffffff1602179055508173ffffffffffffffffffffffffffffffffffffffff168173ffffffffffffffffffffffffffffffffffffffff167f8be0079c531659141344cd1fd0a4f28419497f9722a3daafe3b4186f6b6457e060405160405180910390a35050565b828054620001de9062000428565b90600052602060002090601f0160209004810192826200020257600085556200024e565b82601f106200021d57805160ff19168380011785556200024e565b828001600101855582156200024e579182015b828111156200024d57825182559160200191906001019062000230565b5b5090506200025d919062000261565b5090565b5b808211156200027c57600081600090555060010162000262565b5090565b6000620002976200029184620003bc565b62000393565b905082815260208101848484011115620002b057600080fd5b620002bd848285620003f2565b509392505050565b600082601f830112620002d757600080fd5b8151620002e984826020860162000280565b91505092915050565b6000806000606084860312156200030857600080fd5b600084015167ffffffffffffffff8111156200032357600080fd5b6200033186828701620002c5565b935050602084015167ffffffffffffffff8111156200034f57600080fd5b6200035d86828701620002c5565b925050604084015167ffffffffffffffff8111156200037b57600080fd5b6200038986828701620002c5565b9150509250925092565b60006200039f620003b2565b9050620003ad82826200045e565b919050565b6000604051905090565b600067ffffffffffffffff821115620003da57620003d9620004c3565b5b620003e582620004f2565b9050602081019050919050565b60005b8381101562000412578082015181840152602081019050620003f5565b8381111562000422576000848401525b50505050565b600060028204905060018216806200044157607f821691505b6020821081141562000458576200045762000494565b5b50919050565b6200046982620004f2565b810181811067ffffffffffffffff821117156200048b576200048a620004c3565b5b80604052505050565b7f4e487b7100000000000000000000000000000000000000000000000000000000600052602260045260246000fd5b7f4e487b7100000000000000000000000000000000000000000000000000000000600052604160045260246000fd5b6000601f19601f8301169050919050565b61456980620005136000396000f3fe60806040526004361061020f5760003560e01c80637d5298b911610118578063c6af1122116100a0578063e96055441161006f578063e9605544146107ca578063e985e9c5146107f3578063ef74248d14610830578063f2fde38b14610859578063f67a769c146108825761020f565b8063c6af1122146106fa578063c87b56dd14610725578063d8270dce14610762578063d9d616551461078d5761020f565b8063934689a9116100e7578063934689a91461060357806395d89b4114610640578063a22cb4651461066b578063b88d4fde14610694578063bc8c778f146106bd5761020f565b80637d5298b9146105685780638beaa3ee146105935780638da5cb5b146105af57806390c3f38f146105da5761020f565b8063385eda9c1161019b5780636352211e1161016a5780636352211e1461046f578063639032cc146104ac57806370a08231146104e9578063715018a6146105265780637284e4161461053d5761020f565b8063385eda9c146103c75780633ccfd60b1461040457806342842e0e1461041b5780634da6de3f146104445761020f565b8063095ea7b3116101e2578063095ea7b3146102e45780630e2587261461030d5780631741f3e2146103385780631a2b285e1461037557806323b872dd1461039e5761020f565b806301ffc9a71461021457806306fdde0314610251578063080b01791461027c578063081812fc146102a7575b600080fd5b34801561022057600080fd5b5061023b600480360381019061023691906132b1565b6108ad565b6040516102489190613930565b60405180910390f35b34801561025d57600080fd5b5061026661098f565b604051610273919061394b565b60405180910390f35b34801561028857600080fd5b50610291610a21565b60405161029e919061390e565b60405180910390f35b3480156102b357600080fd5b506102ce60048036038101906102c991906133b0565b610a79565b6040516102db91906138a7565b60405180910390f35b3480156102f057600080fd5b5061030b60048036038101906103069190613275565b610abf565b005b34801561031957600080fd5b50610322610bd7565b60405161032f91906138a7565b60405180910390f35b34801561034457600080fd5b5061035f600480360381019061035a9190613303565b610c01565b60405161036c9190613c2d565b60405180910390f35b34801561038157600080fd5b5061039c600480360381019061039791906133b0565b610c8a565b005b3480156103aa57600080fd5b506103c560048036038101906103c0919061316f565b610c9c565b005b3480156103d357600080fd5b506103ee60048036038101906103e991906133b0565b610cfc565b6040516103fb9190613930565b60405180910390f35b34801561041057600080fd5b50610419610d26565b005b34801561042757600080fd5b50610442600480360381019061043d919061316f565b610d7e565b005b34801561045057600080fd5b50610459610d9e565b6040516104669190613c2d565b60405180910390f35b34801561047b57600080fd5b50610496600480360381019061049191906133b0565b610da8565b6040516104a391906138a7565b60405180910390f35b3480156104b857600080fd5b506104d360048036038101906104ce91906133b0565b610e2f565b6040516104e0919061390e565b60405180910390f35b3480156104f557600080fd5b50610510600480360381019061050b919061310a565b610efb565b60405161051d9190613c2d565b60405180910390f35b34801561053257600080fd5b5061053b610fb3565b005b34801561054957600080fd5b50610552610fc7565b60405161055f919061394b565b60405180910390f35b34801561057457600080fd5b5061057d611055565b60405161058a9190613c2d565b60405180910390f35b6105ad60048036038101906105a891906133b0565b61105f565b005b3480156105bb57600080fd5b506105c4611324565b6040516105d191906138a7565b60405180910390f35b3480156105e657600080fd5b5061060160048036038101906105fc9190613303565b61134e565b005b34801561060f57600080fd5b5061062a600480360381019061062591906133b0565b611370565b60405161063791906138a7565b60405180910390f35b34801561064c57600080fd5b506106556113f5565b604051610662919061394b565b60405180910390f35b34801561067757600080fd5b50610692600480360381019061068d9190613239565b611487565b005b3480156106a057600080fd5b506106bb60048036038101906106b691906131be565b61149d565b005b3480156106c957600080fd5b506106e460048036038101906106df91906133b0565b6114ff565b6040516106f19190613c2d565b60405180910390f35b34801561070657600080fd5b5061070f61157c565b60405161071c9190613c2d565b60405180910390f35b34801561073157600080fd5b5061074c600480360381019061074791906133b0565b611586565b604051610759919061394b565b60405180910390f35b34801561076e57600080fd5b50610777611598565b6040516107849190613c2d565b60405180910390f35b34801561079957600080fd5b506107b460048036038101906107af919061310a565b61159e565b6040516107c1919061390e565b60405180910390f35b3480156107d657600080fd5b506107f160048036038101906107ec9190613344565b611635565b005b3480156107ff57600080fd5b5061081a60048036038101906108159190613133565b611824565b6040516108279190613930565b60405180910390f35b34801561083c57600080fd5b50610857600480360381019061085291906133d9565b6118b8565b005b34801561086557600080fd5b50610880600480360381019061087b919061310a565b6118dc565b005b34801561088e57600080fd5b50610897611960565b6040516108a49190613c2d565b60405180910390f35b60007f80ac58cd000000000000000000000000000000000000000000000000000000007bffffffffffffffffffffffffffffffffffffffffffffffffffffffff1916827bffffffffffffffffffffffffffffffffffffffffffffffffffffffff1916148061097857507f5b5e139f000000000000000000000000000000000000000000000000000000007bffffffffffffffffffffffffffffffffffffffffffffffffffffffff1916827bffffffffffffffffffffffffffffffffffffffffffffffffffffffff1916145b80610988575061098782611977565b5b9050919050565b60606000805461099e90613e8b565b80601f01602080910402602001604051908101604052809291908181526020018280546109ca90613e8b565b8015610a175780601f106109ec57610100808354040283529160200191610a17565b820191906000526020600020905b8154815290600101906020018083116109fa57829003601f168201915b5050505050905090565b60606014805480602002602001604051908101604052809291908181526020018280548015610a6f57602002820191906000526020600020905b815481526020019060010190808311610a5b575b5050505050905090565b6000610a84826119e1565b6004600083815260200190815260200160002060009054906101000a900473ffffffffffffffffffffffffffffffffffffffff169050919050565b6000610aca82610da8565b90508073ffffffffffffffffffffffffffffffffffffffff168373ffffffffffffffffffffffffffffffffffffffff161415610b3b576040517f08c379a0000000000000000000000000000000000000000000000000000000008152600401610b3290613bed565b60405180910390fd5b8073ffffffffffffffffffffffffffffffffffffffff16610b5a611a2c565b73ffffffffffffffffffffffffffffffffffffffff161480610b895750610b8881610b83611a2c565b611824565b5b610bc8576040517f08c379a0000000000000000000000000000000000000000000000000000000008152600401610bbf90613c0d565b60405180910390fd5b610bd28383611a34565b505050565b6000601160009054906101000a900473ffffffffffffffffffffffffffffffffffffffff16905090565b600080600f83604051610c14919061386c565b9081526020016040518091039020541415610c64576040517f08c379a0000000000000000000000000000000000000000000000000000000008152600401610c5b90613bad565b60405180910390fd5b600f82604051610c74919061386c565b9081526020016040518091039020549050919050565b610c92611aed565b80600b8190555050565b610cad610ca7611a2c565b82611b6b565b610cec576040517f08c379a0000000000000000000000000000000000000000000000000000000008152600401610ce39061396d565b60405180910390fd5b610cf7838383611c00565b505050565b6000600c600083815260200190815260200160002060009054906101000a900460ff169050919050565b610d2e611aed565b610d36611324565b73ffffffffffffffffffffffffffffffffffffffff166108fc479081150290604051600060405180830381858888f19350505050158015610d7b573d6000803e3d6000fd5b50565b610d998383836040518060200160405280600081525061149d565b505050565b6000601554905090565b600080610db483611f45565b9050600073ffffffffffffffffffffffffffffffffffffffff168173ffffffffffffffffffffffffffffffffffffffff161415610e26576040517f08c379a0000000000000000000000000000000000000000000000000000000008152600401610e1d90613b8d565b60405180910390fd5b80915050919050565b6060600c600083815260200190815260200160002060009054906101000a900460ff1615610e92576040517f08c379a0000000000000000000000000000000000000000000000000000000008152600401610e899061398d565b60405180910390fd5b60136000838152602001908152602001600020805480602002602001604051908101604052809291908181526020018280548015610eef57602002820191906000526020600020905b815481526020019060010190808311610edb575b50505050509050919050565b60008073ffffffffffffffffffffffffffffffffffffffff168273ffffffffffffffffffffffffffffffffffffffff161415610f6c576040517f08c379a0000000000000000000000000000000000000000000000000000000008152600401610f6390613aed565b60405180910390fd5b600360008373ffffffffffffffffffffffffffffffffffffffff1673ffffffffffffffffffffffffffffffffffffffff168152602001908152602001600020549050919050565b610fbb611aed565b610fc56000611f82565b565b600a8054610fd490613e8b565b80601f016020809104026020016040519081016040528092919081815260200182805461100090613e8b565b801561104d5780601f106110225761010080835404028352916020019161104d565b820191906000526020600020905b81548152906001019060200180831161103057829003601f168201915b505050505081565b6000601654905090565b61106881612048565b6110a7576040517f08c379a000000000000000000000000000000000000000000000000000000000815260040161109e90613bcd565b60405180910390fd5b600c600082815260200190815260200160002060009054906101000a900460ff1615611108576040517f08c379a00000000000000000000000000000000000000000000000000000000081526004016110ff90613a6d565b60405180910390fd5b600080600e6000848152602001908152602001600020541161112c57600b54611141565b600e6000838152602001908152602001600020545b905080341015611186576040517f08c379a000000000000000000000000000000000000000000000000000000000815260040161117d90613a8d565b60405180910390fd5b6111906008612089565b600061119c600861209f565b90506111a833826120ad565b6001600c600083815260200190815260200160002060006101000a81548160ff02191690831515021790555082600d60008381526020019081526020016000208190555060136000848152602001908152602001600020819080600181540180825580915050600190039060005260206000200160009091909190915055601260003373ffffffffffffffffffffffffffffffffffffffff1673ffffffffffffffffffffffffffffffffffffffff1681526020019081526020016000208190806001815401808255809150506001900390600052602060002001600090919091909150556014819080600181540180825580915050600190039060005260206000200160009091909190915055601660008154809291906112c890613eee565b9190505550336010600083815260200190815260200160002060006101000a81548173ffffffffffffffffffffffffffffffffffffffff021916908373ffffffffffffffffffffffffffffffffffffffff160217905550505050565b6000600760009054906101000a900473ffffffffffffffffffffffffffffffffffffffff16905090565b611356611aed565b80600a908051906020019061136c929190612f2e565b5050565b600061137b82612048565b6113ba576040517f08c379a00000000000000000000000000000000000000000000000000000000081526004016113b190613aad565b60405180910390fd5b6010600083815260200190815260200160002060009054906101000a900473ffffffffffffffffffffffffffffffffffffffff169050919050565b60606001805461140490613e8b565b80601f016020809104026020016040519081016040528092919081815260200182805461143090613e8b565b801561147d5780601f106114525761010080835404028352916020019161147d565b820191906000526020600020905b81548152906001019060200180831161146057829003601f168201915b5050505050905090565b611499611492611a2c565b83836120cb565b5050565b6114ae6114a8611a2c565b83611b6b565b6114ed576040517f08c379a00000000000000000000000000000000000000000000000000000000081526004016114e49061396d565b60405180910390fd5b6114f984848484612238565b50505050565b6000600c600083815260200190815260200160002060009054906101000a900460ff16611561576040517f08c379a000000000000000000000000000000000000000000000000000000000815260040161155890613acd565b60405180910390fd5b600d6000838152602001908152602001600020549050919050565b6000600b54905090565b606061159182612294565b9050919050565b60095481565b6060601260008373ffffffffffffffffffffffffffffffffffffffff1673ffffffffffffffffffffffffffffffffffffffff16815260200190815260200160002080548060200260200160405190810160405280929190818152602001828054801561162957602002820191906000526020600020905b815481526020019060010190808311611615575b50505050509050919050565b61163d611aed565b6000600f8260405161164f919061386c565b9081526020016040518091039020541461169e576040517f08c379a000000000000000000000000000000000000000000000000000000000815260040161169590613b2d565b60405180910390fd5b6116a86008612089565b60006116b2611324565b905060006116c0600861209f565b90506116cc82826123a7565b6000600c600083815260200190815260200160002060006101000a81548160ff02191690831515021790555061170281856125c5565b80600f84604051611713919061386c565b908152602001604051809103902081905550601260008373ffffffffffffffffffffffffffffffffffffffff1673ffffffffffffffffffffffffffffffffffffffff1681526020019081526020016000208190806001815401808255809150506001900390600052602060002001600090919091909150556014819080600181540180825580915050600190039060005260206000200160009091909190915055601560008154809291906117c790613eee565b9190505550816010600083815260200190815260200160002060006101000a81548173ffffffffffffffffffffffffffffffffffffffff021916908373ffffffffffffffffffffffffffffffffffffffff16021790555050505050565b6000600560008473ffffffffffffffffffffffffffffffffffffffff1673ffffffffffffffffffffffffffffffffffffffff16815260200190815260200160002060008373ffffffffffffffffffffffffffffffffffffffff1673ffffffffffffffffffffffffffffffffffffffff16815260200190815260200160002060009054906101000a900460ff16905092915050565b6118c0611aed565b80600e6000848152602001908152602001600020819055505050565b6118e4611aed565b600073ffffffffffffffffffffffffffffffffffffffff168173ffffffffffffffffffffffffffffffffffffffff161415611954576040517f08c379a000000000000000000000000000000000000000000000000000000000815260040161194b906139cd565b60405180910390fd5b61195d81611f82565b50565b60006016546015546119729190613d4b565b905090565b60007f01ffc9a7000000000000000000000000000000000000000000000000000000007bffffffffffffffffffffffffffffffffffffffffffffffffffffffff1916827bffffffffffffffffffffffffffffffffffffffffffffffffffffffff1916149050919050565b6119ea81612048565b611a29576040517f08c379a0000000000000000000000000000000000000000000000000000000008152600401611a2090613b8d565b60405180910390fd5b50565b600033905090565b816004600083815260200190815260200160002060006101000a81548173ffffffffffffffffffffffffffffffffffffffff021916908373ffffffffffffffffffffffffffffffffffffffff160217905550808273ffffffffffffffffffffffffffffffffffffffff16611aa783610da8565b73ffffffffffffffffffffffffffffffffffffffff167f8c5be1e5ebec7d5bd14f71427d1e84f3dd0314c0f7b2291e5b200ac8c7c3b92560405160405180910390a45050565b611af5611a2c565b73ffffffffffffffffffffffffffffffffffffffff16611b13611324565b73ffffffffffffffffffffffffffffffffffffffff1614611b69576040517f08c379a0000000000000000000000000000000000000000000000000000000008152600401611b6090613b6d565b60405180910390fd5b565b600080611b7783610da8565b90508073ffffffffffffffffffffffffffffffffffffffff168473ffffffffffffffffffffffffffffffffffffffff161480611bb95750611bb88185611824565b5b80611bf757508373ffffffffffffffffffffffffffffffffffffffff16611bdf84610a79565b73ffffffffffffffffffffffffffffffffffffffff16145b91505092915050565b611c0b838383612639565b60005b601260008573ffffffffffffffffffffffffffffffffffffffff1673ffffffffffffffffffffffffffffffffffffffff16815260200190815260200160002080549050811015611ed95781601260008673ffffffffffffffffffffffffffffffffffffffff1673ffffffffffffffffffffffffffffffffffffffff1681526020019081526020016000208281548110611cd0577f4e487b7100000000000000000000000000000000000000000000000000000000600052603260045260246000fd5b90600052602060002001541415611ec657601260008573ffffffffffffffffffffffffffffffffffffffff1673ffffffffffffffffffffffffffffffffffffffff1681526020019081526020016000206001601260008773ffffffffffffffffffffffffffffffffffffffff1673ffffffffffffffffffffffffffffffffffffffff16815260200190815260200160002080549050611d6f9190613da1565b81548110611da6577f4e487b7100000000000000000000000000000000000000000000000000000000600052603260045260246000fd5b9060005260206000200154601260008673ffffffffffffffffffffffffffffffffffffffff1673ffffffffffffffffffffffffffffffffffffffff1681526020019081526020016000208281548110611e28577f4e487b7100000000000000000000000000000000000000000000000000000000600052603260045260246000fd5b9060005260206000200181905550601260008573ffffffffffffffffffffffffffffffffffffffff1673ffffffffffffffffffffffffffffffffffffffff168152602001908152602001600020805480611eab577f4e487b7100000000000000000000000000000000000000000000000000000000600052603160045260246000fd5b60019003818190600052602060002001600090559055611ed9565b8080611ed190613eee565b915050611c0e565b50601260008373ffffffffffffffffffffffffffffffffffffffff1673ffffffffffffffffffffffffffffffffffffffff168152602001908152602001600020819080600181540180825580915050600190039060005260206000200160009091909190915055505050565b60006002600083815260200190815260200160002060009054906101000a900473ffffffffffffffffffffffffffffffffffffffff169050919050565b6000600760009054906101000a900473ffffffffffffffffffffffffffffffffffffffff16905081600760006101000a81548173ffffffffffffffffffffffffffffffffffffffff021916908373ffffffffffffffffffffffffffffffffffffffff1602179055508173ffffffffffffffffffffffffffffffffffffffff168173ffffffffffffffffffffffffffffffffffffffff167f8be0079c531659141344cd1fd0a4f28419497f9722a3daafe3b4186f6b6457e060405160405180910390a35050565b60008073ffffffffffffffffffffffffffffffffffffffff1661206a83611f45565b73ffffffffffffffffffffffffffffffffffffffff1614159050919050565b6001816000016000828254019250508190555050565b600081600001549050919050565b6120c7828260405180602001604052806000815250612933565b5050565b8173ffffffffffffffffffffffffffffffffffffffff168373ffffffffffffffffffffffffffffffffffffffff16141561213a576040517f08c379a000000000000000000000000000000000000000000000000000000000815260040161213190613a4d565b60405180910390fd5b80600560008573ffffffffffffffffffffffffffffffffffffffff1673ffffffffffffffffffffffffffffffffffffffff16815260200190815260200160002060008473ffffffffffffffffffffffffffffffffffffffff1673ffffffffffffffffffffffffffffffffffffffff16815260200190815260200160002060006101000a81548160ff0219169083151502179055508173ffffffffffffffffffffffffffffffffffffffff168373ffffffffffffffffffffffffffffffffffffffff167f17307eab39ab6107e8899845ad3d59bd9653f200f220920489ca2b5937696c318360405161222b9190613930565b60405180910390a3505050565b612243848484611c00565b61224f8484848461298e565b61228e576040517f08c379a0000000000000000000000000000000000000000000000000000000008152600401612285906139ad565b60405180910390fd5b50505050565b606061229f826119e1565b60006006600084815260200190815260200160002080546122bf90613e8b565b80601f01602080910402602001604051908101604052809291908181526020018280546122eb90613e8b565b80156123385780601f1061230d57610100808354040283529160200191612338565b820191906000526020600020905b81548152906001019060200180831161231b57829003601f168201915b505050505090506000612349612b25565b905060008151141561235f5781925050506123a2565b60008251111561239457808260405160200161237c929190613883565b604051602081830303815290604052925050506123a2565b61239d84612b3c565b925050505b919050565b600073ffffffffffffffffffffffffffffffffffffffff168273ffffffffffffffffffffffffffffffffffffffff161415612417576040517f08c379a000000000000000000000000000000000000000000000000000000000815260040161240e90613b4d565b60405180910390fd5b61242081612048565b15612460576040517f08c379a000000000000000000000000000000000000000000000000000000000815260040161245790613a0d565b60405180910390fd5b61246e600083836001612ba4565b61247781612048565b156124b7576040517f08c379a00000000000000000000000000000000000000000000000000000000081526004016124ae90613a0d565b60405180910390fd5b6001600360008473ffffffffffffffffffffffffffffffffffffffff1673ffffffffffffffffffffffffffffffffffffffff16815260200190815260200160002060008282540192505081905550816002600083815260200190815260200160002060006101000a81548173ffffffffffffffffffffffffffffffffffffffff021916908373ffffffffffffffffffffffffffffffffffffffff160217905550808273ffffffffffffffffffffffffffffffffffffffff16600073ffffffffffffffffffffffffffffffffffffffff167fddf252ad1be2c89b69c2b068fc378daa952ba7f163c4a11628f55a4df523b3ef60405160405180910390a46125c1600083836001612baa565b5050565b6125ce82612048565b61260d576040517f08c379a000000000000000000000000000000000000000000000000000000000815260040161260490613b0d565b60405180910390fd5b80600660008481526020019081526020016000209080519060200190612634929190612f2e565b505050565b8273ffffffffffffffffffffffffffffffffffffffff1661265982610da8565b73ffffffffffffffffffffffffffffffffffffffff16146126af576040517f08c379a00000000000000000000000000000000000000000000000000000000081526004016126a6906139ed565b60405180910390fd5b600073ffffffffffffffffffffffffffffffffffffffff168273ffffffffffffffffffffffffffffffffffffffff16141561271f576040517f08c379a000000000000000000000000000000000000000000000000000000000815260040161271690613a2d565b60405180910390fd5b61272c8383836001612ba4565b8273ffffffffffffffffffffffffffffffffffffffff1661274c82610da8565b73ffffffffffffffffffffffffffffffffffffffff16146127a2576040517f08c379a0000000000000000000000000000000000000000000000000000000008152600401612799906139ed565b60405180910390fd5b6004600082815260200190815260200160002060006101000a81549073ffffffffffffffffffffffffffffffffffffffff02191690556001600360008573ffffffffffffffffffffffffffffffffffffffff1673ffffffffffffffffffffffffffffffffffffffff168152602001908152602001600020600082825403925050819055506001600360008473ffffffffffffffffffffffffffffffffffffffff1673ffffffffffffffffffffffffffffffffffffffff16815260200190815260200160002060008282540192505081905550816002600083815260200190815260200160002060006101000a81548173ffffffffffffffffffffffffffffffffffffffff021916908373ffffffffffffffffffffffffffffffffffffffff160217905550808273ffffffffffffffffffffffffffffffffffffffff168473ffffffffffffffffffffffffffffffffffffffff167fddf252ad1be2c89b69c2b068fc378daa952ba7f163c4a11628f55a4df523b3ef60405160405180910390a461292e8383836001612baa565b505050565b61293d83836123a7565b61294a600084848461298e565b612989576040517f08c379a0000000000000000000000000000000000000000000000000000000008152600401612980906139ad565b60405180910390fd5b505050565b60006129af8473ffffffffffffffffffffffffffffffffffffffff16612bb0565b15612b18578373ffffffffffffffffffffffffffffffffffffffff1663150b7a026129d8611a2c565b8786866040518563ffffffff1660e01b81526004016129fa94939291906138c2565b602060405180830381600087803b158015612a1457600080fd5b505af1925050508015612a4557506040513d601f19601f82011682018060405250810190612a4291906132da565b60015b612ac8573d8060008114612a75576040519150601f19603f3d011682016040523d82523d6000602084013e612a7a565b606091505b50600081511415612ac0576040517f08c379a0000000000000000000000000000000000000000000000000000000008152600401612ab7906139ad565b60405180910390fd5b805181602001fd5b63150b7a0260e01b7bffffffffffffffffffffffffffffffffffffffffffffffffffffffff1916817bffffffffffffffffffffffffffffffffffffffffffffffffffffffff191614915050612b1d565b600190505b949350505050565b606060405180602001604052806000815250905090565b6060612b47826119e1565b6000612b51612b25565b90506000815111612b715760405180602001604052806000815250612b9c565b80612b7b84612bd3565b604051602001612b8c929190613883565b6040516020818303038152906040525b915050919050565b50505050565b50505050565b6000808273ffffffffffffffffffffffffffffffffffffffff163b119050919050565b606060006001612be284612cf7565b01905060008167ffffffffffffffff811115612c27577f4e487b7100000000000000000000000000000000000000000000000000000000600052604160045260246000fd5b6040519080825280601f01601f191660200182016040528015612c595781602001600182028036833780820191505090505b509050600082602001820190505b600115612cec578080600190039150507f3031323334353637383961626364656600000000000000000000000000000000600a86061a8153600a8581612cd6577f4e487b7100000000000000000000000000000000000000000000000000000000600052601260045260246000fd5b0494506000851415612ce757612cec565b612c67565b819350505050919050565b600080600090507a184f03e93ff9f4daa797ed6e38ed64bf6a1f0100000000000000008310612d7b577a184f03e93ff9f4daa797ed6e38ed64bf6a1f0100000000000000008381612d71577f4e487b7100000000000000000000000000000000000000000000000000000000600052601260045260246000fd5b0492506040810190505b6d04ee2d6d415b85acef81000000008310612dde576d04ee2d6d415b85acef81000000008381612dd4577f4e487b7100000000000000000000000000000000000000000000000000000000600052601260045260246000fd5b0492506020810190505b662386f26fc100008310612e3357662386f26fc100008381612e29577f4e487b7100000000000000000000000000000000000000000000000000000000600052601260045260246000fd5b0492506010810190505b6305f5e1008310612e82576305f5e1008381612e78577f4e487b7100000000000000000000000000000000000000000000000000000000600052601260045260246000fd5b0492506008810190505b6127108310612ecd576127108381612ec3577f4e487b7100000000000000000000000000000000000000000000000000000000600052601260045260246000fd5b0492506004810190505b60648310612f165760648381612f0c577f4e487b7100000000000000000000000000000000000000000000000000000000600052601260045260246000fd5b0492506002810190505b600a8310612f25576001810190505b80915050919050565b828054612f3a90613e8b565b90600052602060002090601f016020900481019282612f5c5760008555612fa3565b82601f10612f7557805160ff1916838001178555612fa3565b82800160010185558215612fa3579182015b82811115612fa2578251825591602001919060010190612f87565b5b509050612fb09190612fb4565b5090565b5b80821115612fcd576000816000905550600101612fb5565b5090565b6000612fe4612fdf84613c6d565b613c48565b905082815260208101848484011115612ffc57600080fd5b613007848285613e49565b509392505050565b600061302261301d84613c9e565b613c48565b90508281526020810184848401111561303a57600080fd5b613045848285613e49565b509392505050565b60008135905061305c816144d7565b92915050565b600081359050613071816144ee565b92915050565b60008135905061308681614505565b92915050565b60008151905061309b81614505565b92915050565b600082601f8301126130b257600080fd5b81356130c2848260208601612fd1565b91505092915050565b600082601f8301126130dc57600080fd5b81356130ec84826020860161300f565b91505092915050565b6000813590506131048161451c565b92915050565b60006020828403121561311c57600080fd5b600061312a8482850161304d565b91505092915050565b6000806040838503121561314657600080fd5b60006131548582860161304d565b92505060206131658582860161304d565b9150509250929050565b60008060006060848603121561318457600080fd5b60006131928682870161304d565b93505060206131a38682870161304d565b92505060406131b4868287016130f5565b9150509250925092565b600080600080608085870312156131d457600080fd5b60006131e28782880161304d565b94505060206131f38782880161304d565b9350506040613204878288016130f5565b925050606085013567ffffffffffffffff81111561322157600080fd5b61322d878288016130a1565b91505092959194509250565b6000806040838503121561324c57600080fd5b600061325a8582860161304d565b925050602061326b85828601613062565b9150509250929050565b6000806040838503121561328857600080fd5b60006132968582860161304d565b92505060206132a7858286016130f5565b9150509250929050565b6000602082840312156132c357600080fd5b60006132d184828501613077565b91505092915050565b6000602082840312156132ec57600080fd5b60006132fa8482850161308c565b91505092915050565b60006020828403121561331557600080fd5b600082013567ffffffffffffffff81111561332f57600080fd5b61333b848285016130cb565b91505092915050565b6000806040838503121561335757600080fd5b600083013567ffffffffffffffff81111561337157600080fd5b61337d858286016130cb565b925050602083013567ffffffffffffffff81111561339a57600080fd5b6133a6858286016130cb565b9150509250929050565b6000602082840312156133c257600080fd5b60006133d0848285016130f5565b91505092915050565b600080604083850312156133ec57600080fd5b60006133fa858286016130f5565b925050602061340b858286016130f5565b9150509250929050565b6000613421838361384e565b60208301905092915050565b61343681613dd5565b82525050565b600061344782613cdf565b6134518185613d0d565b935061345c83613ccf565b8060005b8381101561348d5781516134748882613415565b975061347f83613d00565b925050600181019050613460565b5085935050505092915050565b6134a381613de7565b82525050565b60006134b482613cea565b6134be8185613d1e565b93506134ce818560208601613e58565b6134d781613fc4565b840191505092915050565b60006134ed82613cf5565b6134f78185613d2f565b9350613507818560208601613e58565b61351081613fc4565b840191505092915050565b600061352682613cf5565b6135308185613d40565b9350613540818560208601613e58565b80840191505092915050565b6000613559602d83613d2f565b915061356482613fd5565b604082019050919050565b600061357c602183613d2f565b915061358782614024565b604082019050919050565b600061359f603283613d2f565b91506135aa82614073565b604082019050919050565b60006135c2602683613d2f565b91506135cd826140c2565b604082019050919050565b60006135e5602583613d2f565b91506135f082614111565b604082019050919050565b6000613608601c83613d2f565b915061361382614160565b602082019050919050565b600061362b602483613d2f565b915061363682614189565b604082019050919050565b600061364e601983613d2f565b9150613659826141d8565b602082019050919050565b6000613671601483613d2f565b915061367c82614201565b602082019050919050565b6000613694602083613d2f565b915061369f8261422a565b602082019050919050565b60006136b7601483613d2f565b91506136c282614253565b602082019050919050565b60006136da601483613d2f565b91506136e58261427c565b602082019050919050565b60006136fd602983613d2f565b9150613708826142a5565b604082019050919050565b6000613720602e83613d2f565b915061372b826142f4565b604082019050919050565b6000613743601283613d2f565b915061374e82614343565b602082019050919050565b6000613766602083613d2f565b91506137718261436c565b602082019050919050565b6000613789602083613d2f565b915061379482614395565b602082019050919050565b60006137ac601883613d2f565b91506137b7826143be565b602082019050919050565b60006137cf601283613d2f565b91506137da826143e7565b602082019050919050565b60006137f2601083613d2f565b91506137fd82614410565b602082019050919050565b6000613815602183613d2f565b915061382082614439565b604082019050919050565b6000613838603d83613d2f565b915061384382614488565b604082019050919050565b61385781613e3f565b82525050565b61386681613e3f565b82525050565b6000613878828461351b565b915081905092915050565b600061388f828561351b565b915061389b828461351b565b91508190509392505050565b60006020820190506138bc600083018461342d565b92915050565b60006080820190506138d7600083018761342d565b6138e4602083018661342d565b6138f1604083018561385d565b818103606083015261390381846134a9565b905095945050505050565b60006020820190508181036000830152613928818461343c565b905092915050565b6000602082019050613945600083018461349a565b92915050565b6000602082019050818103600083015261396581846134e2565b905092915050565b600060208201905081810360008301526139868161354c565b9050919050565b600060208201905081810360008301526139a68161356f565b9050919050565b600060208201905081810360008301526139c681613592565b9050919050565b600060208201905081810360008301526139e6816135b5565b9050919050565b60006020820190508181036000830152613a06816135d8565b9050919050565b60006020820190508181036000830152613a26816135fb565b9050919050565b60006020820190508181036000830152613a468161361e565b9050919050565b60006020820190508181036000830152613a6681613641565b9050919050565b60006020820190508181036000830152613a8681613664565b9050919050565b60006020820190508181036000830152613aa681613687565b9050919050565b60006020820190508181036000830152613ac6816136aa565b9050919050565b60006020820190508181036000830152613ae6816136cd565b9050919050565b60006020820190508181036000830152613b06816136f0565b9050919050565b60006020820190508181036000830152613b2681613713565b9050919050565b60006020820190508181036000830152613b4681613736565b9050919050565b60006020820190508181036000830152613b6681613759565b9050919050565b60006020820190508181036000830152613b868161377c565b9050919050565b60006020820190508181036000830152613ba68161379f565b9050919050565b60006020820190508181036000830152613bc6816137c2565b9050919050565b60006020820190508181036000830152613be6816137e5565b9050919050565b60006020820190508181036000830152613c0681613808565b9050919050565b60006020820190508181036000830152613c268161382b565b9050919050565b6000602082019050613c42600083018461385d565b92915050565b6000613c52613c63565b9050613c5e8282613ebd565b919050565b6000604051905090565b600067ffffffffffffffff821115613c8857613c87613f95565b5b613c9182613fc4565b9050602081019050919050565b600067ffffffffffffffff821115613cb957613cb8613f95565b5b613cc282613fc4565b9050602081019050919050565b6000819050602082019050919050565b600081519050919050565b600081519050919050565b600081519050919050565b6000602082019050919050565b600082825260208201905092915050565b600082825260208201905092915050565b600082825260208201905092915050565b600081905092915050565b6000613d5682613e3f565b9150613d6183613e3f565b9250827fffffffffffffffffffffffffffffffffffffffffffffffffffffffffffffffff03821115613d9657613d95613f37565b5b828201905092915050565b6000613dac82613e3f565b9150613db783613e3f565b925082821015613dca57613dc9613f37565b5b828203905092915050565b6000613de082613e1f565b9050919050565b60008115159050919050565b60007fffffffff0000000000000000000000000000000000000000000000000000000082169050919050565b600073ffffffffffffffffffffffffffffffffffffffff82169050919050565b6000819050919050565b82818337600083830152505050565b60005b83811015613e76578082015181840152602081019050613e5b565b83811115613e85576000848401525b50505050565b60006002820490506001821680613ea357607f821691505b60208210811415613eb757613eb6613f66565b5b50919050565b613ec682613fc4565b810181811067ffffffffffffffff82111715613ee557613ee4613f95565b5b80604052505050565b6000613ef982613e3f565b91507fffffffffffffffffffffffffffffffffffffffffffffffffffffffffffffffff821415613f2c57613f2b613f37565b5b600182019050919050565b7f4e487b7100000000000000000000000000000000000000000000000000000000600052601160045260246000fd5b7f4e487b7100000000000000000000000000000000000000000000000000000000600052602260045260246000fd5b7f4e487b7100000000000000000000000000000000000000000000000000000000600052604160045260246000fd5b6000601f19601f8301169050919050565b7f4552433732313a2063616c6c6572206973206e6f7420746f6b656e206f776e6560008201527f72206f7220617070726f76656400000000000000000000000000000000000000602082015250565b7f546f6b656e206973206120636c6f6e652c206e6f7420616e206f726967696e6160008201527f6c00000000000000000000000000000000000000000000000000000000000000602082015250565b7f4552433732313a207472616e7366657220746f206e6f6e20455243373231526560008201527f63656976657220696d706c656d656e7465720000000000000000000000000000602082015250565b7f4f776e61626c653a206e6577206f776e657220697320746865207a65726f206160008201527f6464726573730000000000000000000000000000000000000000000000000000602082015250565b7f4552433732313a207472616e736665722066726f6d20696e636f72726563742060008201527f6f776e6572000000000000000000000000000000000000000000000000000000602082015250565b7f4552433732313a20746f6b656e20616c7265616479206d696e74656400000000600082015250565b7f4552433732313a207472616e7366657220746f20746865207a65726f2061646460008201527f7265737300000000000000000000000000000000000000000000000000000000602082015250565b7f4552433732313a20617070726f766520746f2063616c6c657200000000000000600082015250565b7f43616e6e6f7420636c6f6e65206120636c6f6e65000000000000000000000000600082015250565b7f496e73756666696369656e742066756e647320746f206d696e7420636c6f6e65600082015250565b7f546f6b656e20646f6573206e6f74206578697374000000000000000000000000600082015250565b7f546f6b656e206973206e6f74206120636c6f6e65000000000000000000000000600082015250565b7f4552433732313a2061646472657373207a65726f206973206e6f74206120766160008201527f6c6964206f776e65720000000000000000000000000000000000000000000000602082015250565b7f45524337323155524953746f726167653a2055524920736574206f66206e6f6e60008201527f6578697374656e7420746f6b656e000000000000000000000000000000000000602082015250565b7f55524c20616c7265616479206578697374730000000000000000000000000000600082015250565b7f4552433732313a206d696e7420746f20746865207a65726f2061646472657373600082015250565b7f4f776e61626c653a2063616c6c6572206973206e6f7420746865206f776e6572600082015250565b7f4552433732313a20696e76616c696420746f6b656e2049440000000000000000600082015250565b7f55524c20646f6573206e6f742065786973740000000000000000000000000000600082015250565b7f496e76616c696420746f6b656e20494400000000000000000000000000000000600082015250565b7f4552433732313a20617070726f76616c20746f2063757272656e74206f776e6560008201527f7200000000000000000000000000000000000000000000000000000000000000602082015250565b7f4552433732313a20617070726f76652063616c6c6572206973206e6f7420746f60008201527f6b656e206f776e6572206f7220617070726f76656420666f7220616c6c000000602082015250565b6144e081613dd5565b81146144eb57600080fd5b50565b6144f781613de7565b811461450257600080fd5b50565b61450e81613df3565b811461451957600080fd5b50565b61452581613e3f565b811461453057600080fd5b5056fea2646970667358221220e53be7b8d7a25f60806ff9ea1e389d671b53fe614f762d2078d80ff270d3510964736f6c63430008010033",
  "linkReferences": {},
  "deployedLinkReferences": {}
}