{
  "_format": "hh-sol-artifact-1",
  "contractName": "CloneableNFT",
  "sourceName": "contracts/ClonableNFT.sol",
  "abi": [
    {
      "inputs": [
        {
          "internalType": "string",
          "name": "name",
          "type": "string"
        },
        {
          "internalType": "string",
          "name": "symbol",
          "type": "string"
        }
      ],
      "stateMutability": "nonpayable",
      "type": "constructor"
    },
    {
      "anonymous": false,
      "inputs": [
        {
          "indexed": true,
          "internalType": "address",
          "name": "owner",
          "type": "address"
        },
        {
          "indexed": true,
          "internalType": "address",
          "name": "approved",
          "type": "address"
        },
        {
          "indexed": true,
          "internalType": "uint256",
          "name": "tokenId",
          "type": "uint256"
        }
      ],
      "name": "Approval",
      "type": "event"
    },
    {
      "anonymous": false,
      "inputs": [
        {
          "indexed": true,
          "internalType": "address",
          "name": "owner",
          "type": "address"
        },
        {
          "indexed": true,
          "internalType": "address",
          "name": "operator",
          "type": "address"
        },
        {
          "indexed": false,
          "internalType": "bool",
          "name": "approved",
          "type": "bool"
        }
      ],
      "name": "ApprovalForAll",
      "type": "event"
    },
    {
      "anonymous": false,
      "inputs": [
        {
          "indexed": true,
          "internalType": "address",
          "name": "previousOwner",
          "type": "address"
        },
        {
          "indexed": true,
          "internalType": "address",
          "name": "newOwner",
          "type": "address"
        }
      ],
      "name": "OwnershipTransferred",
      "type": "event"
    },
    {
      "anonymous": false,
      "inputs": [
        {
          "indexed": true,
          "internalType": "address",
          "name": "from",
          "type": "address"
        },
        {
          "indexed": true,
          "internalType": "address",
          "name": "to",
          "type": "address"
        },
        {
          "indexed": true,
          "internalType": "uint256",
          "name": "tokenId",
          "type": "uint256"
        }
      ],
      "name": "Transfer",
      "type": "event"
    },
    {
      "inputs": [
        {
          "internalType": "address",
          "name": "to",
          "type": "address"
        },
        {
          "internalType": "uint256",
          "name": "tokenId",
          "type": "uint256"
        }
      ],
      "name": "approve",
      "outputs": [],
      "stateMutability": "nonpayable",
      "type": "function"
    },
    {
      "inputs": [
        {
          "internalType": "address",
          "name": "owner",
          "type": "address"
        }
      ],
      "name": "balanceOf",
      "outputs": [
        {
          "internalType": "uint256",
          "name": "",
          "type": "uint256"
        }
      ],
      "stateMutability": "view",
      "type": "function"
    },
    {
      "inputs": [
        {
          "internalType": "uint256",
          "name": "tokenId",
          "type": "uint256"
        }
      ],
      "name": "getApproved",
      "outputs": [
        {
          "internalType": "address",
          "name": "",
          "type": "address"
        }
      ],
      "stateMutability": "view",
      "type": "function"
    },
    {
      "inputs": [],
      "name": "getDefaultClonePrice",
      "outputs": [
        {
          "internalType": "uint256",
          "name": "",
          "type": "uint256"
        }
      ],
      "stateMutability": "view",
      "type": "function"
    },
    {
      "inputs": [
        {
          "internalType": "uint256",
          "name": "tokenId",
          "type": "uint256"
        }
      ],
      "name": "getOriginal",
      "outputs": [
        {
          "internalType": "uint256",
          "name": "",
          "type": "uint256"
        }
      ],
      "stateMutability": "view",
      "type": "function"
    },
    {
      "inputs": [
        {
          "internalType": "address",
          "name": "owner",
          "type": "address"
        }
      ],
      "name": "getOwnedTokens",
      "outputs": [
        {
          "internalType": "uint256[]",
          "name": "",
          "type": "uint256[]"
        }
      ],
      "stateMutability": "view",
      "type": "function"
    },
    {
      "inputs": [
        {
          "internalType": "string",
          "name": "_url",
          "type": "string"
        }
      ],
      "name": "getTokenIdByUrl",
      "outputs": [
        {
          "internalType": "uint256",
          "name": "",
          "type": "uint256"
        }
      ],
      "stateMutability": "view",
      "type": "function"
    },
    {
      "inputs": [
        {
          "internalType": "address",
          "name": "owner",
          "type": "address"
        },
        {
          "internalType": "address",
          "name": "operator",
          "type": "address"
        }
      ],
      "name": "isApprovedForAll",
      "outputs": [
        {
          "internalType": "bool",
          "name": "",
          "type": "bool"
        }
      ],
      "stateMutability": "view",
      "type": "function"
    },
    {
      "inputs": [
        {
          "internalType": "uint256",
          "name": "tokenId",
          "type": "uint256"
        }
      ],
      "name": "isClone",
      "outputs": [
        {
          "internalType": "bool",
          "name": "",
          "type": "bool"
        }
      ],
      "stateMutability": "view",
      "type": "function"
    },
    {
      "inputs": [
        {
          "internalType": "uint256",
          "name": "tokenId",
          "type": "uint256"
        },
        {
          "internalType": "string",
          "name": "_url",
          "type": "string"
        }
      ],
      "name": "mintClone",
      "outputs": [],
      "stateMutability": "payable",
      "type": "function"
    },
    {
      "inputs": [
        {
          "internalType": "string",
          "name": "_tokenURI",
          "type": "string"
        },
        {
          "internalType": "string",
          "name": "_url",
          "type": "string"
        }
      ],
      "name": "mintNFT",
      "outputs": [],
      "stateMutability": "nonpayable",
      "type": "function"
    },
    {
      "inputs": [],
      "name": "name",
      "outputs": [
        {
          "internalType": "string",
          "name": "",
          "type": "string"
        }
      ],
      "stateMutability": "view",
      "type": "function"
    },
    {
      "inputs": [],
      "name": "owner",
      "outputs": [
        {
          "internalType": "address",
          "name": "",
          "type": "address"
        }
      ],
      "stateMutability": "view",
      "type": "function"
    },
    {
      "inputs": [
        {
          "internalType": "uint256",
          "name": "tokenId",
          "type": "uint256"
        }
      ],
      "name": "ownerOf",
      "outputs": [
        {
          "internalType": "address",
          "name": "",
          "type": "address"
        }
      ],
      "stateMutability": "view",
      "type": "function"
    },
    {
      "inputs": [],
      "name": "renounceOwnership",
      "outputs": [],
      "stateMutability": "nonpayable",
      "type": "function"
    },
    {
      "inputs": [
        {
          "internalType": "address",
          "name": "from",
          "type": "address"
        },
        {
          "internalType": "address",
          "name": "to",
          "type": "address"
        },
        {
          "internalType": "uint256",
          "name": "tokenId",
          "type": "uint256"
        }
      ],
      "name": "safeTransferFrom",
      "outputs": [],
      "stateMutability": "nonpayable",
      "type": "function"
    },
    {
      "inputs": [
        {
          "internalType": "address",
          "name": "from",
          "type": "address"
        },
        {
          "internalType": "address",
          "name": "to",
          "type": "address"
        },
        {
          "internalType": "uint256",
          "name": "tokenId",
          "type": "uint256"
        },
        {
          "internalType": "bytes",
          "name": "data",
          "type": "bytes"
        }
      ],
      "name": "safeTransferFrom",
      "outputs": [],
      "stateMutability": "nonpayable",
      "type": "function"
    },
    {
      "inputs": [
        {
          "internalType": "address",
          "name": "operator",
          "type": "address"
        },
        {
          "internalType": "bool",
          "name": "approved",
          "type": "bool"
        }
      ],
      "name": "setApprovalForAll",
      "outputs": [],
      "stateMutability": "nonpayable",
      "type": "function"
    },
    {
      "inputs": [
        {
          "internalType": "uint256",
          "name": "tokenId",
          "type": "uint256"
        },
        {
          "internalType": "uint256",
          "name": "newPrice",
          "type": "uint256"
        }
      ],
      "name": "setClonePrice",
      "outputs": [],
      "stateMutability": "nonpayable",
      "type": "function"
    },
    {
      "inputs": [
        {
          "internalType": "uint256",
          "name": "newPrice",
          "type": "uint256"
        }
      ],
      "name": "setDefaultClonePrice",
      "outputs": [],
      "stateMutability": "nonpayable",
      "type": "function"
    },
    {
      "inputs": [
        {
          "internalType": "bytes4",
          "name": "interfaceId",
          "type": "bytes4"
        }
      ],
      "name": "supportsInterface",
      "outputs": [
        {
          "internalType": "bool",
          "name": "",
          "type": "bool"
        }
      ],
      "stateMutability": "view",
      "type": "function"
    },
    {
      "inputs": [],
      "name": "symbol",
      "outputs": [
        {
          "internalType": "string",
          "name": "",
          "type": "string"
        }
      ],
      "stateMutability": "view",
      "type": "function"
    },
    {
      "inputs": [
        {
          "internalType": "uint256",
          "name": "tokenId",
          "type": "uint256"
        }
      ],
      "name": "tokenURI",
      "outputs": [
        {
          "internalType": "string",
          "name": "",
          "type": "string"
        }
      ],
      "stateMutability": "view",
      "type": "function"
    },
    {
      "inputs": [
        {
          "internalType": "address",
          "name": "from",
          "type": "address"
        },
        {
          "internalType": "address",
          "name": "to",
          "type": "address"
        },
        {
          "internalType": "uint256",
          "name": "tokenId",
          "type": "uint256"
        }
      ],
      "name": "transferFrom",
      "outputs": [],
      "stateMutability": "nonpayable",
      "type": "function"
    },
    {
      "inputs": [
        {
          "internalType": "address",
          "name": "newOwner",
          "type": "address"
        }
      ],
      "name": "transferOwnership",
      "outputs": [],
      "stateMutability": "nonpayable",
      "type": "function"
    },
    {
      "inputs": [],
      "name": "withdraw",
      "outputs": [],
      "stateMutability": "nonpayable",
      "type": "function"
    }
  ],
  "bytecode": "0x6080604052662386f26fc100006009553480156200001c57600080fd5b50604051620041d1380380620041d1833981810160405281019062000042919062000290565b818181600090805190602001906200005c9291906200016e565b508060019080519060200190620000759291906200016e565b505050620000986200008c620000a060201b60201c565b620000a860201b60201c565b505062000473565b600033905090565b6000600760009054906101000a900473ffffffffffffffffffffffffffffffffffffffff16905081600760006101000a81548173ffffffffffffffffffffffffffffffffffffffff021916908373ffffffffffffffffffffffffffffffffffffffff1602179055508173ffffffffffffffffffffffffffffffffffffffff168173ffffffffffffffffffffffffffffffffffffffff167f8be0079c531659141344cd1fd0a4f28419497f9722a3daafe3b4186f6b6457e060405160405180910390a35050565b8280546200017c9062000398565b90600052602060002090601f016020900481019282620001a05760008555620001ec565b82601f10620001bb57805160ff1916838001178555620001ec565b82800160010185558215620001ec579182015b82811115620001eb578251825591602001919060010190620001ce565b5b509050620001fb9190620001ff565b5090565b5b808211156200021a57600081600090555060010162000200565b5090565b6000620002356200022f846200032c565b62000303565b9050828152602081018484840111156200024e57600080fd5b6200025b84828562000362565b509392505050565b600082601f8301126200027557600080fd5b8151620002878482602086016200021e565b91505092915050565b60008060408385031215620002a457600080fd5b600083015167ffffffffffffffff811115620002bf57600080fd5b620002cd8582860162000263565b925050602083015167ffffffffffffffff811115620002eb57600080fd5b620002f98582860162000263565b9150509250929050565b60006200030f62000322565b90506200031d8282620003ce565b919050565b6000604051905090565b600067ffffffffffffffff8211156200034a576200034962000433565b5b620003558262000462565b9050602081019050919050565b60005b838110156200038257808201518184015260208101905062000365565b8381111562000392576000848401525b50505050565b60006002820490506001821680620003b157607f821691505b60208210811415620003c857620003c762000404565b5b50919050565b620003d98262000462565b810181811067ffffffffffffffff82111715620003fb57620003fa62000433565b5b80604052505050565b7f4e487b7100000000000000000000000000000000000000000000000000000000600052602260045260246000fd5b7f4e487b7100000000000000000000000000000000000000000000000000000000600052604160045260246000fd5b6000601f19601f8301169050919050565b613d4e80620004836000396000f3fe6080604052600436106101815760003560e01c8063715018a6116100d1578063c6af11221161008a578063e960554411610064578063e960554414610597578063e985e9c5146105c0578063ef74248d146105fd578063f2fde38b1461062657610181565b8063c6af1122146104f2578063c87b56dd1461051d578063d9d616551461055a57610181565b8063715018a6146103f65780638da5cb5b1461040d57806395d89b4114610438578063a22cb46514610463578063b88d4fde1461048c578063bc8c778f146104b557610181565b806323b872dd1161013e5780633ccfd60b116101185780633ccfd60b1461033c57806342842e0e146103535780636352211e1461037c57806370a08231146103b957610181565b806323b872dd146102ba5780632aa2e90a146102e3578063385eda9c146102ff57610181565b806301ffc9a71461018657806306fdde03146101c3578063081812fc146101ee578063095ea7b31461022b5780631741f3e2146102545780631a2b285e14610291575b600080fd5b34801561019257600080fd5b506101ad60048036038101906101a89190612c02565b61064f565b6040516101ba919061326c565b60405180910390f35b3480156101cf57600080fd5b506101d8610731565b6040516101e59190613287565b60405180910390f35b3480156101fa57600080fd5b5061021560048036038101906102109190612d01565b6107c3565b60405161022291906131e3565b60405180910390f35b34801561023757600080fd5b50610252600480360381019061024d9190612bc6565b610809565b005b34801561026057600080fd5b5061027b60048036038101906102769190612c54565b610921565b6040516102889190613509565b60405180910390f35b34801561029d57600080fd5b506102b860048036038101906102b39190612d01565b6109aa565b005b3480156102c657600080fd5b506102e160048036038101906102dc9190612ac0565b6109bc565b005b6102fd60048036038101906102f89190612d2a565b610a1c565b005b34801561030b57600080fd5b5061032660048036038101906103219190612d01565b610c38565b604051610333919061326c565b60405180910390f35b34801561034857600080fd5b50610351610c62565b005b34801561035f57600080fd5b5061037a60048036038101906103759190612ac0565b610cba565b005b34801561038857600080fd5b506103a3600480360381019061039e9190612d01565b610cda565b6040516103b091906131e3565b60405180910390f35b3480156103c557600080fd5b506103e060048036038101906103db9190612a5b565b610d61565b6040516103ed9190613509565b60405180910390f35b34801561040257600080fd5b5061040b610e19565b005b34801561041957600080fd5b50610422610e2d565b60405161042f91906131e3565b60405180910390f35b34801561044457600080fd5b5061044d610e57565b60405161045a9190613287565b60405180910390f35b34801561046f57600080fd5b5061048a60048036038101906104859190612b8a565b610ee9565b005b34801561049857600080fd5b506104b360048036038101906104ae9190612b0f565b610eff565b005b3480156104c157600080fd5b506104dc60048036038101906104d79190612d01565b610f61565b6040516104e99190613509565b60405180910390f35b3480156104fe57600080fd5b50610507610fde565b6040516105149190613509565b60405180910390f35b34801561052957600080fd5b50610544600480360381019061053f9190612d01565b610fe8565b6040516105519190613287565b60405180910390f35b34801561056657600080fd5b50610581600480360381019061057c9190612a5b565b610ffa565b60405161058e919061324a565b60405180910390f35b3480156105a357600080fd5b506105be60048036038101906105b99190612c95565b611091565b005b3480156105cc57600080fd5b506105e760048036038101906105e29190612a84565b61118c565b6040516105f4919061326c565b60405180910390f35b34801561060957600080fd5b50610624600480360381019061061f9190612d7e565b611220565b005b34801561063257600080fd5b5061064d60048036038101906106489190612a5b565b611244565b005b60007f80ac58cd000000000000000000000000000000000000000000000000000000007bffffffffffffffffffffffffffffffffffffffffffffffffffffffff1916827bffffffffffffffffffffffffffffffffffffffffffffffffffffffff1916148061071a57507f5b5e139f000000000000000000000000000000000000000000000000000000007bffffffffffffffffffffffffffffffffffffffffffffffffffffffff1916827bffffffffffffffffffffffffffffffffffffffffffffffffffffffff1916145b8061072a5750610729826112c8565b5b9050919050565b60606000805461074090613711565b80601f016020809104026020016040519081016040528092919081815260200182805461076c90613711565b80156107b95780601f1061078e576101008083540402835291602001916107b9565b820191906000526020600020905b81548152906001019060200180831161079c57829003601f168201915b5050505050905090565b60006107ce82611332565b6004600083815260200190815260200160002060009054906101000a900473ffffffffffffffffffffffffffffffffffffffff169050919050565b600061081482610cda565b90508073ffffffffffffffffffffffffffffffffffffffff168373ffffffffffffffffffffffffffffffffffffffff161415610885576040517f08c379a000000000000000000000000000000000000000000000000000000000815260040161087c906134c9565b60405180910390fd5b8073ffffffffffffffffffffffffffffffffffffffff166108a461137d565b73ffffffffffffffffffffffffffffffffffffffff1614806108d357506108d2816108cd61137d565b61118c565b5b610912576040517f08c379a0000000000000000000000000000000000000000000000000000000008152600401610909906134e9565b60405180910390fd5b61091c8383611385565b505050565b600080600d8360405161093491906131a8565b9081526020016040518091039020541415610984576040517f08c379a000000000000000000000000000000000000000000000000000000000815260040161097b90613489565b60405180910390fd5b600d8260405161099491906131a8565b9081526020016040518091039020549050919050565b6109b261143e565b8060098190555050565b6109cd6109c761137d565b826114bc565b610a0c576040517f08c379a0000000000000000000000000000000000000000000000000000000008152600401610a03906132a9565b60405180910390fd5b610a17838383611551565b505050565b610a2582611896565b610a64576040517f08c379a0000000000000000000000000000000000000000000000000000000008152600401610a5b906134a9565b60405180910390fd5b600a600083815260200190815260200160002060009054906101000a900460ff1615610ac5576040517f08c379a0000000000000000000000000000000000000000000000000000000008152600401610abc90613389565b60405180910390fd5b600080600c60008581526020019081526020016000205411610ae957600954610afe565b600c6000848152602001908152602001600020545b905080341015610b43576040517f08c379a0000000000000000000000000000000000000000000000000000000008152600401610b3a906133a9565b60405180910390fd5b610b4d60086118d7565b6000610b5960086118ed565b9050610b6533826118fb565b6001600a600083815260200190815260200160002060006101000a81548160ff02191690831515021790555083600b60008381526020019081526020016000208190555080600d84604051610bba91906131a8565b908152602001604051809103902081905550600e60003373ffffffffffffffffffffffffffffffffffffffff1673ffffffffffffffffffffffffffffffffffffffff16815260200190815260200160002081908060018154018082558091505060019003906000526020600020016000909190919091505550505050565b6000600a600083815260200190815260200160002060009054906101000a900460ff169050919050565b610c6a61143e565b610c72610e2d565b73ffffffffffffffffffffffffffffffffffffffff166108fc479081150290604051600060405180830381858888f19350505050158015610cb7573d6000803e3d6000fd5b50565b610cd583838360405180602001604052806000815250610eff565b505050565b600080610ce683611919565b9050600073ffffffffffffffffffffffffffffffffffffffff168173ffffffffffffffffffffffffffffffffffffffff161415610d58576040517f08c379a0000000000000000000000000000000000000000000000000000000008152600401610d4f90613469565b60405180910390fd5b80915050919050565b60008073ffffffffffffffffffffffffffffffffffffffff168273ffffffffffffffffffffffffffffffffffffffff161415610dd2576040517f08c379a0000000000000000000000000000000000000000000000000000000008152600401610dc9906133e9565b60405180910390fd5b600360008373ffffffffffffffffffffffffffffffffffffffff1673ffffffffffffffffffffffffffffffffffffffff168152602001908152602001600020549050919050565b610e2161143e565b610e2b6000611956565b565b6000600760009054906101000a900473ffffffffffffffffffffffffffffffffffffffff16905090565b606060018054610e6690613711565b80601f0160208091040260200160405190810160405280929190818152602001828054610e9290613711565b8015610edf5780601f10610eb457610100808354040283529160200191610edf565b820191906000526020600020905b815481529060010190602001808311610ec257829003601f168201915b5050505050905090565b610efb610ef461137d565b8383611a1c565b5050565b610f10610f0a61137d565b836114bc565b610f4f576040517f08c379a0000000000000000000000000000000000000000000000000000000008152600401610f46906132a9565b60405180910390fd5b610f5b84848484611b89565b50505050565b6000600a600083815260200190815260200160002060009054906101000a900460ff16610fc3576040517f08c379a0000000000000000000000000000000000000000000000000000000008152600401610fba906133c9565b60405180910390fd5b600b6000838152602001908152602001600020549050919050565b6000600954905090565b6060610ff382611be5565b9050919050565b6060600e60008373ffffffffffffffffffffffffffffffffffffffff1673ffffffffffffffffffffffffffffffffffffffff16815260200190815260200160002080548060200260200160405190810160405280929190818152602001828054801561108557602002820191906000526020600020905b815481526020019060010190808311611071575b50505050509050919050565b61109961143e565b6110a360086118d7565b60006110ad610e2d565b905060006110bb60086118ed565b90506110c78282611cf8565b6000600a600083815260200190815260200160002060006101000a81548160ff0219169083151502179055506110fd8185611f16565b80600d8460405161110e91906131a8565b908152602001604051809103902081905550600e60008373ffffffffffffffffffffffffffffffffffffffff1673ffffffffffffffffffffffffffffffffffffffff16815260200190815260200160002081908060018154018082558091505060019003906000526020600020016000909190919091505550505050565b6000600560008473ffffffffffffffffffffffffffffffffffffffff1673ffffffffffffffffffffffffffffffffffffffff16815260200190815260200160002060008373ffffffffffffffffffffffffffffffffffffffff1673ffffffffffffffffffffffffffffffffffffffff16815260200190815260200160002060009054906101000a900460ff16905092915050565b61122861143e565b80600c6000848152602001908152602001600020819055505050565b61124c61143e565b600073ffffffffffffffffffffffffffffffffffffffff168173ffffffffffffffffffffffffffffffffffffffff1614156112bc576040517f08c379a00000000000000000000000000000000000000000000000000000000081526004016112b3906132e9565b60405180910390fd5b6112c581611956565b50565b60007f01ffc9a7000000000000000000000000000000000000000000000000000000007bffffffffffffffffffffffffffffffffffffffffffffffffffffffff1916827bffffffffffffffffffffffffffffffffffffffffffffffffffffffff1916149050919050565b61133b81611896565b61137a576040517f08c379a000000000000000000000000000000000000000000000000000000000815260040161137190613469565b60405180910390fd5b50565b600033905090565b816004600083815260200190815260200160002060006101000a81548173ffffffffffffffffffffffffffffffffffffffff021916908373ffffffffffffffffffffffffffffffffffffffff160217905550808273ffffffffffffffffffffffffffffffffffffffff166113f883610cda565b73ffffffffffffffffffffffffffffffffffffffff167f8c5be1e5ebec7d5bd14f71427d1e84f3dd0314c0f7b2291e5b200ac8c7c3b92560405160405180910390a45050565b61144661137d565b73ffffffffffffffffffffffffffffffffffffffff16611464610e2d565b73ffffffffffffffffffffffffffffffffffffffff16146114ba576040517f08c379a00000000000000000000000000000000000000000000000000000000081526004016114b190613449565b60405180910390fd5b565b6000806114c883610cda565b90508073ffffffffffffffffffffffffffffffffffffffff168473ffffffffffffffffffffffffffffffffffffffff16148061150a5750611509818561118c565b5b8061154857508373ffffffffffffffffffffffffffffffffffffffff16611530846107c3565b73ffffffffffffffffffffffffffffffffffffffff16145b91505092915050565b61155c838383611f8a565b60005b600e60008573ffffffffffffffffffffffffffffffffffffffff1673ffffffffffffffffffffffffffffffffffffffff1681526020019081526020016000208054905081101561182a5781600e60008673ffffffffffffffffffffffffffffffffffffffff1673ffffffffffffffffffffffffffffffffffffffff1681526020019081526020016000208281548110611621577f4e487b7100000000000000000000000000000000000000000000000000000000600052603260045260246000fd5b9060005260206000200154141561181757600e60008573ffffffffffffffffffffffffffffffffffffffff1673ffffffffffffffffffffffffffffffffffffffff1681526020019081526020016000206001600e60008773ffffffffffffffffffffffffffffffffffffffff1673ffffffffffffffffffffffffffffffffffffffff168152602001908152602001600020805490506116c09190613627565b815481106116f7577f4e487b7100000000000000000000000000000000000000000000000000000000600052603260045260246000fd5b9060005260206000200154600e60008673ffffffffffffffffffffffffffffffffffffffff1673ffffffffffffffffffffffffffffffffffffffff1681526020019081526020016000208281548110611779577f4e487b7100000000000000000000000000000000000000000000000000000000600052603260045260246000fd5b9060005260206000200181905550600e60008573ffffffffffffffffffffffffffffffffffffffff1673ffffffffffffffffffffffffffffffffffffffff1681526020019081526020016000208054806117fc577f4e487b7100000000000000000000000000000000000000000000000000000000600052603160045260246000fd5b6001900381819060005260206000200160009055905561182a565b808061182290613774565b91505061155f565b50600e60008373ffffffffffffffffffffffffffffffffffffffff1673ffffffffffffffffffffffffffffffffffffffff168152602001908152602001600020819080600181540180825580915050600190039060005260206000200160009091909190915055505050565b60008073ffffffffffffffffffffffffffffffffffffffff166118b883611919565b73ffffffffffffffffffffffffffffffffffffffff1614159050919050565b6001816000016000828254019250508190555050565b600081600001549050919050565b611915828260405180602001604052806000815250612284565b5050565b60006002600083815260200190815260200160002060009054906101000a900473ffffffffffffffffffffffffffffffffffffffff169050919050565b6000600760009054906101000a900473ffffffffffffffffffffffffffffffffffffffff16905081600760006101000a81548173ffffffffffffffffffffffffffffffffffffffff021916908373ffffffffffffffffffffffffffffffffffffffff1602179055508173ffffffffffffffffffffffffffffffffffffffff168173ffffffffffffffffffffffffffffffffffffffff167f8be0079c531659141344cd1fd0a4f28419497f9722a3daafe3b4186f6b6457e060405160405180910390a35050565b8173ffffffffffffffffffffffffffffffffffffffff168373ffffffffffffffffffffffffffffffffffffffff161415611a8b576040517f08c379a0000000000000000000000000000000000000000000000000000000008152600401611a8290613369565b60405180910390fd5b80600560008573ffffffffffffffffffffffffffffffffffffffff1673ffffffffffffffffffffffffffffffffffffffff16815260200190815260200160002060008473ffffffffffffffffffffffffffffffffffffffff1673ffffffffffffffffffffffffffffffffffffffff16815260200190815260200160002060006101000a81548160ff0219169083151502179055508173ffffffffffffffffffffffffffffffffffffffff168373ffffffffffffffffffffffffffffffffffffffff167f17307eab39ab6107e8899845ad3d59bd9653f200f220920489ca2b5937696c3183604051611b7c919061326c565b60405180910390a3505050565b611b94848484611551565b611ba0848484846122df565b611bdf576040517f08c379a0000000000000000000000000000000000000000000000000000000008152600401611bd6906132c9565b60405180910390fd5b50505050565b6060611bf082611332565b6000600660008481526020019081526020016000208054611c1090613711565b80601f0160208091040260200160405190810160405280929190818152602001828054611c3c90613711565b8015611c895780601f10611c5e57610100808354040283529160200191611c89565b820191906000526020600020905b815481529060010190602001808311611c6c57829003601f168201915b505050505090506000611c9a612476565b9050600081511415611cb0578192505050611cf3565b600082511115611ce5578082604051602001611ccd9291906131bf565b60405160208183030381529060405292505050611cf3565b611cee8461248d565b925050505b919050565b600073ffffffffffffffffffffffffffffffffffffffff168273ffffffffffffffffffffffffffffffffffffffff161415611d68576040517f08c379a0000000000000000000000000000000000000000000000000000000008152600401611d5f90613429565b60405180910390fd5b611d7181611896565b15611db1576040517f08c379a0000000000000000000000000000000000000000000000000000000008152600401611da890613329565b60405180910390fd5b611dbf6000838360016124f5565b611dc881611896565b15611e08576040517f08c379a0000000000000000000000000000000000000000000000000000000008152600401611dff90613329565b60405180910390fd5b6001600360008473ffffffffffffffffffffffffffffffffffffffff1673ffffffffffffffffffffffffffffffffffffffff16815260200190815260200160002060008282540192505081905550816002600083815260200190815260200160002060006101000a81548173ffffffffffffffffffffffffffffffffffffffff021916908373ffffffffffffffffffffffffffffffffffffffff160217905550808273ffffffffffffffffffffffffffffffffffffffff16600073ffffffffffffffffffffffffffffffffffffffff167fddf252ad1be2c89b69c2b068fc378daa952ba7f163c4a11628f55a4df523b3ef60405160405180910390a4611f126000838360016124fb565b5050565b611f1f82611896565b611f5e576040517f08c379a0000000000000000000000000000000000000000000000000000000008152600401611f5590613409565b60405180910390fd5b80600660008481526020019081526020016000209080519060200190611f8592919061287f565b505050565b8273ffffffffffffffffffffffffffffffffffffffff16611faa82610cda565b73ffffffffffffffffffffffffffffffffffffffff1614612000576040517f08c379a0000000000000000000000000000000000000000000000000000000008152600401611ff790613309565b60405180910390fd5b600073ffffffffffffffffffffffffffffffffffffffff168273ffffffffffffffffffffffffffffffffffffffff161415612070576040517f08c379a000000000000000000000000000000000000000000000000000000000815260040161206790613349565b60405180910390fd5b61207d83838360016124f5565b8273ffffffffffffffffffffffffffffffffffffffff1661209d82610cda565b73ffffffffffffffffffffffffffffffffffffffff16146120f3576040517f08c379a00000000000000000000000000000000000000000000000000000000081526004016120ea90613309565b60405180910390fd5b6004600082815260200190815260200160002060006101000a81549073ffffffffffffffffffffffffffffffffffffffff02191690556001600360008573ffffffffffffffffffffffffffffffffffffffff1673ffffffffffffffffffffffffffffffffffffffff168152602001908152602001600020600082825403925050819055506001600360008473ffffffffffffffffffffffffffffffffffffffff1673ffffffffffffffffffffffffffffffffffffffff16815260200190815260200160002060008282540192505081905550816002600083815260200190815260200160002060006101000a81548173ffffffffffffffffffffffffffffffffffffffff021916908373ffffffffffffffffffffffffffffffffffffffff160217905550808273ffffffffffffffffffffffffffffffffffffffff168473ffffffffffffffffffffffffffffffffffffffff167fddf252ad1be2c89b69c2b068fc378daa952ba7f163c4a11628f55a4df523b3ef60405160405180910390a461227f83838360016124fb565b505050565b61228e8383611cf8565b61229b60008484846122df565b6122da576040517f08c379a00000000000000000000000000000000000000000000000000000000081526004016122d1906132c9565b60405180910390fd5b505050565b60006123008473ffffffffffffffffffffffffffffffffffffffff16612501565b15612469578373ffffffffffffffffffffffffffffffffffffffff1663150b7a0261232961137d565b8786866040518563ffffffff1660e01b815260040161234b94939291906131fe565b602060405180830381600087803b15801561236557600080fd5b505af192505050801561239657506040513d601f19601f820116820180604052508101906123939190612c2b565b60015b612419573d80600081146123c6576040519150601f19603f3d011682016040523d82523d6000602084013e6123cb565b606091505b50600081511415612411576040517f08c379a0000000000000000000000000000000000000000000000000000000008152600401612408906132c9565b60405180910390fd5b805181602001fd5b63150b7a0260e01b7bffffffffffffffffffffffffffffffffffffffffffffffffffffffff1916817bffffffffffffffffffffffffffffffffffffffffffffffffffffffff19161491505061246e565b600190505b949350505050565b606060405180602001604052806000815250905090565b606061249882611332565b60006124a2612476565b905060008151116124c257604051806020016040528060008152506124ed565b806124cc84612524565b6040516020016124dd9291906131bf565b6040516020818303038152906040525b915050919050565b50505050565b50505050565b6000808273ffffffffffffffffffffffffffffffffffffffff163b119050919050565b60606000600161253384612648565b01905060008167ffffffffffffffff811115612578577f4e487b7100000000000000000000000000000000000000000000000000000000600052604160045260246000fd5b6040519080825280601f01601f1916602001820160405280156125aa5781602001600182028036833780820191505090505b509050600082602001820190505b60011561263d578080600190039150507f3031323334353637383961626364656600000000000000000000000000000000600a86061a8153600a8581612627577f4e487b7100000000000000000000000000000000000000000000000000000000600052601260045260246000fd5b04945060008514156126385761263d565b6125b8565b819350505050919050565b600080600090507a184f03e93ff9f4daa797ed6e38ed64bf6a1f01000000000000000083106126cc577a184f03e93ff9f4daa797ed6e38ed64bf6a1f01000000000000000083816126c2577f4e487b7100000000000000000000000000000000000000000000000000000000600052601260045260246000fd5b0492506040810190505b6d04ee2d6d415b85acef8100000000831061272f576d04ee2d6d415b85acef81000000008381612725577f4e487b7100000000000000000000000000000000000000000000000000000000600052601260045260246000fd5b0492506020810190505b662386f26fc10000831061278457662386f26fc10000838161277a577f4e487b7100000000000000000000000000000000000000000000000000000000600052601260045260246000fd5b0492506010810190505b6305f5e10083106127d3576305f5e10083816127c9577f4e487b7100000000000000000000000000000000000000000000000000000000600052601260045260246000fd5b0492506008810190505b612710831061281e576127108381612814577f4e487b7100000000000000000000000000000000000000000000000000000000600052601260045260246000fd5b0492506004810190505b60648310612867576064838161285d577f4e487b7100000000000000000000000000000000000000000000000000000000600052601260045260246000fd5b0492506002810190505b600a8310612876576001810190505b80915050919050565b82805461288b90613711565b90600052602060002090601f0160209004810192826128ad57600085556128f4565b82601f106128c657805160ff19168380011785556128f4565b828001600101855582156128f4579182015b828111156128f35782518255916020019190600101906128d8565b5b5090506129019190612905565b5090565b5b8082111561291e576000816000905550600101612906565b5090565b600061293561293084613549565b613524565b90508281526020810184848401111561294d57600080fd5b6129588482856136cf565b509392505050565b600061297361296e8461357a565b613524565b90508281526020810184848401111561298b57600080fd5b6129968482856136cf565b509392505050565b6000813590506129ad81613cbc565b92915050565b6000813590506129c281613cd3565b92915050565b6000813590506129d781613cea565b92915050565b6000815190506129ec81613cea565b92915050565b600082601f830112612a0357600080fd5b8135612a13848260208601612922565b91505092915050565b600082601f830112612a2d57600080fd5b8135612a3d848260208601612960565b91505092915050565b600081359050612a5581613d01565b92915050565b600060208284031215612a6d57600080fd5b6000612a7b8482850161299e565b91505092915050565b60008060408385031215612a9757600080fd5b6000612aa58582860161299e565b9250506020612ab68582860161299e565b9150509250929050565b600080600060608486031215612ad557600080fd5b6000612ae38682870161299e565b9350506020612af48682870161299e565b9250506040612b0586828701612a46565b9150509250925092565b60008060008060808587031215612b2557600080fd5b6000612b338782880161299e565b9450506020612b448782880161299e565b9350506040612b5587828801612a46565b925050606085013567ffffffffffffffff811115612b7257600080fd5b612b7e878288016129f2565b91505092959194509250565b60008060408385031215612b9d57600080fd5b6000612bab8582860161299e565b9250506020612bbc858286016129b3565b9150509250929050565b60008060408385031215612bd957600080fd5b6000612be78582860161299e565b9250506020612bf885828601612a46565b9150509250929050565b600060208284031215612c1457600080fd5b6000612c22848285016129c8565b91505092915050565b600060208284031215612c3d57600080fd5b6000612c4b848285016129dd565b91505092915050565b600060208284031215612c6657600080fd5b600082013567ffffffffffffffff811115612c8057600080fd5b612c8c84828501612a1c565b91505092915050565b60008060408385031215612ca857600080fd5b600083013567ffffffffffffffff811115612cc257600080fd5b612cce85828601612a1c565b925050602083013567ffffffffffffffff811115612ceb57600080fd5b612cf785828601612a1c565b9150509250929050565b600060208284031215612d1357600080fd5b6000612d2184828501612a46565b91505092915050565b60008060408385031215612d3d57600080fd5b6000612d4b85828601612a46565b925050602083013567ffffffffffffffff811115612d6857600080fd5b612d7485828601612a1c565b9150509250929050565b60008060408385031215612d9157600080fd5b6000612d9f85828601612a46565b9250506020612db085828601612a46565b9150509250929050565b6000612dc6838361318a565b60208301905092915050565b612ddb8161365b565b82525050565b6000612dec826135bb565b612df681856135e9565b9350612e01836135ab565b8060005b83811015612e32578151612e198882612dba565b9750612e24836135dc565b925050600181019050612e05565b5085935050505092915050565b612e488161366d565b82525050565b6000612e59826135c6565b612e6381856135fa565b9350612e738185602086016136de565b612e7c8161384a565b840191505092915050565b6000612e92826135d1565b612e9c818561360b565b9350612eac8185602086016136de565b612eb58161384a565b840191505092915050565b6000612ecb826135d1565b612ed5818561361c565b9350612ee58185602086016136de565b80840191505092915050565b6000612efe602d8361360b565b9150612f098261385b565b604082019050919050565b6000612f2160328361360b565b9150612f2c826138aa565b604082019050919050565b6000612f4460268361360b565b9150612f4f826138f9565b604082019050919050565b6000612f6760258361360b565b9150612f7282613948565b604082019050919050565b6000612f8a601c8361360b565b9150612f9582613997565b602082019050919050565b6000612fad60248361360b565b9150612fb8826139c0565b604082019050919050565b6000612fd060198361360b565b9150612fdb82613a0f565b602082019050919050565b6000612ff360148361360b565b9150612ffe82613a38565b602082019050919050565b600061301660208361360b565b915061302182613a61565b602082019050919050565b600061303960148361360b565b915061304482613a8a565b602082019050919050565b600061305c60298361360b565b915061306782613ab3565b604082019050919050565b600061307f602e8361360b565b915061308a82613b02565b604082019050919050565b60006130a260208361360b565b91506130ad82613b51565b602082019050919050565b60006130c560208361360b565b91506130d082613b7a565b602082019050919050565b60006130e860188361360b565b91506130f382613ba3565b602082019050919050565b600061310b60128361360b565b915061311682613bcc565b602082019050919050565b600061312e60108361360b565b915061313982613bf5565b602082019050919050565b600061315160218361360b565b915061315c82613c1e565b604082019050919050565b6000613174603d8361360b565b915061317f82613c6d565b604082019050919050565b613193816136c5565b82525050565b6131a2816136c5565b82525050565b60006131b48284612ec0565b915081905092915050565b60006131cb8285612ec0565b91506131d78284612ec0565b91508190509392505050565b60006020820190506131f86000830184612dd2565b92915050565b60006080820190506132136000830187612dd2565b6132206020830186612dd2565b61322d6040830185613199565b818103606083015261323f8184612e4e565b905095945050505050565b600060208201905081810360008301526132648184612de1565b905092915050565b60006020820190506132816000830184612e3f565b92915050565b600060208201905081810360008301526132a18184612e87565b905092915050565b600060208201905081810360008301526132c281612ef1565b9050919050565b600060208201905081810360008301526132e281612f14565b9050919050565b6000602082019050818103600083015261330281612f37565b9050919050565b6000602082019050818103600083015261332281612f5a565b9050919050565b6000602082019050818103600083015261334281612f7d565b9050919050565b6000602082019050818103600083015261336281612fa0565b9050919050565b6000602082019050818103600083015261338281612fc3565b9050919050565b600060208201905081810360008301526133a281612fe6565b9050919050565b600060208201905081810360008301526133c281613009565b9050919050565b600060208201905081810360008301526133e28161302c565b9050919050565b600060208201905081810360008301526134028161304f565b9050919050565b6000602082019050818103600083015261342281613072565b9050919050565b6000602082019050818103600083015261344281613095565b9050919050565b60006020820190508181036000830152613462816130b8565b9050919050565b60006020820190508181036000830152613482816130db565b9050919050565b600060208201905081810360008301526134a2816130fe565b9050919050565b600060208201905081810360008301526134c281613121565b9050919050565b600060208201905081810360008301526134e281613144565b9050919050565b6000602082019050818103600083015261350281613167565b9050919050565b600060208201905061351e6000830184613199565b92915050565b600061352e61353f565b905061353a8282613743565b919050565b6000604051905090565b600067ffffffffffffffff8211156135645761356361381b565b5b61356d8261384a565b9050602081019050919050565b600067ffffffffffffffff8211156135955761359461381b565b5b61359e8261384a565b9050602081019050919050565b6000819050602082019050919050565b600081519050919050565b600081519050919050565b600081519050919050565b6000602082019050919050565b600082825260208201905092915050565b600082825260208201905092915050565b600082825260208201905092915050565b600081905092915050565b6000613632826136c5565b915061363d836136c5565b9250828210156136505761364f6137bd565b5b828203905092915050565b6000613666826136a5565b9050919050565b60008115159050919050565b60007fffffffff0000000000000000000000000000000000000000000000000000000082169050919050565b600073ffffffffffffffffffffffffffffffffffffffff82169050919050565b6000819050919050565b82818337600083830152505050565b60005b838110156136fc5780820151818401526020810190506136e1565b8381111561370b576000848401525b50505050565b6000600282049050600182168061372957607f821691505b6020821081141561373d5761373c6137ec565b5b50919050565b61374c8261384a565b810181811067ffffffffffffffff8211171561376b5761376a61381b565b5b80604052505050565b600061377f826136c5565b91507fffffffffffffffffffffffffffffffffffffffffffffffffffffffffffffffff8214156137b2576137b16137bd565b5b600182019050919050565b7f4e487b7100000000000000000000000000000000000000000000000000000000600052601160045260246000fd5b7f4e487b7100000000000000000000000000000000000000000000000000000000600052602260045260246000fd5b7f4e487b7100000000000000000000000000000000000000000000000000000000600052604160045260246000fd5b6000601f19601f8301169050919050565b7f4552433732313a2063616c6c6572206973206e6f7420746f6b656e206f776e6560008201527f72206f7220617070726f76656400000000000000000000000000000000000000602082015250565b7f4552433732313a207472616e7366657220746f206e6f6e20455243373231526560008201527f63656976657220696d706c656d656e7465720000000000000000000000000000602082015250565b7f4f776e61626c653a206e6577206f776e657220697320746865207a65726f206160008201527f6464726573730000000000000000000000000000000000000000000000000000602082015250565b7f4552433732313a207472616e736665722066726f6d20696e636f72726563742060008201527f6f776e6572000000000000000000000000000000000000000000000000000000602082015250565b7f4552433732313a20746f6b656e20616c7265616479206d696e74656400000000600082015250565b7f4552433732313a207472616e7366657220746f20746865207a65726f2061646460008201527f7265737300000000000000000000000000000000000000000000000000000000602082015250565b7f4552433732313a20617070726f766520746f2063616c6c657200000000000000600082015250565b7f43616e6e6f7420636c6f6e65206120636c6f6e65000000000000000000000000600082015250565b7f496e73756666696369656e742066756e647320746f206d696e7420636c6f6e65600082015250565b7f546f6b656e206973206e6f74206120636c6f6e65000000000000000000000000600082015250565b7f4552433732313a2061646472657373207a65726f206973206e6f74206120766160008201527f6c6964206f776e65720000000000000000000000000000000000000000000000602082015250565b7f45524337323155524953746f726167653a2055524920736574206f66206e6f6e60008201527f6578697374656e7420746f6b656e000000000000000000000000000000000000602082015250565b7f4552433732313a206d696e7420746f20746865207a65726f2061646472657373600082015250565b7f4f776e61626c653a2063616c6c6572206973206e6f7420746865206f776e6572600082015250565b7f4552433732313a20696e76616c696420746f6b656e2049440000000000000000600082015250565b7f55524c20646f6573206e6f742065786973740000000000000000000000000000600082015250565b7f496e76616c696420746f6b656e20494400000000000000000000000000000000600082015250565b7f4552433732313a20617070726f76616c20746f2063757272656e74206f776e6560008201527f7200000000000000000000000000000000000000000000000000000000000000602082015250565b7f4552433732313a20617070726f76652063616c6c6572206973206e6f7420746f60008201527f6b656e206f776e6572206f7220617070726f76656420666f7220616c6c000000602082015250565b613cc58161365b565b8114613cd057600080fd5b50565b613cdc8161366d565b8114613ce757600080fd5b50565b613cf381613679565b8114613cfe57600080fd5b50565b613d0a816136c5565b8114613d1557600080fd5b5056fea2646970667358221220a6066f1f1441f65429be785ad875b864773f349cf6e02352969db8c5a0f3441e64736f6c63430008010033",
  "linkReferences": {},
  "deployedLinkReferences": {}
}