{
  "_format": "hh-sol-artifact-1",
  "contractName": "CloneableNFT",
  "sourceName": "contracts/ClonableNFT.sol",
  "abi": [
    {
      "inputs": [
        {
          "internalType": "string",
          "name": "name",
          "type": "string"
        },
        {
          "internalType": "string",
          "name": "symbol",
          "type": "string"
        },
        {
          "internalType": "string",
          "name": "_description",
          "type": "string"
        }
      ],
      "stateMutability": "nonpayable",
      "type": "constructor"
    },
    {
      "anonymous": false,
      "inputs": [
        {
          "indexed": true,
          "internalType": "address",
          "name": "owner",
          "type": "address"
        },
        {
          "indexed": true,
          "internalType": "address",
          "name": "approved",
          "type": "address"
        },
        {
          "indexed": true,
          "internalType": "uint256",
          "name": "tokenId",
          "type": "uint256"
        }
      ],
      "name": "Approval",
      "type": "event"
    },
    {
      "anonymous": false,
      "inputs": [
        {
          "indexed": true,
          "internalType": "address",
          "name": "owner",
          "type": "address"
        },
        {
          "indexed": true,
          "internalType": "address",
          "name": "operator",
          "type": "address"
        },
        {
          "indexed": false,
          "internalType": "bool",
          "name": "approved",
          "type": "bool"
        }
      ],
      "name": "ApprovalForAll",
      "type": "event"
    },
    {
      "anonymous": false,
      "inputs": [
        {
          "indexed": true,
          "internalType": "address",
          "name": "previousOwner",
          "type": "address"
        },
        {
          "indexed": true,
          "internalType": "address",
          "name": "newOwner",
          "type": "address"
        }
      ],
      "name": "OwnershipTransferred",
      "type": "event"
    },
    {
      "anonymous": false,
      "inputs": [
        {
          "indexed": true,
          "internalType": "address",
          "name": "from",
          "type": "address"
        },
        {
          "indexed": true,
          "internalType": "address",
          "name": "to",
          "type": "address"
        },
        {
          "indexed": true,
          "internalType": "uint256",
          "name": "tokenId",
          "type": "uint256"
        }
      ],
      "name": "Transfer",
      "type": "event"
    },
    {
      "inputs": [
        {
          "internalType": "address",
          "name": "to",
          "type": "address"
        },
        {
          "internalType": "uint256",
          "name": "tokenId",
          "type": "uint256"
        }
      ],
      "name": "approve",
      "outputs": [],
      "stateMutability": "nonpayable",
      "type": "function"
    },
    {
      "inputs": [
        {
          "internalType": "address",
          "name": "owner",
          "type": "address"
        }
      ],
      "name": "balanceOf",
      "outputs": [
        {
          "internalType": "uint256",
          "name": "",
          "type": "uint256"
        }
      ],
      "stateMutability": "view",
      "type": "function"
    },
    {
      "inputs": [],
      "name": "creationTime",
      "outputs": [
        {
          "internalType": "uint256",
          "name": "",
          "type": "uint256"
        }
      ],
      "stateMutability": "view",
      "type": "function"
    },
    {
      "inputs": [],
      "name": "description",
      "outputs": [
        {
          "internalType": "string",
          "name": "",
          "type": "string"
        }
      ],
      "stateMutability": "view",
      "type": "function"
    },
    {
      "inputs": [],
      "name": "getAllMintedTokens",
      "outputs": [
        {
          "internalType": "uint256[]",
          "name": "",
          "type": "uint256[]"
        }
      ],
      "stateMutability": "view",
      "type": "function"
    },
    {
      "inputs": [
        {
          "internalType": "enum CloneableNFT.CloneFilter",
          "name": "filter",
          "type": "uint8"
        }
      ],
      "name": "getAllMintedTokens",
      "outputs": [
        {
          "internalType": "uint256[]",
          "name": "",
          "type": "uint256[]"
        }
      ],
      "stateMutability": "view",
      "type": "function"
    },
    {
      "inputs": [
        {
          "internalType": "uint256",
          "name": "tokenId",
          "type": "uint256"
        }
      ],
      "name": "getApproved",
      "outputs": [
        {
          "internalType": "address",
          "name": "",
          "type": "address"
        }
      ],
      "stateMutability": "view",
      "type": "function"
    },
    {
      "inputs": [
        {
          "internalType": "uint256",
          "name": "tokenId",
          "type": "uint256"
        }
      ],
      "name": "getClonePrice",
      "outputs": [
        {
          "internalType": "uint256",
          "name": "",
          "type": "uint256"
        }
      ],
      "stateMutability": "view",
      "type": "function"
    },
    {
      "inputs": [
        {
          "internalType": "uint256",
          "name": "tokenId",
          "type": "uint256"
        }
      ],
      "name": "getClonesOfOriginal",
      "outputs": [
        {
          "internalType": "uint256[]",
          "name": "",
          "type": "uint256[]"
        }
      ],
      "stateMutability": "view",
      "type": "function"
    },
    {
      "inputs": [],
      "name": "getContractCreator",
      "outputs": [
        {
          "internalType": "address",
          "name": "",
          "type": "address"
        }
      ],
      "stateMutability": "view",
      "type": "function"
    },
    {
      "inputs": [],
      "name": "getDefaultClonePrice",
      "outputs": [
        {
          "internalType": "uint256",
          "name": "",
          "type": "uint256"
        }
      ],
      "stateMutability": "view",
      "type": "function"
    },
    {
      "inputs": [
        {
          "internalType": "uint256",
          "name": "tokenId",
          "type": "uint256"
        }
      ],
      "name": "getHasClonePrice",
      "outputs": [
        {
          "internalType": "bool",
          "name": "",
          "type": "bool"
        }
      ],
      "stateMutability": "view",
      "type": "function"
    },
    {
      "inputs": [
        {
          "internalType": "uint256",
          "name": "tokenId",
          "type": "uint256"
        }
      ],
      "name": "getOriginal",
      "outputs": [
        {
          "internalType": "uint256",
          "name": "",
          "type": "uint256"
        }
      ],
      "stateMutability": "view",
      "type": "function"
    },
    {
      "inputs": [
        {
          "internalType": "address",
          "name": "owner",
          "type": "address"
        },
        {
          "internalType": "enum CloneableNFT.CloneFilter",
          "name": "filter",
          "type": "uint8"
        }
      ],
      "name": "getOwnedTokens",
      "outputs": [
        {
          "internalType": "uint256[]",
          "name": "",
          "type": "uint256[]"
        }
      ],
      "stateMutability": "view",
      "type": "function"
    },
    {
      "inputs": [
        {
          "internalType": "address",
          "name": "owner",
          "type": "address"
        }
      ],
      "name": "getOwnedTokens",
      "outputs": [
        {
          "internalType": "uint256[]",
          "name": "",
          "type": "uint256[]"
        }
      ],
      "stateMutability": "view",
      "type": "function"
    },
    {
      "inputs": [
        {
          "internalType": "uint256",
          "name": "tokenId",
          "type": "uint256"
        }
      ],
      "name": "getTokenCreator",
      "outputs": [
        {
          "internalType": "address",
          "name": "",
          "type": "address"
        }
      ],
      "stateMutability": "view",
      "type": "function"
    },
    {
      "inputs": [
        {
          "internalType": "string",
          "name": "_url",
          "type": "string"
        }
      ],
      "name": "getTokenIdByUrl",
      "outputs": [
        {
          "internalType": "uint256",
          "name": "",
          "type": "uint256"
        }
      ],
      "stateMutability": "view",
      "type": "function"
    },
    {
      "inputs": [],
      "name": "getTotalMintClonedTokens",
      "outputs": [
        {
          "internalType": "uint256",
          "name": "",
          "type": "uint256"
        }
      ],
      "stateMutability": "view",
      "type": "function"
    },
    {
      "inputs": [],
      "name": "getTotalMintOriginalTokens",
      "outputs": [
        {
          "internalType": "uint256",
          "name": "",
          "type": "uint256"
        }
      ],
      "stateMutability": "view",
      "type": "function"
    },
    {
      "inputs": [],
      "name": "getTotalMintedTokens",
      "outputs": [
        {
          "internalType": "uint256",
          "name": "",
          "type": "uint256"
        }
      ],
      "stateMutability": "view",
      "type": "function"
    },
    {
      "inputs": [
        {
          "internalType": "address",
          "name": "owner",
          "type": "address"
        },
        {
          "internalType": "address",
          "name": "operator",
          "type": "address"
        }
      ],
      "name": "isApprovedForAll",
      "outputs": [
        {
          "internalType": "bool",
          "name": "",
          "type": "bool"
        }
      ],
      "stateMutability": "view",
      "type": "function"
    },
    {
      "inputs": [
        {
          "internalType": "uint256",
          "name": "tokenId",
          "type": "uint256"
        }
      ],
      "name": "isClone",
      "outputs": [
        {
          "internalType": "bool",
          "name": "",
          "type": "bool"
        }
      ],
      "stateMutability": "view",
      "type": "function"
    },
    {
      "inputs": [
        {
          "internalType": "uint256",
          "name": "tokenId",
          "type": "uint256"
        },
        {
          "internalType": "string",
          "name": "_tokenURI",
          "type": "string"
        }
      ],
      "name": "mintClone",
      "outputs": [],
      "stateMutability": "payable",
      "type": "function"
    },
    {
      "inputs": [
        {
          "internalType": "string",
          "name": "_tokenURI",
          "type": "string"
        },
        {
          "internalType": "string",
          "name": "_url",
          "type": "string"
        }
      ],
      "name": "mintNFT",
      "outputs": [],
      "stateMutability": "nonpayable",
      "type": "function"
    },
    {
      "inputs": [],
      "name": "name",
      "outputs": [
        {
          "internalType": "string",
          "name": "",
          "type": "string"
        }
      ],
      "stateMutability": "view",
      "type": "function"
    },
    {
      "inputs": [],
      "name": "owner",
      "outputs": [
        {
          "internalType": "address",
          "name": "",
          "type": "address"
        }
      ],
      "stateMutability": "view",
      "type": "function"
    },
    {
      "inputs": [
        {
          "internalType": "uint256",
          "name": "tokenId",
          "type": "uint256"
        }
      ],
      "name": "ownerOf",
      "outputs": [
        {
          "internalType": "address",
          "name": "",
          "type": "address"
        }
      ],
      "stateMutability": "view",
      "type": "function"
    },
    {
      "inputs": [],
      "name": "renounceOwnership",
      "outputs": [],
      "stateMutability": "nonpayable",
      "type": "function"
    },
    {
      "inputs": [
        {
          "internalType": "address",
          "name": "from",
          "type": "address"
        },
        {
          "internalType": "address",
          "name": "to",
          "type": "address"
        },
        {
          "internalType": "uint256",
          "name": "tokenId",
          "type": "uint256"
        }
      ],
      "name": "safeTransferFrom",
      "outputs": [],
      "stateMutability": "nonpayable",
      "type": "function"
    },
    {
      "inputs": [
        {
          "internalType": "address",
          "name": "from",
          "type": "address"
        },
        {
          "internalType": "address",
          "name": "to",
          "type": "address"
        },
        {
          "internalType": "uint256",
          "name": "tokenId",
          "type": "uint256"
        },
        {
          "internalType": "bytes",
          "name": "data",
          "type": "bytes"
        }
      ],
      "name": "safeTransferFrom",
      "outputs": [],
      "stateMutability": "nonpayable",
      "type": "function"
    },
    {
      "inputs": [
        {
          "internalType": "address",
          "name": "operator",
          "type": "address"
        },
        {
          "internalType": "bool",
          "name": "approved",
          "type": "bool"
        }
      ],
      "name": "setApprovalForAll",
      "outputs": [],
      "stateMutability": "nonpayable",
      "type": "function"
    },
    {
      "inputs": [
        {
          "internalType": "uint256",
          "name": "tokenId",
          "type": "uint256"
        },
        {
          "internalType": "uint256",
          "name": "newPrice",
          "type": "uint256"
        }
      ],
      "name": "setClonePrice",
      "outputs": [],
      "stateMutability": "nonpayable",
      "type": "function"
    },
    {
      "inputs": [
        {
          "internalType": "uint256",
          "name": "newPrice",
          "type": "uint256"
        }
      ],
      "name": "setDefaultClonePrice",
      "outputs": [],
      "stateMutability": "nonpayable",
      "type": "function"
    },
    {
      "inputs": [
        {
          "internalType": "string",
          "name": "_description",
          "type": "string"
        }
      ],
      "name": "setDescription",
      "outputs": [],
      "stateMutability": "nonpayable",
      "type": "function"
    },
    {
      "inputs": [
        {
          "internalType": "bytes4",
          "name": "interfaceId",
          "type": "bytes4"
        }
      ],
      "name": "supportsInterface",
      "outputs": [
        {
          "internalType": "bool",
          "name": "",
          "type": "bool"
        }
      ],
      "stateMutability": "view",
      "type": "function"
    },
    {
      "inputs": [],
      "name": "symbol",
      "outputs": [
        {
          "internalType": "string",
          "name": "",
          "type": "string"
        }
      ],
      "stateMutability": "view",
      "type": "function"
    },
    {
      "inputs": [
        {
          "internalType": "uint256",
          "name": "tokenId",
          "type": "uint256"
        }
      ],
      "name": "tokenURI",
      "outputs": [
        {
          "internalType": "string",
          "name": "",
          "type": "string"
        }
      ],
      "stateMutability": "view",
      "type": "function"
    },
    {
      "inputs": [
        {
          "internalType": "address",
          "name": "from",
          "type": "address"
        },
        {
          "internalType": "address",
          "name": "to",
          "type": "address"
        },
        {
          "internalType": "uint256",
          "name": "tokenId",
          "type": "uint256"
        }
      ],
      "name": "transferFrom",
      "outputs": [],
      "stateMutability": "nonpayable",
      "type": "function"
    },
    {
      "inputs": [
        {
          "internalType": "address",
          "name": "newOwner",
          "type": "address"
        }
      ],
      "name": "transferOwnership",
      "outputs": [],
      "stateMutability": "nonpayable",
      "type": "function"
    },
    {
      "inputs": [],
      "name": "withdraw",
      "outputs": [],
      "stateMutability": "nonpayable",
      "type": "function"
    }
  ],
  "bytecode": "0x60806040526000600b553480156200001657600080fd5b50604051620056af380380620056af83398181016040528101906200003c9190620002ec565b8282816000908051906020019062000056929190620001ca565b5080600190805190602001906200006f929190620001ca565b5050506200009262000086620000fc60201b60201c565b6200010460201b60201c565b33601260006101000a81548173ffffffffffffffffffffffffffffffffffffffff021916908373ffffffffffffffffffffffffffffffffffffffff1602179055504260098190555080600a9080519060200190620000f2929190620001ca565b50505050620004fd565b600033905090565b6000600760009054906101000a900473ffffffffffffffffffffffffffffffffffffffff16905081600760006101000a81548173ffffffffffffffffffffffffffffffffffffffff021916908373ffffffffffffffffffffffffffffffffffffffff1602179055508173ffffffffffffffffffffffffffffffffffffffff168173ffffffffffffffffffffffffffffffffffffffff167f8be0079c531659141344cd1fd0a4f28419497f9722a3daafe3b4186f6b6457e060405160405180910390a35050565b828054620001d89062000422565b90600052602060002090601f016020900481019282620001fc576000855562000248565b82601f106200021757805160ff191683800117855562000248565b8280016001018555821562000248579182015b82811115620002475782518255916020019190600101906200022a565b5b5090506200025791906200025b565b5090565b5b80821115620002765760008160009055506001016200025c565b5090565b6000620002916200028b84620003b6565b6200038d565b905082815260208101848484011115620002aa57600080fd5b620002b7848285620003ec565b509392505050565b600082601f830112620002d157600080fd5b8151620002e38482602086016200027a565b91505092915050565b6000806000606084860312156200030257600080fd5b600084015167ffffffffffffffff8111156200031d57600080fd5b6200032b86828701620002bf565b935050602084015167ffffffffffffffff8111156200034957600080fd5b6200035786828701620002bf565b925050604084015167ffffffffffffffff8111156200037557600080fd5b6200038386828701620002bf565b9150509250925092565b600062000399620003ac565b9050620003a7828262000458565b919050565b6000604051905090565b600067ffffffffffffffff821115620003d457620003d3620004bd565b5b620003df82620004ec565b9050602081019050919050565b60005b838110156200040c578082015181840152602081019050620003ef565b838111156200041c576000848401525b50505050565b600060028204905060018216806200043b57607f821691505b602082108114156200045257620004516200048e565b5b50919050565b6200046382620004ec565b810181811067ffffffffffffffff82111715620004855762000484620004bd565b5b80604052505050565b7f4e487b7100000000000000000000000000000000000000000000000000000000600052602260045260246000fd5b7f4e487b7100000000000000000000000000000000000000000000000000000000600052604160045260246000fd5b6000601f19601f8301169050919050565b6151a2806200050d6000396000f3fe60806040526004361061023b5760003560e01c80637d5298b91161012e578063c6af1122116100ab578063e96055441161006f578063e9605544146108ea578063e985e9c514610913578063ef74248d14610950578063f2fde38b14610979578063f67a769c146109a25761023b565b8063c6af1122146107dd578063c87b56dd14610808578063d800fe4514610845578063d8270dce14610882578063d9d61655146108ad5761023b565b806399639382116100f257806399639382146106d4578063a22cb46514610711578063b88d4fde1461073a578063bc8c778f14610763578063c144dd2a146107a05761023b565b80637d5298b9146105ed5780638da5cb5b1461061857806390c3f38f14610643578063934689a91461066c57806395d89b41146106a95761023b565b806330f7319d116101bc5780636352211e116101805780636352211e146104f4578063639032cc1461053157806370a082311461056e578063715018a6146105ab5780637284e416146105c25761023b565b806330f7319d1461040f578063385eda9c1461044c5780633ccfd60b1461048957806342842e0e146104a05780634da6de3f146104c95761023b565b80630e258726116102035780630e258726146103395780631741f3e2146103645780631a2b285e146103a157806323b872dd146103ca5780632aa2e90a146103f35761023b565b806301ffc9a71461024057806306fdde031461027d578063080b0179146102a8578063081812fc146102d3578063095ea7b314610310575b600080fd5b34801561024c57600080fd5b5061026760048036038101906102629190613e5d565b6109cd565b6040516102749190614559565b60405180910390f35b34801561028957600080fd5b50610292610aaf565b60405161029f9190614574565b60405180910390f35b3480156102b457600080fd5b506102bd610b41565b6040516102ca9190614537565b60405180910390f35b3480156102df57600080fd5b506102fa60048036038101906102f59190613f85565b610b52565b60405161030791906144d0565b60405180910390f35b34801561031c57600080fd5b5061033760048036038101906103329190613e21565b610b98565b005b34801561034557600080fd5b5061034e610cb0565b60405161035b91906144d0565b60405180910390f35b34801561037057600080fd5b5061038b60048036038101906103869190613ed8565b610cda565b6040516103989190614856565b60405180910390f35b3480156103ad57600080fd5b506103c860048036038101906103c39190613f85565b610d63565b005b3480156103d657600080fd5b506103f160048036038101906103ec9190613cdf565b610d75565b005b61040d60048036038101906104089190613fae565b610dd5565b005b34801561041b57600080fd5b5061043660048036038101906104319190613de5565b6110a5565b6040516104439190614537565b60405180910390f35b34801561045857600080fd5b50610473600480360381019061046e9190613f85565b6115ca565b6040516104809190614559565b60405180910390f35b34801561049557600080fd5b5061049e6115f4565b005b3480156104ac57600080fd5b506104c760048036038101906104c29190613cdf565b61164c565b005b3480156104d557600080fd5b506104de61166c565b6040516104eb9190614856565b60405180910390f35b34801561050057600080fd5b5061051b60048036038101906105169190613f85565b611676565b60405161052891906144d0565b60405180910390f35b34801561053d57600080fd5b5061055860048036038101906105539190613f85565b6116fd565b6040516105659190614537565b60405180910390f35b34801561057a57600080fd5b5061059560048036038101906105909190613c7a565b6117c9565b6040516105a29190614856565b60405180910390f35b3480156105b757600080fd5b506105c0611881565b005b3480156105ce57600080fd5b506105d7611895565b6040516105e49190614574565b60405180910390f35b3480156105f957600080fd5b50610602611923565b60405161060f9190614856565b60405180910390f35b34801561062457600080fd5b5061062d61192d565b60405161063a91906144d0565b60405180910390f35b34801561064f57600080fd5b5061066a60048036038101906106659190613ed8565b611957565b005b34801561067857600080fd5b50610693600480360381019061068e9190613f85565b611979565b6040516106a091906144d0565b60405180910390f35b3480156106b557600080fd5b506106be6119fe565b6040516106cb9190614574565b60405180910390f35b3480156106e057600080fd5b506106fb60048036038101906106f69190613eaf565b611a90565b6040516107089190614537565b60405180910390f35b34801561071d57600080fd5b5061073860048036038101906107339190613da9565b611faa565b005b34801561074657600080fd5b50610761600480360381019061075c9190613d2e565b611fc0565b005b34801561076f57600080fd5b5061078a60048036038101906107859190613f85565b612022565b6040516107979190614856565b60405180910390f35b3480156107ac57600080fd5b506107c760048036038101906107c29190613f85565b61209f565b6040516107d49190614559565b60405180910390f35b3480156107e957600080fd5b506107f2612111565b6040516107ff9190614856565b60405180910390f35b34801561081457600080fd5b5061082f600480360381019061082a9190613f85565b61211b565b60405161083c9190614574565b60405180910390f35b34801561085157600080fd5b5061086c60048036038101906108679190613f85565b61212d565b6040516108799190614856565b60405180910390f35b34801561088e57600080fd5b5061089761214a565b6040516108a49190614856565b60405180910390f35b3480156108b957600080fd5b506108d460048036038101906108cf9190613c7a565b612150565b6040516108e19190614537565b60405180910390f35b3480156108f657600080fd5b50610911600480360381019061090c9190613f19565b612164565b005b34801561091f57600080fd5b5061093a60048036038101906109359190613ca3565b612353565b6040516109479190614559565b60405180910390f35b34801561095c57600080fd5b5061097760048036038101906109729190614002565b6123e7565b005b34801561098557600080fd5b506109a0600480360381019061099b9190613c7a565b612437565b005b3480156109ae57600080fd5b506109b76124bb565b6040516109c49190614856565b60405180910390f35b60007f80ac58cd000000000000000000000000000000000000000000000000000000007bffffffffffffffffffffffffffffffffffffffffffffffffffffffff1916827bffffffffffffffffffffffffffffffffffffffffffffffffffffffff19161480610a9857507f5b5e139f000000000000000000000000000000000000000000000000000000007bffffffffffffffffffffffffffffffffffffffffffffffffffffffff1916827bffffffffffffffffffffffffffffffffffffffffffffffffffffffff1916145b80610aa85750610aa7826124d2565b5b9050919050565b606060008054610abe90614ab4565b80601f0160208091040260200160405190810160405280929190818152602001828054610aea90614ab4565b8015610b375780601f10610b0c57610100808354040283529160200191610b37565b820191906000526020600020905b815481529060010190602001808311610b1a57829003601f168201915b5050505050905090565b6060610b4d6000611a90565b905090565b6000610b5d8261253c565b6004600083815260200190815260200160002060009054906101000a900473ffffffffffffffffffffffffffffffffffffffff169050919050565b6000610ba382611676565b90508073ffffffffffffffffffffffffffffffffffffffff168373ffffffffffffffffffffffffffffffffffffffff161415610c14576040517f08c379a0000000000000000000000000000000000000000000000000000000008152600401610c0b90614816565b60405180910390fd5b8073ffffffffffffffffffffffffffffffffffffffff16610c33612587565b73ffffffffffffffffffffffffffffffffffffffff161480610c625750610c6181610c5c612587565b612353565b5b610ca1576040517f08c379a0000000000000000000000000000000000000000000000000000000008152600401610c9890614836565b60405180910390fd5b610cab838361258f565b505050565b6000601260009054906101000a900473ffffffffffffffffffffffffffffffffffffffff16905090565b600080601083604051610ced9190614495565b9081526020016040518091039020541415610d3d576040517f08c379a0000000000000000000000000000000000000000000000000000000008152600401610d34906147d6565b60405180910390fd5b601082604051610d4d9190614495565b9081526020016040518091039020549050919050565b610d6b612648565b80600b8190555050565b610d86610d80612587565b826126c6565b610dc5576040517f08c379a0000000000000000000000000000000000000000000000000000000008152600401610dbc90614596565b60405180910390fd5b610dd083838361275b565b505050565b610dde82612aa0565b610e1d576040517f08c379a0000000000000000000000000000000000000000000000000000000008152600401610e14906147f6565b60405180910390fd5b600c600083815260200190815260200160002060009054906101000a900460ff1615610e7e576040517f08c379a0000000000000000000000000000000000000000000000000000000008152600401610e7590614696565b60405180910390fd5b600080600e60008581526020019081526020016000205411610ea257600b54610eb7565b600e6000848152602001908152602001600020545b905080341015610efc576040517f08c379a0000000000000000000000000000000000000000000000000000000008152600401610ef3906146b6565b60405180910390fd5b610f066008612ae1565b6000610f126008612af7565b9050610f1e3382612b05565b6001600c600083815260200190815260200160002060006101000a81548160ff02191690831515021790555083600d600083815260200190815260200160002081905550610f6c8184612b23565b60146000858152602001908152602001600020819080600181540180825580915050600190039060005260206000200160009091909190915055601360003373ffffffffffffffffffffffffffffffffffffffff1673ffffffffffffffffffffffffffffffffffffffff16815260200190815260200160002081908060018154018082558091505060019003906000526020600020016000909190919091505560158190806001815401808255809150506001900390600052602060002001600090919091909150556017600081548092919061104890614b17565b9190505550336011600083815260200190815260200160002060006101000a81548173ffffffffffffffffffffffffffffffffffffffff021916908373ffffffffffffffffffffffffffffffffffffffff16021790555050505050565b60606000601360008573ffffffffffffffffffffffffffffffffffffffff1673ffffffffffffffffffffffffffffffffffffffff16815260200190815260200160002080548060200260200160405190810160405280929190818152602001828054801561113257602002820191906000526020600020905b81548152602001906001019080831161111e575b5050505050905060006002811115611173577f4e487b7100000000000000000000000000000000000000000000000000000000600052602160045260246000fd5b8360028111156111ac577f4e487b7100000000000000000000000000000000000000000000000000000000600052602160045260246000fd5b14156111bb57809150506115c4565b6000805b825181101561133e576000611213848381518110611206577f4e487b7100000000000000000000000000000000000000000000000000000000600052603260045260246000fd5b60200260200101516115ca565b90506001600281111561124f577f4e487b7100000000000000000000000000000000000000000000000000000000600052602160045260246000fd5b866002811115611288577f4e487b7100000000000000000000000000000000000000000000000000000000600052602160045260246000fd5b1480156112925750805b8061131657506002808111156112d1577f4e487b7100000000000000000000000000000000000000000000000000000000600052602160045260246000fd5b86600281111561130a577f4e487b7100000000000000000000000000000000000000000000000000000000600052602160045260246000fd5b148015611315575080155b5b1561132a57828061132690614b17565b9350505b50808061133690614b17565b9150506111bf565b5060008167ffffffffffffffff811115611381577f4e487b7100000000000000000000000000000000000000000000000000000000600052604160045260246000fd5b6040519080825280602002602001820160405280156113af5781602001602082028036833780820191505090505b5090506000805b84518110156115bb57600061140a8683815181106113fd577f4e487b7100000000000000000000000000000000000000000000000000000000600052603260045260246000fd5b60200260200101516115ca565b905060016002811115611446577f4e487b7100000000000000000000000000000000000000000000000000000000600052602160045260246000fd5b88600281111561147f577f4e487b7100000000000000000000000000000000000000000000000000000000600052602160045260246000fd5b1480156114895750805b8061150d57506002808111156114c8577f4e487b7100000000000000000000000000000000000000000000000000000000600052602160045260246000fd5b886002811115611501577f4e487b7100000000000000000000000000000000000000000000000000000000600052602160045260246000fd5b14801561150c575080155b5b156115a75785828151811061154b577f4e487b7100000000000000000000000000000000000000000000000000000000600052603260045260246000fd5b602002602001015184848151811061158c577f4e487b7100000000000000000000000000000000000000000000000000000000600052603260045260246000fd5b60200260200101818152505082806115a390614b17565b9350505b5080806115b390614b17565b9150506113b6565b50819450505050505b92915050565b6000600c600083815260200190815260200160002060009054906101000a900460ff169050919050565b6115fc612648565b61160461192d565b73ffffffffffffffffffffffffffffffffffffffff166108fc479081150290604051600060405180830381858888f19350505050158015611649573d6000803e3d6000fd5b50565b61166783838360405180602001604052806000815250611fc0565b505050565b6000601654905090565b60008061168283612b97565b9050600073ffffffffffffffffffffffffffffffffffffffff168173ffffffffffffffffffffffffffffffffffffffff1614156116f4576040517f08c379a00000000000000000000000000000000000000000000000000000000081526004016116eb906147b6565b60405180910390fd5b80915050919050565b6060600c600083815260200190815260200160002060009054906101000a900460ff1615611760576040517f08c379a0000000000000000000000000000000000000000000000000000000008152600401611757906145b6565b60405180910390fd5b601460008381526020019081526020016000208054806020026020016040519081016040528092919081815260200182805480156117bd57602002820191906000526020600020905b8154815260200190600101908083116117a9575b50505050509050919050565b60008073ffffffffffffffffffffffffffffffffffffffff168273ffffffffffffffffffffffffffffffffffffffff16141561183a576040517f08c379a000000000000000000000000000000000000000000000000000000000815260040161183190614716565b60405180910390fd5b600360008373ffffffffffffffffffffffffffffffffffffffff1673ffffffffffffffffffffffffffffffffffffffff168152602001908152602001600020549050919050565b611889612648565b6118936000612bd4565b565b600a80546118a290614ab4565b80601f01602080910402602001604051908101604052809291908181526020018280546118ce90614ab4565b801561191b5780601f106118f05761010080835404028352916020019161191b565b820191906000526020600020905b8154815290600101906020018083116118fe57829003601f168201915b505050505081565b6000601754905090565b6000600760009054906101000a900473ffffffffffffffffffffffffffffffffffffffff16905090565b61195f612648565b80600a9080519060200190611975929190613a89565b5050565b600061198482612aa0565b6119c3576040517f08c379a00000000000000000000000000000000000000000000000000000000081526004016119ba906146d6565b60405180910390fd5b6011600083815260200190815260200160002060009054906101000a900473ffffffffffffffffffffffffffffffffffffffff169050919050565b606060018054611a0d90614ab4565b80601f0160208091040260200160405190810160405280929190818152602001828054611a3990614ab4565b8015611a865780601f10611a5b57610100808354040283529160200191611a86565b820191906000526020600020905b815481529060010190602001808311611a6957829003601f168201915b5050505050905090565b6060600080600090505b601580549050811015611c9c576000611af660158381548110611ae6577f4e487b7100000000000000000000000000000000000000000000000000000000600052603260045260246000fd5b90600052602060002001546115ca565b905060006002811115611b32577f4e487b7100000000000000000000000000000000000000000000000000000000600052602160045260246000fd5b856002811115611b6b577f4e487b7100000000000000000000000000000000000000000000000000000000600052602160045260246000fd5b1480611bf0575060016002811115611bac577f4e487b7100000000000000000000000000000000000000000000000000000000600052602160045260246000fd5b856002811115611be5577f4e487b7100000000000000000000000000000000000000000000000000000000600052602160045260246000fd5b148015611bef5750805b5b80611c745750600280811115611c2f577f4e487b7100000000000000000000000000000000000000000000000000000000600052602160045260246000fd5b856002811115611c68577f4e487b7100000000000000000000000000000000000000000000000000000000600052602160045260246000fd5b148015611c73575080155b5b15611c88578280611c8490614b17565b9350505b508080611c9490614b17565b915050611a9a565b5060008167ffffffffffffffff811115611cdf577f4e487b7100000000000000000000000000000000000000000000000000000000600052604160045260246000fd5b604051908082528060200260200182016040528015611d0d5781602001602082028036833780820191505090505b5090506000805b601580549050811015611f9e576000611d7060158381548110611d60577f4e487b7100000000000000000000000000000000000000000000000000000000600052603260045260246000fd5b90600052602060002001546115ca565b905060006002811115611dac577f4e487b7100000000000000000000000000000000000000000000000000000000600052602160045260246000fd5b876002811115611de5577f4e487b7100000000000000000000000000000000000000000000000000000000600052602160045260246000fd5b1480611e6a575060016002811115611e26577f4e487b7100000000000000000000000000000000000000000000000000000000600052602160045260246000fd5b876002811115611e5f577f4e487b7100000000000000000000000000000000000000000000000000000000600052602160045260246000fd5b148015611e695750805b5b80611eee5750600280811115611ea9577f4e487b7100000000000000000000000000000000000000000000000000000000600052602160045260246000fd5b876002811115611ee2577f4e487b7100000000000000000000000000000000000000000000000000000000600052602160045260246000fd5b148015611eed575080155b5b15611f8a5760158281548110611f2d577f4e487b7100000000000000000000000000000000000000000000000000000000600052603260045260246000fd5b9060005260206000200154848480611f4490614b17565b955081518110611f7d577f4e487b7100000000000000000000000000000000000000000000000000000000600052603260045260246000fd5b6020026020010181815250505b508080611f9690614b17565b915050611d14565b50819350505050919050565b611fbc611fb5612587565b8383612c9a565b5050565b611fd1611fcb612587565b836126c6565b612010576040517f08c379a000000000000000000000000000000000000000000000000000000000815260040161200790614596565b60405180910390fd5b61201c84848484612e07565b50505050565b6000600c600083815260200190815260200160002060009054906101000a900460ff16612084576040517f08c379a000000000000000000000000000000000000000000000000000000000815260040161207b906146f6565b60405180910390fd5b600d6000838152602001908152602001600020549050919050565b60006120aa82612aa0565b6120e9576040517f08c379a00000000000000000000000000000000000000000000000000000000081526004016120e0906146d6565b60405180910390fd5b600f600083815260200190815260200160002060009054906101000a900460ff169050919050565b6000600b54905090565b606061212682612e63565b9050919050565b6000600e6000838152602001908152602001600020549050919050565b60095481565b606061215d8260006110a5565b9050919050565b61216c612648565b600060108260405161217e9190614495565b908152602001604051809103902054146121cd576040517f08c379a00000000000000000000000000000000000000000000000000000000081526004016121c490614756565b60405180910390fd5b6121d76008612ae1565b60006121e161192d565b905060006121ef6008612af7565b90506121fb8282612f76565b6000600c600083815260200190815260200160002060006101000a81548160ff0219169083151502179055506122318185612b23565b806010846040516122429190614495565b908152602001604051809103902081905550601360008373ffffffffffffffffffffffffffffffffffffffff1673ffffffffffffffffffffffffffffffffffffffff1681526020019081526020016000208190806001815401808255809150506001900390600052602060002001600090919091909150556015819080600181540180825580915050600190039060005260206000200160009091909190915055601660008154809291906122f690614b17565b9190505550816011600083815260200190815260200160002060006101000a81548173ffffffffffffffffffffffffffffffffffffffff021916908373ffffffffffffffffffffffffffffffffffffffff16021790555050505050565b6000600560008473ffffffffffffffffffffffffffffffffffffffff1673ffffffffffffffffffffffffffffffffffffffff16815260200190815260200160002060008373ffffffffffffffffffffffffffffffffffffffff1673ffffffffffffffffffffffffffffffffffffffff16815260200190815260200160002060009054906101000a900460ff16905092915050565b6123ef612648565b6001600f600084815260200190815260200160002060006101000a81548160ff02191690831515021790555080600e6000848152602001908152602001600020819055505050565b61243f612648565b600073ffffffffffffffffffffffffffffffffffffffff168173ffffffffffffffffffffffffffffffffffffffff1614156124af576040517f08c379a00000000000000000000000000000000000000000000000000000000081526004016124a6906145f6565b60405180910390fd5b6124b881612bd4565b50565b60006017546016546124cd9190614974565b905090565b60007f01ffc9a7000000000000000000000000000000000000000000000000000000007bffffffffffffffffffffffffffffffffffffffffffffffffffffffff1916827bffffffffffffffffffffffffffffffffffffffffffffffffffffffff1916149050919050565b61254581612aa0565b612584576040517f08c379a000000000000000000000000000000000000000000000000000000000815260040161257b906147b6565b60405180910390fd5b50565b600033905090565b816004600083815260200190815260200160002060006101000a81548173ffffffffffffffffffffffffffffffffffffffff021916908373ffffffffffffffffffffffffffffffffffffffff160217905550808273ffffffffffffffffffffffffffffffffffffffff1661260283611676565b73ffffffffffffffffffffffffffffffffffffffff167f8c5be1e5ebec7d5bd14f71427d1e84f3dd0314c0f7b2291e5b200ac8c7c3b92560405160405180910390a45050565b612650612587565b73ffffffffffffffffffffffffffffffffffffffff1661266e61192d565b73ffffffffffffffffffffffffffffffffffffffff16146126c4576040517f08c379a00000000000000000000000000000000000000000000000000000000081526004016126bb90614796565b60405180910390fd5b565b6000806126d283611676565b90508073ffffffffffffffffffffffffffffffffffffffff168473ffffffffffffffffffffffffffffffffffffffff16148061271457506127138185612353565b5b8061275257508373ffffffffffffffffffffffffffffffffffffffff1661273a84610b52565b73ffffffffffffffffffffffffffffffffffffffff16145b91505092915050565b612766838383613194565b60005b601360008573ffffffffffffffffffffffffffffffffffffffff1673ffffffffffffffffffffffffffffffffffffffff16815260200190815260200160002080549050811015612a345781601360008673ffffffffffffffffffffffffffffffffffffffff1673ffffffffffffffffffffffffffffffffffffffff168152602001908152602001600020828154811061282b577f4e487b7100000000000000000000000000000000000000000000000000000000600052603260045260246000fd5b90600052602060002001541415612a2157601360008573ffffffffffffffffffffffffffffffffffffffff1673ffffffffffffffffffffffffffffffffffffffff1681526020019081526020016000206001601360008773ffffffffffffffffffffffffffffffffffffffff1673ffffffffffffffffffffffffffffffffffffffff168152602001908152602001600020805490506128ca91906149ca565b81548110612901577f4e487b7100000000000000000000000000000000000000000000000000000000600052603260045260246000fd5b9060005260206000200154601360008673ffffffffffffffffffffffffffffffffffffffff1673ffffffffffffffffffffffffffffffffffffffff1681526020019081526020016000208281548110612983577f4e487b7100000000000000000000000000000000000000000000000000000000600052603260045260246000fd5b9060005260206000200181905550601360008573ffffffffffffffffffffffffffffffffffffffff1673ffffffffffffffffffffffffffffffffffffffff168152602001908152602001600020805480612a06577f4e487b7100000000000000000000000000000000000000000000000000000000600052603160045260246000fd5b60019003818190600052602060002001600090559055612a34565b8080612a2c90614b17565b915050612769565b50601360008373ffffffffffffffffffffffffffffffffffffffff1673ffffffffffffffffffffffffffffffffffffffff168152602001908152602001600020819080600181540180825580915050600190039060005260206000200160009091909190915055505050565b60008073ffffffffffffffffffffffffffffffffffffffff16612ac283612b97565b73ffffffffffffffffffffffffffffffffffffffff1614159050919050565b6001816000016000828254019250508190555050565b600081600001549050919050565b612b1f82826040518060200160405280600081525061348e565b5050565b612b2c82612aa0565b612b6b576040517f08c379a0000000000000000000000000000000000000000000000000000000008152600401612b6290614736565b60405180910390fd5b80600660008481526020019081526020016000209080519060200190612b92929190613a89565b505050565b60006002600083815260200190815260200160002060009054906101000a900473ffffffffffffffffffffffffffffffffffffffff169050919050565b6000600760009054906101000a900473ffffffffffffffffffffffffffffffffffffffff16905081600760006101000a81548173ffffffffffffffffffffffffffffffffffffffff021916908373ffffffffffffffffffffffffffffffffffffffff1602179055508173ffffffffffffffffffffffffffffffffffffffff168173ffffffffffffffffffffffffffffffffffffffff167f8be0079c531659141344cd1fd0a4f28419497f9722a3daafe3b4186f6b6457e060405160405180910390a35050565b8173ffffffffffffffffffffffffffffffffffffffff168373ffffffffffffffffffffffffffffffffffffffff161415612d09576040517f08c379a0000000000000000000000000000000000000000000000000000000008152600401612d0090614676565b60405180910390fd5b80600560008573ffffffffffffffffffffffffffffffffffffffff1673ffffffffffffffffffffffffffffffffffffffff16815260200190815260200160002060008473ffffffffffffffffffffffffffffffffffffffff1673ffffffffffffffffffffffffffffffffffffffff16815260200190815260200160002060006101000a81548160ff0219169083151502179055508173ffffffffffffffffffffffffffffffffffffffff168373ffffffffffffffffffffffffffffffffffffffff167f17307eab39ab6107e8899845ad3d59bd9653f200f220920489ca2b5937696c3183604051612dfa9190614559565b60405180910390a3505050565b612e1284848461275b565b612e1e848484846134e9565b612e5d576040517f08c379a0000000000000000000000000000000000000000000000000000000008152600401612e54906145d6565b60405180910390fd5b50505050565b6060612e6e8261253c565b6000600660008481526020019081526020016000208054612e8e90614ab4565b80601f0160208091040260200160405190810160405280929190818152602001828054612eba90614ab4565b8015612f075780601f10612edc57610100808354040283529160200191612f07565b820191906000526020600020905b815481529060010190602001808311612eea57829003601f168201915b505050505090506000612f18613680565b9050600081511415612f2e578192505050612f71565b600082511115612f63578082604051602001612f4b9291906144ac565b60405160208183030381529060405292505050612f71565b612f6c84613697565b925050505b919050565b600073ffffffffffffffffffffffffffffffffffffffff168273ffffffffffffffffffffffffffffffffffffffff161415612fe6576040517f08c379a0000000000000000000000000000000000000000000000000000000008152600401612fdd90614776565b60405180910390fd5b612fef81612aa0565b1561302f576040517f08c379a000000000000000000000000000000000000000000000000000000000815260040161302690614636565b60405180910390fd5b61303d6000838360016136ff565b61304681612aa0565b15613086576040517f08c379a000000000000000000000000000000000000000000000000000000000815260040161307d90614636565b60405180910390fd5b6001600360008473ffffffffffffffffffffffffffffffffffffffff1673ffffffffffffffffffffffffffffffffffffffff16815260200190815260200160002060008282540192505081905550816002600083815260200190815260200160002060006101000a81548173ffffffffffffffffffffffffffffffffffffffff021916908373ffffffffffffffffffffffffffffffffffffffff160217905550808273ffffffffffffffffffffffffffffffffffffffff16600073ffffffffffffffffffffffffffffffffffffffff167fddf252ad1be2c89b69c2b068fc378daa952ba7f163c4a11628f55a4df523b3ef60405160405180910390a4613190600083836001613705565b5050565b8273ffffffffffffffffffffffffffffffffffffffff166131b482611676565b73ffffffffffffffffffffffffffffffffffffffff161461320a576040517f08c379a000000000000000000000000000000000000000000000000000000000815260040161320190614616565b60405180910390fd5b600073ffffffffffffffffffffffffffffffffffffffff168273ffffffffffffffffffffffffffffffffffffffff16141561327a576040517f08c379a000000000000000000000000000000000000000000000000000000000815260040161327190614656565b60405180910390fd5b61328783838360016136ff565b8273ffffffffffffffffffffffffffffffffffffffff166132a782611676565b73ffffffffffffffffffffffffffffffffffffffff16146132fd576040517f08c379a00000000000000000000000000000000000000000000000000000000081526004016132f490614616565b60405180910390fd5b6004600082815260200190815260200160002060006101000a81549073ffffffffffffffffffffffffffffffffffffffff02191690556001600360008573ffffffffffffffffffffffffffffffffffffffff1673ffffffffffffffffffffffffffffffffffffffff168152602001908152602001600020600082825403925050819055506001600360008473ffffffffffffffffffffffffffffffffffffffff1673ffffffffffffffffffffffffffffffffffffffff16815260200190815260200160002060008282540192505081905550816002600083815260200190815260200160002060006101000a81548173ffffffffffffffffffffffffffffffffffffffff021916908373ffffffffffffffffffffffffffffffffffffffff160217905550808273ffffffffffffffffffffffffffffffffffffffff168473ffffffffffffffffffffffffffffffffffffffff167fddf252ad1be2c89b69c2b068fc378daa952ba7f163c4a11628f55a4df523b3ef60405160405180910390a46134898383836001613705565b505050565b6134988383612f76565b6134a560008484846134e9565b6134e4576040517f08c379a00000000000000000000000000000000000000000000000000000000081526004016134db906145d6565b60405180910390fd5b505050565b600061350a8473ffffffffffffffffffffffffffffffffffffffff1661370b565b15613673578373ffffffffffffffffffffffffffffffffffffffff1663150b7a02613533612587565b8786866040518563ffffffff1660e01b815260040161355594939291906144eb565b602060405180830381600087803b15801561356f57600080fd5b505af19250505080156135a057506040513d601f19601f8201168201806040525081019061359d9190613e86565b60015b613623573d80600081146135d0576040519150601f19603f3d011682016040523d82523d6000602084013e6135d5565b606091505b5060008151141561361b576040517f08c379a0000000000000000000000000000000000000000000000000000000008152600401613612906145d6565b60405180910390fd5b805181602001fd5b63150b7a0260e01b7bffffffffffffffffffffffffffffffffffffffffffffffffffffffff1916817bffffffffffffffffffffffffffffffffffffffffffffffffffffffff191614915050613678565b600190505b949350505050565b606060405180602001604052806000815250905090565b60606136a28261253c565b60006136ac613680565b905060008151116136cc57604051806020016040528060008152506136f7565b806136d68461372e565b6040516020016136e79291906144ac565b6040516020818303038152906040525b915050919050565b50505050565b50505050565b6000808273ffffffffffffffffffffffffffffffffffffffff163b119050919050565b60606000600161373d84613852565b01905060008167ffffffffffffffff811115613782577f4e487b7100000000000000000000000000000000000000000000000000000000600052604160045260246000fd5b6040519080825280601f01601f1916602001820160405280156137b45781602001600182028036833780820191505090505b509050600082602001820190505b600115613847578080600190039150507f3031323334353637383961626364656600000000000000000000000000000000600a86061a8153600a8581613831577f4e487b7100000000000000000000000000000000000000000000000000000000600052601260045260246000fd5b049450600085141561384257613847565b6137c2565b819350505050919050565b600080600090507a184f03e93ff9f4daa797ed6e38ed64bf6a1f01000000000000000083106138d6577a184f03e93ff9f4daa797ed6e38ed64bf6a1f01000000000000000083816138cc577f4e487b7100000000000000000000000000000000000000000000000000000000600052601260045260246000fd5b0492506040810190505b6d04ee2d6d415b85acef81000000008310613939576d04ee2d6d415b85acef8100000000838161392f577f4e487b7100000000000000000000000000000000000000000000000000000000600052601260045260246000fd5b0492506020810190505b662386f26fc10000831061398e57662386f26fc100008381613984577f4e487b7100000000000000000000000000000000000000000000000000000000600052601260045260246000fd5b0492506010810190505b6305f5e10083106139dd576305f5e10083816139d3577f4e487b7100000000000000000000000000000000000000000000000000000000600052601260045260246000fd5b0492506008810190505b6127108310613a28576127108381613a1e577f4e487b7100000000000000000000000000000000000000000000000000000000600052601260045260246000fd5b0492506004810190505b60648310613a715760648381613a67577f4e487b7100000000000000000000000000000000000000000000000000000000600052601260045260246000fd5b0492506002810190505b600a8310613a80576001810190505b80915050919050565b828054613a9590614ab4565b90600052602060002090601f016020900481019282613ab75760008555613afe565b82601f10613ad057805160ff1916838001178555613afe565b82800160010185558215613afe579182015b82811115613afd578251825591602001919060010190613ae2565b5b509050613b0b9190613b0f565b5090565b5b80821115613b28576000816000905550600101613b10565b5090565b6000613b3f613b3a84614896565b614871565b905082815260208101848484011115613b5757600080fd5b613b62848285614a72565b509392505050565b6000613b7d613b78846148c7565b614871565b905082815260208101848484011115613b9557600080fd5b613ba0848285614a72565b509392505050565b600081359050613bb781615100565b92915050565b600081359050613bcc81615117565b92915050565b600081359050613be18161512e565b92915050565b600081519050613bf68161512e565b92915050565b600082601f830112613c0d57600080fd5b8135613c1d848260208601613b2c565b91505092915050565b600081359050613c3581615145565b92915050565b600082601f830112613c4c57600080fd5b8135613c5c848260208601613b6a565b91505092915050565b600081359050613c7481615155565b92915050565b600060208284031215613c8c57600080fd5b6000613c9a84828501613ba8565b91505092915050565b60008060408385031215613cb657600080fd5b6000613cc485828601613ba8565b9250506020613cd585828601613ba8565b9150509250929050565b600080600060608486031215613cf457600080fd5b6000613d0286828701613ba8565b9350506020613d1386828701613ba8565b9250506040613d2486828701613c65565b9150509250925092565b60008060008060808587031215613d4457600080fd5b6000613d5287828801613ba8565b9450506020613d6387828801613ba8565b9350506040613d7487828801613c65565b925050606085013567ffffffffffffffff811115613d9157600080fd5b613d9d87828801613bfc565b91505092959194509250565b60008060408385031215613dbc57600080fd5b6000613dca85828601613ba8565b9250506020613ddb85828601613bbd565b9150509250929050565b60008060408385031215613df857600080fd5b6000613e0685828601613ba8565b9250506020613e1785828601613c26565b9150509250929050565b60008060408385031215613e3457600080fd5b6000613e4285828601613ba8565b9250506020613e5385828601613c65565b9150509250929050565b600060208284031215613e6f57600080fd5b6000613e7d84828501613bd2565b91505092915050565b600060208284031215613e9857600080fd5b6000613ea684828501613be7565b91505092915050565b600060208284031215613ec157600080fd5b6000613ecf84828501613c26565b91505092915050565b600060208284031215613eea57600080fd5b600082013567ffffffffffffffff811115613f0457600080fd5b613f1084828501613c3b565b91505092915050565b60008060408385031215613f2c57600080fd5b600083013567ffffffffffffffff811115613f4657600080fd5b613f5285828601613c3b565b925050602083013567ffffffffffffffff811115613f6f57600080fd5b613f7b85828601613c3b565b9150509250929050565b600060208284031215613f9757600080fd5b6000613fa584828501613c65565b91505092915050565b60008060408385031215613fc157600080fd5b6000613fcf85828601613c65565b925050602083013567ffffffffffffffff811115613fec57600080fd5b613ff885828601613c3b565b9150509250929050565b6000806040838503121561401557600080fd5b600061402385828601613c65565b925050602061403485828601613c65565b9150509250929050565b600061404a8383614477565b60208301905092915050565b61405f816149fe565b82525050565b600061407082614908565b61407a8185614936565b9350614085836148f8565b8060005b838110156140b657815161409d888261403e565b97506140a883614929565b925050600181019050614089565b5085935050505092915050565b6140cc81614a10565b82525050565b60006140dd82614913565b6140e78185614947565b93506140f7818560208601614a81565b61410081614bed565b840191505092915050565b60006141168261491e565b6141208185614958565b9350614130818560208601614a81565b61413981614bed565b840191505092915050565b600061414f8261491e565b6141598185614969565b9350614169818560208601614a81565b80840191505092915050565b6000614182602d83614958565b915061418d82614bfe565b604082019050919050565b60006141a5602183614958565b91506141b082614c4d565b604082019050919050565b60006141c8603283614958565b91506141d382614c9c565b604082019050919050565b60006141eb602683614958565b91506141f682614ceb565b604082019050919050565b600061420e602583614958565b915061421982614d3a565b604082019050919050565b6000614231601c83614958565b915061423c82614d89565b602082019050919050565b6000614254602483614958565b915061425f82614db2565b604082019050919050565b6000614277601983614958565b915061428282614e01565b602082019050919050565b600061429a601483614958565b91506142a582614e2a565b602082019050919050565b60006142bd602083614958565b91506142c882614e53565b602082019050919050565b60006142e0601483614958565b91506142eb82614e7c565b602082019050919050565b6000614303601483614958565b915061430e82614ea5565b602082019050919050565b6000614326602983614958565b915061433182614ece565b604082019050919050565b6000614349602e83614958565b915061435482614f1d565b604082019050919050565b600061436c601283614958565b915061437782614f6c565b602082019050919050565b600061438f602083614958565b915061439a82614f95565b602082019050919050565b60006143b2602083614958565b91506143bd82614fbe565b602082019050919050565b60006143d5601883614958565b91506143e082614fe7565b602082019050919050565b60006143f8601283614958565b915061440382615010565b602082019050919050565b600061441b601083614958565b915061442682615039565b602082019050919050565b600061443e602183614958565b915061444982615062565b604082019050919050565b6000614461603d83614958565b915061446c826150b1565b604082019050919050565b61448081614a68565b82525050565b61448f81614a68565b82525050565b60006144a18284614144565b915081905092915050565b60006144b88285614144565b91506144c48284614144565b91508190509392505050565b60006020820190506144e56000830184614056565b92915050565b60006080820190506145006000830187614056565b61450d6020830186614056565b61451a6040830185614486565b818103606083015261452c81846140d2565b905095945050505050565b600060208201905081810360008301526145518184614065565b905092915050565b600060208201905061456e60008301846140c3565b92915050565b6000602082019050818103600083015261458e818461410b565b905092915050565b600060208201905081810360008301526145af81614175565b9050919050565b600060208201905081810360008301526145cf81614198565b9050919050565b600060208201905081810360008301526145ef816141bb565b9050919050565b6000602082019050818103600083015261460f816141de565b9050919050565b6000602082019050818103600083015261462f81614201565b9050919050565b6000602082019050818103600083015261464f81614224565b9050919050565b6000602082019050818103600083015261466f81614247565b9050919050565b6000602082019050818103600083015261468f8161426a565b9050919050565b600060208201905081810360008301526146af8161428d565b9050919050565b600060208201905081810360008301526146cf816142b0565b9050919050565b600060208201905081810360008301526146ef816142d3565b9050919050565b6000602082019050818103600083015261470f816142f6565b9050919050565b6000602082019050818103600083015261472f81614319565b9050919050565b6000602082019050818103600083015261474f8161433c565b9050919050565b6000602082019050818103600083015261476f8161435f565b9050919050565b6000602082019050818103600083015261478f81614382565b9050919050565b600060208201905081810360008301526147af816143a5565b9050919050565b600060208201905081810360008301526147cf816143c8565b9050919050565b600060208201905081810360008301526147ef816143eb565b9050919050565b6000602082019050818103600083015261480f8161440e565b9050919050565b6000602082019050818103600083015261482f81614431565b9050919050565b6000602082019050818103600083015261484f81614454565b9050919050565b600060208201905061486b6000830184614486565b92915050565b600061487b61488c565b90506148878282614ae6565b919050565b6000604051905090565b600067ffffffffffffffff8211156148b1576148b0614bbe565b5b6148ba82614bed565b9050602081019050919050565b600067ffffffffffffffff8211156148e2576148e1614bbe565b5b6148eb82614bed565b9050602081019050919050565b6000819050602082019050919050565b600081519050919050565b600081519050919050565b600081519050919050565b6000602082019050919050565b600082825260208201905092915050565b600082825260208201905092915050565b600082825260208201905092915050565b600081905092915050565b600061497f82614a68565b915061498a83614a68565b9250827fffffffffffffffffffffffffffffffffffffffffffffffffffffffffffffffff038211156149bf576149be614b60565b5b828201905092915050565b60006149d582614a68565b91506149e083614a68565b9250828210156149f3576149f2614b60565b5b828203905092915050565b6000614a0982614a48565b9050919050565b60008115159050919050565b60007fffffffff0000000000000000000000000000000000000000000000000000000082169050919050565b600073ffffffffffffffffffffffffffffffffffffffff82169050919050565b6000819050919050565b82818337600083830152505050565b60005b83811015614a9f578082015181840152602081019050614a84565b83811115614aae576000848401525b50505050565b60006002820490506001821680614acc57607f821691505b60208210811415614ae057614adf614b8f565b5b50919050565b614aef82614bed565b810181811067ffffffffffffffff82111715614b0e57614b0d614bbe565b5b80604052505050565b6000614b2282614a68565b91507fffffffffffffffffffffffffffffffffffffffffffffffffffffffffffffffff821415614b5557614b54614b60565b5b600182019050919050565b7f4e487b7100000000000000000000000000000000000000000000000000000000600052601160045260246000fd5b7f4e487b7100000000000000000000000000000000000000000000000000000000600052602260045260246000fd5b7f4e487b7100000000000000000000000000000000000000000000000000000000600052604160045260246000fd5b6000601f19601f8301169050919050565b7f4552433732313a2063616c6c6572206973206e6f7420746f6b656e206f776e6560008201527f72206f7220617070726f76656400000000000000000000000000000000000000602082015250565b7f546f6b656e206973206120636c6f6e652c206e6f7420616e206f726967696e6160008201527f6c00000000000000000000000000000000000000000000000000000000000000602082015250565b7f4552433732313a207472616e7366657220746f206e6f6e20455243373231526560008201527f63656976657220696d706c656d656e7465720000000000000000000000000000602082015250565b7f4f776e61626c653a206e6577206f776e657220697320746865207a65726f206160008201527f6464726573730000000000000000000000000000000000000000000000000000602082015250565b7f4552433732313a207472616e736665722066726f6d20696e636f72726563742060008201527f6f776e6572000000000000000000000000000000000000000000000000000000602082015250565b7f4552433732313a20746f6b656e20616c7265616479206d696e74656400000000600082015250565b7f4552433732313a207472616e7366657220746f20746865207a65726f2061646460008201527f7265737300000000000000000000000000000000000000000000000000000000602082015250565b7f4552433732313a20617070726f766520746f2063616c6c657200000000000000600082015250565b7f43616e6e6f7420636c6f6e65206120636c6f6e65000000000000000000000000600082015250565b7f496e73756666696369656e742066756e647320746f206d696e7420636c6f6e65600082015250565b7f546f6b656e20646f6573206e6f74206578697374000000000000000000000000600082015250565b7f546f6b656e206973206e6f74206120636c6f6e65000000000000000000000000600082015250565b7f4552433732313a2061646472657373207a65726f206973206e6f74206120766160008201527f6c6964206f776e65720000000000000000000000000000000000000000000000602082015250565b7f45524337323155524953746f726167653a2055524920736574206f66206e6f6e60008201527f6578697374656e7420746f6b656e000000000000000000000000000000000000602082015250565b7f55524c20616c7265616479206578697374730000000000000000000000000000600082015250565b7f4552433732313a206d696e7420746f20746865207a65726f2061646472657373600082015250565b7f4f776e61626c653a2063616c6c6572206973206e6f7420746865206f776e6572600082015250565b7f4552433732313a20696e76616c696420746f6b656e2049440000000000000000600082015250565b7f55524c20646f6573206e6f742065786973740000000000000000000000000000600082015250565b7f496e76616c696420746f6b656e20494400000000000000000000000000000000600082015250565b7f4552433732313a20617070726f76616c20746f2063757272656e74206f776e6560008201527f7200000000000000000000000000000000000000000000000000000000000000602082015250565b7f4552433732313a20617070726f76652063616c6c6572206973206e6f7420746f60008201527f6b656e206f776e6572206f7220617070726f76656420666f7220616c6c000000602082015250565b615109816149fe565b811461511457600080fd5b50565b61512081614a10565b811461512b57600080fd5b50565b61513781614a1c565b811461514257600080fd5b50565b6003811061515257600080fd5b50565b61515e81614a68565b811461516957600080fd5b5056fea26469706673582212204fa4a6c5f7e11e757ca39276ef0faee4687fedec6807ff5ab2eec292cd551a8864736f6c63430008010033",
  "linkReferences": {},
  "deployedLinkReferences": {}
}